:100000000C949D020C94C5020C94C5020C94C5027C
:100010000C94C5020C94C5020C94C5020C94C50244
:100020000C94C5020C94C5020C9426100C94A310D9
:100030000C94C5020C94C5020C94C5020C94C50224
:100040000C94C5020C94C5020C94C5020C94C50214
:100050000C94CF120C94C5020C94C5020C94DC0FC6
:100060000C94C5020C94C5020C94C5020C94C502F4
:100070000C94C5020C94C5020C94C5020C94C502E4
:100080000C94C5020C94C5020C94C5020C94C502D4
:100090000C94C5020C94C5020C94C5020C94C502C4
:1000A0000C94C5020C94C5020C94C502000000001B
:1000B0000000000000000000000000002A002B00EB
:1000C0002800000000000000000000000000000008
:1000D0000000000000000000000000000000000020
:1000E0000000000000000000000000002C001E02C4
:1000F00034022002210222022402340026022702B6
:1001000025022E0236002D003700380027001E0081
:100110001F002000210022002300240025002600CB
:100120003302330036022E00370238021F02040267
:10013000050206020702080209020A020B020C026B
:100140000D020E020F02100211021202130214021B
:10015000150216021702180219021A021B021C02CB
:100160001D022F003100300023022D023500040053
:10017000050006000700080009000A000B000C003B
:100180000D000E000F0010001100120013001400EB
:10019000150016001700180019001A001B001C009B
:1001A0001D002F0231023002350200000000000065
:1001B000000000000000000000000000000000003F
:1001C000000000000000000000000000000000002F
:1001D000000000000000000000000000000000001F
:1001E000000000000000000000000000000000000F
:1001F00000000000000000000000000000000000FF
:1002000000000000000000000000000000000000EE
:1002100000000000000000000000000000000000DE
:1002200000000000000000000000000000000000CE
:1002300000000000000000000000000000000000BE
:1002400000000000000000000000000000000000AE
:10025000000000000000000000000000000000009E
:10026000000000000000000000000000000000008E
:10027000000000000000000000000000000000007E
:10028000000000000000000000000000000000006E
:10029000000000000000000000000000000000005E
:1002A0000000000000000000000000000706050438
:1002B0000100080A0B0C0D0905010906A10105073B
:1002C00019E029E715002501750195088102050C43
:1002D00095017508150026FF00190029FF8100050A
:1002E00008190129089508750191020507950675F9
:1002F00008150026E700190029E78100C00501095B
:1003000002A1010901A1000509190129081500250B
:100310000195087501810205010930093109381577
:1003200081257F750895038106C0C0080B00020275
:100330000200000904000001020200000524001070
:100340000105240101010424020605240600010719
:1003500005810310004009040100020A00000007A3
:100360000502024000000705830240000004030963
:100370000412010002EF0201404F1B0B9200010129
:10038000020301537061726B46756E00434B6E6FD2
:10039000625F312E313300000000000000000000D9
:1003A000000000000000000000000000000000014C
:1003B0000101010101010101010101020202020228
:1003C00002020203030303030304040404050505F6
:1003D0000505060606060707070808080909090AA9
:1003E0000A0A0B0B0B0C0C0D0D0D0E0E0F0F10103F
:1003F00011111212131314141515161617181819B3
:10040000191A1B1B1C1D1D1E1F1F20212222232405
:100410002526262728292A2A2B2C2D2E2F3031322B
:10042000333435363738393A3B3C3D3E3F40414224
:100430004445464748494B4C4D4E505152545556F1
:1004400058595A5C5D5E606163646667696A6C6D89
:100450006F7072737577787A7C7D7F8182848688ED
:10046000898B8D8F91929496989A9C9EA0A2A4A617
:10047000A8AAACAEB0B2B4B6B8BABCBFC1C3C5C707
:10048000CACCCED1D3D5D7DADCDFE1E3E6E8EBEDB9
:10049000F0F2F5F7FAFCFF00000000240027002A24
:1004A000002D003000000000002300260029002C51
:1004B000002F000000000200090F000003040100EB
:1004C0000C00000000000000000000000000000020
:1004D00000050C0901A1018504150026FF03190080
:1004E0002AFF03950475108100C004080201104022
:1004F000804010204080408008020401804020108D
:10050000020110801020404020000000002500283B
:10051000002B002E0031000404040404030405022F
:10052000020202040302020202060606060606048E
:100530000402020204044313851B11241FBECFEFE3
:10054000DAE0DEBFCDBF23E0A4E7B2E001C01D9238
:10055000A537B207E1F712E0A0E0B1E0E2E7FDE382
:1005600002C005900D92A437B107D9F712E0CCE98B
:10057000D2E004C02197FE010E94921CCB39D10722
:10058000C9F70E9497140C94AC1E0C9400008F9233
:100590009F92AF92BF92CF92DF92EF92FF92CF9352
:1005A00020915D0330915E0382179307E8F54B01BC
:1005B000AA24BB24C82DC52ED62EE72EFF24BC2D81
:1005C000A42F20916303222361F0829E4001112415
:1005D000C92D2C9D60011124BD2D249FF0011124F3
:1005E000AF2FE0916903E0906403F09065033091D0
:1005F0006603E31323C09C01220F331F820F931F56
:100600008E0D9F1DE0916603E80FF92FF11DC08349
:10061000E0916703E80FF92FF11DB0832091680383
:10062000820F911DFC01A083CF91FF90EF90DF908E
:10063000CF90BF90AF909F908F900895880F991F93
:10064000880F991F8E0D9F1D472F552766277727E7
:10065000222349F030E0249F7001259FF00C349F45
:10066000F00C11244F2DE80FF92FF11D4083CACF54
:1006700083E08093E9008091F200882319F08AE3F7
:100680008093E8000895FC018091A502882311F170
:100690003FB7F89482E08093E9002091F200822F26
:1006A00090E01816190614F481E090E0882339F0E0
:1006B000289844E64093A4024091F100408322230D
:1006C00039F02091F200211103C02BE62093E800BD
:1006D0003FBF08958FEF9FEF0895DC01FB01129655
:1006E0002C911297848195812817190641F49181E4
:1006F0008081813A31F49D7F81E0913009F080E082
:1007000008958132E1F79B3029F482811F968C9302
:1007100081E008959A3099F7828150968C93F8CFB2
:10072000DC01FB0188E4808389E4818384E48283A3
:100730001D969C911D979F709F5B93831D968D9135
:100740009C9124E0969587952A95E1F78F708F5BB1
:10075000848385E0089581508F3008F047C0E82FEA
:10076000F0E0EB54FC4F0C94921CD203D603C4036C
:10077000CA03CE03F603F603F603D903DF03E3034C
:10078000E703ED03F603F103809180008F778093F8
:1007900080000895809180008F7DF9CF8091800046
:1007A000877FF5CF84B58F7784BD089584B58F7D1D
:1007B000FBCF809190008F77809390000895809177
:1007C00090008F7DF9CF80919000877FF5CF809149
:1007D000C0008F778093C00008958091C0008F7D06
:1007E000F9CF8091C200877F8093C2000895CF9394
:1007F000DF93282F30E0F901ED54FB4F8491F9018C
:10080000E651FB4FD491F901E95EFA4FC491CC2334
:1008100091F081110E94AB03EC2FF0E0EE0FFF1F6F
:10082000E75FFA4FA591B4918FB7F894EC91D0950A
:10083000DE23DC938FBFDF91CF910895CF93DF93B9
:10084000282F30E0F901ED54FB4F8491F901E65176
:10085000FB4FD491F901E95EFA4FC491CC23A1F08A
:1008600081110E94AB03EC2FF0E0EE0FFF1FEB5560
:10087000FB4FA591B491EC91ED2381E090E009F458
:1008800080E0DF91CF91089580E090E0FACFCF93A0
:10089000DF9390E0FC01E651FB4F2491895E9A4F73
:1008A000FC0184918823C9F090E0880F991FFC0116
:1008B000E956FB4FA591B491FC01E75FFA4FC59152
:1008C000D49161110DC09FB7F8948C91209582232B
:1008D0008C938881282328839FBFDF91CF9108952F
:1008E000623051F49FB7F8943C91822F8095832316
:1008F0008C93E8812E2BEFCF8FB7F894EC912E2BB1
:100900002C938FBFEACF3FB7F8948091A0029091CB
:10091000A102A091A202B091A30226B5A89B05C096
:100920002F3F19F00196A11DB11D3FBFBA2FA92F6E
:10093000982F8827BC01CD01620F711D811D911D6B
:1009400042E0660F771F881F991F4A95D1F70895D7
:100950000F931F93CF93DF93CDB7DEB729970FB6D1
:10096000F894DEBF0FBECDBF809164039091650304
:10097000892B09F47CC00E94830400916A031091C2
:100980006B0320916C0330916D0360177107820730
:10099000930740F460936A0370936B0380936C0336
:1009A00090936D0300916A0310916B0320916C0387
:1009B00030916D03601B710B820B930B6C32714095
:1009C00081059105C0F2F89480915F0390916003D6
:1009D0009A838983E0916403F0916503DF011196A6
:1009E0008081898790915B03E0916E03F0916F03A2
:1009F00080917003992309F445C09081982B9887C2
:100A00009081809589238F838F818C8388E08B836D
:100A100058856F8149853B812C8189819A815083DA
:100A200047FD252F3A952083262F39F0441F00C01B
:100A300000006083000000C0F2CF38E04D91608379
:100A40000000019761F7F0936F03E0936E0349870D
:100A50003B832C839A83898378940E9483046093D8
:100A60006A0370936B0380936C0390936D032996D4
:100A70000FB6F894DEBF0FBECDBFDF91CF911F91AF
:100A80000F9108959081982B988790818095892364
:100A90008F838F818E8388E08D8358856F81498510
:100AA0003D812E8189819A81508347FD252F00C089
:100AB00000C0208300C000C000C000C000C0608330
:100AC0000000262F3A9541F0441F000000C000C0EE
:100AD00000C000C000C0E8CF38E04D9100C0608386
:100AE00000C0019709F7F0936F03E0936E03498705
:100AF0003D832E83AFCF8F929F92AF92BF92CF92C2
:100B0000DF92EF92FF924B015C010E9483046B0124
:100B10007C010E9483046C197D098E099F09683E3F
:100B2000734081059105A8F321E0821A9108A1087C
:100B3000B10888EEC80E83E0D81EE11CF11C8114B8
:100B40009104A104B10429F7FF90EF90DF90CF90BA
:100B5000BF90AF909F908F9008952FB7F8946091B9
:100B60009C0270919D0280919E0290919F022FBFE6
:100B700008950C94380308954091820250918302A5
:100B8000209180023091810242175307B4F4909172
:100B9000E8009570E1F39091E80092FD19C0809310
:100BA000F100809182029091830201968F739927C0
:100BB000892B19F48EEF8093E80080918202909146
:100BC00083020196909383028093820281E00895CC
:100BD00080E00895DF92EF92FF920F931F93CF93DF
:100BE000DF93D82E8A01EB017B01E40EF51ECE15B2
:100BF000DF0559F0D7FE12C0FE0184910E94BC05AA
:100C000021968111F4CF0FEF1FEFC801DF91CF9133
:100C10001F910F91FF90EF90DF9008958881EECFA4
:100C2000EF92FF920F931F93CF93DF93FB012081ED
:100C3000213871F52381223259F5DC0112964C914D
:100C4000248135814217130619F5EC010B851C85AB
:100C5000F12CE12C0115110589F0F8014481558131
:100C60006281738180E80E94EA058F3F980749F00E
:100C7000E80EF91ED8010D911C91ECCF81E08F8711
:100C8000C701DF91CF911F910F91FF90EF900895D1
:100C900090E080E0F6CFCF93DF93CDB7DEB76997D2
:100CA0000FB6F894DEBF0FBECDBFFC01DB018C9107
:100CB0008F5F8C939E012D5F3F4F8DE0D9011D9278
:100CC0008A95E9F729E0298384E08A8391E09D836E
:100CD00083E08E832A8721E22B879C879D879F87CD
:100CE00022E2288B27E02B8B25E02C8B8E8B20E4B7
:100CF00030E0388F2F8B998F82818B839585868505
:100D0000998B8A8B838180688D8B49E150E0BE018D
:100D10006F5F7F4F80E00E94EA0569960FB6F894F6
:100D2000DEBF0FBECDBFDF91CF9108952FB7F894EE
:100D300087708093E9009091E800892F807295FF79
:100D400004C09091F20080E4891B2FBF08957F9228
:100D50008F929F92AF92BF92CF92DF92EF92FF92CB
:100D60000F931F93CF93DF93C82E8B017A0180914D
:100D7000A502811110C08FEF9FEFDF91CF911F91DE
:100D80000F91FF90EF90DF90CF90BF90AF909F902A
:100D90008F907F9008958091860280FF05C080919A
:100DA000E00082608093E000CE2DDF2DD12C8AEF11
:100DB000B82E8C2D8770982E8C2D8072882E8C2DBD
:100DC0008074782E9AE3A92E209719F4DD2009F477
:100DD00052C08C2D0E94960681110AC0BA94BB2085
:100DE00051F261E070E080E090E00E947B05ECCF82
:100DF0008C171D0611F00CF08C2F9FB7F894909271
:100E0000E9002091E80025FD02C09FBFDDCF282F1B
:100E100030E0C21BD30B882029F08150A0F0109243
:100E2000F100FBCFF801C7FC0AC0815050F041919E
:100E30004093F100FACF44914093F10031968150F4
:100E4000D0F7020F131FDD2021F0A092E800D12C73
:100E5000DCCF8091E80085FD07C0A092E800DD248A
:100E6000D394209791F2F3CF209779F6772069F207
:100E7000A092E800CACF5D9884E680938502C701FE
:100E80007CCF615030F02091F100FC01208301966D
:100E9000F8CF289884E68093A4020895AF92BF9279
:100EA000DF92EF92FF920F931F93CF93DF935C013A
:100EB0008B01EB019BEFD92E2097C1F07E01C1344D
:100EC000D1051CF080E4E82EF12C8091E80082FF2F
:100ED000FCCFC8018C1B9D0B6E2D8A0D9B1D0E94A3
:100EE0004107D092E800CE19DF09E6CFC801DF91B3
:100EF000CF911F910F91FF90EF90DF90BF90AF9037
:100F00000895AF92BF92CF92DF92EF92FF920F932C
:100F10001F93CF93DF936C017B018B01040F151F8F
:100F2000EB015E01AE18BF08C017D10759F06991F7
:100F3000D601ED91FC910190F081E02DC60109955B
:100F4000892B79F7C501DF91CF911F910F91FF9008
:100F5000EF90DF90CF90BF90AF900895809178028E
:100F600081110DC082E08093740284E08093750249
:100F7000109277021092760281E08093780284E7E3
:100F800092E008950F931F93CF93DF931F92CDB7F5
:100F9000DEB782E0898342E450E06BE273E080E8F0
:100FA0000E94EA050E94AE07DC0112960D911C9189
:100FB0000115110589F0D801ED91FC910280F381B2
:100FC000E02DBE016F5F7F4FC801099597FD04C0FA
:100FD000F80100851185ECCF89810F90DF91CF91C9
:100FE0001F910F910895CF93DF93FC01DB01818165
:100FF00014963C911497682F630F7727771F6830FA
:1010000071059CF5C281D381209739F5B383A28302
:10101000908112969C93129713968C931397159622
:101020008C911597890F808390E080E0831708F5F5
:101030002181C22FD0E0BE0160507F4F16964D91A6
:101040005C911797480F591FEA014881EB014883CB
:101050002F5F21830196EACFEA0148855985411522
:101060005105D1F7B987A887D3CF80E0DF91CF9121
:10107000089581E0FBCFCF93DF93EC0180911201C3
:10108000882331F083E00E94A7061816190634F071
:1010900081E090E09B838A8380E090E0DF91CF91B4
:1010A0000895CF93DF931F92CDB7DEB76983DC013C
:1010B000ED91FC910280F381E02D41E050E0BE0112
:1010C0006F5F7F4F09950F90DF91CF91089583E077
:1010D0000E94960690E00895CF93DF931F92CDB7BC
:1010E000DEB7FC018485958597FD08C02FEF3FEFA3
:1010F000358724870F90DF91CF910895CE01019617
:101100000E944303019719F4898190E0F3CF8FEF98
:101110009FEFF0CF0F931F930E94AD056093AE0237
:101120007093AF028093B0029093B10286EA92E08E
:101130000E946C0897FF1DC00E94AD050091AE0291
:101140001091AF022091B0023091B102601B710B7F
:10115000820B930B0091AA021091AB022091AC027A
:101160003091AD026017710782079307F8F28FEF95
:101170009FEF1F910F9108950F931F93CF93DF93CC
:101180001F92CDB7DEB78C01FC018485958597FF52
:101190000BC0CE0101960E944303019771F489812F
:1011A00090E0F80195878487F801848595850F90F4
:1011B000DF91CF911F910F9108958FEF9FEFF1CFA6
:1011C000FC018485958597FD0BC09FB7F89482E05C
:1011D0008093E9008091F2009FBF90E0019608950E
:1011E0009FB7F89482E08093E9008091F2009FBF5E
:1011F00090E008950895FC01DB01228114968D9101
:101200009C9115972817190609F511968C9111973D
:101210009C91913A69F4813029F0833029F48685D4
:101220008093F10081E00895823081F48785F8CFC2
:10123000913261F48B3021F412968C918687F2CF33
:101240008A3021F413968C918787ECCF80E0089543
:10125000CF93DF93CDB7DEB729970FB6F894DEBFF3
:101260000FBECDBFFC014281FB01248135814217B5
:10127000130659F52081213841F523812132D1F41B
:1012800089E0EDE1F1E0DE01119601900D928A9581
:10129000E1F749E050E0BE016F5F7F4F80E00E94C0
:1012A000EA0529960FB6F894DEBF0FBECDBFDF91D9
:1012B000CF910895223249F421E0FC0126874EE2C5
:1012C00050E06DEF72E080E8EACF90E080E0E9CF97
:1012D000CF93DF93CDB7DEB769970FB6F894DEBF33
:1012E0000FBECDBFFC01DB019C919F5F9C939E01D3
:1012F0002D5F3F4F81E1D9011D928A95E9F729E0E1
:10130000298384E08A8391E09D8383E08E839F8399
:1013100032E038872A8721E22B879C879D879F8729
:1013200022E2288B2EE2298B27E02B8B25E02C8BC9
:101330008E8B20E430E0388F2F8B998F82818B83C6
:10134000838180688D8B49E150E0BE016F5F7F4FE4
:1013500080E00E94EA0569960FB6F894DEBF0FBEE2
:10136000CDBFDF91CF910895CF93DF93EC01FB01C7
:101370002A81848195812817190609F04BC0818143
:101380009081913A79F4813029F0833039F48F8952
:101390008093F10081E0DF91CF9108958230D1F503
:1013A000888DF6CF9132B1F58B3019F482818F8B15
:1013B000F1CF8A3019F48381888FECCF893051F5D1
:1013C000668177818381833079F48C8D9D8D681758
:1013D000790701F58A8D9B8D0E944E078C8D9D8D1E
:1013E00090689D8F8C8FD6CF823051F4613071051B
:1013F00089F461E070E0CE0149960E944E07CACFA1
:10140000813041F46830710529F468E070E0CE0164
:101410000E96F3CF80E0BFCFCF93DF93CDB7DEB78B
:1014200029970FB6F894DEBF0FBECDBFFC014281F5
:10143000FB01248135814217130659F5208121389B
:1014400041F523812132D1F489E0E6E2F1E0DE01C9
:10145000119601900D928A95E1F749E050E0BE01A6
:101460006F5F7F4F80E00E94EA0529960FB6F894DF
:10147000DEBF0FBECDBFDF91CF910895223249F478
:1014800021E0FC01278B45E450E068EB72E080E846
:10149000EACF90E080E0E9CFCF93DF93CDB7DEB71E
:1014A00069970FB6F894DEBF0FBECDBFFC01DB011C
:1014B0009C919F5F9C939E012D5F3F4F81E1D901DD
:1014C0001D928A95E9F729E0298384E08A8391E0D7
:1014D0009D8383E08E839F8398872A8721E22B87D1
:1014E0009C879D879F8722E2288B25E4298B27E014
:1014F0002B8B25E02C8B8E8B20E430E0388F2F8BCC
:10150000998F82818B83838180688D8B49E150E044
:10151000BE016F5F7F4F80E00E94EA0569960FB6BB
:10152000F894DEBF0FBECDBFDF91CF910895FC01CF
:101530009C01285F3F4F90E080E04481411101967B
:1015400014823196E217F307C1F70895FC018281F6
:101550008F5BFB01808381E0089590E080E0089537
:10156000CF92DF92EF92FF921F93CF93DF931F9260
:10157000CDB7DEB77B016A018091350381112CC0A4
:1015800011E010932803109329038EE293E09093C7
:101590002B0380932A0310922D0310922C0389E7CA
:1015A00091E09093250380932403109230031092CE
:1015B0002F031092320310923103109333031093D0
:1015C000340381EC80932E030E94AE0764E273E043
:1015D0000E94F3071093350384E0898341E050E0D3
:1015E000BE016F5F7F4F809127030E94A70697FD82
:1015F00007C080912703A601B70180640E94A70657
:101600000F90DF91CF911F91FF90EF90DF90CF90DF
:101610000895CF93DF93EC01EDE4F3E090E080E0F8
:10162000219131910196232B41F5880F991FFC01DF
:10163000E55BFC4FD183C08348E050E06DE473E08C
:101640008BE493E00E94B00AEBE4F3E083E593E0DF
:1016500022813381C217D30711F41382128232968A
:101660008E179F07A9F748E050E06DE473E08BE424
:1016700093E0DF91CF910C94B00A8430910581F60C
:10168000DBCFCF93DF93C0915D03D0915E032197B1
:10169000D7FD0FC040E050E0BA01CE010E94C70262
:1016A0000E94A80462E370E080E090E00E947B0565
:1016B000EECFD0E0C0E080915D0390915E03C8174B
:1016C000D907E0F480918E0240918C0250E070E0E6
:1016D00060E0762F652F542F4427682B80918A0273
:1016E000482BCE010E94C7020E94A80462E370E06A
:1016F00080E090E00E947B052196DDCFDF91CF91C5
:101700000895CF92DF92EF92FF920F931F93CF93A2
:10171000DF93C0919902D0919A02888187FD48C0D9
:10172000998197FD45C09B85992361F029853A856C
:10173000225031093A87298729853A8537FF02C027
:101740001A8619860E941E042B8110E0281719069C
:1017500009F413E089810E941E042B8128171906C1
:1017600011F481E018278E819F81811B80FF81C049
:10177000212F110F330B3F832E832C813D818270EB
:10178000082E000C990B0197820F931F9D838C8369
:1017900081E09B85992361F0882351F089859A85A2
:1017A000883E9B4028F489859A8549969A8789873F
:1017B0000E94AD050A8D1B8D2C8D3D8D6017710724
:1017C0008207930720F41A8E1B8E1C8E1D8E4A8171
:1017D000141634F041118EC02889222309F48AC0DE
:1017E0000A8D1B8D2C8D3D8D6B017C01C01AD10A99
:1017F000E20AF30A970186010A3011052105310535
:1018000008F478C06A8F7B8F8C8F9D8F2989E42F95
:10181000222389F1423108F0E251F0E0E455FD4F16
:10182000E49190917B008E2F880F880F80729F7DAE
:10183000892B80937B00E770E064E0937C008091CB
:101840007A00806480937A0080917A0086FDFCCFD4
:1018500080917800909179004E8D5F8D8417950767
:1018600084F021E048A159A14817590754F020E01D
:1018700008C080E08ECF842F0E941E0421E0892BB7
:10188000B1F33B81321315C0EA89FB893196FB8B9A
:10189000EA8B8E899F896AE070E00E943D1C6E177A
:1018A0007F0738F48F85882321F083E090E09D87BF
:1018B0008C8781E03827321310C08A899B89029770
:1018C00050F08C859D850397F1F484E090E09D872E
:1018D0008C871D8A1C8A1B8A1A8A8C899D8900978D
:1018E00049F001979D8B8C8B892B21F485E090E04A
:1018F0009D878C87DF91CF911F910F91FF90EF9083
:10190000DF90CF9008952C893D892230310560F019
:10191000888D998D6AE070E00E943D1C261737077C
:10192000D0F686E090E0D3CF8E8561E070E088232A
:1019300031F0888D998D6AE070E00E943D1C7D8BAE
:101940006C8BC9CFCF93DF93DC0190E2960F983078
:10195000B0F414968C91149721E030E001C0220F6E
:101960009A95EAF7442341F0282B14962C9381E0B2
:1019700090E0DF91CF91089520952823F6CFFD01C7
:1019800036964423D1F0CD010C96EF0129916217D0
:1019900071F3C817D907D1F790E080E021912111A8
:1019A00005C0A80FB91F16966C93E1CF019686303B
:1019B0009105A1F790E080E0DCCF90E080E02191FC
:1019C000621305C0A80FB91F16961C92D0CF0196BE
:1019D00086309105A1F7EECFCF93DF9341E0682FDA
:1019E00080E193E00E94A20CEC01892B21F080E1C0
:1019F00093E00E944013CE01DF91CF910895CF93E1
:101A0000DF9340E0682F80E193E00E94A20CEC019C
:101A1000892B21F080E193E00E944013CE01DF91F9
:101A2000CF910895CF92DF92FF920F931F93CF93A0
:101A3000DF938C01F42EE62FF0E0EE0FFF1FE4554C
:101A4000FF4FC590D490D801ED91FC910484F585A9
:101A5000E02D6C2DC8010995EC01892B11F4F110D2
:101A600070C0D0FE0CC0D801ED91FC910484F585C6
:101A7000E02D4F2D60EEC8010995C82BD92BD1FE62
:101A80000CC0D801ED91FC910484F585E02D4F2D1B
:101A900061EEC8010995C82BD92BD2FE0CC0D80124
:101AA000ED91FC910484F585E02D4F2D62EEC80187
:101AB0000995C82BD92BD3FE0CC0D801ED91FC9110
:101AC0000484F585E02D4F2D63EEC8010995C82BE0
:101AD000D92BD4FE0CC0D801ED91FC910484F5857E
:101AE000E02D4F2D64EEC8010995C82BD92BD5FEEA
:101AF0000CC0D801ED91FC910484F585E02D4F2DAB
:101B000065EEC8010995C82BD92BD6FE0CC0D801AB
:101B1000ED91FC910484F585E02D4F2D66EEC80112
:101B20000995C82BD92BD7FE0CC0D801ED91FC919B
:101B30000484F585E02D4F2D67EEC8010995C82B6B
:101B4000D92BCE01DF91CF911F910F91FF90DF90A4
:101B5000CF9008950F931F93CF93DF93EC0140E054
:101B60000E94120D8C01892B39F0E881F9810284E1
:101B7000F385E02DCE010995C801DF91CF911F912A
:101B80000F9108950F931F93CF93DF93EC0141E0E2
:101B90000E94120D8C01892B39F0E881F9810284B1
:101BA000F385E02DCE010995C801DF91CF911F91FA
:101BB0000F910895FF920F931F93CF93DF938C01A2
:101BC000F62E0E94C20DEC01892B21F06F2DC80169
:101BD0000E94AA0DCE01DF91CF911F910F91FF902E
:101BE0000895CF93DF93EC0188819981009711F0DC
:101BF0000E94341D198218821D821C821B821A8247
:101C0000DF91CF910895FC0180819181009711F0BF
:101C10000C94341D08952091590330915A03232BBD
:101C200039F421E0FC018081882361F020E00AC0C2
:101C3000BC0180915503909156030E948E1E21E0B5
:101C4000892BA1F7822F0895CF93DF93FC01248184
:101C500035816217730788F49B01C081D1816CE2E2
:101C600070E0CE01820F931F0E94831E009729F01F
:101C70008C1B9D0BDF91CF9108958FEF9FEFFACFD3
:101C8000FC0101900020E9F73197AF01481B590B87
:101C9000BC0186EA92E00C943B08CF93DF93D0E03E
:101CA000C0E0009719F00E94400EEC0187E891E037
:101CB0000E94400E8C0F9D1FDF91CF9108950C94D0
:101CC000400E8F929F92AF92BF92CF92DF92EF928F
:101CD000FF920F931F93CF93DF93CDB7DEB7A197FA
:101CE0000FB6F894DEBF0FBECDBF6C01990FEE08A2
:101CF000FF08F7FE41C06DE286EA92E00E945108BB
:101D00008C0122273327A9012C193D094E095F09AF
:101D100019A2CE0181967C019AE0892E912CA12CEA
:101D2000B12CCA01B901A50194010E94511C605D4A
:101D3000F70162937F01211531054105510589F7AE
:101D400090E080E0309719F0CF010E94400E800FA4
:101D5000911FA1960FB6F894DEBF0FBECDBFDF91E5
:101D6000CF911F910F91FF90EF90DF90CF90BF9098
:101D7000AF909F908F900895A701960119A28E01B0
:101D80000F5D1F4F8AE0C82ED12CE12CF12CCA0127
:101D9000B901A70196010E94511C605DF801629390
:101DA0008F01211531054105510589F790E080E04B
:101DB000309779F2CF010E94400ECBCFFC01808199
:101DC0009181009711F00C94991B60E070E0CB01B9
:101DD0000895FB0144815581FC012481358124173C
:101DE000350778F080819181009759F0FB0160817F
:101DF00071816115710529F00E949E1E21E0892BD9
:101E000009F020E0822F08950F931F93CF93DF9363
:101E1000EC0188819981009759F02A813B8126172E
:101E2000370730F081E0DF91CF911F910F91089536
:101E30008B016F5F7F4F0E94BD1D009759F0998302
:101E400088831B830A832C813D81232B59F7FC0156
:101E50001082E8CF80E0E7CFEF92FF920F931F93BD
:101E6000CF93DF93EC017B018A01BA010E94040F3A
:101E700081110BC0CE010E94F10DCE01DF91CF91F7
:101E80001F910F91FF90EF9008951D830C83B70170
:101E9000888199810E94971EF0CFFB01019000205C
:101EA000E9F73197AF01461B570B0C942C0FFC013F
:101EB000118210821382128215821482FB0101901A
:101EC0000020E9F73197AF01461B570B0C942C0FFC
:101ED000AF92BF92CF92DF92EF92FF920F931F9338
:101EE000CF93DF936C015B017A01890124173507D9
:101EF00020F48F2D7901042F182F69E871E0C601B5
:101F00000E94570FD5011496CD91DC91EC16FD0679
:101F1000E0F40C171D0708F4E801D501ED91FC91E0
:101F20001197EC0FFD1F108110826D917C916E0D49
:101F30007F1DC60161157105A1F00E944D0FF501CD
:101F400080819181C80FD91F1883C601DF91CF917D
:101F50001F910F91FF90EF90DF90CF90BF90AF90C7
:101F600008950E94F10DEBCF0C94E91BFF920F93A3
:101F70001F93CF93DF93EC018B01FB01F0800E9454
:101F8000E11BF81621F06F2DCE010E94E91BF8012C
:101F9000F1802196CE010E94E11BF81621F06F2DF1
:101FA000CE010E94E91BC801DF91CF911F910F91D3
:101FB000FF9008950C94E11B1F920F920FB60F92A1
:101FC00011242F933F938F939F93AF93BF9380914F
:101FD0009C0290919D02A0919E02B0919F0230912F
:101FE0009B0223E0230F2D3758F50196A11DB11D4B
:101FF00020939B0280939C0290939D02A0939E024B
:10200000B0939F028091A0029091A102A091A202A0
:10201000B091A3020196A11DB11D8093A0029093DF
:10202000A102A093A202B093A302BF91AF919F918E
:102030008F913F912F910F900FBE0F901F90189589
:1020400026E8230F0296A11DB11DD2CF1F920F9239
:102050000FB60F9211242F933F934F935F936F937B
:102060007F938F939F93AF93BF93CF93EF93FF9300
:10207000C091E1008091E100837F8093E100C3FF84
:102080000FC01092E90081E08093EB001092EC0009
:1020900082E38093ED001092A50288E08093F00027
:1020A000C2FF1AC00E94380380918502882341F044
:1020B00080918502815080938502811101C05D9AD3
:1020C0008091A402882341F08091A40281508093E2
:1020D000A402811101C0289AC4FF23C08091E200AC
:1020E0008E7E81608093E2008091E1008F7E8093FC
:1020F000E100809186028E7E806180938602FF914E
:10210000EF91CF91BF91AF919F918F917F916F91FF
:102110005F914F913F912F910F900FBE0F901F90A5
:102120001895C0FFECCF8091E2008E7E8061809395
:10213000E2008091E1008E7E8093E1008091860232
:102140008E7E8160DACF1F920F920FB60F9211240C
:10215000CF92DF92EF92FF920F931F932F933F93B3
:102160004F935F936F937F938F939F93AF93BF939F
:10217000EF93FF93CF93DF93CDB7DEB76C97DEBFBE
:10218000CDBF1092E9008091E80083FF25C068E090
:10219000CE0145960E94410782EF8093E8008D8929
:1021A00087FF39C09091E80090FFFCCF982F907680
:1021B00009F034C19E894F89588D2F89F88C91116F
:1021C00031C0803861F5809187028093F1001092D0
:1021D000F1008EEF8093E8006C960FB6F894DEBFA6
:1021E0000FBECDBFDF91CF91FF91EF91BF91AF9126
:1021F0009F918F917F916F915F914F913F912F911F
:102200001F910F91FF90EF90DF90CF900F900FBE36
:102210000F901F9018959EEF9093E800C7CF1092F3
:10222000F100D5CF913059F48111D3CF4130510510
:1022300081F6809187028D7F80938702CACF933089
:1022400049F48111C6CF4130510519F680918702BA
:102250008260F2CF953041F48091E80080FFFCCF9E
:1022600020682093E300B5CF963009F0A9C00B8D0C
:102270001C8D22E01092E9001092830210928202DB
:10228000F2122EC010928102109280020E94C207A8
:102290001F8299E09983FA8291E09E8390EA988761
:1022A0009AEF99872091820230918302275F3F4FF6
:1022B0003C832B838D831092E9001092830210924D
:1022C0008202109381020093800249E050E0BE0137
:1022D0006F5F7F4F80E00E94EA050E94C20779CFBE
:1022E00010938102009380020E94AE07DC011296D7
:1022F0000D911C910115110509F44BC1D801ED9107
:10230000FC910480F581E02DBE016B5E7F4FC8011A
:102310000995009709F038C1F80100851185EACFC9
:10232000F3E0FF120EC08F89882309F440C0823089
:1023300061F440E86AE08CE893E00E94F6128111B3
:1023400048CF81E28093EB0047CF813029F440E809
:1023500068E083E893E0F1CF833099F70E94AE07FD
:10236000DC011296ED90FC908E010F5F1F4F68010B
:10237000E114F10479F0D701ED91FC910680F78129
:10238000E02DB801C7010995080F111DF701E08480
:10239000F184EECFD8011C92F60101900020E9F7FC
:1023A0003197BF016C197D0940E0C601C6CF6DE6CB
:1023B00073E0FB01449150E080E80E94EA0509CFF8
:1023C000973009F4BECF983021F481E08093F1007A
:1023D00000CF993009F0FDCE837009F0B2CFE1E073
:1023E000F1E081E031E096E32191222371F08093C6
:1023F000E9003093EB00DF0111972C912093EC0062
:102400009093ED008F5F873079F78EE78093EA0035
:102410001092EA008F898093A502DBCE8B8D9C8D74
:102420001092E9001092830210928202909381022E
:1024300080938002898D81118CC08E899D89913A0B
:1024400049F4813209F07DCF47E050E06BE071E064
:1024500080E0B3CF913209F074CF833269F48F8971
:10246000988DB0E0A0E08093070190930801A093BD
:102470000901B0930A01ADCE803239F467E070E013
:102480008BE091E00E944E07A4CE823209F0A1CEEB
:102490008F8980931201EEEFFFE7859194918B3F36
:1024A0009C4D51F1E0E0F8E080910B0190910C011E
:1024B000A0910D01B0910E01803B9440A105B105A2
:1024C000F1F48091120180FD1AC0EE3F8AE0F80716
:1024D00089F587E797E791838083809160008093F7
:1024E000840288E19BE00FB6F894A8958093600081
:1024F0000FBE909360006DCEEEEFFAE0D5CF8081F5
:1025000091818737974709F064CEA8958091600044
:102510008861809360008091840280936000EE3F28
:102520002AE0F20789F08091FE0A9091FF0A9183D8
:1025300080834FCE808191818737980751F29093A5
:10254000FF0A8093FE0AC5CF1092FF0A1092FE0A7E
:1025500040CE0E94AE07DC0112960D911C91011530
:10256000110509F4EECED801ED91FC910190F081B6
:10257000E02DBE016B5E7F4FC8010995811129CE08
:10258000F80100851185EBCF181619060CF421CE41
:10259000D8CEF1E0FF12C4CE61E773E00ACF1F92FC
:1025A0000F920FB60F9211242F933F934F935F9387
:1025B0006F937F938F939F93AF93BF93EF93FF930B
:1025C000E0911301F09114010995FF91EF91BF91F2
:1025D000AF919F918F917F916F915F914F913F91BB
:1025E0002F910F900FBE0F901F901895EF92FF92B2
:1025F0000F931F93CF93DF93F82E192FE62E042FFE
:1026000081E0860F880F0E94BC0583E00E94BC0514
:10261000CF2DD12FEC0EFD2EF11CCE15DF05B9F01C
:1026200007FF13C0FE0184910E94BC05182F80E0B3
:102630000E94BC05812321968111EFCFDF91CF91BC
:102640001F910F91FF90EF9008958881EDCF81E069
:10265000F5CFFC01838180649685911102C043E02F
:1026600050E00C94A7060A970C942913BC01625FF2
:102670007F4FFC01838148E050E080640C94A70602
:102680000A970C943613CF93DF931092A9021092FD
:10269000A80288EE93E0A0E0B0E08093AA029093B5
:1026A000AB02A093AC02B093AD0283E391E09093B0
:1026B000A7028093A6028FEF9FEF9093B3028093BF
:1026C000B202C1E0C093FA02C093FB0283E093E040
:1026D0009093FD028093FC021092FF021092FE0282
:1026E0001092020385E491E09093F7028093F60242
:1026F00083E591E09093010380930003C09304036A
:10270000C0930503D1ECD09303030E94AE0766EF9C
:1027100072E00E94F307C0930A03C0930B038CE19D
:1027200093E090930D0380930C0310920F0310928B
:102730000E03109213031092120389E591E0909317
:1027400007038093060387E691E09093110380933B
:102750001003C0931D03C0931E0310921F03109219
:102760002103109220031092230310922203D0938E
:102770001C030E94AE0766E073E00E94F30785E841
:1027800091E090934C0380934B038091430381111C
:1027900012C010923E0310923D0381ED94E090939D
:1027A000400380933F0389E190E09093420380933C
:1027B0004103C09343038091350381112CC0C1E0D4
:1027C000C0932803C09329038EE293E090932B03D8
:1027D00080932A0310922D0310922C0389E791E035
:1027E00090932503809324031092300310922F03BB
:1027F0001092320310923103C0933303C093340319
:1028000081EC80932E030E94AE0764E273E00E9485
:10281000F307C0933503E0912F03F0913003309715
:1028200009F073C08DE393E09093300380932F03FE
:102830008091310390913203209141033091420302
:10284000820F931F909332038093310310925C03A5
:102850001092630310926A0310926B0310926C0340
:1028600010926D0381E08093690380936603109258
:10287000670392E09093680380935B0384E290E0A7
:102880009093600380935F030E94981C909365036C
:1028900080936403009709F441C024E2FC01119283
:1028A0002A95E9F78CE090E090935E0380935D03B6
:1028B00089E090E0909362038093610380915C03D0
:1028C000882339F061E089E00E94470489E00E9492
:1028D000F703E0E2F5E0E491F0E0EE0FFF1FE75FC1
:1028E000FA4F8591949190936F0380936E03E3EF79
:1028F000F4E0E491E09370036AE871E085E593E029
:10290000DF91CF910C94570FFC018081918100974A
:10291000D9F78DE393E0918380838ACF109260038F
:1029200010925F0310925E0310925D03C1CFCF93AC
:10293000DF93CDB7DEB7A2970FB6F894DEBF0FBE18
:10294000CDBF789484B5826084BD84B5816084BD38
:1029500085B5826085BD85B5816085BD80916E003D
:10296000816080936E00109281008091810082606E
:1029700080938100809181008160809381008091AB
:1029800080008160809380008091910082608093BC
:1029900091008091910081608093910080919000DE
:1029A0008160809390008091C10084608093C10019
:1029B0008091C10082608093C1008091C1008160DC
:1029C0008093C1008091C30081608093C300809197
:1029D000C00082608093C0008091C20081608093BB
:1029E000C20080917A00846080937A0080917A009E
:1029F000826080937A0080917A00816080937A006F
:102A000080917A00806880937A001092A5021092DB
:102A10008702109286028091D70081608093D70050
:102A200080EA8093D80089B5806189BD89B58260CC
:102A300089BD09B400FEFDCF61E070E080E090E068
:102A40000E947B058091D8008F7C80618093D800A4
:102A50008091E000807F8093E0008091E1008E7E95
:102A60008093E1008DE08093E200559A209AEDE496
:102A7000F3E088E0DF011D928A95E9F748E050E035
:102A8000BF018BE493E00E94B00A0E9438038FEFED
:102A90009FEF9093B3028093B2028AEA91E00E9482
:102AA0004D0E62E084E10E94470462E083E10E94EF
:102AB000470462E082E10E94470490E080E00E94C7
:102AC000DA0F90E090938902809388028CE390E083
:102AD0000E94DA0F082F10E01093160100931501E1
:102AE0008AE490E00E94DA0F91E0811101C090E049
:102AF00090939402015011090A30110530F082E0E0
:102B000090E0909316018093150186E490E00E9476
:102B1000DA0F082F10E0109393020093920288E4DA
:102B200090E00E94DA0F90E09093910280939002DF
:102B3000005211090F35110558F08CE490E0909384
:102B40009302809392026CE486E490E00E94B40FBA
:102B5000809190029091910280978F35910558F065
:102B600082E590E0909391028093900262E588E480
:102B700090E00E94B40F8091880290918902823087
:102B8000910509F46BC084F46AE871E00197A1F043
:102B90006AE871E085E593E00E944D0F61E090E006
:102BA00080E00E94B40F0CC08330910509F459C035
:102BB00068EC71E0049761F785E593E00E944D0FA2
:102BC00082E390E00E94DA0F90E090938F0280936E
:102BD0008E0285E390E00E94DA0F90E090938D02E0
:102BE00080938C0288E390E00E94DA0F90E090934B
:102BF0008B0280938A02809161039091620397FD1A
:102C000033C061E00E944704809161030E94F70392
:102C100081E080935C03609163036D3C71F12091CE
:102C2000640330916503615011F170E08FEF9CEC0B
:102C30000E943D1CF90140915F0350916003CF0158
:102C4000821B930B84179507A8F44081469FC0010F
:102C5000479F900D112490833196EDCF60EB71E08A
:102C6000ABCF6CEB71E0A8CF10925C03D4CF70E0D7
:102C700060E0E0CF8DEC809363038E010F5F1F4F08
:102C800088E0F80111928A95E9F7680160E5E62E7F
:102C9000F12CC7010E94DA0FD6018D936D01BFEFB1
:102CA000EB1AFB0AE7E5EE16F10499F764E672E029
:102CB000C8010E948E1E892B09F4B0C10E94AD0587
:102CC0002B013C01D12CC12C9E01275E3F4F3AA322
:102CD00029A30E94AD056419750986099709603D0D
:102CE00077408105910508F0A1C0F12CE12C2091DD
:102CF0005D0330915E03E216F30608F08DC0B70164
:102D000090E080E0CB017727662750E040E00E940A
:102D1000731C2C0D3D1DAAEFB5E00E942E1CDC019A
:102D2000CB019058AF4FBF4FCD01BB2797FDB0955A
:102D3000AB2F8E3F41E0940708F049C0482F8F3FEA
:102D4000910508F463C0EEEFE81B8E2F60E04FEFB3
:102D5000282E312CC101B0E0A0E0DC0199278827A2
:102D60006F8F18A2AF8CB8A04501B12CA12C882977
:102D70009929AA29BB29A42EB12CA50170E060E0F5
:102D8000762F652F542F4427842B952BA62BB72BFA
:102D90008D8B9E8BAF8BB88FDE015596ED91F0E059
:102DA000E956FC4F2491CD010197FC01208389A0B5
:102DB0009AA08A169B0691F74D895E896F89788D56
:102DC000C7010E94C7022FEFE21AF20A90CF8C3F90
:102DD000F3E09F0768F48D3F42E0940728F462E037
:102DE000680F4FEF80E0B4CF4CEF481B6FEFFACF86
:102DF0008A3FE5E09E0769F06AEF681B8B3FF4E0CD
:102E00009F0740F48C5F6FEF40E0A2CF60E08FEF50
:102E10009FCF60E040E0FBCF0E94A804D3946AE01B
:102E200070E080E090E00E947B0553CFA4E6CA2EBC
:102E3000A2E0DA2EB0E5EB2EF12CD6016D916D01FA
:102E4000C7010E94B40FBFEFEB1AFB0AE7E5EE16CD
:102E5000F10499F764E670E080E090E00E947B0561
:102E600082E290E00E94981C7C0184E1D7018C935F
:102E700083E111968C93119782E112968C931297AD
:102E800013961C92139715961C921E9214971796E0
:102E90001C921E92169782E018968C9318971A9699
:102EA0001C921E92199781E01B968C931B971D967E
:102EB0001C921E921C971E968C931E971F968C93A5
:102EC0001F9750961C92509751961C92519753966B
:102ED0001C921E92529755961C921E92549788EE01
:102EE00093E057969C938E93569780E991E059967C
:102EF0009C938E935897F701128E138E148E158E15
:102F0000178E168E11A210A262E084E10E9447047F
:102F1000D70111968C9187FD03C062E00E9447049F
:102F2000F701828187FD03C062E00E944704D70158
:102F30008C910E941E04F70123812817190621F4A1
:102F400083E090E097838683D70111968C910E944D
:102F50001E04F70123812817190649F486819781F9
:102F6000F1E08F27D70117969C938E931697F092D6
:102F70009A02E092990280E1809381001092800091
:102F800080E49FE1909387008093860081E18093A5
:102F9000810081E89BE0909314018093130181E00C
:102FA00080936F008FEF9FEF90939602809395022E
:102FB0001092980210929702F0E06F2EF0E07F2EB0
:102FC00086EA92E00E94E008892B09F46BC069E868
:102FD00071E0CE010F960E94570F0E948A0897FD5C
:102FE00020C08A309105E9F089831A82EB88FC8839
:102FF000BFEFEB1AFB0AB701CE010F960E94040F38
:10300000882359F32F8538898B899C89B801820FD1
:10301000931F0E94971EFC8AEB8ADFCF0E94410B10
:1030200019CF69ED71E0C8010E94570FB801CE01B8
:103030000F960E94E90EF82EC8010E94030EFF2091
:1030400009F491C06F8578896115710509F486C00E
:103050004B895C8985E593E00E942C0F8AE891E01A
:103060000E940B0E61E0811115C080EB91E00E947F
:103070000B0E62E081110EC08CEB91E00E940B0EF2
:1030800063E0811107C088EC91E00E940B0E60E0C4
:10309000811164E090E080E00E94B40FCE010F96B1
:1030A0000E94030EE0919902F0919A02F8948481B3
:1030B00095812085223009F0B3C29C01217033270D
:1030C000358324832085243021F495958795959523
:1030D00087952085223011F49595879523852223A5
:1030E00009F4A8C221853285232F332797FFA5C273
:1030F000C901809590957894E0909702F09098029D
:10310000E80EF91EF0929802E09297022091950243
:1031100030919602E216F306D1F0E21AF30A8AE839
:1031200091E00E940B0E882309F48DC289EE90E095
:103130001E141F0414F08AEE90E00E94090B809187
:103140009702909198029093960280939502611451
:10315000710409F435CF0E94000032CF85E593E079
:103160000E94F10D7BCF6FED71E0C8010E94570FF7
:10317000B801CE010F960E94E90EF82EC8010E94F8
:10318000030EFF2009F481C064E070E0CE010F96C9
:103190000E94240E5C016C01EFEFCE1ADE0AB6012C
:1031A000CE010F960E94240E7C01950144E050E070
:1031B000BE01615F7F4FC8010E94680FC8010E9475
:1031C000DE0E70938F0260938E02C8010E94030E80
:1031D0009701A601BE01615F7F4FC8010E94680F81
:1031E000C8010E94DE0E70938D0260938C02C801AC
:1031F0000E94030E2B893C89A7014F5F5F4FBE01E0
:10320000615F7F4FC8010E94680FC8010E94DE0EF7
:1032100070938B0260938A02C8010E94030E0E9481
:10322000410B6EE872E082E390E00E94B60F6CE81A
:1032300072E085E390E00E94B60F6AE872E088E3EE
:1032400090E00E94B60FF12CE12C80915D039091EB
:103250005E03E816F906B0F480918E0240918C026C
:1032600050E070E060E0762F652F542F4427682BE4
:1032700080918A02482BC7010E94C702FFEFEF1A14
:10328000FF0AE3CF0E94A80409CF64EE71E0C801F1
:103290000E94570FB801CE010F960E94E90EF82E3A
:1032A000C8010E94030EFF2009F440C065E070E0F1
:1032B000CE010F960E94240E7C019C0145E050E057
:1032C000BE01615F7F4FC8010E94680FC8010E9464
:1032D000DE0E7093930260939202C8010E94030E67
:1032E0002B893C89A7014F5F5F4FBE01615F7F4F14
:1032F000C8010E94680FC8010E94DE0E70939102FF
:1033000060939002C8010E94030E62E972E086E4B5
:1033100090E00E94B60F60E972E088E490E00E94BD
:10332000B60F8AEE91E00E944D0EB8CE6EEF71E0BE
:10333000C8010E94570FB801CE010F960E94E90EF6
:10334000F82EC8010E94030EFF2079F12B893C89D9
:103350004CE050E0BE01615F7F4FC8010E94680FE2
:10336000C8010E94DE0E7B01C8010E94030E1E14DC
:103370001F041CF072E0E72EF12CF0921601E0928F
:1033800015016E2D8CE390E00E94B40F8BE092E06B
:103390000E945F0E80911501909116010E94610EAE
:1033A00087E891E00E94400E79CE67E272E0C801A2
:1033B0000E94570FB801CE010F960E94E90EF82E19
:1033C000C8010E94030EFF2009F4BBC02B893C8971
:1033D00040E150E0BE01615F7F4FCE0109960E943F
:1033E000680FA984BA84A114B10439F0ED84FE8475
:1033F0006501E114F10409F058C062EE71E0C80102
:103400000E94570FB801CE0109960E94E90EF82ECE
:10341000C8010E94030EFF2041F12D853E8541E049
:1034200050E0BE01675F7F4FC8010E94680F898529
:103430009A85009709F474C069817A8161157105D4
:1034400009F46CC04B855C852D813E814217530782
:1034500008F464C00E94971E8D819E819E878D878F
:103460001E821D82C8010E94030ECE0109960E9491
:10347000DE0E7B0181E031E0E316F10409F080E02B
:103480008093940289E392E00E945F0E86E991E0C6
:10349000EA94EF2811F08FE991E00E944D0ECE01E1
:1034A00009960E94030EFACD640146012FEF821A9D
:1034B000920AD6018C91082E000C990B0E94D51B04
:1034C000892B91F7B1E0EB1AF108EA0CFB1CF7012C
:1034D0008081082E000C990B0E94D51B892B39F096
:1034E000EC14FD0420F0F1E0EF1AF108F0CF2FEF1B
:1034F000E21AF20AA7014C195D095E874D87AC14E8
:10350000BD0420F4B601C5010E947A1EE985FA8542
:103510008D859E85E80FF91F10826FCF0E94341DA4
:1035200089819A819A8789878B819C819C878B87E7
:103530008D819E819E878D871A8219821C821B82B3
:103540008FCF63E572E0C8010E94570FB801CE012A
:103550000F960E94E90EF82EC8010E94030EFF206C
:1035600009F49CCD8DE592E00E944D0E89E692E033
:103570000E945F0E4091590350915A036091550388
:103580007091560386EA92E00E943B0882EE91E039
:103590000E945F0E80918E0290918F020E94610EB8
:1035A00082EE91E00E945F0E80918C0290918D02DC
:1035B0000E94610E82EE91E00E945F0E80918A026D
:1035C00090918B020E94610E82EE91E00E945F0E4C
:1035D00080911501909116010E94610E82EE91E09A
:1035E0000E945F0E80919202909193020E94610E60
:1035F00082EE91E00E945F0E809190029091910284
:103600000E94610E82EE91E00E945F0E8091940212
:10361000882319F086EA91E086CE88EA91E083CE8D
:103620002085243021F49C012370332749CD158255
:10363000148248CD30E020E059CD009709F45BCDED
:10364000C901019658CD80EB91E00E940B0E8823B2
:1036500039F12FEF3FEF1E141F0414F021E030E08A
:103660004091150150911601249FC001259F900D96
:10367000349F900D112420919402222319F09195EA
:10368000819591099091020399831A821B828C8300
:1036900044E050E0B80186EF92E00E9429134FCD3C
:1036A0008CEB91E00E940B0E882379F01E141F040E
:1036B0003CF48FE40E94EC0C8FE40E94FF0C3FCDA1
:1036C00080E50E94EC0C80E5F8CF88EC91E00E9448
:1036D0000B0E882309F433CD1E141F046CF4609183
:1036E000920280E193E00E94C20D6091920280E11B
:1036F00093E00E94AA0D23CD6091900280E193E0B7
:103700000E94C20D60919002F2CF85E593E00E9485
:10371000030E80916403909165030E94341D809193
:1037200061039091620397FD03C060E00C9447042D
:1037300008951F93FC0199278827BC01E8941191F3
:103740001032E9F3193010F01E30C8F31B3251F07B
:103750001D3249F4689406C00E94C01B610F711DA0
:10376000811D911D119110531A30B0F33EF49095C4
:103770008095709561957F4F8F4F9F4F1F91089552
:10378000592F482F372F262F660F771F881F991F15
:10379000660F771F881F991F620F731F841F951F65
:1037A000660F771F881F991F089591110C94DE1BD7
:1037B000803219F089508550C8F7089599278827D5
:1037C0000895F999FECF92BD81BDF89A992780B5E9
:1037D0000895262FF999FECF1FBA92BD81BD20BD55
:1037E0000FB6F894FA9AF99A0FBE019608952F929F
:1037F0003F924F925F926F927F928F929F92AF9281
:10380000BF92CF92DF92EF92FF920F931F93CF93CD
:10381000DF93CDB7DEB7CA1BDB0B0FB6F894DEBF64
:103820000FBECDBF09942A88398848885F846E848A
:103830007D848C849B84AA84B984C884DF80EE80D4
:10384000FD800C811B81AA81B981CE0FD11D0FB6DD
:10385000F894DEBF0FBECDBFED010895A29FB00169
:10386000B39FC001A39F700D811D1124911DB29FB4
:10387000700D811D1124911D0895AA1BBB1B51E1E0
:1038800007C0AA1FBB1FA617B70710F0A61BB70BD0
:10389000881F991F5A95A9F780959095BC01CD0175
:1038A0000895A1E21A2EAA1BBB1BFD010DC0AA1F81
:1038B000BB1FEE1FFF1FA217B307E407F50720F099
:1038C000A21BB30BE40BF50B661F771F881F991F14
:1038D0001A9469F760957095809590959B01AC015D
:1038E000BD01CF010895052E97FB1EF400940E94A0
:1038F0008A1C57FD07D00E94511C07FC03D04EF4D0
:103900000C948A1C50954095309521953F4F4F4F10
:103910005F4F089590958095709561957F4F8F4F7B
:103920009F4F0895EE0FFF1F0590F491E02D09942D
:103930000F931F93CF93DF938230910510F482E0B1
:1039400090E0E0917303F091740330E020E0B0E088
:10395000A0E0309799F42115310509F44AC0281BDD
:10396000390B24303105D8F58A819B8161157105A9
:1039700089F1FB0193838283FE0111C04081518153
:103980000281138148175907E0F04817590799F445
:10399000109761F012960C93129713961C9332961F
:1039A000CF01DF91CF911F910F9108950093730381
:1039B00010937403F4CF2115310551F042175307CA
:1039C00038F0A901DB019A01BD01DF01F801C1CF87
:1039D000EF01F9CF9093740380937303CDCFFE0171
:1039E000E20FF31F81939193225031093983288389
:1039F000D7CF2091710330917203232B41F4209192
:103A0000190130911A0130937203209371032091B0
:103A10001701309118012115310541F42DB73EB73A
:103A200040911B0150911C01241B350BE091710347
:103A3000F0917203E217F307A0F42E1B3F0B281737
:103A4000390778F0AC014E5F5F4F2417350748F017
:103A50004E0F5F1F509372034093710381939193B4
:103A60009FCFF0E0E0E09CCFCF93DF930097E9F0A9
:103A7000FC01329713821282A0917303B0917403F8
:103A8000ED0130E020E01097A1F420813181820F18
:103A9000931F20917103309172032817390709F0A1
:103AA00061C0F0937203E0937103DF91CF910895A9
:103AB000EA01CE17DF07E8F54A815B819E014115D7
:103AC0005105B1F7E901FB83EA8349915991C40F8C
:103AD000D51FEC17FD0761F4808191810296840F58
:103AE000951FE90199838883828193819B838A83CF
:103AF000F0E0E0E012968D919C9113970097B9F554
:103B00002D913C911197CD010296820F931F209128
:103B10007103309172032817390739F6309751F540
:103B20001092740310927303B0937203A093710305
:103B3000BCCFD383C28340815181840F951FC817A6
:103B4000D90761F44E5F5F4F88819981480F591FF3
:103B5000518340838A819B81938382832115310520
:103B600009F0B0CFF0937403E09373039ECFFD018F
:103B7000DC01C0CF13821282D7CFB0E0A0E0E3EC2B
:103B8000FDE10C94F91B8C01009751F4CB010E94CC
:103B9000981C8C01C801CDB7DEB7E0E10C94151C70
:103BA000FC01E60FF71F9C0122503109E217F307D1
:103BB00008F49DC0D901CD91DC911197C617D707A4
:103BC00098F0C530D10530F3CE01049786179707DA
:103BD00008F3C61BD70B2297C193D1936D937C93A7
:103BE000CF010E94341DD6CF5B01AC1ABD0A4C0137
:103BF0008C0E9D1EA0917303B0917403512C412C27
:103C0000F12CE12C109731F58091710390917203A2
:103C10008815990509F05CC04616570608F058C08B
:103C20008091170190911801009741F48DB79EB7CC
:103C300040911B0150911C01841B950BE817F9075B
:103C400008F055C0F0937203E0937103F90171839A
:103C50006083A0CF8D919C91119712966C901297D2
:103C600013967C901397A815B90559F56C0142E09D
:103C7000C40ED11CCA14DB0420F1AC014A195B0943
:103C8000DA011296159780F0628273825183408325
:103C9000D9016D937C93E114F10471F0D70113966F
:103CA000FC93EE93129776CF22968C0F9D1FF9010D
:103CB00091838083F301EFCFF0937403E093730358
:103CC00069CF4816590608F42C017D01D3019ACF1B
:103CD000CB010E94981C7C01009749F0AE01B8010D
:103CE0000E947A1EC8010E94341D870153CF10E044
:103CF00000E050CFFB01DC0102C001900D92415069
:103D00005040D8F70895FC018191861721F088234F
:103D1000D9F7992708953197CF010895FB01DC0168
:103D20008D91019080190110D9F3990B0895FB0131
:103D3000DC0101900D920020E1F70895FB01DC0108
:103D40004150504030F08D910190801919F40020BD
:103D5000B9F7881B990B089512E0CCE9D2E004C0B2
:103D6000FE010E94921C2196CD39D107C9F7F89423
:023D7000FFCF83
:103D720000C18081000000FFFFFFFF00E1000000A2
:103D8200000000FA0802000000750380000921010A
:103D9200010001222E00092101010001224500003B
:103DA20000000051083B086708B905E0086C08BC30
:103DB2000800000000FB0868092809A60A2913F672
:103DC200FF0000331300000000B4094C0A0C0AA6DD
:103DD2000A3613F6FF0000DA0D8107AD0ABB05971C
:103DE2000A4013A20C000000006D034B061006905F
:103DF2000300000000B00A0D0A004D4F44455F5613
:103E02004F4C554D45005265766572736564004EA0
:103E12006F726D616C0031003000434B6E6F620057
:103E22004D4F44455F5343524F4C4C004D4F444518
:103E32005F4152524F5753004D4F44455F435553D4
:103E4200544F4D5F4B455953004D4F44455F00520F
:103E520047422C004B4559532C00437573746F6DC8
:103E6200206B6579732075706461746564005345D5
:103E72004E53495449564954592C005363726F6C3E
:103E82006C2053656E736974697669747920536521
:103E92007420746F3A20005343524F4C4C5F444994
:103EA20052454354494F4E2C005363726F6C6C2041
:103EB200446972656374696F6E2053657420746F10
:103EC2003A200073617920434B4E4F4200434B4EE0
:103ED2004F422076312E31330053455454494E47D8
:043EE200532C00005D
:00000001FF
