:100000000C941C020C9444020C9444020C94440280
:100010000C9444020C9444020C9444020C94440248
:100020000C9444020C9444020C94300F0C94AD0FC9
:100030000C9444020C9444020C9444020C94440228
:100040000C9444020C9444020C9444020C94440218
:100050000C94D9110C9444020C9444020C94E60EB6
:100060000C9444020C9444020C9444020C944402F8
:100070000C9444020C9444020C9444020C944402E8
:100080000C9444020C9444020C9444020C944402D8
:100090000C9444020C9444020C9444020C944402C8
:1000A0000C9444020C9444020C944402000000009E
:1000B0000000000000000000000000002A002B00EB
:1000C0002800000000000000000000000000000008
:1000D0000000000000000000000000000000000020
:1000E0000000000000000000000000002C001E02C4
:1000F00034022002210222022402340026022702B6
:1001000025022E0236002D003700380027001E0081
:100110001F002000210022002300240025002600CB
:100120003302330036022E00370238021F02040267
:10013000050206020702080209020A020B020C026B
:100140000D020E020F02100211021202130214021B
:10015000150216021702180219021A021B021C02CB
:100160001D022F003100300023022D023500040053
:10017000050006000700080009000A000B000C003B
:100180000D000E000F0010001100120013001400EB
:10019000150016001700180019001A001B001C009B
:1001A0001D002F0231023002350200000000000065
:1001B000000000000000000000000000000000003F
:1001C000000000000000000000000000000000002F
:1001D000000000000000000000000000000000001F
:1001E000000000000000000000000000000000000F
:1001F00000000000000000000000000000000000FF
:1002000000000000000000000000000000000000EE
:1002100000000000000000000000000000000000DE
:1002200000000000000000000000000000000000CE
:1002300000000000000000000000000000000000BE
:1002400000000000000000000000000000000000AE
:10025000000000000000000000000000000000009E
:10026000000000000000000000000000000000008E
:10027000000000000000000000000000000000007E
:10028000000000000000000000000000000000006E
:10029000000000000000000000000000000000005E
:1002A0000000000000000000000000000706050438
:1002B0000100080A0B0C0D0905010906A10105073B
:1002C00019E029E715002501750195088102050C43
:1002D00095017508150026FF00190029FF8100050A
:1002E00008190129089508750191020507950675F9
:1002F00008150026E700190029E78100C00501095B
:1003000002A1010901A1000509190129081500250B
:100310000195087501810205010930093109381577
:1003200081257F750895038106C0C0080B00020275
:100330000200000904000001020200000524001070
:100340000105240101010424020605240600010719
:1003500005810310004009040100020A00000007A3
:100360000502024000000705830240000004030963
:100370000412010002EF0201404F1B0B9200010129
:10038000020301537061726B46756E00434B6E6FD2
:1003900062322E300000000000240027002A002DC9
:1003A000003000000000002300260029002C002F50
:1003B000000000000200090F0000030401000C000F
:1003C0000000000000000000000000000000000528
:1003D0000C0901A1018504150026FF0319002AFF5D
:1003E00003950475108100C004080201104080408C
:1003F000102040804080080204018040201002014B
:100400001080102040402000000000250028002B14
:10041000002E003100040404040403040502020257
:10042000020403020202020606060606060404028D
:10043000020204044D12591911241FBECFEFDAE055
:10044000DEBFCDBF23E0A0E5B2E001C01D92A13523
:10045000B207E1F712E0A0E0B1E0EEEBF8E302C092
:1004600005900D92A035B107D9F712E0CBE1D2E0AB
:1004700004C02197FE010E94381ACA31D107C9F77A
:100480000E94A1130C94521C0C9400008F929F9216
:10049000AF92BF92CF92DF92EF92FF92CF934B0138
:1004A000AA24BB24C82DC52ED62EE72EFF24BC2D92
:1004B000A42F20913F03222361F0829E400111244A
:1004C000C92D2C9D60011124BD2D249FF001112404
:1004D000AF2FE0914503E0904003F090410330914D
:1004E0004203E31323C09C01220F331F820F931F8B
:1004F0008E0D9F1DE0914203E80FF92FF11DC0837F
:10050000E0914303E80FF92FF11DB08320914403DC
:10051000820F911DFC01A083CF91FF90EF90DF909F
:10052000CF90BF90AF909F908F900895880F991FA4
:10053000880F991F8E0D9F1D472F552766277727F8
:10054000222349F030E0249F7001259FF00C349F56
:10055000F00C11244F2DE80FF92FF11D4083CACF65
:1005600083E08093E9008091F200882319F08AE308
:100570008093E8000895FC0180917D02882311F1A9
:100580003FB7F89482E08093E9002091F200822F37
:1005900090E01816190614F481E090E0882339F0F1
:1005A000289844E640937C024091F1004083222346
:1005B00039F02091F200211103C02BE62093E800CE
:1005C0003FBF08958FEF9FEF0895DC01FB01129666
:1005D0002C911297848195812817190641F49181F5
:1005E0008081813A31F49D7F81E0913009F080E093
:1005F00008958132E1F79B3029F482811F968C9314
:1006000081E008959A3099F7828150968C93F8CFC3
:10061000DC01FB0188E4808389E4818384E48283B4
:100620001D969C911D979F709F5B93831D968D9146
:100630009C9124E0969587952A95E1F78F708F5BC2
:10064000848385E0089581508F3008F047C0E82FFB
:10065000F0E0E35DFC4F0C94381A4A034E033C0370
:10066000420346036E036E036E03510357035B039D
:100670005F0365036E036903809180008F77809329
:1006800080000895809180008F7DF9CF8091800057
:10069000877FF5CF84B58F7784BD089584B58F7D2E
:1006A000FBCF809190008F77809390000895809188
:1006B00090008F7DF9CF80919000877FF5CF80915A
:1006C000C0008F778093C00008958091C0008F7D17
:1006D000F9CF8091C200877F8093C2000895CF93A5
:1006E000DF93282F30E0F901EF54FC4F8491F9019A
:1006F000E851FC4FD491F901EB5EFB4FC491CC2340
:1007000091F081110E942303EC2FF0E0EE0FFF1F08
:10071000E95FFB4FA591B4918FB7F894EC91D09518
:10072000DE23DC938FBFDF91CF910895CF93DF93CA
:10073000282F30E0F901EF54FC4F8491F901E85182
:10074000FC4FD491F901EB5EFB4FC491CC23A1F097
:1007500081110E942303EC2FF0E0EE0FFF1FED55F7
:10076000FC4FA591B491EC91ED2381E090E009F468
:1007700080E0DF91CF91089580E090E0FACFCF93B1
:10078000DF9390E0FC01E851FC4F24918B5E9B4F7E
:10079000FC0184918823C9F090E0880F991FFC0127
:1007A000EB56FC4FA591B491FC01E95FFB4FC5915D
:1007B000D49161110DC09FB7F8948C91209582233C
:1007C0008C938881282328839FBFDF91CF91089540
:1007D000623051F49FB7F8943C91822F8095832327
:1007E0008C93E8812E2BEFCF8FB7F894EC912E2BC2
:1007F0002C938FBFEACF3FB7F89480917802909105
:100800007902A0917A02B0917B0226B5A89B05C01F
:100810002F3F19F00196A11DB11D3FBFBA2FA92F7F
:10082000982F8827BC01CD01620F711D811D911D7C
:1008300042E0660F771F881F991F4A95D1F70895E8
:100840000F931F93CF93DF93CDB7DEB729970FB6E2
:10085000F894DEBF0FBECDBF80914003909141035D
:10086000892B09F47CC00E94FB0300914603109180
:1008700047032091480330914903601771078207AD
:10088000930740F4609346037093470380934803B3
:100890009093490300914603109147032091480328
:1008A00030914903601B710B820B930B6C327140CA
:1008B00081059105C0F2F89480913B0390913C032F
:1008C0009A838983E0914003F0914103DF011196FF
:1008D0008081898790913703E0914A03F0914B031F
:1008E00080914C03992309F445C09081982B9887F7
:1008F0009081809589238F838F818C8388E08B837F
:1009000058856F8149853B812C8189819A815083EB
:1009100047FD252F3A952083262F39F0441F00C02C
:1009200000006083000000C0F2CF38E04D9160838A
:100930000000019761F7F0934B03E0934A03498766
:100940003B832C839A83898378940E94FB03609372
:100950004603709347038093480390934903299675
:100960000FB6F894DEBF0FBECDBFDF91CF911F91C0
:100970000F9108959081982B988790818095892375
:100980008F838F818E8388E08D8358856F81498521
:100990003D812E8189819A81508347FD252F00C09A
:1009A00000C0208300C000C000C000C000C0608341
:1009B0000000262F3A9541F0441F000000C000C0FF
:1009C00000C000C000C0E8CF38E04D9100C0608397
:1009D00000C0019709F7F0934B03E0934A0349875E
:1009E0003D832E83AFCF8F929F92AF92BF92CF92D3
:1009F000DF92EF92FF924B015C010E94FB036B01BF
:100A00007C010E94FB036C197D098E099F09683ED9
:100A1000734081059105A8F321E0821A9108A1088D
:100A2000B10888EEC80E83E0D81EE11CF11C8114C9
:100A30009104A104B10429F7FF90EF90DF90CF90CB
:100A4000BF90AF909F908F9008950C94B00208953E
:100A500040915E0250915F0220915C0230915D02F4
:100A600042175307B4F49091E8009570E1F3909128
:100A7000E80092FD19C08093F10080915E02909190
:100A80005F0201968F739927892B19F48EEF80935B
:100A9000E80080915E0290915F02019690935F0260
:100AA00080935E0281E0089580E00895DF92EF92E6
:100AB000FF920F931F93CF93DF93D82E8A01EB0100
:100AC0007B01E40EF51ECE15DF0559F0D7FE12C0EE
:100AD000FE0184910E94280521968111F4CF0FEF29
:100AE0001FEFC801DF91CF911F910F91FF90EF9001
:100AF000DF9008958881EECFEF92FF920F931F93BE
:100B0000CF93DF93FB012081213871F523812232BD
:100B100059F5DC0112964C91248135814217130658
:100B200019F5EC010B851C85F12CE12C0115110543
:100B300089F0F801448155816281738180E80E94C7
:100B400056058F3F980749F0E80EF91ED8010D9120
:100B50001C91ECCF81E08F87C701DF91CF911F916E
:100B60000F91FF90EF90089590E080E0F6CFCF9343
:100B7000DF93CDB7DEB769970FB6F894DEBF0FBE2F
:100B8000CDBFFC01DB018C918F5F8C939E012D5FAB
:100B90003F4F8DE0D9011D928A95E9F729E029831D
:100BA00084E08A8391E09D8383E08E832A8721E21B
:100BB0002B879C879D879F8722E2288B27E02B8BA2
:100BC00025E02C8B8E8B20E430E0388F2F8B998F93
:100BD00082818B8395858685998B8A8B83818068BA
:100BE0008D8B49E150E0BE016F5F7F4F80E00E9436
:100BF000560569960FB6F894DEBF0FBECDBFDF91E4
:100C0000CF9108952FB7F89487708093E900909161
:100C1000E800892F807295FF04C09091F20080E473
:100C2000891B2FBF08957F928F929F92AF92BF92A0
:100C3000CF92DF92EF92FF920F931F93CF93DF93A8
:100C4000C82E8B017A0180917D02811110C08FEF37
:100C50009FEFDF91CF911F910F91FF90EF90DF9069
:100C6000CF90BF90AF909F908F907F90089580918C
:100C7000620280FF05C08091E00082608093E00006
:100C8000CE2DDF2DD12C8AEFB82E8C2D8770982E8B
:100C90008C2D8072882E8C2D8074782E9AE3A92E4C
:100CA000209719F4DD2009F452C08C2D0E94020611
:100CB00081110AC0BA94BB2051F261E070E080E07B
:100CC00090E00E94F304ECCF8C171D0611F00CF09D
:100CD0008C2F9FB7F8949092E9002091E80025FDB1
:100CE00002C09FBFDDCF282F30E0C21BD30B88206E
:100CF00029F08150A0F01092F100FBCFF801C7FC61
:100D00000AC0815050F041914093F100FACF4491D4
:100D10004093F10031968150D0F7020F131FDD2070
:100D200021F0A092E800D12CDCCF8091E80085FD75
:100D300007C0A092E800DD24D394209791F2F3CF6E
:100D4000209779F6772069F2A092E800CACF5D98E3
:100D500084E680936102C7017CCF615030F020911E
:100D6000F100FC0120830196F8CF289884E6809357
:100D70007C020895AF92BF92DF92EF92FF920F93A1
:100D80001F93CF93DF935C018B01EB019BEFD92E77
:100D90002097C1F07E01C134D1051CF080E4E82E1B
:100DA000F12C8091E80082FFFCCFC8018C1B9D0BC9
:100DB0006E2D8A0D9B1D0E94AD06D092E800CE19C3
:100DC000DF09E6CFC801DF91CF911F910F91FF900E
:100DD000EF90DF90BF90AF900895AF92BF92CF9207
:100DE000DF92EF92FF920F931F93CF93DF936C01EB
:100DF0007B018B01040F151FEB015E01AE18BF08CC
:100E0000C017D10759F06991D601ED91FC9101907D
:100E1000F081E02DC6010995892B79F7C501DF9195
:100E2000CF911F910F91FF90EF90DF90CF90BF90E7
:100E3000AF9008958091540281110DC082E080939B
:100E4000500284E080935102109253021092520299
:100E500081E08093540280E592E008950F931F9300
:100E6000CF93DF931F92CDB7DEB782E0898342E450
:100E700050E06BE273E080E80E9456050E941A077A
:100E8000DC0112960D911C910115110589F0D80114
:100E9000ED91FC910280F381E02DBE016F5F7F4FE9
:100EA000C801099597FD04C0F80100851185ECCFB4
:100EB00089810F90DF91CF911F910F910895CF936A
:100EC000DF93FC01DB01818114963C911497682F1C
:100ED000630F7727771F683071059CF5C281D38136
:100EE000209739F5B383A283908112969C93129731
:100EF00013968C93139715968C911597890F808371
:100F000090E080E0831708F52181C22FD0E0BE0178
:100F100060507F4F16964D915C911797480F591F5F
:100F2000EA014881EB0148832F5F21830196EACFD4
:100F3000EA014885598541155105D1F7B987A88738
:100F4000D3CF80E0DF91CF91089581E0FBCFCF93A5
:100F5000DF93EC0180911201882331F083E00E943D
:100F600013061816190634F081E090E09B838A83FB
:100F700080E090E0DF91CF910895CF93DF931F92AF
:100F8000CDB7DEB76983DC01ED91FC910280F3817E
:100F9000E02D41E050E0BE016F5F7F4F09950F905B
:100FA000DF91CF91089583E00E94020690E00895BA
:100FB000CF93DF931F92CDB7DEB7FC018485958573
:100FC00097FD08C02FEF3FEF358724870F90DF9103
:100FD000CF910895CE0101960E94BB02019719F4AA
:100FE000898190E0F3CF8FEF9FEFF0CF2FB7F89488
:100FF00080917E0290917F02A0918002B091810247
:101000002FBF80938A0290938B02A0938C02B0939F
:101010008D0282E892E00E94D80797FF26C02FB782
:10102000F89480917E0290917F02A0918002B0910D
:1010300081022FBF40918A0250918B0260918C02F5
:1010400070918D02841B950BA60BB70B4091860205
:1010500050918702609188027091890284179507E8
:10106000A607B707B0F28FEF9FEF08950F931F9376
:10107000CF93DF931F92CDB7DEB78C01FC0184853F
:10108000958597FF0BC0CE0101960E94BB02019788
:1010900071F4898190E0F80195878487F80184854F
:1010A00095850F90DF91CF911F910F9108958FEF4C
:1010B0009FEFF1CFFC018485958597FD0BC09FB70D
:1010C000F89482E08093E9008091F2009FBF90E065
:1010D000019608959FB7F89482E08093E90080918B
:1010E000F2009FBF90E008950895FC01DB0122818A
:1010F00014968D919C9115972817190609F511964C
:101100008C9111979C91913A69F4813029F0833048
:1011100029F486858093F10081E00895823081F47E
:101120008785F8CF913261F48B3021F412968C913F
:101130008687F2CF8A3021F413968C918787ECCF83
:1011400080E00895CF93DF93CDB7DEB729970FB630
:10115000F894DEBF0FBECDBFFC014281FB012481AC
:1011600035814217130659F52081213841F5238135
:101170002132D1F489E0EDE1F1E0DE011196019038
:101180000D928A95E1F749E050E0BE016F5F7F4F15
:1011900080E00E94560529960FB6F894DEBF0FBE78
:1011A000CDBFDF91CF910895223249F421E0FC01B7
:1011B00026874EE250E06DEF72E080E8EACF90E0E3
:1011C00080E0E9CFCF93DF93CDB7DEB769970FB655
:1011D000F894DEBF0FBECDBFFC01DB019C919F5F89
:1011E0009C939E012D5F3F4F81E1D9011D928A950D
:1011F000E9F729E0298384E08A8391E09D8383E0F5
:101200008E839F8332E038872A8721E22B879C8751
:101210009D879F8722E2288B2EE2298B27E02B8B4C
:1012200025E02C8B8E8B20E430E0388F2F8B998F2C
:1012300082818B83838180688D8B49E150E0BE0180
:101240006F5F7F4F80E00E94560569960FB6F89455
:10125000DEBF0FBECDBFDF91CF910895CF93DF9357
:10126000EC01FB012A81848195812817190609F078
:101270004BC081819081913A79F4813029F083309B
:1012800039F48F898093F10081E0DF91CF91089547
:101290008230D1F5888DF6CF9132B1F58B3019F4CB
:1012A00082818F8BF1CF8A3019F48381888FECCFC4
:1012B000893051F5668177818381833079F48C8D13
:1012C0009D8D6817790701F58A8D9B8D0E94BA065E
:1012D0008C8D9D8D90689D8F8C8FD6CF823051F4F0
:1012E0006130710589F461E070E0CE0149960E9499
:1012F000BA06CACF813041F46830710529F468E03C
:1013000070E0CE010E96F3CF80E0BFCFCF93DF9396
:10131000CDB7DEB729970FB6F894DEBF0FBECDBFAD
:10132000FC014281FB01248135814217130659F5E6
:101330002081213841F523812132D1F489E0E6E290
:10134000F1E0DE01119601900D928A95E1F749E0F6
:1013500050E0BE016F5F7F4F80E00E9456052996E6
:101360000FB6F894DEBF0FBECDBFDF91CF910895C9
:10137000223249F421E0FC01278B45E450E068EB80
:1013800072E080E8EACF90E080E0E9CFCF93DF938E
:10139000CDB7DEB769970FB6F894DEBF0FBECDBFED
:1013A000FC01DB019C919F5F9C939E012D5F3F4F51
:1013B00081E1D9011D928A95E9F729E0298384E02A
:1013C0008A8391E09D8383E08E839F8398872A8719
:1013D00021E22B879C879D879F8722E2288B25E42B
:1013E000298B27E02B8B25E02C8B8E8B20E430E0A3
:1013F000388F2F8B998F82818B83838180688D8B2F
:1014000049E150E0BE016F5F7F4F80E00E945605CA
:1014100069960FB6F894DEBF0FBECDBFDF91CF91B6
:101420000895FC019C01285F3F4F90E080E04481DB
:101430004111019614823196E217F307C1F708951E
:10144000FC0182818F5BFB01808381E0089590E045
:1014500080E00895CF92DF92EF92FF921F93CF9397
:10146000DF931F92CDB7DEB77B016A018091110334
:1014700081112CC011E010930403109305038AE03E
:1014800093E0909307038093060310920903109250
:10149000080389E791E09093010380930003109281
:1014A0000C0310920B0310920E0310920D03109375
:1014B0000F031093100381EC80930A030E941A0714
:1014C00060E073E00E945F071093110384E089835A
:1014D00041E050E0BE016F5F7F4F809103030E94A7
:1014E000130697FD07C080910303A601B70180642E
:1014F0000E9413060F90DF91CF911F91FF90EF9004
:10150000DF90CF900895CF93DF93EC01E9E2F3E011
:1015100090E080E0219131910196232B41F5880FD5
:10152000991FFC01E95DFC4FD183C08348E050E086
:1015300069E273E087E293E00E942A0AE7E2F3E0BF
:101540008FE293E022813381C217D30711F4138213
:10155000128232968E179F07A9F748E050E069E2A1
:1015600073E087E293E0DF91CF910C942A0A8430F4
:10157000910581F6DBCFCF93DF93C0913903D091F2
:101580003A0321978091390390913A03D7FD12C015
:10159000C817D90730F440E050E0BA01CE010E94EC
:1015A00046020E94200462E370E080E090E00E9426
:1015B000F304E7CFD0E0C0E08091390390913A0383
:1015C000C817D907E0F480916A024091680250E0A0
:1015D00070E060E0762F652F542F4427682B8091B0
:1015E0006602482BCE010E9446020E94200462E35C
:1015F00070E080E090E00E94F3042196DDCFDF915F
:10160000CF910895CF92DF92EF92FF920F931F93A5
:10161000CF93DF93C0917502D0917602888187FDC8
:1016200048C0998197FD45C09B85992361F0298524
:101630003A85225031093A87298729853A8537FF2B
:1016400002C01A8619860E9496032B8110E0281783
:10165000190609F413E089810E9496032B8128174B
:10166000190611F481E018278E819F81811B80FF6C
:101670008AC0212F110F330B3F832E832C813D8194
:101680008270082E000C990B0197820F931F9D8387
:101690008C8381E09B85992361F0882351F08985B3
:1016A0009A85883E9B4028F489859A8549969A8731
:1016B00089878FB7F89440917E0250917F026091A4
:1016C0008002709181028FBF8A8D9B8DAC8DBD8D04
:1016D000481759076A077B0720F41A8E1B8E1C8E49
:1016E0001D8E8A81181634F081118DC09889992336
:1016F00009F489C00A8D1B8D2C8D3D8D6A017B01FB
:10170000C01AD10AE20AF30A970186010A301105CC
:101710002105310508F477C04A8F5B8F6C8F7D8F70
:101720002989E82F222389F1823108F0E251F0E083
:10173000E455FD4FE49190917B008E2F880F880F28
:1017400080729F7D892B80937B00E770E064E0933B
:101750007C0080917A00806480937A0080917A0086
:1017600086FDFCCF80917800909179004E8D5F8D41
:10177000841795077CF021E048A159A14817590723
:101780004CF020E007C080E085CF0E94960321E066
:10179000892BB9F33B81321315C0EA89FB89319655
:1017A000FB8BEA8B8E899F896AE070E00E94021AA7
:1017B0006E177F0738F48F85882321F083E090E04F
:1017C0009D878C8781E03827321310C08A899B89D6
:1017D000029750F08C859D850397F1F484E090E0AA
:1017E0009D878C871D8A1C8A1B8A1A8A8C899D89F1
:1017F000009749F001979D8B8C8B892B21F485E014
:1018000090E09D878C87DF91CF911F910F91FF9082
:10181000EF90DF90CF9008952C893D8922303105DB
:1018200060F0888D998D6AE070E00E94021A261798
:101830003707D0F686E090E0D3CF8E8561E070E088
:10184000882331F0888D998D6AE070E00E94021A39
:101850007D8B6C8BC9CFCF93DF93DC0190E2960F29
:101860009830B0F414968C91149721E030E001C0C8
:10187000220F9A95EAF7442341F0282B14962C93D3
:1018800081E090E0DF91CF91089520952823F6CF55
:10189000FD0136964423D1F0CD010C96EF0129913C
:1018A000621771F3C817D907D1F790E080E0219152
:1018B000211105C0A80FB91F16966C93E1CF0196B0
:1018C00086309105A1F790E080E0DCCF90E080E0E9
:1018D0002191621305C0A80FB91F16961C92D0CF94
:1018E000019686309105A1F7EECFCF93DF9341E0CB
:1018F000682F8CEE92E00E942B0CEC01892B21F0DA
:101900008CEE92E00E944A12CE01DF91CF910895B1
:10191000CF93DF9340E0682F8CEE92E00E942B0C77
:10192000EC01892B21F08CEE92E00E944A12CE014C
:10193000DF91CF910895CF92DF92FF920F931F9383
:10194000CF93DF938C01F42EE62FF0E0EE0FFF1F14
:10195000E455FF4FC590D490D801ED91FC910484DB
:10196000F585E02D6C2DC8010995EC01892B11F44A
:10197000F11070C0D0FE0CC0D801ED91FC91048430
:10198000F585E02D4F2D60EEC8010995C82BD92BA8
:10199000D1FE0CC0D801ED91FC910484F585E02DB9
:1019A0004F2D61EEC8010995C82BD92BD2FE0CC072
:1019B000D801ED91FC910484F585E02D4F2D62EE68
:1019C000C8010995C82BD92BD3FE0CC0D801ED91C5
:1019D000FC910484F585E02D4F2D63EEC801099537
:1019E000C82BD92BD4FE0CC0D801ED91FC910484F6
:1019F000F585E02D4F2D64EEC8010995C82BD92B34
:101A0000D5FE0CC0D801ED91FC910484F585E02D44
:101A10004F2D65EEC8010995C82BD92BD6FE0CC0F9
:101A2000D801ED91FC910484F585E02D4F2D66EEF3
:101A3000C8010995C82BD92BD7FE0CC0D801ED9150
:101A4000FC910484F585E02D4F2D67EEC8010995C2
:101A5000C82BD92BCE01DF91CF911F910F91FF9011
:101A6000DF90CF9008950F931F93CF93DF93EC01F6
:101A700040E00E949B0C8C01892B39F0E881F981B0
:101A80000284F385E02DCE010995C801DF91CF9145
:101A90001F910F9108950F931F93CF93DF93EC0144
:101AA00041E00E949B0C8C01892B39F0E881F9817F
:101AB0000284F385E02DCE010995C801DF91CF9115
:101AC0001F910F910895FF920F931F93CF93DF9370
:101AD0008C01F62E0E944B0DEC01892B21F06F2D0D
:101AE000C8010E94330DCE01DF91CF911F910F915C
:101AF000FF900895CF93DF93EC018881998100973F
:101B000011F00E94DA1A198218821D821C821B822F
:101B10001A82DF91CF910895FC0180819181009715
:101B200011F00C94DA1A08952091350330913603A0
:101B3000232B39F421E0FC018081882361F020E02F
:101B40000AC0BC0180913103909132030E94341C81
:101B500021E0892BA1F7822F0895CF93DF93FC0119
:101B6000248135816217730788F49B01C081D1817C
:101B70006CE270E0CE01820F931F0E94291C009737
:101B800029F08C1B9D0BDF91CF9108958FEF9FEF74
:101B9000FACFFC0101900020E9F73197AF01481B13
:101BA000590BBC0182E892E00C94A707CF93DF9316
:101BB000D0E0C0E0009719F00E94C90DEC0187E861
:101BC00091E00E94C90D8C0F9D1FDF91CF91089568
:101BD000FC0180819181009711F00C946D1960E0F7
:101BE00070E0CB010895FB0144815581FC01248103
:101BF00035812417350778F080819181009759F05D
:101C0000FB01608171816115710529F00E94441CFE
:101C100021E0892B09F020E0822F08950F931F9374
:101C2000CF93DF93EC0188819981009759F02A8145
:101C30003B812617370730F081E0DF91CF911F916C
:101C40000F9108958B016F5F7F4F0E94631B009778
:101C500059F0998388831B830A832C813D81232B30
:101C600059F7FC011082E8CF80E0E7CFEF92FF92B6
:101C70000F931F93CF93DF93EC017B018A01BA018D
:101C80000E940E0E81110BC0CE010E947A0DCE0172
:101C9000DF91CF911F910F91FF90EF9008951D83D9
:101CA0000C83B701888199810E943D1CF0CFFB0114
:101CB00001900020E9F73197AF01461B570B0C94B8
:101CC000360EFC0111821082138212821582148258
:101CD000FB0101900020E9F73197AF01461B570B3C
:101CE0000C94360EAF92BF92CF92DF92EF92FF929A
:101CF0000F931F93CF93DF936C015B017A018901EE
:101D00002417350720F48F2D7901042F182F69E847
:101D100071E0C6010E94610ED5011496CD91DC914F
:101D2000EC16FD06E0F40C171D0708F4E801D501D8
:101D3000ED91FC911197EC0FFD1F108110826D91B8
:101D40007C916E0D7F1DC60161157105A1F00E9489
:101D5000570EF50180819181C80FD91F1883C601E4
:101D6000DF91CF911F910F91FF90EF90DF90CF9077
:101D7000BF90AF9008950E947A0DEBCF0C94BD19DF
:101D8000FF920F931F93CF93DF93EC018B01FB0125
:101D9000F0800E94B519F81621F06F2DCE010E9437
:101DA000BD19F801F1802196CE010E94B519F816EF
:101DB00021F06F2DCE010E94BD19C801DF91CF9196
:101DC0001F910F91FF9008950C94B5191F920F92D7
:101DD0000FB60F9211242F933F938F939F93AF933E
:101DE000BF9380917E0290917F02A0918002B0917A
:101DF00081023091770223E0230F2D3758F50196A9
:101E0000A11DB11D2093770280937E0290937F02E3
:101E1000A0938002B0938102809178029091790220
:101E2000A0917A02B0917B020196A11DB11D809311
:101E3000780290937902A0937A02B0937B02BF91CB
:101E4000AF919F918F913F912F910F900FBE0F9067
:101E50001F90189526E8230F0296A11DB11DD2CF21
:101E60001F920F920FB60F9211242F933F934F930F
:101E70005F936F937F938F939F93AF93BF93CF9312
:101E8000EF93FF93C091E1008091E100837F809305
:101E9000E100C3FF0FC01092E90081E08093EB00E6
:101EA0001092EC0082E38093ED0010927D0288E0B6
:101EB0008093F000C2FF1AC00E94B00280916102BC
:101EC000882341F0809161028150809361028111E9
:101ED00001C05D9A80917C02882341F080917C0250
:101EE000815080937C02811101C0289AC4FF23C0D5
:101EF0008091E2008E7E81608093E2008091E1001B
:101F00008F7E8093E100809162028E7E806180935B
:101F10006202FF91EF91CF91BF91AF919F918F910D
:101F20007F916F915F914F913F912F910F900FBED5
:101F30000F901F901895C0FFECCF8091E2008E7E2D
:101F400080618093E2008091E1008E7E8093E100C9
:101F5000809162028E7E8160DACF1F920F920FB65F
:101F60000F921124CF92DF92EF92FF920F931F9363
:101F70002F933F934F935F936F937F938F939F9391
:101F8000AF93BF93EF93FF93CF93DF93CDB7DEB7BC
:101F90006C97DEBFCDBF1092E9008091E80083FF0F
:101FA00025C068E0CE0145960E94AD0682EF809381
:101FB000E8008D8987FF39C09091E80090FFFCCF41
:101FC000982F907609F034C19E894F89588D2F89BA
:101FD000F88C911131C0803861F580916302809353
:101FE000F1001092F1008EEF8093E8006C960FB62E
:101FF000F894DEBF0FBECDBFDF91CF91FF91EF917F
:10200000BF91AF919F918F917F916F915F914F9110
:102010003F912F911F910F91FF90EF90DF90CF9004
:102020000F900FBE0F901F9018959EEF9093E800B1
:10203000C7CF1092F100D5CF913059F48111D3CF91
:102040004130510581F6809163028D7F8093630258
:10205000CACF933049F48111C6CF4130510519F6EA
:10206000809163028260F2CF953041F48091E80064
:1020700080FFFCCF20682093E300B5CF963009F0B5
:10208000A9C00B8D1C8D22E01092E90010925F0216
:1020900010925E02F2122EC010925D0210925C024B
:1020A0000E942E071F8299E09983FA8291E09E8315
:1020B00090EA98879AEF998720915E0230915F02AB
:1020C000275F3F4F3C832B838D831092E900109252
:1020D0005F0210925E0210935D0200935C0249E081
:1020E00050E0BE016F5F7F4F80E00E9456050E9466
:1020F0002E0779CF10935D0200935C020E941A07AD
:10210000DC0112960D911C910115110509F44BC1CA
:10211000D801ED91FC910480F581E02DBE016B5E4C
:102120007F4FC8010995009709F038C1F801008573
:102130001185EACFF3E0FF120EC08F89882309F4DE
:1021400040C0823061F440E868E08CE893E00E948F
:102150000012811148CF81E28093EB0047CF81309C
:1021600029F440E868E083E893E0F1CF833099F701
:102170000E941A07DC011296ED90FC908E010F5F11
:102180001F4F6801E114F10479F0D701ED91FC9142
:102190000680F781E02DB801C7010995080F111DD0
:1021A000F701E084F184EECFD8011C92F601019092
:1021B0000020E9F73197BF016C197D0940E0C601A5
:1021C000C6CF6DE673E0FB01449150E080E80E94C9
:1021D000560509CF973009F4BECF983021F481E03D
:1021E0008093F10000CF993009F0FDCE837009F0A3
:1021F000B2CFE1E0F1E081E031E096E321912223EA
:1022000071F08093E9003093EB00DF0111972C917E
:102210002093EC009093ED008F5F873079F78EE785
:102220008093EA001092EA008F8980937D02DBCED2
:102230008B8D9C8D1092E90010925F0210925E02CD
:1022400090935D0280935C02898D81118CC08E8990
:102250009D89913A49F4813209F07DCF47E050E001
:102260006BE071E080E0B3CF913209F074CF83323C
:1022700069F48F89988DB0E0A0E080930701909376
:102280000801A0930901B0930A01ADCE803239F460
:1022900067E070E08BE091E00E94BA06A4CE823243
:1022A00009F0A1CE8F8980931201EEEFFFE78591AF
:1022B00094918B3F9C4D51F1E0E0F8E080910B014F
:1022C00090910C01A0910D01B0910E01803B9440C2
:1022D000A105B105F1F48091120180FD1AC0EE3F15
:1022E0008AE0F80789F587E797E7918380838091F3
:1022F00060008093600288E19BE00FB6F894A89597
:10230000809360000FBE909360006DCEEEEFFAE018
:10231000D5CF808191818737974709F064CEA89502
:10232000809160008861809360008091600280935A
:102330006000EE3F2AE0F20789F08091FE0A90915A
:10234000FF0A918380834FCE8081918187379807E0
:1023500051F29093FF0A8093FE0AC5CF1092FF0AB4
:102360001092FE0A40CE0E941A07DC0112960D91CF
:102370001C910115110509F4EECED801ED91FC91E7
:102380000190F081E02DBE016B5E7F4FC801099581
:10239000811129CEF80100851185EBCF1816190699
:1023A0000CF421CED8CEF1E0FF12C4CE61E773E089
:1023B0000ACF1F920F920FB60F9211242F933F93C3
:1023C0004F935F936F937F938F939F93AF93BF933D
:1023D000EF93FF93E0911301F09114010995FF91A0
:1023E000EF91BF91AF919F918F917F916F915F918D
:1023F0004F913F912F910F900FBE0F901F90189506
:10240000EF92FF920F931F93CF93DF93F82E192F24
:10241000E62E042F81E0860F880F0E94280583E0B6
:102420000E942805CF2DD12FEC0EFD2EF11CCE15CC
:10243000DF05B9F007FF13C0FE0184910E94280553
:10244000182F80E00E942805812321968111EFCF6B
:10245000DF91CF911F910F91FF90EF9008958881A8
:10246000EDCF81E0F5CFFC018381806496859111E9
:1024700002C043E050E00C9413060A970C94331208
:10248000BC01625F7F4FFC01838148E050E08064C3
:102490000C9413060A970C944012CF93DF9310927A
:1024A00085021092840288EE93E0A0E0B0E0809371
:1024B000860290938702A0938802B093890283E3F7
:1024C00091E090938302809382028FEF9FEF90932D
:1024D0008F0280938E02C1E0C093D602C093D702D0
:1024E0008FED92E09093D9028093D8021092DB0294
:1024F0001092DA021092DE0285E491E09093D3020A
:102500008093D20283E591E09093DD028093DC0218
:10251000C093E002C093E102D1ECD093DF020E94AD
:102520001A0762ED72E00E945F07C093E602C09353
:10253000E70288EF92E09093E9028093E80210921C
:10254000EB021092EA021092EF021092EE0289E57D
:1025500091E09093E3028093E20287E691E090930A
:10256000ED028093EC02C093F902C093FA0210923C
:10257000FB021092FD021092FC021092FF021092D8
:10258000FE02D093F8020E941A0762EE72E00E94E7
:102590005F0785E891E0909328038093270380915B
:1025A0001F03811112C010921A03109219038FECAD
:1025B00093E090931C0380931B0389E190E0909338
:1025C0001E0380931D03C0931F038091110381118B
:1025D0002CC0C1E0C0930403C09305038AE093E0DC
:1025E0009093070380930603109209031092080347
:1025F00089E791E0909301038093000310920C030C
:1026000010920B0310920E0310920D03C0930F0350
:10261000C093100381EC80930A030E941A0760E0C4
:1026200073E00E945F07C0931103E0910B03F091E8
:102630000C03309709F073C089E193E090930C0389
:1026400080930B0380910D0390910E0320911D0345
:1026500030911E03820F931F90930E0380930D03FE
:102660001092380310923F031092460310924703D2
:10267000109248031092490381E0809345038093B0
:1026800042031092430392E09093440380933703F4
:1026900084E290E090933C0380933B030E943E1AB7
:1026A0009093410380934003009709F441C024E2D2
:1026B000FC0111922A95E9F78CE090E090933A039F
:1026C0008093390389E090E090933E0380933D032B
:1026D00080913803882339F061E089E00E94BF03CC
:1026E00089E00E946F03EEE1F4E0E491F0E0EE0F88
:1026F000FF1FE95FFB4F8591949190934B0380936B
:102700004A03E1EFF3E0E491E0934C036AE871E0FF
:1027100081E393E0DF91CF910C94610EFC01808105
:1027200091810097D9F789E193E0918380838ACFE3
:1027300010923C0310923B0310923A03109239031B
:10274000C1CFCF93DF93CDB7DEB7AD970FB6F89477
:10275000DEBF0FBECDBF789484B5826084BD84B5E2
:10276000816084BD85B5826085BD85B5816085BD8C
:1027700080916E00816080936E0010928100809144
:1027800081008260809381008091810081608093CC
:102790008100809180008160809380008091910011
:1027A000826080939100809191008160809391007C
:1027B000809190008160809390008091C10084603E
:1027C0008093C1008091C10082608093C10080919C
:1027D000C10081608093C1008091C30081608093BB
:1027E000C3008091C00082608093C0008091C200CD
:1027F00081608093C20080917A00846080937A0027
:1028000080917A00826080937A0080917A00816062
:1028100080937A0080917A00806880937A00109289
:102820007D0210926302109262028091D700816053
:102830008093D70080EA8093D80089B5806189BDF4
:1028400089B5826089BD09B400FEFDCF61E070E00A
:1028500080E090E00E94F3048091D8008F7C80613A
:102860008093D8008091E000807F8093E000809189
:10287000E1008E7E8093E1008DE08093E200559A26
:10288000209AE9E2F3E088E0DF011D928A95E9F7FA
:1028900048E050E0BF0187E293E00E942A0A0E94CC
:1028A000B0028FEF9FEF90938F0280938E0286EAA3
:1028B00091E00E94D60D62E084E10E94BF0362E0D5
:1028C00083E10E94BF0362E082E10E94BF0390E0C7
:1028D00080E00E94E40E90E0909365028093640291
:1028E0008CE390E00E94E40E082F10E01093160194
:1028F000009315018AE490E00E94E40E91E08111BA
:1029000001C090E090937002015011090A30110546
:1029100030F082E090E0909316018093150186E4F8
:1029200090E00E94E40E082F10E010936F020093D5
:102930006E0288E490E00E94E40E90E090936D02B5
:1029400080936C02005211090F35110558F08CE488
:1029500090E090936F0280936E026CE486E490E0C6
:102960000E94BE0E80916C0290916D0280978F350F
:10297000910558F082E590E090936D0280936C028F
:1029800062E588E490E00E94BE0E8091640290911E
:1029900065028230910509F415C184F46AE871E09A
:1029A0000197A1F06AE871E081E393E00E94570E7D
:1029B00061E090E080E00E94BE0E0CC08330910583
:1029C00009F403C164EC71E0049761F781E393E0DB
:1029D0000E94570E82E390E00E94E40E90E09093F4
:1029E0006B0280936A0285E390E00E94E40E90E01F
:1029F000909369028093680288E390E00E94E40E5D
:102A000090E0909367028093660280913D039091DD
:102A10003E0397FDDDC061E00E94BF0380913D034E
:102A20000E946F0381E0809338030E94BB0A64E632
:102A300070E080E090E00E94F30482E290E00E9467
:102A40003E1A8C0184E1F801808383E1818382E175
:102A500082831382158214821782168282E0808715
:102A60001286118681E0838715861486868787877C
:102A7000108A118A138A128A158A148A88EE93E0C2
:102A8000978B868B80E991E0918F808F128E138EC9
:102A9000148E158E178E168E11A210A262E084E19C
:102AA0000E94BF03F801818187FD03C062E00E949C
:102AB000BF03D80112968C9187FD03C062E00E948B
:102AC000BF03F80180810E949603D80113962C91D0
:102AD00013972817190631F483E090E017969C931A
:102AE0008E931697F80181810E949603D801139660
:102AF0002C9113972817190641F416968D919C91E5
:102B0000B1E08B27F80197838683109376020093B8
:102B1000750280E1809381001092800080E49FE143
:102B2000909387008093860081E18093810082E00A
:102B30009BE0909314018093130181E080936F00D8
:102B40008FEF9FEF90937202809371021092740244
:102B500010927302AAE04A2E512C612C712CF0E0E5
:102B60008F2EF0E09F2E82E892E00E945A08892B77
:102B700009F477C069E871E0CE0188960E94610E81
:102B80000E94F60797FD27C08A30910521F18983BD
:102B90001A820CA51DA50F5F1F4FB801CE018896A4
:102BA0000E940E0E882361F328A539A58CA59DA54A
:102BB000BE016F5F7F4F820F931F0E943D1C1DA7B8
:102BC0000CA7DECF6CEA71E001CF68EB71E0FECEBE
:102BD000109238032ACF65ED71E0CE0101960E9474
:102BE000610EBE016F5F7F4FCE0188960E94F30D8C
:102BF000182FCE0101960E948C0D112309F492C06A
:102C000068A579A56115710509F487C04CA55DA576
:102C100081E393E00E94360E8AE891E00E94940DD1
:102C200061E0811116C08CEA91E00E94940D62E08F
:102C300081110FC088EB91E00E94940D63E0811137
:102C400008C084EC91E00E94940D64E0811101C001
:102C500060E090E080E00E94BE0ECE0188960E9467
:102C60008C0DE0917502F0917602F8948481958143
:102C70002085223009F0A6C29C01217033273583BC
:102C800024832085243021F4959587959595879503
:102C90002085223011F4959587952385222309F408
:102CA0009BC221853285232F332797FF98C2C90104
:102CB0008095909578940091730210917402080F9A
:102CC000191F1093740200937302209171023091C6
:102CD000720202171307D1F0021B130B8AE891E06E
:102CE0000E94940D882309F480C289EE90E01016AA
:102CF000110614F08AEE90E00E94830A809173021C
:102D000090917402909372028093710281149104E5
:102D100009F429CF0E94000022CF81E393E00E94B2
:102D20007A0D7ACF6BED71E0CE0101960E94610EB3
:102D3000BE016F5F7F4FCE0188960E94F30D182F62
:102D4000CE0101960E948C0D112309F489C064E024
:102D500070E0CE0188960E94AD0D6C017C01FFEF02
:102D6000EF1AFF0AB701CE0188960E94AD0D8C01C3
:102D7000960144E050E0BE01685D7F4FCE010196B0
:102D80000E94720ECE0101960E94E80D70936B02B4
:102D900060936A02CE0101960E948C0D9801A701F2
:102DA000BE01685D7F4FCE0101960E94720ECE017A
:102DB00001960E94E80D7093690260936802CE014B
:102DC00001960E948C0D2CA53DA5A8014F5F5F4F79
:102DD000BE01685D7F4FCE0101960E94720ECE014A
:102DE00001960E94E80D7093670260936602CE011F
:102DF00001960E948C0D0E94BB0A6AE672E082E393
:102E000090E00E94C00E68E672E085E390E00E94C8
:102E1000C00E66E672E088E390E00E94C00E10E00B
:102E200000E08091390390913A0308171907A8F43C
:102E300080916A024091680250E070E060E0762F75
:102E4000652F542F4427682B80916602482BC801B8
:102E50000E9446020F5F1F4FE4CF0E942004FDCE68
:102E600060EE71E0CE0101960E94610EBE016F5FBF
:102E70007F4FCE0188960E94F30D182FCE01019648
:102E80000E948C0D112309F446C065E070E0CE016C
:102E900088960E94AD0D8C019C0145E050E0BE017A
:102EA000685D7F4FCE0101960E94720ECE010196A1
:102EB0000E94E80D70936F0260936E02CE0101963E
:102EC0000E948C0D2CA53DA5A8014F5F5F4FBE0150
:102ED000685D7F4FCE0101960E94720ECE01019671
:102EE0000E94E80D70936D0260936C02CE01019612
:102EF0000E948C0D6EE672E086E490E00E94C00EA7
:102F00006CE672E088E490E00E94C00E86EE91E0EC
:102F10000E94D60DA2CE6AEF71E0CE0101960E940A
:102F2000610EBE016F5F7F4FCE0188960E94F30D48
:102F3000182FCE0101960E948C0D112309F470C048
:102F40002CA53DA54CE050E0BE01685D7F4FCE0151
:102F500001960E94720ECE0101960E94E80D8B012F
:102F6000CE0101960E948C0D1016110614F002E09D
:102F700010E01093160100931501602F8CE390E090
:102F80000E94BE0E87E092E00E94C90DC09015011C
:102F9000D09016010D2C000CEE08FF08F7FE2AC099
:102FA0006DE282E892E00E94BD0722273327A90143
:102FB0002C193D094E095F0919A28E010F5D1F4FA3
:102FC000CA01B901A30192010E94161A605DD801DD
:102FD0006E938D01211531054105510589F70115C4
:102FE000110519F0C8010E94C90D87E891E00E94FF
:102FF000C90D33CEA701960119A28E010F5D1F4F97
:10300000CA01B901A30192010E94161A605DF8017C
:1030100062938F01211531054105510589F7DFCFF5
:1030200063E272E0CE0101960E94610EBE016F5F05
:103030007F4FCE0188960E94F30D182FCE01019686
:103040000E948C0D112309F408CE2CA53DA540E16A
:1030500050E0BE01685D7F4FCE0182960E94720EE5
:10306000CAA0DBA0C114D10439F00EA11FA17601C2
:103070000115110509F05DC06EED71E0CE010196FC
:103080000E94610EBE016F5F7F4FCE0182960E944B
:10309000F30D182FCE0101960E948C0D112351F1D2
:1030A0002EA13FA141E050E0BE016E5D7F4FCE01F9
:1030B00001960E94720E8AA19BA1009709F471C02B
:1030C00069817A816115710509F469C04CA15DA11E
:1030D0002D813E814217530708F461C00E943D1CB8
:1030E0008D819E819FA38EA31E821D82CE0101969B
:1030F0000E948C0DCE0182960E94E80D8B0181E02A
:103100000130110509F080E08093700285E392E0C0
:103110000E94C90D8FE991E00130110511F486E993
:1031200091E00E94D60DCE0182960E948C0D95CD25
:1031300075015701FFEFAF1ABF0AD7018C91082E16
:10314000000C990B0E94A919892B91F701501109C4
:103150000C0D1D1DF8018081082E000C990B0E949A
:10316000A919892B31F00E151F0518F0015011090E
:10317000F1CFA8014F5F5F4F4E195F095FA34EA3C8
:10318000CE14DF0420F4B701C6010E94201CEAA17E
:10319000FBA18EA19FA1E80FF91F10826DCF0E94A5
:1031A000DA1A89819A819BA38AA38B819C819DA332
:1031B0008CA38D819E819FA38EA31A8219821C826B
:1031C0001B8292CF2085243021F49C012370332769
:1031D00056CD1582148255CD30E020E066CD0097A3
:1031E00009F468CDC901019665CD8CEA91E00E9491
:1031F000940D882349F121E030E01016110614F4F3
:103200002FEF3FEF4091150150911601249FC0010F
:10321000259F900D349F900D112420917002222340
:1032200019F09195819591099091DE0299831A8206
:103230001B828C8344E050E0BE016F5F7F4F82EDC4
:1032400092E00E9433125ACD88EB91E00E94940DD7
:10325000882379F0101611063CF48FE40E94750C57
:103260008FE40E94880C4ACD80E50E94750C80E5B1
:10327000F8CF84EC91E00E94940D882309F43ECDB0
:10328000101611066CF460916E028CEE92E00E94B2
:103290004B0D60916E028CEE92E00E94330D2ECDAC
:1032A00060916C028CEE92E00E944B0D60916C027A
:1032B000F2CF81E393E00E948C0D809140039091C6
:1032C00041030E94DA1A80913D0390913E0397FDDD
:1032D00003C060E00C94BF0308951F93FC0199277D
:1032E0008827BC01E89411911032E9F3193010F0ED
:1032F0001E30C8F31B3251F01D3249F4689406C0E9
:103300000E949419610F711D811D911D119110531F
:103310001A30B0F33EF490958095709561957F4F8B
:103320008F4F9F4F1F910895592F482F372F262FCA
:10333000660F771F881F991F660F771F881F991FB9
:10334000620F731F841F951F660F771F881F991FB9
:10335000089591110C94B219803219F0895085505A
:10336000C8F70895992788270895F999FECF92BD47
:1033700081BDF89A992780B50895262FF999FECF37
:103380001FBA92BD81BD20BD0FB6F894FA9AF99A82
:103390000FBE019608952F923F924F925F926F92C7
:1033A0007F928F929F92AF92BF92CF92DF92EF92D5
:1033B000FF920F931F93CF93DF93CDB7DEB7CA1B56
:1033C000DB0B0FB6F894DEBF0FBECDBF09942A8881
:1033D000398848885F846E847D848C849B84AA8429
:1033E000B984C884DF80EE80FD800C811B81AA81B6
:1033F000B981CE0FD11D0FB6F894DEBF0FBECDBF81
:10340000ED010895AA1BBB1B51E107C0AA1FBB1FFA
:10341000A617B70710F0A61BB70B881F991F5A9560
:10342000A9F780959095BC01CD010895A1E21A2ECF
:10343000AA1BBB1BFD010DC0AA1FBB1FEE1FFF1F58
:10344000A217B307E407F50720F0A21BB30BE40BA8
:10345000F50B661F771F881F991F1A9469F76095EF
:103460007095809590959B01AC01BD01CF010895A9
:10347000EE0FFF1F0590F491E02D09940F931F9319
:10348000CF93DF938230910510F482E090E0E091D9
:103490004F03F091500330E020E0B0E0A0E030971F
:1034A00099F42115310509F44AC0281B390B243041
:1034B0003105D8F58A819B816115710589F1FB0180
:1034C00093838283FE0111C0408151810281138167
:1034D00048175907E0F04817590799F4109761F019
:1034E00012960C93129713961C933296CF01DF918C
:1034F000CF911F910F91089500934F0310935003A4
:10350000F4CF2115310551F04217530738F0A901C6
:10351000DB019A01BD01DF01F801C1CFEF01F9CF55
:103520009093500380934F03CDCFFE01E20FF31F22
:10353000819391932250310939832883D7CF2091E9
:103540004D0330914E03232B41F42091190130910A
:103550001A0130934E0320934D03209117013091AF
:1035600018012115310541F42DB73EB740911B01DB
:1035700050911C01241B350BE0914D03F0914E033B
:10358000E217F307A0F42E1B3F0B2817390778F03A
:10359000AC014E5F5F4F2417350748F04E0F5F1F99
:1035A00050934E0340934D03819391939FCFF0E04E
:1035B000E0E09CCFCF93DF930097E9F0FC013297D6
:1035C00013821282A0914F03B0915003ED0130E0BD
:1035D00020E01097A1F420813181820F931F209168
:1035E0004D0330914E032817390709F061C0F0935D
:1035F0004E03E0934D03DF91CF910895EA01CE177A
:10360000DF07E8F54A815B819E0141155105B1F75D
:10361000E901FB83EA8349915991C40FD51FEC1747
:10362000FD0761F4808191810296840F951FE90165
:1036300099838883828193819B838A83F0E0E0E091
:1036400012968D919C9113970097B9F52D913C910D
:103650001197CD010296820F931F20914D03309157
:103660004E032817390739F6309751F51092500359
:1036700010924F03B0934E03A0934D03BCCFD3835E
:10368000C28340815181840F951FC817D90761F407
:103690004E5F5F4F88819981480F591F5183408346
:1036A0008A819B81938382832115310509F0B0CFF4
:1036B000F0935003E0934F039ECFFD01DC01C0CF98
:1036C00013821282D7CFB0E0A0E0E9E6FBE10C94D0
:1036D000CD198C01009751F4CB010E943E1A8C0148
:1036E000C801CDB7DEB7E0E10C94E919FC01E60FA3
:1036F000F71F9C0122503109E217F30708F49DC01F
:10370000D901CD91DC911197C617D70798F0C53034
:10371000D10530F3CE0104978617970708F3C61B2F
:10372000D70B2297C193D1936D937C93CF010E94C5
:10373000DA1AD6CF5B01AC1ABD0A4C018C0E9D1E65
:10374000A0914F03B0915003512C412CF12CE12C4E
:10375000109731F580914D0390914E03881599058E
:1037600009F05CC04616570608F058C08091170152
:1037700090911801009741F48DB79EB740911B01BD
:1037800050911C01841B950BE817F90708F055C0F0
:10379000F0934E03E0934D03F90171836083A0CF52
:1037A0008D919C91119712966C90129713967C9024
:1037B0001397A815B90559F56C0142E0C40ED11C48
:1037C000CA14DB0420F1AC014A195B09DA01129634
:1037D000159780F06282738251834083D9016D9383
:1037E0007C93E114F10471F0D7011396FC93EE93EE
:1037F000129776CF22968C0F9D1FF90191838083BB
:10380000F301EFCFF0935003E0934F0369CF4816D5
:10381000590608F42C017D01D3019ACFCB010E94F7
:103820003E1A7C01009749F0AE01B8010E94201CAD
:10383000C8010E94DA1A870153CF10E000E050CF90
:10384000FB01DC0102C001900D9241505040D8F7BD
:103850000895FC018191861721F08823D9F79927D3
:1038600008953197CF010895FB01DC018D910190FE
:1038700080190110D9F3990B0895FB01DC01019027
:103880000D920020E1F70895FB01DC01415050400A
:1038900030F08D910190801919F40020B9F7881B40
:1038A000990B089512E0CBE1D2E004C0FE010E9422
:0E38B000381A2196CC31D107C9F7F894FFCF12
:1038BE0000C18081000000FFFFFFFF00E10000005B
:1038CE00000000740802000000510380000921016D
:1038DE00010001222E0009210101000122450000F4
:1038EE00000000BD07A707D30725055A08D80736DD
:1038FE0008000000007508E208A208200A3312F63C
:10390E00FF00003D12000000002E09C609860920A6
:10391E000A4012F6FF0000630DED06270A27051177
:10392E000A4A122B0C00000000E502B7057C0508C0
:10393E0003000000002A0A0D0A004D4F44455F5651
:10394E004F4C554D45005265766572736564004E59
:10395E006F726D616C00434B6E6F62004D4F44454C
:10396E005F5343524F4C4C004D4F44455F415252B2
:10397E004F5753004D4F44455F435553544F4D5F82
:10398E004B455953004D4F44455F005247422C0062
:10399E004B4559532C00437573746F6D206B6579CD
:1039AE007320757064617465640053454E534954B9
:1039BE0049564954592C005363726F6C6C205365F1
:1039CE006E73697469766974792053657420746FA7
:1039DE003A20005343524F4C4C5F44495245435496
:1039EE00494F4E2C005363726F6C6C2044697265A4
:1039FE006374696F6E2053657420746F3A200000F3
:00000001FF
