:100000000C941D020C9445020C9445020C9445027C
:100010000C9445020C9445020C9445020C94450244
:100020000C9445020C9445020C94B00F0C942D10C6
:100030000C9445020C9445020C9445020C94450224
:100040000C9445020C9445020C9445020C94450214
:100050000C9459120C9445020C9445020C94660FB2
:100060000C9445020C9445020C9445020C944502F4
:100070000C9445020C9445020C9445020C944502E4
:100080000C9445020C9445020C9445020C944502D4
:100090000C9445020C9445020C9445020C944502C4
:1000A0000C9445020C9445020C944502000000009B
:1000B0000000000000000000000000002A002B00EB
:1000C0002800000000000000000000000000000008
:1000D0000000000000000000000000000000000020
:1000E0000000000000000000000000002C001E02C4
:1000F00034022002210222022402340026022702B6
:1001000025022E0236002D003700380027001E0081
:100110001F002000210022002300240025002600CB
:100120003302330036022E00370238021F02040267
:10013000050206020702080209020A020B020C026B
:100140000D020E020F02100211021202130214021B
:10015000150216021702180219021A021B021C02CB
:100160001D022F003100300023022D023500040053
:10017000050006000700080009000A000B000C003B
:100180000D000E000F0010001100120013001400EB
:10019000150016001700180019001A001B001C009B
:1001A0001D002F0231023002350200000000000065
:1001B000000000000000000000000000000000003F
:1001C000000000000000000000000000000000002F
:1001D000000000000000000000000000000000001F
:1001E000000000000000000000000000000000000F
:1001F00000000000000000000000000000000000FF
:1002000000000000000000000000000000000000EE
:1002100000000000000000000000000000000000DE
:1002200000000000000000000000000000000000CE
:1002300000000000000000000000000000000000BE
:1002400000000000000000000000000000000000AE
:10025000000000000000000000000000000000009E
:10026000000000000000000000000000000000008E
:10027000000000000000000000000000000000007E
:10028000000000000000000000000000000000006E
:10029000000000000000000000000000000000005E
:1002A0000000000000000000000000000706050438
:1002B0000100080A0B0C0D0905010906A10105073B
:1002C00019E029E715002501750195088102050C43
:1002D00095017508150026FF00190029FF8100050A
:1002E00008190129089508750191020507950675F9
:1002F00008150026E700190029E78100C00501095B
:1003000002A1010901A1000509190129081500250B
:100310000195087501810205010930093109381577
:1003200081257F750895038106C0C0080B00020275
:100330000200000904000001020200000524001070
:100340000105240101010424020605240600010719
:1003500005810310004009040100020A00000007A3
:100360000502024000000705830240000004030963
:100370000412010002EF0201404F1B0B9200010129
:10038000020301537061726B46756E00434B6E6FD2
:10039000625F312E31310000000000240027002A66
:1003A000002D003000000000002300260029002C52
:1003B000002F000000000200090F000003040100EC
:1003C0000C00000000000000000000000000000021
:1003D00000050C0901A1018504150026FF03190081
:1003E0002AFF03950475108100C004080201104023
:1003F000804010204080408008020401804020108E
:10040000020110801020404020000000002500283C
:10041000002B002E00310004040404040304050230
:10042000020202040302020202060606060606048F
:10043000040202020404CD12301A11241FBECFEFB1
:10044000DAE0DEBFCDBF23E0A2E7B2E001C01D923B
:10045000A337B207E1F712E0A0E0B1E0ECE6FAE37F
:1004600002C005900D92A237B107D9F712E0CCE196
:10047000D2E004C02197FE010E940F1BCB31D107AF
:10048000C9F70E9421140C94291D0C9400008F922E
:100490009F92AF92BF92CF92DF92EF92FF92CF9353
:1004A0004B01AA24BB24C82DC52ED62EE72EFF242F
:1004B000BC2DA42F20916103222361F0829E400174
:1004C0001124C92D2C9D60011124BD2D249FF00104
:1004D0001124AF2FE0916703E0906203F090630373
:1004E00030916403E31323C09C01220F331F820F5A
:1004F000931F8E0D9F1DE0916403E80FF92FF11DEE
:10050000C083E0916503E80FF92FF11DB0832091BE
:100510006603820F911DFC01A083CF91FF90EF90A5
:10052000DF90CF90BF90AF909F908F900895880FED
:10053000991F880F991F8E0D9F1D472F55276627DE
:100540007727222349F030E0249F7001259FF00C8B
:10055000349FF00C11244F2DE80FF92FF11D40832B
:10056000CACF83E08093E9008091F200882319F0DC
:100570008AE38093E8000895FC0180919F0288231C
:1005800011F13FB7F89482E08093E9002091F200E6
:10059000822F90E01816190614F481E090E0882369
:1005A00039F0289844E640939E024091F100408340
:1005B000222339F02091F200211103C02BE6209371
:1005C000E8003FBF08958FEF9FEF0895DC01FB0126
:1005D00012962C911297848195812817190641F45F
:1005E00091818081813A31F49D7F81E0913009F0E1
:1005F00080E008958132E1F79B3029F482811F96D3
:100600008C9381E008959A3099F7828150968C936B
:10061000F8CFDC01FB0188E4808389E4818384E4F2
:1006200082831D969C911D979F709F5B93831D965F
:100630008D919C9124E0969587952A95E1F78F708E
:100640008F5B848385E0089581508F3008F047C028
:10065000E82FF0E0E25DFC4F0C940F1B4B034F03BF
:100660003D03430347036F036F036F0352035803B4
:100670005C03600366036F036A03809180008F77D9
:10068000809380000895809180008F7DF9CF8091C4
:100690008000877FF5CF84B58F7784BD089584B5BA
:1006A0008F7DFBCF809190008F778093900008958D
:1006B000809190008F7DF9CF80919000877FF5CF5A
:1006C0008091C0008F778093C00008958091C00012
:1006D0008F7DF9CF8091C200877F8093C2000895FB
:1006E000CF93DF93282F30E0F901ED54FC4F849134
:1006F000F901E651FC4FD491F901E95EFB4FC49139
:10070000CC2391F081110E942403EC2FF0E0EE0F36
:10071000FF1FE75FFB4FA591B4918FB7F894EC9161
:10072000D095DE23DC938FBFDF91CF910895CF93D7
:10073000DF93282F30E0F901ED54FC4F8491F9014B
:10074000E651FC4FD491F901E95EFB4FC491CC23F3
:10075000A1F081110E942403EC2FF0E0EE0FFF1FA7
:10076000EB55FC4FA591B491EC91ED2381E090E025
:1007700009F480E0DF91CF91089580E090E0FACF16
:10078000CF93DF9390E0FC01E651FC4F2491895E0A
:100790009B4FFC0184918823C9F090E0880F991F3A
:1007A000FC01E956FC4FA591B491FC01E75FFB4FBA
:1007B000C591D49161110DC09FB7F8948C9120958B
:1007C00082238C938881282328839FBFDF91CF9138
:1007D0000895623051F49FB7F8943C91822F809530
:1007E00083238C93E8812E2BEFCF8FB7F894EC9175
:1007F0002E2B2C938FBFEACF3FB7F89480919A02AB
:1008000090919B02A0919C02B0919D0226B5A89B5D
:1008100005C02F3F19F00196A11DB11D3FBFBA2F92
:10082000A92F982F8827BC01CD01620F711D811D52
:10083000911D42E0660F771F881F991F4A95D1F7D7
:1008400008950F931F93CF93DF93CDB7DEB729970A
:100850000FB6F894DEBF0FBECDBF809162039091BA
:100860006303892B09F47CC00E94FC030091680398
:100870001091690320916A0330916B03601771072F
:100880008207930740F46093680370936903809331
:100890006A0390936B0300916803109169032091A0
:1008A0006A0330916B03601B710B820B930B6C32EC
:1008B000714081059105C0F2F89480915D0390919B
:1008C0005E039A838983E0916203F0916303DF0101
:1008D00011968081898790915903E0916C03F09182
:1008E0006D0380916E03992309F445C09081982B84
:1008F00098879081809589238F838F818C8388E06E
:100900008B8358856F8149853B812C8189819A81B0
:10091000508347FD252F3A952083262F39F0441F19
:1009200000C000006083000000C0F2CF38E04D91AD
:1009300060830000019761F7F0936D03E0936C030F
:1009400049873B832C839A83898378940E94FC0394
:10095000609368037093690380936A0390936B03B9
:1009600029960FB6F894DEBF0FBECDBFDF91CF91B1
:100970001F910F9108959081982B98879081809571
:1009800089238F838F818E8388E08D8358856F8143
:1009900049853D812E8189819A81508347FD252F8C
:1009A00000C000C0208300C000C000C000C000C064
:1009B00060830000262F3A9541F0441F000000C0DC
:1009C00000C000C000C000C0E8CF38E04D9100C0BA
:1009D000608300C0019709F7F0936D03E0936C0307
:1009E00049873D832E83AFCF8F929F92AF92BF9264
:1009F000CF92DF92EF92FF924B015C010E94FC03C9
:100A00006B017C010E94FC036C197D098E099F0912
:100A1000683E734081059105A8F321E0821A910890
:100A2000A108B10888EEC80E83E0D81EE11CF11CB5
:100A300081149104A104B10429F7FF90EF90DF9095
:100A4000CF90BF90AF909F908F9008950C94B1027B
:100A50000895409180025091810220917E02309150
:100A60007F0242175307B4F49091E8009570E1F3C8
:100A70009091E80092FD19C08093F100809180026E
:100A80009091810201968F739927892B19F48EEF2B
:100A90008093E8008091800290918102019690936A
:100AA00081028093800281E0089580E00895DF92C2
:100AB000EF92FF920F931F93CF93DF93D82E8A016B
:100AC000EB017B01E40EF51ECE15DF0559F0D7FED4
:100AD00012C0FE0184910E94290521968111F4CF54
:100AE0000FEF1FEFC801DF91CF911F910F91FF9082
:100AF000EF90DF9008958881EECFEF92FF920F93F1
:100B00001F93CF93DF93FB012081213871F523815F
:100B1000223259F5DC0112964C912481358142171D
:100B2000130619F5EC010B851C85F12CE12C011540
:100B3000110589F0F801448155816281738180E853
:100B40000E9457058F3F980749F0E80EF91ED8011B
:100B50000D911C91ECCF81E08F87C701DF91CF9180
:100B60001F910F91FF90EF90089590E080E0F6CFF5
:100B7000CF93DF93CDB7DEB769970FB6F894DEBF9A
:100B80000FBECDBFFC01DB018C918F5F8C939E016A
:100B90002D5F3F4F8DE0D9011D928A95E9F729E03D
:100BA000298384E08A8391E09D8383E08E832A8772
:100BB00021E22B879C879D879F8722E2288B27E055
:100BC0002B8B25E02C8B8E8B20E430E0388F2F8B05
:100BD000998F82818B8395858685998B8A8B83817A
:100BE00080688D8B49E150E0BE016F5F7F4F80E0F0
:100BF0000E94570569960FB6F894DEBF0FBECDBFB1
:100C0000DF91CF9108952FB7F89487708093E90012
:100C10009091E800892F807295FF04C09091F200B6
:100C200080E4891B2FBF08957F928F929F92AF928D
:100C3000BF92CF92DF92EF92FF920F931F93CF93C9
:100C4000DF93C82E8B017A0180919F02811110C021
:100C50008FEF9FEFDF91CF911F910F91FF90EF905A
:100C6000DF90CF90BF90AF909F908F907F9008952E
:100C70008091840280FF05C08091E00082608093B3
:100C8000E000CE2DDF2DD12C8AEFB82E8C2D877071
:100C9000982E8C2D8072882E8C2D8074782E9AE35D
:100CA000A92E209719F4DD2009F452C08C2D0E9442
:100CB000030681110AC0BA94BB2051F261E070E0D2
:100CC00080E090E00E94F404ECCF8C171D0611F038
:100CD0000CF08C2F9FB7F8949092E9002091E800D7
:100CE00025FD02C09FBFDDCF282F30E0C21BD30BF4
:100CF000882029F08150A0F01092F100FBCFF8017C
:100D0000C7FC0AC0815050F041914093F100FACFE6
:100D100044914093F10031968150D0F7020F131F98
:100D2000DD2021F0A092E800D12CDCCF8091E800FA
:100D300085FD07C0A092E800DD24D394209791F2AE
:100D4000F3CF209779F6772069F2A092E800CACF16
:100D50005D9884E680938302C7017CCF615030F0B8
:100D60002091F100FC0120830196F8CF289884E6B9
:100D700080939E020895AF92BF92DF92EF92FF920E
:100D80000F931F93CF93DF935C018B01EB019BEFDC
:100D9000D92E2097C1F07E01C134D1051CF080E42A
:100DA000E82EF12C8091E80082FFFCCFC8018C1B5B
:100DB0009D0B6E2D8A0D9B1D0E94AE06D092E80001
:100DC000CE19DF09E6CFC801DF91CF911F910F91B6
:100DD000FF90EF90DF90BF90AF900895AF92BF92D9
:100DE000CF92DF92EF92FF920F931F93CF93DF93F7
:100DF0006C017B018B01040F151FEB015E01AE1826
:100E0000BF08C017D10759F06991D601ED91FC9147
:100E10000190F081E02DC6010995892B79F7C50174
:100E2000DF91CF911F910F91FF90EF90DF90CF90C6
:100E3000BF90AF9008958091760281110DC082E03D
:100E40008093720284E08093730210927502109274
:100E5000740281E08093760282E792E008950F9316
:100E60001F93CF93DF931F92CDB7DEB782E08983C4
:100E700042E450E06BE273E080E80E9457050E9474
:100E80001B07DC0112960D911C910115110589F0CB
:100E9000D801ED91FC910280F381E02DBE016F5FDE
:100EA0007F4FC801099597FD04C0F80100851185A1
:100EB000ECCF89810F90DF91CF911F910F91089511
:100EC000CF93DF93FC01DB01818114963C91149751
:100ED000682F630F7727771F683071059CF5C281F3
:100EE000D381209739F5B383A283908112969C9386
:100EF000129713968C93139715968C911597890FCB
:100F0000808390E080E0831708F52181C22FD0E034
:100F1000BE0160507F4F16964D915C911797480F18
:100F2000591FEA014881EB0148832F5F2183019615
:100F3000EACFEA014885598541155105D1F7B987AE
:100F4000A887D3CF80E0DF91CF91089581E0FBCFD8
:100F5000CF93DF93EC0180911201882331F083E07D
:100F60000E9414061816190634F081E090E09B8365
:100F70008A8380E090E0DF91CF910895CF93DF9353
:100F80001F92CDB7DEB76983DC01ED91FC91028041
:100F9000F381E02D41E050E0BE016F5F7F4F099586
:100FA0000F90DF91CF91089583E00E94030690E0B7
:100FB0000895CF93DF931F92CDB7DEB7FC018485F0
:100FC000958597FD08C02FEF3FEF358724870F9059
:100FD000DF91CF910895CE0101960E94BC02019746
:100FE00019F4898190E0F3CF8FEF9FEFF0CF2FB707
:100FF000F8948091A0029091A102A091A202B091D8
:10100000A3022FBF8093AC029093AD02A093AE02D7
:10101000B093AF0284EA92E00E94D90797FF26C0FE
:101020002FB7F8948091A0029091A102A091A20202
:10103000B091A3022FBF4091AC025091AD026091DC
:10104000AE027091AF02841B950BA60BB70B4091BB
:10105000A8025091A9026091AA027091AB02841774
:101060009507A607B707B0F28FEF9FEF08950F938C
:101070001F93CF93DF931F92CDB7DEB78C01FC0196
:101080008485958597FF0BC0CE0101960E94BC0216
:10109000019771F4898190E0F80195878487F801C0
:1010A000848595850F90DF91CF911F910F910895C1
:1010B0008FEF9FEFF1CFFC018485958597FD0BC0E5
:1010C0009FB7F89482E08093E9008091F2009FBF7F
:1010D00090E0019608959FB7F89482E08093E9002C
:1010E0008091F2009FBF90E008950895FC01DB011C
:1010F000228114968D919C9115972817190609F550
:1011000011968C9111979C91913A69F4813029F054
:10111000833029F486858093F10081E00895823040
:1011200081F48785F8CF913261F48B3021F41296E7
:101130008C918687F2CF8A3021F413968C91878721
:10114000ECCF80E00895CF93DF93CDB7DEB729973A
:101150000FB6F894DEBF0FBECDBFFC014281FB018C
:10116000248135814217130659F52081213841F534
:1011700023812132D1F489E0EDE1F1E0DE01119625
:1011800001900D928A95E1F749E050E0BE016F5F52
:101190007F4F80E00E94570529960FB6F894DEBF76
:1011A0000FBECDBFDF91CF910895223249F421E0E7
:1011B000FC0126874EE250E06DEF72E080E8EACF56
:1011C00090E080E0E9CFCF93DF93CDB7DEB76997AA
:1011D0000FB6F894DEBF0FBECDBFFC01DB019C91C2
:1011E0009F5F9C939E012D5F3F4F81E1D9011D922E
:1011F0008A95E9F729E0298384E08A8391E09D8339
:1012000083E08E839F8332E038872A8721E22B8711
:101210009C879D879F8722E2288B2EE2298B27E0DF
:101220002B8B25E02C8B8E8B20E430E0388F2F8B9E
:10123000998F82818B83838180688D8B49E150E017
:10124000BE016F5F7F4F80E00E94570569960FB621
:10125000F894DEBF0FBECDBFDF91CF910895CF933D
:10126000DF93EC01FB012A818481958128171906FF
:1012700009F04BC081819081913A79F4813029F055
:10128000833039F48F898093F10081E0DF91CF9131
:1012900008958230D1F5888DF6CF9132B1F58B303B
:1012A00019F482818F8BF1CF8A3019F48381888F72
:1012B000ECCF893051F5668177818381833079F471
:1012C0008C8D9D8D6817790701F58A8D9B8D0E9405
:1012D000BB068C8D9D8D90689D8F8C8FD6CF823074
:1012E00051F46130710589F461E070E0CE014996F6
:1012F0000E94BB06CACF813041F46830710529F4E1
:1013000068E070E0CE010E96F3CF80E0BFCFCF93C0
:10131000DF93CDB7DEB729970FB6F894DEBF0FBEC7
:10132000CDBFFC014281FB012481358142171306A8
:1013300059F52081213841F523812132D1F489E00A
:10134000E6E2F1E0DE01119601900D928A95E1F757
:1013500049E050E0BE016F5F7F4F80E00E9457057B
:1013600029960FB6F894DEBF0FBECDBFDF91CF91A7
:101370000895223249F421E0FC01278B45E450E036
:1013800068EB72E080E8EACF90E080E0E9CFCF93AD
:10139000DF93CDB7DEB769970FB6F894DEBF0FBE07
:1013A000CDBFFC01DB019C919F5F9C939E012D5F53
:1013B0003F4F81E1D9011D928A95E9F729E0298300
:1013C00084E08A8391E09D8383E08E839F83988766
:1013D0002A8721E22B879C879D879F8722E2288B83
:1013E00025E4298B27E02B8B25E02C8B8E8B20E4AA
:1013F00030E0388F2F8B998F82818B838381806837
:101400008D8B49E150E0BE016F5F7F4F80E00E940D
:10141000570569960FB6F894DEBF0FBECDBFDF91BA
:10142000CF910895FC019C01285F3F4F90E080E040
:1014300044814111019614823196E217F307C1F7F6
:101440000895FC0182818F5BFB01808381E0089518
:1014500090E080E00895CF92DF92EF92FF921F9389
:10146000CF93DF931F92CDB7DEB77B016A018091E6
:10147000330381112CC011E010932603109327032E
:101480008CE293E0909329038093280310922B031E
:1014900010922A0389E791E090932303809322031B
:1014A00010922E0310922D031092300310922F03EE
:1014B000109331031093320381EC80932C030E942C
:1014C0001B0762E273E00E9460071093330384E01D
:1014D000898341E050E0BE016F5F7F4F809125031B
:1014E0000E94140697FD07C080912503A601B7014D
:1014F00080640E9414060F90DF91CF911F91FF909E
:10150000EF90DF90CF900895CF93DF93EC01EBE461
:10151000F3E090E080E0219131910196232B41F599
:10152000880F991FFC01E75BFC4FD183C08348E023
:1015300050E06BE473E089E493E00E942B0AE9E455
:10154000F3E081E593E022813381C217D30711F4E0
:101550001382128232968E179F07A9F748E050E057
:101560006BE473E089E493E0DF91CF910C942B0A54
:101570008430910581F6DBCFCF93DF93C0915B037D
:10158000D0915C03219780915B0390915C03D7FD20
:1015900012C0C817D90730F440E050E0BA01CE01BC
:1015A0000E9447020E94210462E370E080E090E024
:1015B0000E94F404E7CFD0E0C0E080915B039091FB
:1015C0005C03C817D907E0F480918C0240918A022D
:1015D00050E070E060E0762F652F542F4427682B91
:1015E00080918802482BCE010E9447020E9421046C
:1015F00062E370E080E090E00E94F4042196DDCF89
:10160000DF91CF910895CF92DF92EF92FF920F93E7
:101610001F93CF93DF93C0919702D0919802888156
:1016200087FD48C0998197FD45C09B85992361F04E
:1016300029853A85225031093A87298729853A85B3
:1016400037FF02C01A8619860E9497032B8110E08B
:101650002817190609F413E089810E9497032B814A
:101660002817190611F481E018278E819F81811BAC
:1016700080FF8AC0212F110F330B3F832E832C81D3
:101680003D818270082E000C990B0197820F931FE9
:101690009D838C8381E09B85992361F0882351F0A1
:1016A00089859A85883E9B4028F489859A85499644
:1016B0009A8789878FB7F8944091A0025091A10230
:1016C0006091A2027091A3028FBF8A8D9B8DAC8D19
:1016D000BD8D481759076A077B0720F41A8E1B8EA9
:1016E0001C8E1D8E8A81181634F081118DC0988948
:1016F000992309F489C00A8D1B8D2C8D3D8D6A01BB
:101700007B01C01AD10AE20AF30A970186010A3066
:1017100011052105310508F477C04A8F5B8F6C8F66
:101720007D8F2989E82F222389F1823108F0E25147
:10173000F0E0E455FD4FE49190917B008E2F880FEF
:10174000880F80729F7D892B80937B00E770E06417
:10175000E0937C0080917A00806480937A0080918D
:101760007A0086FDFCCF80917800909179004E8DB3
:101770005F8D841795077CF021E048A159A1481797
:1017800059074CF020E007C080E085CF0E94970306
:1017900021E0892BB9F33B81321315C0EA89FB891B
:1017A0003196FB8BEA8B8E899F896AE070E00E94FC
:1017B000D91A6E177F0738F48F85882321F083E0CC
:1017C00090E09D878C8781E03827321310C08A898A
:1017D0009B89029750F08C859D850397F1F484E0F6
:1017E00090E09D878C871D8A1C8A1B8A1A8A8C89A7
:1017F0009D89009749F001979D8B8C8B892B21F453
:1018000085E090E09D878C87DF91CF911F910F91AC
:10181000FF90EF90DF90CF9008952C893D89223082
:10182000310560F0888D998D6AE070E00E94D91AC8
:1018300026173707D0F686E090E0D3CF8E8561E09B
:1018400070E0882331F0888D998D6AE070E00E9405
:10185000D91A7D8B6C8BC9CFCF93DF93DC0190E2DB
:10186000960F9830B0F414968C91149721E030E0E4
:1018700001C0220F9A95EAF7442341F0282B1496D1
:101880002C9381E090E0DF91CF910895209528235B
:10189000F6CFFD0136964423D1F0CD010C96EF0131
:1018A0002991621771F3C817D907D1F790E080E04A
:1018B0002191211105C0A80FB91F16966C93E1CF95
:1018C000019686309105A1F790E080E0DCCF90E0B2
:1018D00080E02191621305C0A80FB91F16961C92D3
:1018E000D0CF019686309105A1F7EECFCF93DF934D
:1018F00041E0682F8EE093E00E942C0CEC01892BD4
:1019000021F08EE093E00E94CA12CE01DF91CF91C8
:101910000895CF93DF9340E0682F8EE093E00E941C
:101920002C0CEC01892B21F08EE093E00E94CA126E
:10193000CE01DF91CF910895CF92DF92FF920F9366
:101940001F93CF93DF938C01F42EE62FF0E0EE0F80
:10195000FF1FE455FF4FC590D490D801ED91FC9145
:101960000484F585E02D6C2DC8010995EC01892BC7
:1019700011F4F11070C0D0FE0CC0D801ED91FC91B3
:101980000484F585E02D4F2D60EEC8010995C82B24
:10199000D92BD1FE0CC0D801ED91FC910484F585C2
:1019A000E02D4F2D61EEC8010995C82BD92BD2FE31
:1019B0000CC0D801ED91FC910484F585E02D4F2DEC
:1019C00062EEC8010995C82BD92BD3FE0CC0D801F3
:1019D000ED91FC910484F585E02D4F2D63EEC80157
:1019E0000995C82BD92BD4FE0CC0D801ED91FC91E0
:1019F0000484F585E02D4F2D64EEC8010995C82BB0
:101A0000D92BD5FE0CC0D801ED91FC910484F5854D
:101A1000E02D4F2D65EEC8010995C82BD92BD6FEB8
:101A20000CC0D801ED91FC910484F585E02D4F2D7B
:101A300066EEC8010995C82BD92BD7FE0CC0D8017A
:101A4000ED91FC910484F585E02D4F2D67EEC801E2
:101A50000995C82BD92BCE01DF91CF911F910F9102
:101A6000FF90DF90CF9008950F931F93CF93DF9354
:101A7000EC0140E00E949C0C8C01892B39F0E8813C
:101A8000F9810284F385E02DCE010995C801DF912B
:101A9000CF911F910F9108950F931F93CF93DF93D1
:101AA000EC0141E00E949C0C8C01892B39F0E8810B
:101AB000F9810284F385E02DCE010995C801DF91FB
:101AC000CF911F910F910895FF920F931F93CF9382
:101AD000DF938C01F62E0E944C0DEC01892B21F036
:101AE0006F2DC8010E94340DCE01DF91CF911F915F
:101AF0000F91FF900895CF93DF93EC018881998136
:101B0000009711F00E94B11B198218821D821C825D
:101B10001B821A82DF91CF910895FC01808191810F
:101B2000009711F00C94B11B089520915703309148
:101B30005803232B39F421E0FC018081882361F0D4
:101B400020E00AC0BC0180915303909154030E948D
:101B50000B1D21E0892BA1F7822F0895CF93DF93EE
:101B6000FC01248135816217730788F49B01C081D1
:101B7000D1816CE270E0CE01820F931F0E94001DA4
:101B8000009729F08C1B9D0BDF91CF9108958FEF6B
:101B90009FEFFACFFC0101900020E9F73197AF01E8
:101BA000481B590BBC0184EA92E00C94A807CF9320
:101BB000DF93D0E0C0E0009719F00E94CA0DEC015D
:101BC00087E891E00E94CA0D8C0F9D1FDF91CF9195
:101BD00008950C94CA0D8F929F92AF92BF92CF92AC
:101BE000DF92EF92FF920F931F93CF93DF93CDB7C6
:101BF000DEB7A1970FB6F894DEBF0FBECDBF6C0164
:101C0000990FEE08FF08F7FE41C06DE284EA92E00A
:101C10000E94BE078C0122273327A9012C193D09F8
:101C20004E095F0919A2CE0181967C019AE0892EA6
:101C3000912CA12CB12CCA01B901A50194010E94DB
:101C4000ED1A605DF70162937F01211531054105B1
:101C5000510589F790E080E0309719F0CF010E949C
:101C6000CA0D800F911FA1960FB6F894DEBF0FBE6C
:101C7000CDBFDF91CF911F910F91FF90EF90DF903B
:101C8000CF90BF90AF909F908F900895A70196013D
:101C900019A28E010F5D1F4F8AE0C82ED12CE12CB6
:101CA000F12CCA01B901A70196010E94ED1A605DED
:101CB000F80162938F01211531054105510589F71E
:101CC00090E080E0309779F2CF010E94CA0DCBCF2F
:101CD000FC0180819181009711F00C94441A60E01E
:101CE00070E0CB010895FB0144815581FC01248102
:101CF00035812417350778F080819181009759F05C
:101D0000FB01608171816115710529F00E941B1D25
:101D100021E0892B09F020E0822F08950F931F9373
:101D2000CF93DF93EC0188819981009759F02A8144
:101D30003B812617370730F081E0DF91CF911F916B
:101D40000F9108958B016F5F7F4F0E943A1C00979F
:101D500059F0998388831B830A832C813D81232B2F
:101D600059F7FC011082E8CF80E0E7CFEF92FF92B5
:101D70000F931F93CF93DF93EC017B018A01BA018C
:101D80000E948E0E81110BC0CE010E947B0DCE01F0
:101D9000DF91CF911F910F91FF90EF9008951D83D8
:101DA0000C83B701888199810E94141DF0CFFB013B
:101DB00001900020E9F73197AF01461B570B0C94B7
:101DC000B60EFC01118210821382128215821482D7
:101DD000FB0101900020E9F73197AF01461B570B3B
:101DE0000C94B60EAF92BF92CF92DF92EF92FF9219
:101DF0000F931F93CF93DF936C015B017A018901ED
:101E00002417350720F48F2D7901042F182F69E846
:101E100071E0C6010E94E10ED5011496CD91DC91CE
:101E2000EC16FD06E0F40C171D0708F4E801D501D7
:101E3000ED91FC911197EC0FFD1F108110826D91B7
:101E40007C916E0D7F1DC60161157105A1F00E9488
:101E5000D70EF50180819181C80FD91F1883C60163
:101E6000DF91CF911F910F91FF90EF90DF90CF9076
:101E7000BF90AF9008950E947B0DEBCF0C94941A05
:101E8000FF920F931F93CF93DF93EC018B01FB0124
:101E9000F0800E948C1AF81621F06F2DCE010E945E
:101EA000941AF801F1802196CE010E948C1AF8163E
:101EB00021F06F2DCE010E94941AC801DF91CF91BD
:101EC0001F910F91FF9008950C948C1A1F920F92FE
:101ED0000FB60F9211242F933F938F939F93AF933D
:101EE000BF938091A0029091A102A091A202B09113
:101EF000A3023091990223E0230F2D3758F5019664
:101F0000A11DB11D209399028093A0029093A1027C
:101F1000A093A202B093A30280919A0290919B0297
:101F2000A0919C02B0919D020196A11DB11D8093CC
:101F30009A0290939B02A0939C02B0939D02BF9142
:101F4000AF919F918F913F912F910F900FBE0F9066
:101F50001F90189526E8230F0296A11DB11DD2CF20
:101F60001F920F920FB60F9211242F933F934F930E
:101F70005F936F937F938F939F93AF93BF93CF9311
:101F8000EF93FF93C091E1008091E100837F809304
:101F9000E100C3FF0FC01092E90081E08093EB00E5
:101FA0001092EC0082E38093ED0010929F0288E093
:101FB0008093F000C2FF1AC00E94B1028091830298
:101FC000882341F0809183028150809383028111A4
:101FD00001C05D9A80919E02882341F080919E020B
:101FE000815080939E02811101C0289AC4FF23C0B2
:101FF0008091E2008E7E81608093E2008091E1001A
:102000008F7E8093E100809184028E7E8061809338
:102010008402FF91EF91CF91BF91AF919F918F91EA
:102020007F916F915F914F913F912F910F900FBED4
:102030000F901F901895C0FFECCF8091E2008E7E2C
:1020400080618093E2008091E1008E7E8093E100C8
:10205000809184028E7E8160DACF1F920F920FB63C
:102060000F921124CF92DF92EF92FF920F931F9362
:102070002F933F934F935F936F937F938F939F9390
:10208000AF93BF93EF93FF93CF93DF93CDB7DEB7BB
:102090006C97DEBFCDBF1092E9008091E80083FF0E
:1020A00025C068E0CE0145960E94AE0682EF80937F
:1020B000E8008D8987FF39C09091E80090FFFCCF40
:1020C000982F907609F034C19E894F89588D2F89B9
:1020D000F88C911131C0803861F580918502809330
:1020E000F1001092F1008EEF8093E8006C960FB62D
:1020F000F894DEBF0FBECDBFDF91CF91FF91EF917E
:10210000BF91AF919F918F917F916F915F914F910F
:102110003F912F911F910F91FF90EF90DF90CF9003
:102120000F900FBE0F901F9018959EEF9093E800B0
:10213000C7CF1092F100D5CF913059F48111D3CF90
:102140004130510581F6809185028D7F8093850213
:10215000CACF933049F48111C6CF4130510519F6E9
:10216000809185028260F2CF953041F48091E80041
:1021700080FFFCCF20682093E300B5CF963009F0B4
:10218000A9C00B8D1C8D22E01092E90010928102F3
:1021900010928002F2122EC010927F0210927E02E4
:1021A0000E942F071F8299E09983FA8291E09E8313
:1021B00090EA98879AEF9987209180023091810266
:1021C000275F3F4F3C832B838D831092E900109251
:1021D00081021092800210937F0200937E0249E0F8
:1021E00050E0BE016F5F7F4F80E00E9457050E9464
:1021F0002F0779CF10937F0200937E020E941B0766
:10220000DC0112960D911C910115110509F44BC1C9
:10221000D801ED91FC910480F581E02DBE016B5E4B
:102220007F4FC8010995009709F038C1F801008572
:102230001185EACFF3E0FF120EC08F89882309F4DD
:1022400040C0823061F440E86AE08CE893E00E948C
:102250008012811148CF81E28093EB0047CF81301B
:1022600029F440E868E083E893E0F1CF833099F700
:102270000E941B07DC011296ED90FC908E010F5F0F
:102280001F4F6801E114F10479F0D701ED91FC9141
:102290000680F781E02DB801C7010995080F111DCF
:1022A000F701E084F184EECFD8011C92F601019091
:1022B0000020E9F73197BF016C197D0940E0C601A4
:1022C000C6CF6DE673E0FB01449150E080E80E94C8
:1022D000570509CF973009F4BECF983021F481E03B
:1022E0008093F10000CF993009F0FDCE837009F0A2
:1022F000B2CFE1E0F1E081E031E096E321912223E9
:1023000071F08093E9003093EB00DF0111972C917D
:102310002093EC009093ED008F5F873079F78EE784
:102320008093EA001092EA008F8980939F02DBCEAF
:102330008B8D9C8D1092E900109281021092800288
:1023400090937F0280937E02898D81118CC08E894B
:102350009D89913A49F4813209F07DCF47E050E000
:102360006BE071E080E0B3CF913209F074CF83323B
:1023700069F48F89988DB0E0A0E080930701909375
:102380000801A0930901B0930A01ADCE803239F45F
:1023900067E070E08BE091E00E94BB06A4CE823241
:1023A00009F0A1CE8F8980931201EEEFFFE78591AE
:1023B00094918B3F9C4D51F1E0E0F8E080910B014E
:1023C00090910C01A0910D01B0910E01803B9440C1
:1023D000A105B105F1F48091120180FD1AC0EE3F14
:1023E0008AE0F80789F587E797E7918380838091F2
:1023F00060008093820288E19BE00FB6F894A89574
:10240000809360000FBE909360006DCEEEEFFAE017
:10241000D5CF808191818737974709F064CEA89501
:102420008091600088618093600080918202809337
:102430006000EE3F2AE0F20789F08091FE0A909159
:10244000FF0A918380834FCE8081918187379807DF
:1024500051F29093FF0A8093FE0AC5CF1092FF0AB3
:102460001092FE0A40CE0E941B07DC0112960D91CD
:102470001C910115110509F4EECED801ED91FC91E6
:102480000190F081E02DBE016B5E7F4FC801099580
:10249000811129CEF80100851185EBCF1816190698
:1024A0000CF421CED8CEF1E0FF12C4CE61E773E088
:1024B0000ACF1F920F920FB60F9211242F933F93C2
:1024C0004F935F936F937F938F939F93AF93BF933C
:1024D000EF93FF93E0911301F09114010995FF919F
:1024E000EF91BF91AF919F918F917F916F915F918C
:1024F0004F913F912F910F900FBE0F901F90189505
:10250000EF92FF920F931F93CF93DF93F82E192F23
:10251000E62E042F81E0860F880F0E94290583E0B4
:102520000E942905CF2DD12FEC0EFD2EF11CCE15CA
:10253000DF05B9F007FF13C0FE0184910E94290551
:10254000182F80E00E942905812321968111EFCF69
:10255000DF91CF911F910F91FF90EF9008958881A7
:10256000EDCF81E0F5CFFC018381806496859111E8
:1025700002C043E050E00C9414060A970C94B31286
:10258000BC01625F7F4FFC01838148E050E08064C2
:102590000C9414060A970C94C012CF93DF931092F8
:1025A000A7021092A60288EE93E0A0E0B0E080932C
:1025B000A8029093A902A093AA02B093AB0283E36E
:1025C00091E09093A5028093A4028FEF9FEF9093E8
:1025D000B1028093B002C1E0C093F802C093F90247
:1025E00081E093E09093FB028093FA021092FD0247
:1025F0001092FC021092000385E491E09093F502A2
:102600008093F40283E591E09093FF028093FE02B1
:10261000C0930203C0930303D1ECD09301030E9443
:102620001B0764EF72E00E946007C0930803C09329
:1026300009038AE193E090930B0380930A031092BD
:102640000D0310920C03109211031092100389E5F0
:1026500091E0909305038093040387E691E09093C3
:102660000F0380930E03C0931B03C0931C031092AF
:102670001D0310921F0310921E031092210310924B
:102680002003D0931A030E941B0764E073E00E94AA
:10269000600785E891E090934A0380934903809115
:1026A0004103811112C010923C0310923B0381ED53
:1026B00093E090933E0380933D0389E190E09093F3
:1026C000400380933F03C093410380913303811102
:1026D0002CC0C1E0C0932603C09327038CE293E093
:1026E000909329038093280310922B0310922A03BE
:1026F00089E791E0909323038093220310922E03A5
:1027000010922D031092300310922F03C0933103C7
:10271000C093320381EC80932C030E941B0762E27A
:1027200073E00E946007C0933303E0912D03F091A2
:102730002E03309709F073C08BE393E090932E0340
:1027400080932D0380912F039091300320913F03BC
:1027500030914003820F931F9093300380932F0397
:1027600010925A0310926103109268031092690349
:1027700010926A0310926B0381E080936703809349
:1027800064031092650392E090936603809359036B
:1027900084E290E090935E0380935D030E94151B9A
:1027A0009093630380936203009709F441C024E28D
:1027B000FC0111922A95E9F78CE090E090935C037C
:1027C00080935B0389E090E09093600380935F03C4
:1027D00080915A03882339F061E089E00E94C003A8
:1027E00089E00E947003E0E2F4E0E491F0E0EE0F93
:1027F000FF1FE75FFB4F8591949190936D0380934A
:102800006C03E3EFF3E0E491E0936E036AE871E0B8
:1028100083E593E0DF91CF910C94E10EFC01808180
:1028200091810097D9F78BE393E0918380838ACFDE
:1028300010925E0310925D0310925C0310925B0392
:10284000C1CFCF93DF93CDB7DEB762970FB6F894C1
:10285000DEBF0FBECDBF789484B5826084BD84B5E1
:10286000816084BD85B5826085BD85B5816085BD8B
:1028700080916E00816080936E0010928100809143
:1028800081008260809381008091810081608093CB
:102890008100809180008160809380008091910010
:1028A000826080939100809191008160809391007B
:1028B000809190008160809390008091C10084603D
:1028C0008093C1008091C10082608093C10080919B
:1028D000C10081608093C1008091C30081608093BA
:1028E000C3008091C00082608093C0008091C200CC
:1028F00081608093C20080917A00846080937A0026
:1029000080917A00826080937A0080917A00816061
:1029100080937A0080917A00806880937A00109288
:102920009F0210928502109284028091D7008160EC
:102930008093D70080EA8093D80089B5806189BDF3
:1029400089B5826089BD09B400FEFDCF61E070E009
:1029500080E090E00E94F4048091D8008F7C806138
:102960008093D8008091E000807F8093E000809188
:10297000E1008E7E8093E1008DE08093E200559A25
:10298000209AEBE4F3E088E0DF011D928A95E9F7F5
:1029900048E050E0BF0189E493E00E942B0A0E94C6
:1029A000B1028FEF9FEF9093B1028093B00288EA5B
:1029B00091E00E94D70D62E084E10E94C00362E0D2
:1029C00083E10E94C00362E082E10E94C00390E0C4
:1029D00080E00E94640F90E09093870280938602CB
:1029E0008CE390E00E94640F082F10E01093160112
:1029F000009315018AE490E00E94640F91E0811138
:102A000001C090E090939202015011090A30110523
:102A100030F082E090E0909316018093150186E4F7
:102A200090E00E94640F082F10E010939102009331
:102A3000900288E490E00E94640F90E090938F02EF
:102A400080938E02005211090F35110558F08CE465
:102A500090E090939102809390026CE486E490E081
:102A60000E943E0F80918E0290918F0280978F3549
:102A7000910558F082E590E090938F0280938E024A
:102A800062E588E490E00E943E0F8091860290917A
:102A900087028230910509F46BC084F46AE871E022
:102AA0000197A1F06AE871E083E593E00E94D70EF8
:102AB00061E090E080E00E943E0F0CC08330910501
:102AC00009F459C066EC71E0049761F783E593E07F
:102AD0000E94D70E82E390E00E94640F90E09093F2
:102AE0008D0280938C0285E390E00E94640F90E059
:102AF00090938B0280938A0288E390E00E94640F97
:102B000090E0909389028093880280915F03909176
:102B1000600397FD33C061E00E94C00380915F03B2
:102B20000E94700381E080935A03609161036D3CC1
:102B300071F12091620330916303615011F170E0F3
:102B40008FEF9CEC0E94D91AF90140915D035091DE
:102B50005E03CF01821B930B84179507A8F4408175
:102B6000469FC001479F900D112490833196EDCF71
:102B70006EEA71E0ABCF6AEB71E0A8CF10925A0316
:102B8000D4CF70E060E0E0CF8DEC809361030E94D1
:102B9000BC0A64E670E080E090E00E94F40482E207
:102BA00090E00E94151B8C0184E1F801808383E191
:102BB000818382E1828313821582148217821682B6
:102BC00082E080871286118681E0838715861486CD
:102BD00086878787108A118A138A128A158A148A2F
:102BE00088EE93E0978B868B80E991E0918F808FC0
:102BF000128E138E148E158E178E168E11A210A2A1
:102C000062E084E10E94C003F801818187FD03C076
:102C100062E00E94C003D80112968C9187FD03C028
:102C200062E00E94C003F80180810E949703D801EE
:102C300013962C9113972817190631F483E090E02E
:102C400017969C938E931697F80181810E949703A3
:102C5000D80113962C9113972817190641F416964C
:102C60008D919C91B1E08B27F80197838683109317
:102C700098020093970280E1809381001092800077
:102C800080E49FE1909387008093860081E18093A8
:102C9000810083E09BE0909314018093130181E015
:102CA00080936F008FEF9FEF909394028093930235
:102CB0001092960210929502F0E0EF2EF0E0FF2EB7
:102CC00084EA92E00E945B08892B09F46EC069E8EF
:102CD00071E0CE010D960E94E10E0E94F70797FD6C
:102CE0001EC08A309105D9F089831A8209891A8910
:102CF0000F5F1F4FB801CE010D960E948E0E8823E4
:102D000061F32D853E8589899A89BE016F5F7F4F6A
:102D1000820F931F0E94141D1A8B098BDECF67ED63
:102D200071E0CE0101960E94E10EBE016F5F7F4F00
:102D3000CE010D960E94730E182FCE0101960E94AF
:102D40008D0D112309F492C06D857E856115710585
:102D500009F487C049895A8983E593E00E94B60E39
:102D60008AE891E00E94950D61E0811116C08EEA1B
:102D700091E00E94950D62E081110FC08AEB91E015
:102D80000E94950D63E0811108C086EC91E00E94DD
:102D9000950D64E0811101C060E090E080E00E9448
:102DA0003E0FCE010D960E948D0DE0919702F0919D
:102DB0009802F894848195812085223009F0D9C247
:102DC0009C0121703327358324832085243021F40E
:102DD00095958795959587952085223011F4959541
:102DE00087952385222309F4CEC221853285232F9E
:102DF000332797FFCBC2C9018095909578940091B5
:102E0000950210919602080F191F109396020093D5
:102E10009502209193023091940202171307D1F08A
:102E2000021B130B8AE891E00E94950D882309F498
:102E3000B3C289EE90E01016110614F08AEE90E00D
:102E40000E94840A80919502909196029093940238
:102E500080939302E114F10409F432CF0E94000040
:102E60002FCF83E593E00E947B0D7ACF6DED71E06B
:102E7000CE0101960E94E10EBE016F5F7F4FCE0131
:102E80000D960E94730E182FCE0101960E948D0D93
:102E9000112309F489C064E070E0CE010D960E9410
:102EA000AE0D5C016C01FFEFCF1ADF0AB601CE0157
:102EB0000D960E94AE0D8C01950144E050E0BE01DC
:102EC000635F7F4FCE0101960E94F20ECE01019604
:102ED0000E94680E70938D0260938C02CE01019661
:102EE0000E948D0D9801A601BE01635F7F4FCE0148
:102EF00001960E94F20ECE0101960E94680E709318
:102F00008B0260938A02CE0101960E948D0D298961
:102F10003A89A8014F5F5F4FBE01635F7F4FCE01CB
:102F200001960E94F20ECE0101960E94680E7093E7
:102F3000890260938802CE0101960E948D0D0E9445
:102F4000BC0A6CE872E082E390E00E94400F6AE8FD
:102F500072E085E390E00E94400F68E872E088E349
:102F600090E00E94400F10E000E080915B039091A0
:102F70005C0308171907A8F480918C0240918A021B
:102F800050E070E060E0762F652F542F4427682BC7
:102F900080918802482BC8010E9447020F5F1F4F93
:102FA000E4CF0E942104FDCE62EE71E0CE010196D5
:102FB0000E94E10EBE016F5F7F4FCE010D960E9411
:102FC000730E182FCE0101960E948D0D112309F466
:102FD00046C065E070E0CE010D960E94AE0D8C01FA
:102FE0009C0145E050E0BE01635F7F4FCE0101963A
:102FF0000E94F20ECE0101960E94680E709391021B
:1030000060939002CE0101960E948D0D29893A8924
:10301000A8014F5F5F4FBE01635F7F4FCE010196F6
:103020000E94F20ECE0101960E94680E70938F02EC
:1030300060938E02CE0101960E948D0D60E972E0D0
:1030400086E490E00E94400F6EE872E088E490E031
:103050000E94400F88EE91E00E94D70DA2CE6CEF47
:1030600071E0CE0101960E94E10EBE016F5F7F4FBD
:10307000CE010D960E94730E182FCE0101960E946C
:103080008D0D112389F129893A894CE050E0BE0168
:10309000635F7F4FCE0101960E94F20ECE01019632
:1030A0000E94680E8B01CE0101960E948D0D1016B4
:1030B000110614F002E010E01093160100931501C0
:1030C000602F8CE390E00E943E0F89E092E00E9426
:1030D000E90D80911501909116010E94EB0D87E892
:1030E00091E00E94CA0D5DCE65E272E0CE010196CC
:1030F0000E94E10EBE016F5F7F4FCE010D960E94D0
:10310000730E182FCE0101960E948D0D112309F424
:10311000BDC029893A8940E150E0BE01635F7F4F1D
:10312000CE0107960E94F20EAF80B884A114B104BC
:1031300039F00B851C8565010115110509F05DC08D
:1031400060EE71E0CE0101960E94E10EBE016F5F5C
:103150007F4FCE0107960E94730E182FCE01019665
:103160000E948D0D112351F12B853C8541E050E0EB
:10317000BE01695F7F4FCE0101960E94F20E8F81E2
:103180009885009709F471C069817A81611571058C
:1031900009F469C049855A852D813E81421753073C
:1031A00008F461C00E94141D8D819E819C878B87CD
:1031B0001E821D82CE0101960E948D0DCE010796C2
:1031C0000E94680E8B0181E00130110509F080E05A
:1031D0008093920287E392E00E94E90D8FE991E0EB
:1031E0000130110511F486E991E00E94D70DCE015E
:1031F00007960E948D0DD5CD640146012FEF821AEE
:10320000920AD6018C91082E000C990B0E94801A0C
:10321000892B91F7015011090A0D1B1DF8018081BE
:10322000082E000C990B0E94801A892B31F00C1586
:103230001D0518F001501109F1CFA8014F5F5F4F34
:103240004C195D095C874B87AC14BD0420F4B601B2
:10325000C5010E94F71CEF81F8858B859C85E80FDE
:10326000F91F10826DCF0E94B11B89819A819887C6
:103270008F838B819C819A8789878D819E819C8792
:103280008B871A8219821C821B8292CF61E572E0C1
:10329000CE0101960E94E10EBE016F5F7F4FCE010D
:1032A0000D960E94730E182FCE0101960E948D0D6F
:1032B000112309F476CD8BE592E00E94D70D87E6C5
:1032C00092E00E94E90D409157035091580360919C
:1032D00053037091540384EA92E00E94A80780EEA1
:1032E00091E00E94E90D80918C0290918D020E94E4
:1032F000EB0D80EE91E00E94E90D80918A029091A1
:103300008B020E94EB0D80EE91E00E94E90D80910E
:103310008802909189020E94EB0D80EE91E00E945C
:10332000E90D80911501909116010E94EB0D80EE40
:1033300091E00E94E90D80919002909191020E948B
:10334000EB0D80EE91E00E94E90D80918E0290914C
:103350008F020E94EB0D80EE91E00E94E90D8091BA
:103360009202811103C086EA91E076CE85E692E072
:1033700073CE2085243021F49C012370332723CD84
:103380001582148222CD30E020E033CD009709F47D
:1033900035CDC901019632CD8EEA91E00E94950D9E
:1033A000882349F121E030E01016110614F42FEFC4
:1033B0003FEF4091150150911601249FC001259FB8
:1033C000900D349F900D112420919202222319F028
:1033D0009195819591099091000399831A821B829E
:1033E0008C8344E050E0BE016F5F7F4F84EF92E03A
:1033F0000E94B31227CD8AEB91E00E94950D88239D
:1034000079F0101611063CF48FE40E94760C8FE4DC
:103410000E94890C17CD80E50E94760C80E5F8CFDC
:1034200086EC91E00E94950D882309F40BCD1016CF
:1034300011066CF4609190028EE093E00E944C0DB6
:10344000609190028EE093E00E94340DFBCC60917D
:103450008E028EE093E00E944C0D60918E02F2CFBE
:1034600083E593E00E948D0D809162039091630348
:103470000E94B11B80915F039091600397FD03C090
:1034800060E00C94C00308951F93FC0199278827DE
:10349000BC01E89411911032E9F3193010F01E309C
:1034A000C8F31B3251F01D3249F4689406C00E94E3
:1034B0006B1A610F711D811D911D119110531A30EE
:1034C000B0F33EF490958095709561957F4F8F4F46
:1034D0009F4F1F910895592F482F372F262F660F82
:1034E000771F881F991F660F771F881F991F620F0C
:1034F000731F841F951F660F771F881F991F0895DC
:1035000091110C94891A803219F089508550C8F7AE
:103510000895992788270895F999FECF92BD81BD16
:10352000F89A992780B50895262FF999FECF1FBAEA
:1035300092BD81BD20BD0FB6F894FA9AF99A0FBEDC
:10354000019608952F923F924F925F926F927F92D1
:103550008F929F92AF92BF92CF92DF92EF92FF92A3
:103560000F931F93CF93DF93CDB7DEB7CA1BDB0B4F
:103570000FB6F894DEBF0FBECDBF09942A883988F4
:1035800048885F846E847D848C849B84AA84B984FB
:10359000C884DF80EE80FD800C811B81AA81B98107
:1035A000CE0FD11D0FB6F894DEBF0FBECDBFED011B
:1035B0000895AA1BBB1B51E107C0AA1FBB1FA6177A
:1035C000B70710F0A61BB70B881F991F5A95A9F7CC
:1035D00080959095BC01CD010895A1E21A2EAA1BF9
:1035E000BB1BFD010DC0AA1FBB1FEE1FFF1FA217B3
:1035F000B307E407F50720F0A21BB30BE40BF50BB0
:10360000661F771F881F991F1A9469F76095709538
:10361000809590959B01AC01BD01CF010895EE0FFF
:10362000FF1F0590F491E02D09940F931F93CF9302
:10363000DF938230910510F482E090E0E091710315
:10364000F091720330E020E0B0E0A0E0309799F410
:103650002115310509F44AC0281B390B24303105E6
:10366000D8F58A819B816115710589F1FB019383EE
:103670008283FE0111C0408151810281138148176C
:103680005907E0F04817590799F4109761F012961E
:103690000C93129713961C933296CF01DF91CF9122
:1036A0001F910F9108950093710310937203F4CF4B
:1036B0002115310551F04217530738F0A901DB01FC
:1036C0009A01BD01DF01F801C1CFEF01F9CF90935D
:1036D000720380937103CDCFFE01E20FF31F81933C
:1036E00091932250310939832883D7CF20916F03DA
:1036F00030917003232B41F42091190130911A016C
:103700003093700320936F032091170130911801BB
:103710002115310541F42DB73EB740911B01509161
:103720001C01241B350BE0916F03F0917003E2172D
:10373000F307A0F42E1B3F0B2817390778F0AC01D4
:103740004E5F5F4F2417350748F04E0F5F1F5093B1
:10375000700340936F03819391939FCFF0E0E0E07B
:103760009CCFCF93DF930097E9F0FC01329713824F
:103770001282A0917103B0917203ED0130E020E05C
:103780001097A1F420813181820F931F20916F0344
:10379000309170032817390709F061C0F093700366
:1037A000E0936F03DF91CF910895EA01CE17DF0711
:1037B000E8F54A815B819E0141155105B1F7E901A8
:1037C000FB83EA8349915991C40FD51FEC17FD077C
:1037D00061F4808191810296840F951FE90199839C
:1037E0008883828193819B838A83F0E0E0E0129654
:1037F0008D919C9113970097B9F52D913C9111975C
:10380000CD010296820F931F20916F0330917003B8
:103810002817390739F6309751F510927203109234
:103820007103B0937003A0936F03BCCFD383C283A3
:1038300040815181840F951FC817D90761F44E5FED
:103840005F4F88819981480F591F518340838A8136
:103850009B81938382832115310509F0B0CFF093CA
:103860007203E09371039ECFFD01DC01C0CF138290
:103870001282D7CFB0E0A0E0E0E4FCE10C94A41AFF
:103880008C01009751F4CB010E94151B8C01C801DB
:10389000CDB7DEB7E0E10C94C01AFC01E60FF71FCC
:1038A0009C0122503109E217F30708F49DC0D901A9
:1038B000CD91DC911197C617D70798F0C530D10587
:1038C00030F3CE0104978617970708F3C61BD70B72
:1038D0002297C193D1936D937C93CF010E94B11B2A
:1038E000D6CF5B01AC1ABD0A4C018C0E9D1EA09177
:1038F0007103B0917203512C412CF12CE12C1097E3
:1039000031F580916F03909170038815990509F046
:103910005CC04616570608F058C080911701909178
:103920001801009741F48DB79EB740911B0150914B
:103930001C01841B950BE817F90708F055C0F0939C
:103940007003E0936F03F90171836083A0CF8D91C1
:103950009C91119712966C90129713967C901397E6
:10396000A815B90559F56C0142E0C40ED11CCA1462
:10397000DB0420F1AC014A195B09DA0112961597B4
:1039800080F06282738251834083D9016D937C936E
:10399000E114F10471F0D7011396FC93EE931297A2
:1039A00076CF22968C0F9D1FF90191838083F301BE
:1039B000EFCFF0937203E093710369CF4816590675
:1039C00008F42C017D01D3019ACFCB010E94151B75
:1039D0007C01009749F0AE01B8010E94F71CC801B4
:1039E0000E94B11B870153CF10E000E050CFFB01D4
:1039F000DC0102C001900D9241505040D8F708956B
:103A0000FC018191861721F08823D9F79927089521
:103A10003197CF010895FB01DC018D910190801950
:103A20000110D9F3990B0895FB01DC0101900D926F
:103A30000020E1F70895FB01DC014150504030F0D7
:103A40008D910190801919F40020B9F7881B990B0A
:103A5000089512E0CCE1D2E004C0FE010E940F1BE9
:0C3A60002196CD31D107C9F7F894FFCFB3
:103A6C0000C18081000000FFFFFFFF00E1000000AB
:103A7C00000000750802000000730380000921019A
:103A8C00010001222E000921010100012245000044
:103A9C00000000BE07A807D40726055B08D9073726
:103AAC0008000000007608E308A308210AB312F608
:103ABC00FF0000BD12000000002F09C70987092173
:103ACC000AC012F6FF0000640DEE06280A28051243
:103ADC000ACA122C0C00000000E602B8057D05098C
:103AEC0003000000002B0A0D0A004D4F44455F56A1
:103AFC004F4C554D45005265766572736564004EAA
:103B0C006F726D616C003000434B6E6F62004D4FF5
:103B1C0044455F5343524F4C4C004D4F44455F411D
:103B2C0052524F5753004D4F44455F435553544FDA
:103B3C004D5F4B455953004D4F44455F0052474232
:103B4C002C004B4559532C00437573746F6D206BCF
:103B5C0065797320757064617465640053454E53C8
:103B6C00495449564954592C005363726F6C6C205C
:103B7C0053656E7369746976697479205365742022
:103B8C00746F3A20005343524F4C4C5F444952459A
:103B9C004354494F4E2C005363726F6C6C20446934
:103BAC0072656374696F6E2053657420746F3A206C
:103BBC000073617920434B4E4F4200434B4E4F42B2
:103BCC002076312E31310053455454494E47532CF5
:023BDC000000E7
:00000001FF
