:100000000C94D2000C94FA000C94FA000C94FA00B0
:100010000C94FA000C94FA000C94FA000C94FA0078
:100020000C94FA000C94FA000C94B30A0C94310B63
:100030000C94FA000C94FA000C94FA000C94FA0058
:100040000C94FA000C94FA000C94FA000C94FA0048
:100050000C94630D0C94FA000C94FA000C94690A49
:100060000C94FA000C94FA000C94FA000C94FA0028
:100070000C94FA000C94FA000C94FA000C94FA0018
:100080000C94FA000C94FA000C94FA000C94FA0008
:100090000C94FA000C94FA000C94FA000C94FA00F8
:1000A0000C94FA000C94FA000C94FA00080B00026D
:1000B0000202000009040000010202000005240001
:1000C0001001052401010104240206052406000193
:1000D0000705810310004009040100020A00000026
:1000E00007050202400000070583024000000403E8
:1000F000090412010002EF0201404F1B09920001A6
:1001000001020301537061726B46756E006D434BC3
:100110006E6F625F312E3036000000000024002731
:10012000002A002D003000000000002300260029D6
:10013000002C002F000000000200090F0000030443
:1001400001000C00000000000000000000000000A2
:100150000000000408020110408040102040804050
:10016000800802040180402010020110801020400D
:10017000402000000000250028002B002E00310048
:10018000040404040403040502020202040302023C
:100190000202060606060606040402020204040021
:1001A000BD0D1D1511241FBECFEFDAE0DEBFCDBFA0
:1001B00022E0A2E6B1E001C01D92A833B207E1F748
:1001C00011E0A0E0B1E0ECEEF4E302C005900D9286
:1001D000A236B107D9F710E0C1EDD0E004C02197F5
:1001E000FE010E943317C03DD107C9F70E940A0FD4
:1001F0000C94691A0C9400004F925F926F927F9258
:100200008F929F92AF92BF92FF92209120023091E5
:1002100021028217930708F043C02B01662477243C
:10022000852E962EA72EBB24B82DA42F2091260212
:10023000F42C222391F0E22FF0E0E49DD001E59D23
:10024000B00DF49DB00D1124FB2E289D400111240A
:10025000B92D249F90011124A32FE0912C0220910D
:1002600027023091280250912902E51323C0FC0196
:10027000EE0FFF1F8E0F9F1F820F931FE091290229
:10028000E80FF92FF11DF082E0912A02E80FF92F13
:10029000F11DB08320912B02820F911DFC01A083E0
:1002A000FF90BF90AF909F908F907F906F905F90E6
:1002B0004F900895880F991F880F991F820F931FE1
:1002C000E80FF92FF11D1082D9CFFC018091A50113
:1002D000882311F13FB7F89482E08093E9002091E0
:1002E000F200822F90E01816190614F481E090E0D5
:1002F000882339F0289844E64093A4014091F10006
:100300004083222339F02091F200211103C02BE613
:100310002093E8003FBF08958FEF9FEF089581502D
:100320008F3008F047C0E82FF0E0E756FE4F0C94FE
:100330003317B601BA01A801AE01B201DA01DA0140
:10034000DA01BD01C301C701CB01D101DA01D50139
:10035000809180008F778093800008958091800045
:100360008F7DF9CF80918000877FF5CF84B58F771F
:1003700084BD089584B58F7DFBCF809190008F77E9
:10038000809390000895809190008F7DF9CF8091A7
:100390009000877FF5CF8091C0008F778093C00059
:1003A00008958091C0008F7DF9CF8091C200877F32
:1003B0008093C2000895CF93DF93282F30E0F90196
:1003C000EB5CFE4F8491F901ED5AFE4FD491F90197
:1003D000E058FE4FC491CC2391F081110E948F010F
:1003E000EC2FF0E0EE0FFF1FEE58FE4FA591B491F9
:1003F0008FB7F894EC91D095DE23DC938FBFDF911B
:10040000CF910895CF93DF93282F30E0F901EB5C73
:10041000FE4F8491F901ED5AFE4FD491F901E05855
:10042000FE4FC491CC23A1F081110E948F01EC2FCB
:10043000F0E0EE0FFF1FE95DFE4FA591B491EC9146
:10044000ED2381E090E009F480E0DF91CF91089501
:1004500080E090E0FACFCF93DF9390E0FC01ED5A7B
:10046000FE4F249180589E4FFC0184918823C9F04F
:1004700090E0880F991FFC01E75EFE4FA591B491B3
:10048000FC01EE58FE4FC591D49161110DC09FB78C
:10049000F8948C91209582238C938881282328833B
:1004A0009FBFDF91CF910895623051F49FB7F894C8
:1004B0003C91822F809583238C93E8812E2BEFCF64
:1004C0008FB7F894EC912E2B2C938FBFEACF3FB7C8
:1004D000F8948091A0019091A101A091A201B09106
:1004E000A30126B5A89B05C02F3F19F00196A11DB9
:1004F000B11D3FBFBA2FA92F982F8827BC01CD016E
:10050000620F711D811D911D42E0660F771F881FCC
:10051000991F4A95D1F708950F931F93CF93DF93B7
:10052000CDB7DEB729970FB6F894DEBF0FBECDBFAB
:100530008091270290912802892B09F47CC00E94A7
:10054000670200912D0210912E0220912F0230910E
:100550003002601771078207930740F460932D0201
:1005600070932E0280932F029093300200912D02FF
:1005700010912E0220912F0230913002601B710BDE
:10058000820B930B6C32714081059105C0F2F89497
:1005900080912202909123029A838983E09127021D
:1005A000F0912802DF0111968081898790911E02C7
:1005B000E0913102F091320280913302992309F4E3
:1005C00045C09081982B98879081809589238F834F
:1005D0008F818C8388E08B8358856F8149853B812F
:1005E0002C8189819A81508347FD252F3A9520835C
:1005F000262F39F0441F00C000006083000000C0B7
:10060000F2CF38E04D9160830000019761F7F093DD
:100610003202E093310249873B832C839A8389839A
:1006200078940E94670260932D0270932E0280934B
:100630002F029093300229960FB6F894DEBF0FBEBA
:10064000CDBFDF91CF911F910F9108959081982B8D
:1006500098879081809589238F838F818E8388E00E
:100660008D8358856F8149853D812E8189819A814D
:10067000508347FD252F00C000C0208300C000C06C
:1006800000C000C000C060830000262F3A9541F0F2
:10069000441F000000C000C000C000C000C0E8CF80
:1006A00038E04D9100C0608300C0019709F7F093D6
:1006B0003202E093310249873D832E83AFCF8F9280
:1006C0009F92AF92BF92CF92DF92EF92FF924B0137
:1006D0005C010E9467026B017C010E9467026C1939
:1006E0007D098E099F09683E734081059105A8F335
:1006F00021E0821A9108A108B10888EEC80E83E0B3
:10070000D81EE11CF11C81149104A104B10429F745
:10071000FF90EF90DF90CF90BF90AF909F908F9021
:1007200008952FB7F89460919C0170919D0180917C
:100730009E0190919F012FBF089508958093E90035
:100740008091F200882319F08AE38093E8000895ED
:10075000409170015091710120916E0130916F01B3
:1007600042175307B4F49091E8009570E1F390912B
:10077000E80092FD19C08093F10080917001909182
:10078000710101968F739927892B19F48EEF80934D
:10079000E800809170019091710101969093710130
:1007A0008093700181E0089580E00895DF92EF92D8
:1007B000FF920F931F93CF93DF93D82E8A01EB0103
:1007C0007B01E40EF51ECE15DF0559F0D7FE12C0F1
:1007D000FE0184910E94A80321968111F4CF0FEFAE
:1007E0001FEFC801DF91CF911F910F91FF90EF9004
:1007F000DF9008958881EECF2FB7F89487708093AB
:10080000E9009091E800892F807295FF04C09091D3
:10081000F20080E4891B2FBF089583E00E94FC034F
:1008200090E008957F928F929F92AF92BF92CF9265
:10083000DF92EF92FF920F931F93CF93DF93C82E17
:100840008B017A018091A501811110C08FEF9FEF7C
:10085000DF91CF911F910F91FF90EF90DF90CF909C
:10086000BF90AF909F908F907F900895809174017A
:1008700080FF05C08091E00082608093E000CE2D73
:10088000DF2DD12C8AEFB82E8C2D8770982E8C2DD1
:100890008072882E8C2D8074782E9AE3A92E209752
:1008A00019F4DD2009F452C08C2D0E94FC03811143
:1008B0000AC0BA94BB2051F261E070E080E090E0A1
:1008C0000E945F03ECCF8C171D0611F00CF08C2FEB
:1008D0009FB7F8949092E9002091E80025FD02C0AE
:1008E0009FBFDDCF282F30E0C21BD30B882029F01B
:1008F0008150A0F01092F100FBCFF801C7FC0AC0B4
:10090000815050F041914093F100FACF44914093CF
:10091000F10031968150D0F7020F131FDD2021F036
:10092000A092E800D12CDCCF8091E80085FD07C0C3
:10093000A092E800DD24D394209791F2F3CF209782
:1009400079F6772069F2A092E800CACF5D9884E634
:1009500080937301C7017CCF615030F02091F1008A
:10096000FC0120830196F8CF289884E68093A401A7
:1009700008958091660181110DC082E0809362012B
:1009800084E080936301109265011092640181E01C
:100990008093660182E691E008950F931F93CF93B1
:1009A000DF931F92CDB7DEB782E0898342E450E047
:1009B0006CEA70E080E80E94D6030E94B904DC0172
:1009C00012960D911C910115110589F0D801ED9138
:1009D000FC910280F381E02DBE016F5F7F4FC80163
:1009E000099597FD04C0F80100851185ECCF898138
:1009F0000F90DF91CF911F910F910895CF93DF93C7
:100A0000EC0180910B01882331F083E00E941204F5
:100A10001816190634F081E090E09B838A8380E009
:100A200090E0DF91CF910895CF93DF931F92CDB7E0
:100A3000DEB76983DC01ED91FC910280F381E02D4A
:100A400041E050E0BE016F5F7F4F09950F90DF914D
:100A5000CF91089583E00C949E03CF93DF931F9270
:100A6000CDB7DEB7FC018485958597FD08C02FEFD3
:100A70003FEF358724870F90DF91CF910895CE0106
:100A800001960E946501019719F4898190E0F3CFE6
:100A90008FEF9FEFF0CF0F931F930E94910360930E
:100AA000AE017093AF018093B0019093B10186EADB
:100AB00091E00E942D0597FF1DC00E9491030091B7
:100AC000AE011091AF012091B0013091B101601BD6
:100AD000710B820B930B0091AA011091AB01209135
:100AE000AC013091AD016017710782079307F8F2EE
:100AF0008FEF9FEF1F910F9108950F931F93CF9347
:100B0000DF931F92CDB7DEB78C01FC0184859585FC
:100B100097FF0BC0CE0101960E946501019771F409
:100B2000898190E0F80195878487F801848595850F
:100B30000F90DF91CF911F910F9108958FEF9FEF4D
:100B4000F1CFFC018485958597FD0BC09FB7F89484
:100B500082E08093E9008091F2009FBF90E00196CF
:100B600008959FB7F89482E08093E9008091F200A5
:100B70009FBF90E00895089590E080E0089580E0A0
:100B800008950F931F93CF93DF93CDB7DEB7C4566D
:100B9000D1090FB6F894DEBF0FBECDBFFC01DB015B
:100BA0009C919E5F9C939E01295F3F4F8AE5D901EE
:100BB0001D928A95E9F788E089838BE08A8322E099
:100BC0002C8391E09D839E8339E0398764E06A87B6
:100BD0009E879F873A8B44E24B8B9C8BA0E0B1E0D1
:100BE000BE8BAD8B09E010E0188F0F8B998F3B8F78
:100BF0006C8F2F8F98A353E059A387E08CA34DA34C
:100C00009EA3B8A7AFA3A1E4B0E0BAA7A9A786E0C6
:100C10008BA74CA72DA79EA79FA789AB4AAB2BAB51
:100C20002CAB2DAB3FAB48AF59AF9AAF5BAF9CAF8E
:100C30002DAF9EAF21963FAF219722964FAF2297BF
:100C400023965FAF239724962FAF249725966FAFF7
:100C5000259726969FAF269727969FAF279728968A
:100C60009FAF28972A963FAF2A9745E02B964FAF24
:100C70002B972D962FAF2D9760E470E02F967FAFC6
:100C80006EAF2F9763964FAF639785E264968FAFF1
:100C9000649765969FAF659766969FAF66976796D0
:100CA0009FAF679768963FAF689769964FAF699710
:100CB0006B962FAF6B976D967FAF6EAF6D97A196CA
:100CC0004FAFA197A2968FAFA297A3969FAFA3977E
:100CD000A4969FAFA497A5965FAFA59792819B839B
:100CE0009B879F5F9A8F9D8F83812C968FAF2C97C8
:100CF0008F5F80686A968FAF6A9744E650E0BE01C6
:100D00006F5F7F4F80E00E94D603CC59DF4F0FB654
:100D1000F894DEBF0FBECDBFDF91CF911F910F9131
:100D200008954F925F926F927F928F929F92AF92AF
:100D3000BF92CF92DF92EF92FF920F931F93CF93C8
:100D4000DF936091910170919201072E000C880B46
:100D5000990B0E94B21520E030E04EEF52E40E9461
:100D6000BA1720E030E040E451E40E9411162B0154
:100D70003C01D0E0C0E00BE010E0B8016C1B7D0B43
:100D8000072E000C880B990B0E94B2159B01AC0139
:100D9000C301B2010E944D174B015C0120E030E01D
:100DA000A9010E94AB1587FD58C020E030E040E863
:100DB0005FE3C501B4010E945B1818160CF451C022
:100DC00060910F0170E090E080E00E94B215A501F3
:100DD00094010E9411160E942C18C62ED12CF12CC1
:100DE000E12C7601DD24CC246091100170E090E0CC
:100DF00080E00E94B215A50194010E9411160E9484
:100E00002C18D62A6091110170E090E080E00E94D9
:100E1000B215A50194010E9411160E942C18C6015A
:100E2000862BAC01B701CE010E94FC002196CC308C
:100E3000D10509F0A2CFDF91CF911F910F91FF90C3
:100E4000EF90DF90CF90BF90AF909F908F907F906A
:100E50006F905F904F900C948C02812C912C5401D8
:100E6000AFCF812C912C90E8A92E9FE3B92EA8CF6B
:100E7000CF93DF93D0E0C0E080910F01409110014B
:100E800050E070E060E0762F652F542F4427682BE8
:100E900080911101482BCE010E94FC002196CC309C
:100EA000D10551F7DF91CF910C948C02CF92DF9254
:100EB000EF92FF920F931F93CF93DF930E949103C2
:100EC0006B017C0180911302882399F080911102BB
:100ED00090911202029790931202809311028091D6
:100EE00011029091120297FF04C010921202109208
:100EF0001102809108020E94020220910B02C3E0BD
:100F00002817190609F0C0E0809109020E94020228
:100F100020910B022817190611F481E0C82780914F
:100F20000E0290910F028C1B80FFA4C00C2E000CAF
:100F3000DD0BD0930F02C0930E0220910C02309172
:100F40000D028270082E000C990B0197820F931FDF
:100F500090930D0280930C0281E0909113029923EB
:100F600091F0882381F08091110290911202883EC5
:100F70009B4048F4809111029091120249969093FF
:100F800012028093110280910A02882309F469C039
:100F900040911A0250911B0260911C0270911D0237
:100FA00097018601041B150B260B370BB901A8010D
:100FB0004A3051056105710508F453C0C0921A0208
:100FC000D0921B02E0921C02F0921D020E940202CB
:100FD00020910B022817190691F480911702909125
:100FE0001802019690931802809317028937910591
:100FF00030F083E090E0909315028093140280918A
:101000000A020E94020220910B0231E023272817D6
:101010001906C1F48091170290911802892B71F082
:101020008091140290911502039731F584E090E0CD
:1010300090931502809314021092190210921802D4
:101040001092170280911902882359F082508093E0
:101050001902811106C085E090E0909315028093FB
:101060001402DF91CF911F910F91FF90EF90DF90CD
:10107000CF90089580E071CF80911902823028F0DE
:101080008C33E0F686E090E0D3CF80911602811198
:1010900004C081E080931902D1CF8CE3FBCFCF93C2
:1010A000DF93EC0188819981009711F00E94FC1870
:1010B000198218821D821C821B821A82DF91CF91B5
:1010C0000895FC0180819181009711F00C94FC1827
:1010D000089584E0E5E4F1E0DB0101900D928A954A
:1010E000E1F784E00895FC0180819181009711F07F
:1010F0000C94311560E070E0CB0108950F931F93BD
:10110000CF93DF938C01EB01FC01808191810097EB
:10111000E1F06881798161157105A9F042815381FF
:101120002C813D814217530770F00E94541A8C8124
:101130009D81F801958384831D821C82DF91CF916C
:101140001F910F9108950E94FC1888819981F801E0
:10115000918380838A819B81938382838C819D810B
:1011600095838483198218821B821A82E5CF0F939C
:101170001F93CF93DF93EC0188819981009759F0F9
:101180002A813B812617370730F081E0DF91CF912C
:101190001F910F9108958B016F5F7F4F0E948519FA
:1011A000009759F0998388831B830A832C813D81A2
:1011B000232B59F7FC011082E8CF80E0E7CFEF92B4
:1011C000FF920F931F93CF93DF936115710541F445
:1011D00080E0DF91CF911F910F91FF90EF900895E4
:1011E00041155105B1F07B01EC010C811D81040F0B
:1011F000151FB8010E94B708882351F3288139814F
:101200008C819D81B701820F931F0E94541A1D8308
:101210000C8381E0DECFFC014481558160817181C6
:1012200082E092E00C94DF08CF93DF93EC0142E080
:1012300050E06BE471E00E94DF08811103C0CE0131
:101240000E944F08CE01DF91CF910895EF92FF9257
:101250000F931F93CF93DF93EC017B018A01BA01B7
:101260000E94B70881110BC0CE010E944F08CE0129
:10127000DF91CF911F910F91FF90EF9008951D8303
:101280000C83B701888199810E94541AF0CFFB0129
:1012900001900020E9F73197AF01461B570B0C94E2
:1012A00026090F931F93CF93DF93CDB7DEB76297D5
:1012B0000FB6F894DEBF0FBECDBF8C01CB01F80195
:1012C0001182108213821282158214824AE0BE01BA
:1012D0006F5F7F4F0E945815BE016F5F7F4FC8013F
:1012E0000E94470962960FB6F894DEBF0FBECDBFCD
:1012F000DF91CF911F910F9108950F931F93CF937B
:10130000DF93CDB7DEB729970FB6F894DEBF0FBED7
:10131000CDBF8C01862FF8011182108213821282B8
:10132000158214824AE0BE016F5F7F4F90E00E94F9
:101330007815BE016F5F7F4FC8010E94470929964B
:101340000FB6F894DEBF0FBECDBFDF91CF911F91D6
:101350000F910895FB0101900020E9F73197AF014B
:10136000461B570B0C942609AF92BF92CF92DF9287
:10137000EF92FF920F931F93CF93DF93EC015B01EA
:101380006A0179012417350720F48D2D6901E42EB7
:10139000F82E198218821B821A821D821C826AE52D
:1013A00071E0CE010E94AA09D50114960D911C91FD
:1013B000C016D106E8F4E016F10608F48701D5015D
:1013C000ED91FC911197E00FF11FF08010826D916B
:1013D0007C916C0D7D1DCE0161157105A9F00E94F7
:1013E0004709F50180819181080F191FD801FC92EE
:1013F000CE01DF91CF911F910F91FF90EF90DF9081
:10140000CF90BF90AF9008950E944F08EACFFB01A4
:10141000DC0111961C921E9213961C921E9212973A
:1014200015961C921E9214978617970749F06081B3
:1014300071816115710521F0448155810C94260953
:1014400008951F93CF93DF93EC01162F0E94D216BD
:10145000181739F0612FCE01DF91CF911F910C94B5
:10146000DA16DF91CF911F910895CF93DF936091AA
:10147000880190E080E00E94210A6091120181E0E1
:1014800090E00E94210A6091140182E090E00E94A5
:10149000210ACFE0D1E0688183E090E00E94210A38
:1014A000698184E090E00E94210A6A8185E090E0F1
:1014B0000E94210A6091160186E090E00E94210AB4
:1014C00062E487E090E0DF91CF910C94210A0C94C4
:1014D000D2161F920F920FB60F9211242F933F93A3
:1014E0008F939F93AF93BF9380919C0190919D01A7
:1014F000A0919E01B0919F0130919B0123E0230FA9
:101500002D3758F50196A11DB11D20939B018093A5
:101510009C0190939D01A0939E01B0939F018091A7
:10152000A0019091A101A091A201B091A301019607
:10153000A11DB11D8093A0019093A101A093A201D0
:10154000B093A301BF91AF919F918F913F912F9144
:101550000F900FBE0F901F90189526E8230F02964C
:10156000A11DB11DD2CF1F920F920FB60F92112461
:101570002F933F934F935F936F937F938F939F939B
:10158000AF93BF93CF93EF93FF93C091E10080910E
:10159000E100837F8093E100C3FF0FC01092E90058
:1015A00081E08093EB001092EC0082E38093ED00E9
:1015B0001092A50188E08093F000C2FF1BC083E079
:1015C0000E949E0380917301882341F080917301F2
:1015D000815080937301811101C05D9A8091A401B3
:1015E000882341F08091A40181508093A40181114E
:1015F00001C0289AC4FF23C08091E2008E7E8160E2
:101600008093E2008091E1008F7E8093E1008091E1
:1016100074018E7E806180937401FF91EF91CF9170
:10162000BF91AF919F918F917F916F915F914F91FA
:101630003F912F910F900FBE0F901F901895C0FFF4
:10164000ECCF8091E2008E7E80618093E2008091F9
:10165000E1008E7E8093E100809174018E7E816036
:10166000DACF1F920F920FB60F921124CF92DF9212
:10167000EF92FF920F931F932F933F934F935F939C
:101680006F937F938F939F93AF93BF93EF93FF934A
:10169000CF93DF93CDB7DEB76C97DEBFCDBF10928F
:1016A000E9008091E80083FF25C068E0CE014596FF
:1016B0000E94AC0482EF8093E8008D8987FF39C0D7
:1016C0009091E80090FFFCCF982F907609F034C1FC
:1016D0009E894F89588D2F89F88C911131C080389F
:1016E00061F5809175018093F1001092F1008EEF09
:1016F0008093E8006C960FB6F894DEBF0FBECDBFA6
:10170000DF91CF91FF91EF91BF91AF919F918F9119
:101710007F916F915F914F913F912F911F910F9109
:10172000FF90EF90DF90CF900F900FBE0F901F9023
:1017300018959EEF9093E800C7CF1092F100D5CF97
:10174000913059F48111D3CF4130510581F6809108
:1017500075018D7F80937501CACF933049F4811153
:10176000C6CF4130510519F6809175018260F2CFE4
:10177000953041F48091E80080FFFCCF20682093F1
:10178000E300B5CF963009F0A9C00B8D1C8D22E087
:101790001092E9001092710110927001F2122EC0A5
:1017A00010926F0110926E010E94CD041F8299E089
:1017B0009983FA8291E09E8390EA98879AEF9987BD
:1017C0002091700130917101275F3F4F3C832B8343
:1017D0008D831092E90010927101109270011093A4
:1017E0006F0100936E0149E050E0BE016F5F7F4FD3
:1017F00080E00E94D6030E94CD0479CF10936F0140
:1018000000936E010E94B904DC0112960D911C91A7
:101810000115110509F451C1D801ED91FC91048025
:10182000F581E02DBE016B5E7F4FC80109950097E1
:1018300009F03EC1F80100851185EACFF3E0FF12FF
:101840000EC08F89882309F440C0823061F440E8DB
:101850006BE08DE091E00E948A0D811148CF81E21A
:101860008093EB0047CF813029F440E868E084E0C2
:1018700091E0F1CF833099F70E94B904DC01129610
:10188000ED90FC908E010F5F1F4F6801E114F10491
:1018900079F0D701ED91FC910680F781E02DB80138
:1018A000C7010995080F111DF701E084F184EECFFF
:1018B000D8011C92F60101900020E9F73197BF0191
:1018C0006C197D0940E0C601C6CF6EEE70E0FB01E9
:1018D000449150E080E80E94D60309CF973009F484
:1018E000BECF983021F481E08093F10000CF993091
:1018F00009F0FDCE837009F0B2CFEBE1F1E081E0B9
:1019000031E096E32191222371F08093E900309336
:10191000EB00DF0111972C912093EC009093ED00E8
:101920008F5F873079F78EE78093EA001092EA00A4
:101930008F898093A501DBCE8B8D9C8D1092E90061
:10194000109271011092700190936F0180936E015B
:10195000898D811192C08E899D89913A49F4813295
:1019600009F07DCF47E050E064E071E080E0B3CF64
:10197000913209F074CF833269F48F89988DB0E089
:10198000A0E08093000190930101A0930201B09325
:101990000301ADCE803269F48091E80082FFFCCF74
:1019A00067E084E091E00E94AC048BEF8093E80054
:1019B0009ECE823209F09BCE8F8980930B01EEEF91
:1019C000FFE7859194918B3F9C4D51F1E0E0F8E069
:1019D0008091040190910501A0910601B091070149
:1019E000803B9440A105B105F1F480910B0180FD8D
:1019F0001AC0EE3F8AE0F80789F587E797E79183F9
:101A00008083809160008093720188E19BE00FB633
:101A1000F894A895809360000FBE9093600067CE05
:101A2000EEEFFAE0D5CF808191818737974709F0B3
:101A30005ECEA8958091600088618093600080915F
:101A4000720180936000EE3F2AE0F20789F08091F6
:101A5000FE0A9091FF0A9183808349CE8081918113
:101A60008737980751F29093FF0A8093FE0AC5CFFB
:101A70001092FF0A1092FE0A3ACE0E94B904DC01CD
:101A800012960D911C910115110509F4E8CED801AB
:101A9000ED91FC910190F081E02DBE016B5E7F4FD6
:101AA000C8010995811123CEF80100851185EBCF7E
:101AB000181619060CF41BCED2CEF1E0FF12BECEE2
:101AC00062EF70E004CF1F920F920FB60F921124B5
:101AD0002F933F934F935F936F937F938F939F9336
:101AE000AF93BF93EF93FF93E0910C01F0910D0141
:101AF0000995FF91EF91BF91AF919F918F917F9148
:101B00006F915F914F913F912F910F900FBE0F906A
:101B10001F901895EF92FF920F931F93CF93DF932F
:101B2000F82E192FE62E042F81E0860F880F0E94D1
:101B3000A80383E00E94A803CF2DD12FEC0EFD2E29
:101B4000F11CCE15DF05B9F007FF13C0FE0184912B
:101B50000E94A803182F80E00E94A80381232196E9
:101B60008111EFCFDF91CF911F910F91FF90EF90F7
:101B700008958881EDCF81E0F5CFCF93DF93109268
:101B8000A9011092A80188EE93E0A0E0B0E0809354
:101B9000AA019093AB01A093AC01B093AD018BE28D
:101BA00091E09093A7018093A6018FEF9FEF909310
:101BB000B3018093B20182E08093FA018093FB012C
:101BC00080E092E09093FD018093FC011092FF0170
:101BD0001092FE018DE391E09093F7018093F6015E
:101BE00080E88093000281E8809301020E94B9049A
:101BF000FC0181819091FA01482F490F5527551F0B
:101C0000483051059CF5A281B381109709F526EF64
:101C100031E03383228320812093F8018093F901FE
:101C20008091FB01820F80832091FC01A22FB09153
:101C3000FD018A2F821B8917C8F481813D91C82F2D
:101C4000D0E0C65EDE4F38838F5F8183F2CFD9014B
:101C500018962D913C91199721153105C1F726EF62
:101C600031E019963C932E931897D5CF10921F020E
:101C70001092260210922D0210922E0210922F0224
:101C80001092300281E080932C02809329021092FE
:101C90002A0292E090932B0280931E0284E290E04D
:101CA00090932302809322020E946018909328024E
:101CB00080932702009709F4A4C024E2FC0111924A
:101CC0002A95E9F78CE090E090932102809320021E
:101CD00089E090E0909325028093240280911F0276
:101CE000882339F061E089E00E942B0289E00E949C
:101CF000DB01E9E8F1E0E491F0E0EE0FFF1FEE58C0
:101D0000FE4F859194919093320280933102ECE5DD
:101D1000F1E0E491E093330284E18093080283E1EF
:101D20008093090282E180930A0210920B021092C2
:101D30000D0210920C0210920F0210920E0282E01D
:101D400080931002109212021092110281E080938F
:101D50001302109215021092140280931602109230
:101D60001802109217021092190210921A02109281
:101D70001B0210921C0210921D0262E084E10E947C
:101D80002B0262E0809109020E942B0262E08091A6
:101D90000A020E942B02809108020E9402022091F6
:101DA0000B022817190631F483E090E090930F029C
:101DB00080930E02809109020E94020220910B0280
:101DC0002817190651F480910E0290910F02F1E04C
:101DD0008F2790930F0280930E02109203021092AD
:101DE0000202109205021092040210920702109251
:101DF00006026AE571E082E092E0DF91CF910C94F7
:101E0000AA0910922302109222021092210210922B
:101E100020025ECFCF93DF93CDB7DEB7C054D10998
:101E20000FB6F894DEBF0FBECDBF789484B5826044
:101E300084BD84B5816084BD85B5826085BD85B56E
:101E4000816085BD80916E00816080936E001092EC
:101E50008100809181008260809381008091810067
:101E600081608093810080918000816080938000F8
:101E700080919100826080939100809191008160B7
:101E80008093910080919000816080939000809178
:101E9000C10084608093C1008091C1008260809302
:101EA000C1008091C10081608093C1008091C30016
:101EB00081608093C3008091C00082608093C000E5
:101EC0008091C20081608093C20080917A0084601A
:101ED00080937A0080917A00826080937A0080916A
:101EE0007A00816080937A0080917A008068809384
:101EF0007A001092A50110927501109274018091E0
:101F0000D70081608093D70080EA8093D80089B59C
:101F1000806189BD89B5826089BD09B400FEFDCFAD
:101F200061E070E080E090E00E945F038091D80063
:101F30008F7C80618093D8008091E000807F8093C7
:101F4000E0008091E1008E7E8093E1008DE080933F
:101F5000E200559A209A8FEF9FEF9093B301809300
:101F6000B20180E1809381001092800080E49FE1C3
:101F7000909387008093860081E18093810086E5BD
:101F800097E090930D0180930C0181E080936F00A6
:101F900010921302109212021092110287E090E048
:101FA0000E94670A823409F4C7C10E94350A8091F1
:101FB00024029091250297FD0BC261E00E942B0242
:101FC000809124020E94DB0181E080931F020E9425
:101FD0008C02F12CE12CCC24CA94D12CB12CA12C54
:101FE00020910F012E9DC0012F9D900D1124B6014F
:101FF0000E941F17462F209110012E9DC0012F9D7A
:10200000900D1124B6010E941F17062F10E030E03A
:1020100020E0322F212F102F0027242B4091110177
:102020004E9DC0014F9D900D1124B6010E941F17B7
:10203000D901C801862BAC01BD01C5010E94FC007D
:102040009FEFA91AB90AACE0AA16B10449F60E949A
:102050008C0264E170E080E090E00E945F03B5E0F4
:10206000EB0EF11CE4E0EE16E1E0FE0609F0B6CF5F
:102070008E010F5F1F4F7E01F1E3EF0EF11C332441
:102080003394ACE04A2E512C8091930181110AC007
:1020900080919101909192019093900180938F0192
:1020A0003092930182E10E940202DD24D3940097D2
:1020B00009F4D12C20910E01222379F0892B69F4A7
:1020C000809188018325809388010E94350A809140
:1020D0008801811102C00E949106D0920E01F894ED
:1020E000C0900C02D0900D0280911002823009F055
:1020F00072C1C6018170992790930D0280930C02E2
:10210000789480911002843009F070C1D594C794FE
:10211000D594C79480911302882309F46DC18091EE
:10212000110290911202892F9927D7FE68C16C0184
:10213000C094D09480918D0190918E01C80ED91ECB
:10214000D0928E01C0928D0170908801C114D1048B
:1021500009F05EC17110B2C20E94910380907901B2
:1021600090907A01A0907B01B0907C016819790968
:102170008A099B09683E73408105910508F493C064
:102180000E9491036093790170937A0180937B019F
:1021900090937C0162E571E082E092E00E94470941
:1021A0006AE471E0772011F06EE471E043E050E002
:1021B00082E092E00E94DF086091140170911501A5
:1021C000C7010E945109B701C8010E94070AC8014E
:1021D0000E9414090E940B09C8010E946108C701EE
:1021E0000E9461086091120170911301C7010E9461
:1021F0005109B701C8010E94070AC8010E941409C9
:102200000E940B09C8010E946108C7010E94610871
:1022100060910F01C7010E947D09B701C8010E94AA
:10222000070AC8010E9414090E940B09C8010E94F4
:102230006108C7010E94610860911001C7010E94F6
:102240007D09B701C8010E94070AC8010E9414094C
:102250000E940B09C8010E946108C7010E94610821
:1022600060911101C7010E947D09B701C8010E9458
:10227000070AC8010E9414090E940B09C8010E94A4
:102280006108C7010E9461086091160170911701F1
:10229000C8010E945109C8010E940B09C8010E948F
:1022A000610830927801809178018823F9F083E009
:1022B0000E94FC0340910602509107029A012E5F92
:1022C0003F4F8217130690F0609102027091030253
:1022D00086EA91E00E94FE0442E050E068E571E089
:1022E00086EA91E00E94FE041092780186EA91E06D
:1022F0000E94A105181619060CF03BC318AE1FAAC0
:102300001AAE19AE1CAE1BAE6AE571E0CE01C796DF
:102310000E94AA090E944B0597FDEEC18A309105E3
:1023200009F4EAC189831A8241E050E0B801CE0184
:10233000C7960E94DF08EECF90E080E00E94670A17
:1023400091E0811101C090E09093880181E090E0DC
:102350000E94670A882331F090E0813128F080E103
:1023600090E002C081E090E090931301809312010D
:1023700082E090E00E94670A87FD8FE790E09093EB
:1023800015018093140183E090E00E94670A809316
:102390000F0184E090E00E94670A8093100185E0BD
:1023A00090E00E94670A8093110186E090E00E940D
:1023B000670A882331F090E08B3028F08AE090E0C3
:1023C00002C081E090E09093170180931601EFCD59
:1023D00010921F02FCCD843021F4C601837099272E
:1023E0008BCE10920D0210920C028ACE823009F030
:1023F00091CED594C7948ECE90E080E096CEC11455
:10240000D10409F497CE6C012FEFC21AD20A92CEF2
:102410000E9491038090890190908A01A0908B0185
:10242000B0908C019B01AC01281939094A095B095C
:1024300049015A0135E083169104A104B10408F45E
:1024400089CE6093890170938A0180938B01909368
:102450008C0110928E0110928D01772009F4E7C053
:102460000E949103A1E0B0E0D7FC02C0AFEFBFEF44
:102470008090820190908301A0908401B0908501AA
:102480009B01AC01281939094A095B0921962CAF37
:102490003DAF4EAF5FAF219720918601309187010C
:1024A0002A173B0769F421968CAC9DACAEACBFAC4F
:1024B00021972DE2821621E09206A104B10430F0AA
:1024C00021E030E0309319012093180121962CADC2
:1024D0003DAD4EAD5FAD219722333105410551052C
:1024E00050F420911801309119012F5F3F4F309324
:1024F000190120931801B0938701A093860160937E
:1025000082017093830180938401909385013092BE
:1025100081010E94910360937D0170937E018093FD
:102520007F0190938001B12CA12C80907601909036
:10253000770120910F018091100190E0B0E0A0E0C0
:10254000BA2FA92F982F8827A22B20911101AC0117
:10255000BD01422B21964CAF5DAF6EAF7FAF21978F
:10256000C4018A0D9B1D0C96B2010E941F17219673
:102570004CAD5DAD6EAD7FAD21970E94FC005FEF6D
:10258000A51AB50A63E0A616B10479F6C4018C1940
:102590009D090C96B2010E941F17909377018093BA
:1025A00076014C017CE0870E911C5C01AFE0AA0E25
:1025B000B11CC401B2010E941F1740E050E0BA01F3
:1025C0000E94FC00BFEF8B1A9B0AA814B90489F77C
:1025D0000E948C025FE7B52ED7FE02C0BB24B394E5
:1025E000D12CC12C4BE0A42E80911801909119019F
:1025F000C816D9060CF062C0809112018150806B20
:1026000090911401A9828A839B83BC828091F901F5
:1026100044E050E0B8018F5F0E9412048091F901FC
:102620008F5F0E949E03EFEFCE1ADE0ADDCF80910E
:10263000160190911701C89E9001C99E300DD89E39
:10264000300D1124C0909101D0909201C20ED31E82
:10265000F0E8CF16D1041CF03FE7C32ED12CD7FEF3
:1026600002C0D12CC12CD0929201C09291018091D4
:102670008F01909190018C159D0509F46DCD80918D
:1026800012018150806B909114012BE029838A8381
:102690009B83CC828091F90144E050E0B8018F5FC8
:1026A0000E9412048091F9018F5F0E949E030E9494
:1026B0009106D0929001C0928F014ECD8091810100
:1026C000882309F449CD0E94910380907D01909068
:1026D0007E01A0907F01B0908001681979098A0974
:1026E0009B09653F71408105910508F435CD109235
:1026F00081010E94380730CD1A8219821C821B8208
:102700001E821D826BE571E0C8010E94AA094D81FD
:102710005E818BAD9CAD8417950778F08FA998AD3D
:10272000009759F069817A816115710531F00E9435
:102730005B1ADD24D394892B09F0D12CC8010E94A7
:102740006108DD2009F411C16801D60111961C92BF
:102750001E9213961C921E92129715961C921E9210
:1027600014976AE571E0C6010E94AA09B6E0CB0E93
:10277000D11CEC14FD0449F790E080E040E050E00B
:10278000D12CC12C26E0722E2BAD3CAD82179307C5
:1027900058F52FA938AD5C01EFEFAE1ABE0A21152E
:1027A000310501F1280F391FD9012C912C32D1F4B8
:1027B0009C01BE01695C7F4FC7010E94B4094601BC
:1027C000BFEF8B1A9B0A7C9CC0017D9C900D11244D
:1027D000B701800F911F0E947E08C7010E94610807
:1027E000A5016401C501D0CF3601E8E0CE16D104C1
:1027F000E4F4BE01695C7F4FC7010E94B409FFEF9A
:102800006F1A7F0A26E02C9DC0012D9D900D11248A
:10281000B701800F911F0E947E08C7010E946108C6
:1028200027E0621671040CF496C0BE01695F7F4F09
:10283000C7010E94070A89A89AA88114910439F057
:10284000CDA8DEA85401C114D10409F09CC08DA903
:102850009EA9892B49F06FE571E089A99AA90E9488
:102860004B1A21E0892B09F020E020938801CE014A
:102870000D960E94730897FDBFC0603871058105F1
:1028800091050CF0BCC07093150160931401CE014A
:1028900043960E94730816161706180619060CF0C0
:1028A000B1C061317105810591050CF0AEC0709326
:1028B000130160931201CE0149960E94730897FD9F
:1028C000A7C06F3F71058105910511F00CF0A2C002
:1028D00060930F01CE014F960E94730897FD9CC034
:1028E0006F3F71058105910511F00CF097C0609361
:1028F0001001CE0185960E94730897FD91C06F3F2D
:1029000071058105910511F00CF08CC060931101E7
:1029100027E062167104A1F0CE018B960E94730825
:1029200016161706180619060CF07EC06B307105D6
:10293000810591050CF07BC070931701609316011F
:102940000E94350A80918801811174C00E9491060D
:10295000C7010E946108670136E0C31AD108C601A9
:102960000E9461080C151D05B9F7CE01C7960E949B
:10297000610880E090E0892B09F486CB0E9400007A
:102980007ECBADACBEACA5014F5F5F4F5EAF4DAF30
:10299000D5018C91082E000C990B0E949215892B61
:1029A00081F7B1E0CB1AD108C80CD91CF60180819F
:1029B000082E000C990B0E949215892B39F0CA142D
:1029C000DB0420F0F1E0CF1AD108F0CFA6014F5F71
:1029D0005F4F4A195B095EAB4DAB8A149B0420F430
:1029E000B501C4010E94421AE9A9FAA98DA99EA9BC
:1029F000E80FF91F10822BCF70E060E044CF6FE743
:102A000070E041CF61E070E052CF60E170E04FCF05
:102A100060E05ECF6FEF5CCF60E069CF6FEF67CFB4
:102A200060E074CF6FEF72CF61E070E085CF6AE055
:102A300070E082CF0E9438078BCF82E092E00E9444
:102A4000610880912702909128020E94FC188091D1
:102A500024029091250297FD03C060E00C942B02A4
:102A600008951F93FC0199278827BC01E8941191D0
:102A70001032E9F3193010F01E30C8F31B3251F058
:102A80001D3249F4689406C00E946315610F711DE0
:102A9000811D911D119110531A30B0F33EF49095A1
:102AA0008095709561957F4F8F4F9F4F1F9108952F
:102AB000BB274A3031F4992322F4BDE290958195E9
:102AC0009F4F0C947915592F482F372F262F660FBB
:102AD000771F881F991F660F771F881F991F620F26
:102AE000731F841F951F660F771F881F991F0895F6
:102AF000BB27FB015527AA27880F991FAA1FA417D8
:102B000010F0A41B83955051B9F7A05DAA3308F0CB
:102B1000A95DA193009779F7B111B1931192CB01FF
:102B20000C949B1591110C947E16803219F08950EB
:102B30008550C8F70895DC01FC01672F7191772358
:102B4000E1F7329704C07C916D9370836291AE1768
:102B5000BF07C8F308950E94ED1508F481E00895B9
:102B6000E89409C097FB3EF4909580957095619527
:102B70007F4F8F4F9F4F9923A9F0F92F96E9BB27DD
:102B80009395F695879577956795B795F111F8CF59
:102B9000FAF4BB0F11F460FF1BC06F5F7F4F8F4FC4
:102BA0009F4F16C0882311F096E911C0772321F0BA
:102BB0009EE8872F762F05C0662371F096E8862F52
:102BC00070E060E02AF09A95660F771F881FDAF7A9
:102BD000880F9695879597F90895990F0008550FD6
:102BE000AA0BE0E8FEEF16161706E807F907C0F093
:102BF00012161306E407F50798F0621B730B840B9B
:102C0000950B39F40A2661F0232B242B252B21F474
:102C100008950A2609F4A140A6958FEF811D811D14
:102C200008950E9424160C9498160E948A1638F073
:102C30000E94911620F0952311F00C9481160C94AB
:102C4000871611240C94CC160E94A91670F3959F38
:102C5000C1F3950F50E0551F629FF001729FBB2793
:102C6000F00DB11D639FAA27F00DB11DAA1F649F2F
:102C70006627B00DA11D661F829F2227B00DA11DE2
:102C8000621F739FB00DA11D621F839FA00D611D68
:102C9000221F749F3327A00D611D231F849F600D89
:102CA000211D822F762F6A2F11249F5750409AF0B2
:102CB000F1F088234AF0EE0FFF1FBB1F661F771F3E
:102CC000881F91505040A9F79E3F510580F00C9409
:102CD00081160C94CC165F3FE4F3983ED4F38695AE
:102CE00077956795B795F795E7959F5FC1F7FE2BA9
:102CF000880F911D9695879597F9089599278827AC
:102D0000089597F99F6780E870E060E008959FEF6D
:102D100080EC089500240A94161617061806090672
:102D2000089500240A941216130614060506089541
:102D3000092E0394000C11F4882352F0BB0F40F4C9
:102D4000BF2B11F460FF04C06F5F7F4F8F4F9F4F09
:102D5000089557FD9058440F551F59F05F3F71F08B
:102D60004795880F97FB991F61F09F3F79F08795F2
:102D70000895121613061406551FF2CF4695F1DF7B
:102D800008C0161617061806991FF1CF869571050B
:102D9000610508940895E894BB2766277727CB013F
:102DA00097F90895F999FECF92BD81BDF89A9927B8
:102DB00080B50895262FF999FECF1FBA92BD81BD27
:102DC00020BD0FB6F894FA9AF99A0FBE01960895AD
:102DD0002F923F924F925F926F927F928F929F922B
:102DE000AF92BF92CF92DF92EF92FF920F931F9319
:102DF000CF93DF93CDB7DEB7CA1BDB0B0FB6F894CA
:102E0000DEBF0FBECDBF09942A88398848885F8409
:102E10006E847D848C849B84AA84B984C884DF807A
:102E2000EE80FD800C811B81AA81B981CE0FD11D5E
:102E30000FB6F894DEBF0FBECDBFED01089597FB2E
:102E4000072E16F4009407D077FD09D00E94391799
:102E500007FC05D03EF4909581959F4F089570959D
:102E600061957F4F0895EE0FFF1F0590F491E02DBF
:102E70000994AA1BBB1B51E107C0AA1FBB1FA617C1
:102E8000B70710F0A61BB70B881F991F5A95A9F713
:102E900080959095BC01CD0108955058BB27AA2775
:102EA0000E9465170C9498160E948A1638F00E94AA
:102EB000911620F039F49F3F19F426F40C948716EC
:102EC0000EF4E095E7FB0C948116E92F0E94A916F9
:102ED00058F3BA17620773078407950720F079F44F
:102EE000A6F50C94CB160EF4E0950B2EBA2FA02D60
:102EF0000B01B90190010C01CA01A0011124FF27A7
:102F0000591B99F0593F50F4503E68F11A16F040A1
:102F1000A22F232F342F4427585FF3CF46953795A0
:102F20002795A795F0405395C9F77EF41F16BA0B65
:102F3000620B730B840BBAF09150A1F0FF0FBB1F13
:102F4000661F771F881FC2F70EC0BA0F621F731F5C
:102F5000841F48F4879577956795B795F7959E3FB9
:102F600008F0B0CF9395880F08F09927EE0F97954A
:102F7000879508950E94CE170C9498160E9491167A
:102F800058F00E948A1640F029F45F3F29F00C9413
:102F9000811651110C94CC160C9487160E94A91618
:102FA00068F39923B1F3552391F3951B550BBB2778
:102FB000AA2762177307840738F09F5F5F4F220FBD
:102FC000331F441FAA1FA9F335D00E2E3AF0E0E8B4
:102FD00032D091505040E695001CCAF72BD0FE2FFE
:102FE00029D0660F771F881FBB1F26173707480792
:102FF000AB07B0E809F0BB0B802DBF01FF2793584A
:103000005F4F3AF09E3F510578F00C9481160C9476
:10301000CC165F3FE4F3983ED4F386957795679599
:10302000B795F7959F5FC9F7880F911D969587957E
:1030300097F90895E1E0660F771F881FBB1F62179D
:1030400073078407BA0720F0621B730B840BBA0B5B
:10305000EE1F88F7E09508950E94B11688F09F57FB
:1030600098F0B92F9927B751B0F0E1F0660F771FAC
:10307000881F991F1AF0BA95C9F714C0B13091F0A2
:103080000E94CB16B1E008950C94CB16672F782FD1
:103090008827B85F39F0B93FCCF386957795679567
:1030A000B395D9F73EF490958095709561957F4FD3
:1030B0008F4F9F4F08950E94ED1508F48FEF0895EC
:1030C0000F931F93CF93DF938230910510F482E02A
:1030D00090E0E0913602F091370230E020E0B0E07D
:1030E000A0E0309799F42115310509F44AC0281B56
:1030F000390B24303105D8F58A819B816115710522
:1031000089F1FB0193838283FE0111C040815181CB
:103110000281138148175907E0F04817590799F4BD
:10312000109761F012960C93129713961C93329697
:10313000CF01DF91CF911F910F9108950093360237
:1031400010933702F4CF2115310551F04217530780
:1031500038F0A901DB019A01BD01DF01F801C1CFFF
:10316000EF01F9CF9093370280933602CDCFFE0165
:10317000E20FF31F81939193225031093983288301
:10318000D7CF2091340230913502232B41F4209186
:103190002301309124013093350220933402209191
:1031A0002101309122012115310541F42DB73EB79F
:1031B0004091250150912601241B350BE0913402EA
:1031C000F0913502E217F307A0F42E1B3F0B2817EE
:1031D000390778F0AC014E5F5F4F2417350748F090
:1031E0004E0F5F1F509335024093340281939193A9
:1031F0009FCFF0E0E0E09CCFCF93DF930097E9F022
:10320000FC01329713821282A0913602B0913702EC
:10321000ED0130E020E01097A1F420813181820F90
:10322000931F20913402309135022817390709F095
:1032300061C0F0933502E0933402DF91CF9108959D
:10324000EA01CE17DF07E8F54A815B819E0141154F
:103250005105B1F7E901FB83EA8349915991C40F04
:10326000D51FEC17FD0761F4808191810296840FD0
:10327000951FE90199838883828193819B838A8347
:10328000F0E0E0E012968D919C9113970097B9F5CC
:103290002D913C911197CD010296820F931F2091A1
:1032A0003402309135022817390739F6309751F535
:1032B0001092370210923602B0933502A093340276
:1032C000BCCFD383C28340815181840F951FC8171F
:1032D000D90761F44E5F5F4F88819981480F591F6C
:1032E000518340838A819B81938382832115310599
:1032F00009F0B0CFF0933702E09336029ECFFD0184
:10330000DC01C0CF13821282D7CFB0E0A0E0EBE89F
:10331000F9E10C94EA168C01009751F4CB010E945C
:1033200060188C01C801CDB7DEB7E0E10C94061738
:10333000FC01E60FF71F9C0122503109E217F30749
:1033400008F49DC0D901CD91DC911197C617D7071C
:1033500098F0C530D10530F3CE0104978617970752
:1033600008F3C61BD70B2297C193D1936D937C931F
:10337000CF010E94FC18D6CF5B01AC1ABD0A4C01EC
:103380008C0E9D1EA0913602B0913702512C412C1B
:10339000F12CE12C109731F5809134029091350297
:1033A0008815990509F05CC04616570608F058C004
:1033B0008091210190912201009741F48DB79EB731
:1033C0004091250150912601841B950BE817F907C0
:1033D00008F055C0F0933502E0933402F90171838F
:1033E0006083A0CF8D919C91119712966C9012974B
:1033F00013967C901397A815B90559F56C0142E016
:10340000C40ED11CCA14DB0420F1AC014A195B09BB
:10341000DA011296159780F062827382518340839D
:10342000D9016D937C93E114F10471F0D7011396E7
:10343000FC93EE93129776CF22968C0F9D1FF90185
:1034400091838083F301EFCFF0933702E09336024C
:1034500069CF4816590608F42C017D01D3019ACF93
:10346000CB010E9460187C01009749F0AE01B801C1
:103470000E94421AC8010E94FC18870153CF10E035
:1034800000E050CFFB01DC0102C001900D924150E1
:103490005040D8F70895FB01DC018D91019080190F
:1034A0000110D9F3990B0895FB01DC0101900D92F5
:1034B0000020E1F70895FB01DC014150504030F05D
:1034C0008D910190801919F40020B9F7881B990B90
:1034D000089510E0C1EDD0E004C0FE010E94331752
:0C34E0002196C23DD107C9F7F894FFCF38
:1034EC00FFFFFFFF00E1000000000000BB0501052D
:1034FC000019020010000200140000C180810000BD
:10350C0000000038028000000000001405FE040DCD
:10351C00042A05A1052D057D0500000000BF05C18D
:10352C0005BC0569084D49444900412C2000522C2A
:10353C0020004D434B2C20000D0A004D434B0052F4
:02354C0000007D
:00000001FF
