:100000000C94D0000C94F8000C94F8000C94F800B8
:100010000C94F8000C94F8000C94F8000C94F80080
:100020000C94F8000C94F8000C9482120C940013B9
:100030000C94F8000C94F8000C94F8000C94F80060
:100040000C94F8000C94F8000C94F8000C94F80050
:100050000C94F8000C94F8000C94F8000C943812EE
:100060000C94F8000C94F8000C94F8000C94F80030
:100070000C94F8000C94F8000C94F8000C94F80020
:100080000C94F8000C94F8000C94F8000C94F80010
:100090000C94F8000C94F8000C94F8000C94F80000
:1000A0000C94F8000C94F8000C94F800080B000273
:1000B0000202000009040000010202000005240001
:1000C0001001052401010104240206052406000193
:1000D0000705810310004009040100020A00000026
:1000E00007050202400000070583024000000403E8
:1000F000090412010002EF0201404F1B0A920001A5
:1001000001020301537061726B46756E004D6963A5
:10011000726F4D69646900070605040100080A0B47
:100120000C0D0900000000240027002A002D0030DB
:10013000000000000200090F0000030401000C0091
:1001400000000000000000000000000000000004AB
:1001500008020110408040102040804080080204C6
:10016000018040201002011080102040402000003B
:100170000000250028002B002E0031000404040498
:10018000040304050202020204030202020206063C
:100190000606060604040202020404004F16662046
:1001A00011241FBECFEFDAE0DEBFCDBF13E0A0E029
:1001B000B1E0EEE3FBE402C005900D92AA3BB1076B
:1001C000D9F726E0AAEBB3E001C01D92AA37B20727
:1001D000E1F710E0CFECD0E004C02197FE010E94CF
:1001E000B622CE3CD107C9F70E943D180C94922547
:1001F0000C940000E0916206F09163068E179F0751
:1002000098F530916806332361F0639FB0011124A3
:10021000672F349FA0011124452F329F9001112494
:10022000232F30916E06E0916906F0916A06509195
:100230006B0635131AC0DC01AA0FBB1F8A0F9B1F68
:100240008E0F9F1FE0916B06E80FF92FF11D608361
:10025000E0916C06E80FF92FF11D408330916D0697
:10026000830F911DFC0120830895880F991F880F2B
:10027000991F8E0F9F1FFC01E30FF11D1082E2CF2B
:100280008F929F92AF92BF92CF92DF92EF92FF92A6
:100290000F931F93FC014B01AA24BB24C52ED62E1D
:1002A000E72EFF24BC2DA42F90916806B82C99232B
:1002B00091F0A92FB0E0A89D9001A99D300DB89DA7
:1002C000300D1124B32E9C9D60011124BD2D949FEF
:1002D00080011124A12F40916E0620916906309172
:1002E0006A0680916B06481324C0CF01880F991FBE
:1002F0008E0F9F1F820F931FE0916B06E80FF92F5F
:10030000F11DB082E0916C06E80FF92FF11DB0836A
:1003100020916D06820F911DFC01A0831F910F910A
:10032000FF90EF90DF90CF90BF90AF909F908F9015
:100330000895CF01880F991F880F991F820F931F6F
:10034000FC01E40FF11D1082D7CF90E080E008950A
:1003500080E0089580910D0581110DC082E08093A9
:10036000090584E080930A0510920C0510920B0594
:1003700081E080930D0589E095E00895282F30E015
:10038000F901EF5CFE4F9491F901E15BFE4F84911E
:1003900024583E4FF9012491222309F430C09923B7
:1003A000E9F091509F30D0F4E92FF0E0E652FE4F93
:1003B0000C94B62208020C02E90100020402EE01CC
:1003C000EE01EE010F02150219021D022302EE01D9
:1003D0002702909180009F7790938000E22FF0E0B9
:1003E000EE0FFF1FE259FE4FA591B4919FB7F8940D
:1003F000EC91611132C080958E238C939FBF08953C
:10040000909180009F7DE8CF90918000977FE4CF0E
:1004100094B59F7794BDE2CF94B59F7DFBCF90912B
:1004200090009F7790939000D9CF909190009F7DFE
:10043000F9CF90919000977FF5CF9091C0009F7772
:100440009093C000CBCF9091C0009F7DF9CF909149
:10045000C200977F9093C200C1CF8E2BCECFCF9397
:10046000DF9390E0FC01E15BFE4F249184589E4FA6
:10047000FC0184918823D1F090E0880F991FFC0142
:10048000ED5DFE4FA591B491FC01E259FE4FC5917F
:10049000D49161110EC09FB7F8948C91E22FE09532
:1004A0008E238C932881E223E8839FBFDF91CF9135
:1004B00008958FB7F894EC91E22BEC938FBFF6CFB1
:1004C000823108F08251E82FF0E0E95EFE4FE491BE
:1004D00090917B008E2F880F880F80729F7D892BD3
:1004E00080937B00E770E064E0937C0080917A0069
:1004F000806480937A0080917A0086FDFCCF8091A1
:1005000078009091790008953FB7F894809105059F
:1005100090910605A0910705B091080526B5A89B06
:1005200005C02F3F19F00196A11DB11D3FBFBA2F85
:10053000A92F982F8827BC01CD01620F711D811D45
:10054000911D42E0660F771F881F991F4A95D1F7CA
:1005500008950F931F93CF93DF93CDB7DEB72997FD
:100560000FB6F894DEBF0FBECDBF809169069091A3
:100570006A06892B09F47CC00E94840200916F06F0
:100580001091700620917106309172066017710704
:100590008207930740F460936F0670937006809310
:1005A00071069093720600916F061091700620916B
:1005B000710630917206601B710B820B930B6C32CB
:1005C000714081059105C0F2F89480916406909184
:1005D00065069A838983E0916906F0916A06DF01D6
:1005E00011968081898790916006E0917306F09161
:1005F000740680917506992309F445C09081982B63
:1006000098879081809589238F838F818C8388E060
:100610008B8358856F8149853B812C8189819A81A3
:10062000508347FD252F3A952083262F39F0441F0C
:1006300000C000006083000000C0F2CF38E04D91A0
:1006400060830000019761F7F0937406E0937306EE
:1006500049873B832C839A83898378940E94840200
:1006600060936F0670937006809371069093720684
:1006700029960FB6F894DEBF0FBECDBFDF91CF91A4
:100680001F910F9108959081982B98879081809564
:1006900089238F838F818E8388E08D8358856F8136
:1006A00049853D812E8189819A81508347FD252F7F
:1006B00000C000C0208300C000C000C000C000C057
:1006C00060830000262F3A9541F0441F000000C0CF
:1006D00000C000C000C000C0E8CF38E04D9100C0AD
:1006E000608300C0019709F7F0937406E0937306E6
:1006F00049873D832E83AFCF8F929F92AF92BF9257
:10070000CF92DF92EF92FF924B015C010E94840234
:100710006B017C010E9484026C197D098E099F097E
:10072000683E734081059105A8F321E0821A910883
:10073000A108B10888EEC80E83E0D81EE11CF11CA8
:1007400081149104A104B10429F7FF90EF90DF9088
:10075000CF90BF90AF909F908F9008958093E900C5
:100760008091F200882319F08AE38093E8000895CD
:1007700083E00C94AE034091C6045091C7042091CD
:10078000C4043091C50442175307B4F49091E800B3
:100790009570E1F39091E80092FD19C08093F1000B
:1007A0008091C6049091C70401968F739927892B75
:1007B00019F48EEF8093E8008091C6049091C704ED
:1007C00001969093C7048093C60481E0089580E069
:1007D0000895DF92EF92FF920F931F93CF93DF93D1
:1007E000D82E8A01EB017B01E40EF51ECE15DF0544
:1007F00059F0D7FE12C0FE0184910E94BB032196DE
:100800008111F4CF0FEF1FEFC801DF91CF911F913E
:100810000F91FF90EF90DF9008958881EECF0F93B6
:100820001F93CF93DF93CDB7DEB7C456D1090FB670
:10083000F894DEBF0FBECDBFFC01DB019C919E5F33
:100840009C939E01295F3F4F8AE5D9011D928A95AD
:10085000E9F788E089838BE08A8322E02C8391E0AA
:100860009D839E8339E0398764E06A879E879F87EE
:100870003A8B44E24B8B9C8BA0E0B1E0BE8BAD8BFE
:1008800009E010E0188F0F8B998F3B8F6C8F2F8FA3
:1008900098A353E059A387E08CA34DA39EA3B8A7C8
:1008A000AFA3A1E4B0E0BAA7A9A786E08BA74CA7A5
:1008B0002DA79EA79FA789AB4AAB2BAB2CAB2DAB2B
:1008C0003FAB48AF59AF9AAF5BAF9CAF2DAF9EAF78
:1008D00021963FAF219722964FAF229723965FAF85
:1008E000239724962FAF249725966FAF25972696AA
:1008F0009FAF269727969FAF279728969FAF289759
:100900002A963FAF2A9745E02B964FAF2B972D960F
:100910002FAF2D9760E470E02F967FAF6EAF2F97CB
:1009200063964FAF639785E264968FAF6497659641
:100930009FAF659766969FAF669767969FAF6797DD
:1009400068963FAF689769964FAF69976B962FAFE0
:100950006B976D967FAF6EAF6D97A1964FAFA197D6
:10096000A2968FAFA297A3969FAFA397A4969FAF8F
:10097000A497A5965FAFA59792819B839B879F5F66
:100980009A8F9D8F83812C968FAF2C978F5F806875
:100990006A968FAF6A9744E650E0BE016F5F7F4F63
:1009A00080E00E94E903CC59DF4F0FB6F894DEBF18
:1009B0000FBECDBFDF91CF911F910F9108950F937F
:1009C0001F93CF93DF931F92CDB7DEB782E0898369
:1009D00042E450E06CEA70E080E80E94E9030E9483
:1009E000AA01DC0112960D911C910115110589F0E7
:1009F000D801ED91FC910280F381E02DBE016F5F83
:100A00007F4FC801099597FD04C0F8010085118545
:100A1000ECCF89810F90DF91CF911F910F910895B5
:100A20002FB7F89487708093E9009091E800892FA0
:100A3000807295FF04C09091F20080E4891B2FBF63
:100A400008957F928F929F92AF92BF92CF92DF9242
:100A5000EF92FF920F931F93CF93DF93C82E8B01DA
:100A60007A018091CD04811110C08FEF9FEFDF914B
:100A7000CF911F910F91FF90EF90DF90CF90BF909B
:100A8000AF909F908F907F9008958091CB0480FFCE
:100A900005C08091E00082608093E000CE2DDF2DC4
:100AA000D12C8AEFB82E8C2D8770982E8C2D8072C9
:100AB000882E8C2D8074782E9AE3A92E209719F415
:100AC000DD2009F452C08C2D0E94100581110AC04E
:100AD000BA94BB2051F261E070E080E090E00E94A7
:100AE0007C03ECCF8C171D0611F00CF08C2F9FB7F8
:100AF000F8949092E9002091E80025FD02C09FBF84
:100B0000DDCF282F30E0C21BD30B882029F0815085
:100B1000A0F01092F100FBCFF801C7FC0AC0815091
:100B200050F041914093F100FACF44914093F1008D
:100B300031968150D0F7020F131FDD2021F0A092D3
:100B4000E800D12CDCCF8091E80085FD07C0A092A1
:100B5000E800DD24D394209791F2F3CF209779F623
:100B6000772069F2A092E800CACF5D9884E680936E
:100B7000CA04C7017CCF9091CD04992319F13FB7E6
:100B8000F89487708093E9008091F20090E0481714
:100B900059070CF4CA01282FFB0154E6215038F004
:100BA00028985093C9044091F1004193F7CF0097E2
:100BB00039F02091F200211103C02BE62093E800C8
:100BC0003FBF08958FEF9FEF08959FB7F894877008
:100BD0008093E9008091F2009FBF0895615030F04A
:100BE0002091F100FC0120830196F8CF289884E63B
:100BF0008093C9040895CF93DF93EC0180910B019A
:100C0000882331F083E00E9421051816190634F07C
:100C100081E090E09B838A8380E090E0DF91CF9138
:100C20000895CF93DF931F92CDB7DEB76983DC01C0
:100C3000ED91FC910280F381E02D41E050E0BE0196
:100C40006F5F7F4F09950F90DF91CF91089583E0FB
:100C50000E94100590E00895CF93DF931F92CDB7C7
:100C6000DEB7FC018485958597FD08C02FEF3FEF27
:100C7000358724870F90DF91CF91089541E050E0B0
:100C8000BE016F5F7F4F82E00E94BB05019719F4A0
:100C9000898190E0EFCF8FEF9FEFECCF0F931F9301
:100CA000CF93DF931F92CDB7DEB78C01FC01848513
:100CB000958597FF0FC041E050E0BE016F5F7F4F09
:100CC00082E00E94BB05019771F4898190E0F801F0
:100CD00095878487F801848595850F90DF91CF9162
:100CE0001F910F9108958FEF9FEFF1CFFC01848545
:100CF000958597FD06C082E00E94E50590E001968B
:100D0000089582E00E94E50590E0089508950F930C
:100D1000CF93DF9300D000D0CDB7DEB730E1839F13
:100D2000C0011124682B69834A832B830C83809133
:100D3000180544E050E0BE016F5F7F4F8F5F0E9457
:100D400021050F900F900F900F90DF91CF910F9191
:100D500008950F931F93CF93DF93EC018B01EC85E4
:100D6000FD8580819181009711F00E94A906E8819C
:100D7000F9810288F389E02DB801CE01DF91CF918E
:100D80001F910F910994CF92DF92EF92FF92CF9330
:100D9000DF93EC016A017B01EC85FD858081918107
:100DA000009711F00E94C306E881F9810088F1895B
:100DB000E02DB701A601CE01DF91CF91FF90EF901A
:100DC000DF90CF900994CF92DF92EF92FF92CF9372
:100DD000DF93EC016A017B01EC85FD8580819181C7
:100DE000009711F00E94E306E881F9810684F785F7
:100DF000E02DB701A601CE01DF91CF91FF90EF90DA
:100E0000DF90CF900994472FDC01ED91FC91028C8B
:100E1000F38DE02D09940F93342F452F232F207F3E
:100E2000DC01ED91FC91213B48F0203E39F0068831
:100E3000F789E02D272F632F0F910994072F262F75
:100E4000632F0488F589E02D09950F910895089581
:100E50000895CF92DF92EF92FF920F931F93CF935B
:100E6000DF938B01C091BD05D091BE057C01F59447
:100E7000E7946C0121E0C222DD242097A1F0CE018D
:100E80008E0D9F1DF801C114D10441F0DC01ED91DC
:100E9000FC91E00FF11F0190F081E02D09950A808F
:100EA000DB81C02DEACFDF91CF911F910F91FF9091
:100EB000EF90DF90CF9008950F931F93CF93DF9320
:100EC000EC010E948402088119812A813B81601B08
:100ED000710B820B930B6C837D838E839F83DF91D9
:100EE000CF911F910F910895CF93DF93DB01189657
:100EF000ED91FC911997309701F120853185169677
:100F00004D915C91179721153105D1F0E9017F834F
:100F10006E8357834683B187A0871796FC93EE9321
:100F2000169719963C932E9318974115510561F029
:100F3000DA011996FC93EE931897DF91CF910895FB
:100F4000EC0179836883E5CFEC01FB83EA83F5CF7D
:100F5000DC015C96ED91FC91309711F0CB01099486
:100F60000895EF92FF920F931F93CF93DF93042F77
:100F7000F52EE62E172FDC015A96ED91FC91309755
:100F8000B1F5C091CE04D091CF042097B9F18E81F4
:100F9000811345C0E881F9810284F385E02D402F5B
:100FA0005F2D6E2D712FCE0109958823C1F1EC8143
:100FB000FD81309719F1848195812A813B810097C9
:100FC00021F1DC011396DC93CE93129733832283B5
:100FD000D583C483FB83EA839D838C8321153105EC
:100FE000C9F0D9011596FC93EE93149707C0642FAE
:100FF000752F8E2D912F0995882319F2DF91CF91AE
:101000001F910F91FF90EF900895D093CF04C0935C
:10101000CE04DCCFF093D104E093D004EFCF0A806C
:10102000DB81C02DB2CFEF92FF920F931F93CF932E
:10103000DF9300D0CDB7DEB78C017B01DC01ED91F1
:10104000FC910484F585E02D09959A838983D80164
:10105000ED91FC910684F785E02DBE016F5F7F4F17
:10106000C8010995882361F0D801ED91FC910284B3
:10107000F385E02DAE014F5F5F4FB701C8010995C1
:101080000F900F90DF91CF911F910F91FF90EF90F4
:1010900008950F931F93CF93DF9300D000D01F923A
:1010A000CDB7DEB7162F372F242F207F2983642F4B
:1010B0006F702A81207F262B2A835B831C837D838C
:1010C000DC015896ED91FC91309731F0BA01812FF7
:1010D000932F099581115AC08981803B09F060C026
:1010E0008B81893731F50091DE041091DF04011501
:1010F000110561F0D801ED91FC910680F781E02D9A
:10110000C8010995F80106811781F1CF0091D60435
:101110001091D70401151105C9F1D801ED91FC9189
:101120000680F781E02DC8010995F8010681178135
:10113000F1CF0091DE041091DF048B37B9F40091F8
:10114000DA041091DB040115110501F1D801ED91CC
:10115000FC910680F781E02DC8010995F801068110
:101160001781F1CFD80116960D911C91011511052B
:1011700069F0BE016F5F7F4FC8010E94130888238A
:1011800089F3B8018EED94E00E9474070F900F90E0
:101190000F900F900F90DF91CF911F910F910895B5
:1011A000982F9F7E9038C9F40091DA041091DB04E7
:1011B0000115110559F3BE016F5F7F4FC8010E94F1
:1011C0001308882331F0B8018AED94E00E94740777
:1011D000DDCFF80106811781EBCF803DD1F400917E
:1011E000D6041091D7040115110581F2BE016F5F7D
:1011F0007F4FC8010E941308882331F0B80186EDA3
:1012000094E00E947407C2CFD80116960D911C91EC
:10121000EACF803C09F0BACF0091D2041091D304F8
:101220000115110509F4B2CFBE016F5F7F4FC801F0
:101230000E941308882331F0B80182ED94E00E94E7
:101240007407A4CFF80106811781EACFDC011A9652
:101250008D919C91009739F0DC01ED91FC91048017
:10126000F581E02D099490E080E0089504970C94B6
:101270002609DC0118968D919C91009739F0DC01CC
:10128000ED91FC910484F585E02D099490E080E0D7
:101290000895DC0118968D919C91009739F0DC013E
:1012A000ED91FC910084F185E02D09940895DC0115
:1012B00018968D919C91009739F0DC01ED91FC918D
:1012C0000680F781E02D09940895DC0118968D9130
:1012D0009C91009739F0DC01ED91FC910480F5813F
:1012E000E02D0994089561110E946515FC01E757EE
:1012F000FF4F208131812038310558F4820F931F30
:10130000DC0119964C932F5F3F4F3183208381E09E
:10131000089580E00895FC01228133812115310573
:1013200069F4FB0122853385232B11F00E9465159A
:1013300093878287FC01738362830895C9010496B1
:10134000EACFFC01228133812115310569F4FB01CB
:1013500020853185232B11F00E94651591878087A8
:10136000FC01738362830895C901EBCFCF93DF93B0
:10137000EC01888599850097F1F0EE85FF85608105
:10138000718161157105B9F0DC011296ED91FC9146
:101390001397309731F01186108613961C921E9287
:1013A0001297EA81FB81309721F0118610861B820B
:1013B0001A820E94A1098A859B850097F1F0EC852D
:1013C000FD856081718161157105B9F0DC011296AE
:1013D000ED91FC911397309731F013861286139696
:1013E0001C921E921297EE81FF81309721F0138696
:1013F00012861F821E820E948B09E885F98530972C
:1014000051F0A281B381109731F019961C921E926F
:10141000189713821282EA85FB85309751F0A281DA
:10142000B381109731F01B961C921E921A9713826B
:101430001282EE85FF8580819181892B31F4EC85C4
:10144000FD8580819181892B11F00E946515DF91C6
:10145000CF910895CF93DF93EC018A819B81009710
:1014600049F004960E942A0A8A819B810E94B6094B
:101470001B821A82DF91CF91089524EE31E0FC01A6
:10148000318320830C942A0A28EC31E0FC0131835B
:1014900020830C943D0ACF93DF93EC018A819B81DA
:1014A000009741F00E944B0A8A819B810E94B609F5
:1014B0001B821A82DF91CF910895CF93DF93EC01C5
:1014C00080E392E09983888382E492E09D838C8319
:1014D000CE01C0960E949215CE014E960E949215A2
:1014E0008CE992E0998388838EEA92E09D838C83D5
:1014F000CE0104960E94440A82ED91E0998388838C
:10150000CE01DF91CF910C944B0A04970C945D0AA5
:10151000CF93DF93462F469546954695A42FB0E08E
:10152000677021E001C0220F6A95EAF7423010F09F
:101530000E946515FC01EA0FFB1F3089322359F424
:10154000EC01EC85FD8580819181009779F781E040
:10155000DF91CF91089580E0FBCFCF93DF93A42F4D
:10156000352F272F662389F0623010F40E9465150D
:10157000462F50E0EC01E881F981008CF18DE02DDF
:101580006A2F732FDF91CF910994DF91CF91089546
:10159000562F577021E030E002C0220F331F5A95BA
:1015A000E2F7562F569556955695E52FF0E04423D1
:1015B000B1F0523010F00E946515E80FF91F308924
:1015C000232B208BDC0118968D919C91009781F044
:1015D000DC01ED91FC910284F385E02D09942095C6
:1015E0003095523040F7E80FF91F30892323E9CFB7
:1015F00008956695FC0182818695681B862F089563
:1016000080E0089580E008951F93CF93DF93EC016D
:10161000162FE881F9810288F389E02D099581115F
:101620000E9465151111FCCF8D85DF91CF911F911F
:1016300008950A970C94040BFC019281DB012C9114
:10164000892F817090FF02C0822F81709695269518
:101650004381FB013181882329F0921302C081E08C
:10166000431380E00895DF92EF92FF920F931F9350
:10167000CF93DF93EC018B017A01FA0160817181D4
:10168000E881F9810488F589E02D0995D82EF701C4
:1016900060817181E881F9810688F789E02DCE01AA
:1016A0000995F8019081903829F09381DD2021F08F
:1016B0000E94651590E0FACF8111FACF9D87E881ED
:1016C000F9810288F389E02DCE01099581E0DF914F
:1016D000CF911F910F91FF90EF90DF900895FC0143
:1016E000158608950895049608950296089505961E
:1016F0000895029608950396089502960895089510
:1017000008950895CF93DF93FC0182E592E09183E1
:101710008083309781F08091BD059091BE05228134
:101720003381A481B581E817F90741F0211531050E
:1017300029F4109729F4DF91CF910895109721F0A3
:1017400013963C932E9312972091BF053091C005BC
:10175000E217F30721F4B093C005A093BF05C2813F
:10176000D381209711F0BD83AC83E817F90719F7EF
:10177000D093BE05C093BD05DECFCF93DF93EC01C0
:1017800086E692E09983888386E892E09D838C8345
:1017900080E992E0998788878091C2049091C30480
:1017A000009749F42091BF053091C00521153105FE
:1017B00011F0C9010897C817D90721F41092C30482
:1017C0001092C2048AE592E099878887CE01089634
:1017D0000E94820B8CE992E0998388838EEA92E0E2
:1017E0009D838C83CE0104960E94440A82ED91E091
:1017F00099838883CE01DF91CF910C944B0A049793
:101800000C94BD0B08970C94BD0B2F923F924F92F6
:101810005F926F927F928F929F92AF92BF92CF9280
:10182000DF92EF92FF920F931F93CF93DF9300D03D
:1018300000D01F92CDB7DEB77C012BE22D836C0167
:1018400083E1C80ED11CF701E256FF4F5F0147014B
:10185000FCE98F0E911C8091BA049091BB04A09179
:10186000BC04B091BD044091BE045091BF0460918E
:10187000C0047091C104841B950BA60BB70B8F732A
:101880009927AA27BB27892B8A2B8B2B09F46EC09B
:101890008091BE049091BF04A091C004B091C10496
:1018A000880F991F880F991FFC01E654FC4F808117
:1018B0004181728063802090BA043090BB044090D4
:1018C000BC045090BD040091BE041091BF0420914F
:1018D000C0043091C1042016310642065306C1F0FF
:1018E0000091BE041091BF042091C0043091C10446
:1018F0000F5F1F4F2F4F3F4F0F73112722273327A3
:101900000093BE041093BF042093C0043093C1041D
:10191000882309F4B5C0082F10E094E015950795C9
:101920009A95E1F78F7028EF280F273008F07DC0D7
:10193000F701458B768A678A008F81E00F900F90C0
:101940000F900F900F90DF91CF911F910F91FF900B
:10195000EF90DF90CF90BF90AF909F908F907F904F
:101960006F905F904F903F902F9008958091180551
:101970000E94E505612C712C40E0882309F49BCF7F
:101980008091BA049091BB04A091BC04B091BD04B5
:101990000196A11DB11D2C013D012FE342225524CA
:1019A000662477248091BE049091BF04A091C00466
:1019B000B091C10484159505A605B70509F468CF53
:1019C000809118050E94E50544E050E0BE016F5F7C
:1019D0007F4F809118050E94BB0504970CF458CFE7
:1019E0008091BA049091BB04A091BC04B091BD0455
:1019F000880F991F880F991F86549C4F49815A81DF
:101A00006B817C81FC0140835183628373834092AC
:101A1000BA045092BB046092BC047092BD04FFEF04
:101A20004F1A5F0A6F0A7F0AB8CF843059F5403FDA
:101A3000E1F401110E946515F4011182108221E088
:101A4000F5012083602FC6010E947309882399F055
:101A5000472D602FC6010E947309882361F0462D2F
:101A6000602FC6010E94730906C00111E3CFF50182
:101A700080818111E7CFFD81F150FD83F111EBCE23
:101A800080E05CCF8530B1F4473FA9F70111D2CF98
:101A9000F5018081882379F360E0C6010E94730913
:101AA000882349F3F701E256FF4F1082F701138EA6
:101AB00082E044CF8630D1F4403F89F40111BACF9F
:101AC000F4011182108221E0F5012083602FC6010C
:101AD0000E94730947EF602F882369F2DECF01115E
:101AE000A9CFF50180818111F1CFC5CF8730D1F425
:101AF000403F89F401119ECFF4011182108221E050
:101B0000F5012083602FC6010E947309882309F420
:101B1000B2CF472DDBCF01118DCFF501808181112F
:101B2000F1CFA9CF8F3009F0A6CFF701418F028FF7
:101B300083E004CF0F93842F00E020E0462F6FE076
:101B40000E948706809118058F5F0F910C94AE0359
:101B5000EF92FF920F931F93CF93DF93EB017A01E4
:101B6000122F84E0E816F10460F00A81298148818F
:101B700064E0812F0E948706239683E0E81AF1082B
:101B8000F0CF82E0E816F104F1F083E0E816F1040A
:101B900041F0EA94EF2861F400E020E0488165E03C
:101BA00004C00A812981488167E0812F0E9487064D
:101BB000809118058F5FDF91CF911F910F91FF905A
:101BC000EF900C94AE0300E02981488166E0EDCFF0
:101BD0000F93DC01ED91FC910488F589E02D022F33
:101BE00020E009950F9108950F93802FE62FF0E0E4
:101BF00094E0F595E7959A95E1F7022F242F462F6B
:101C00006E2F0E948706809118058F5F0F910C94AC
:101C1000AE03FC01208521110E946515E757FF4F97
:101C20000996BC01808190E00895CF93DF93FC0179
:101C30008EE691E0938782878EE291E091838083A4
:101C400082E491E095838483A085B185109731F07B
:101C50008681978117969C938E9316978091E004C6
:101C60009091E104E817F90721F4B093E104A093FF
:101C7000E004C681D781209711F0B987A8878091A9
:101C8000DE049091DF04E817F90721F4D093DF0414
:101C9000C093DE04DF91CF91089524E731E0FC0189
:101CA0003183208320E931E03583248328E931E042
:101CB000338722870C94150E04970C944D0E2EE951
:101CC00031E0FC01318320832AEB31E0358324832A
:101CD00022EC31E0338722870C944D0E04970C944C
:101CE0005F0E04970C94150EFC01DB019C91892F6B
:101CF000817090FF0EC02281822F817020FF09C069
:101D000092279E7F29F481E011962C9193812913CB
:101D100080E00895FB01248191818281880F2295C2
:101D2000207F9F708160922B0895FC01718B608BE6
:101D30000895089508950895CF93DF93EC01888165
:101D40009981009711F00E941E24198218821D8229
:101D50001C821B821A82DF91CF910895FC01808141
:101D60009181009711F00C941E2408950C941E2468
:101D7000CF93DF93EC010E943D0ACE01DF91CF911A
:101D80000C941E24CF93DF93EC010E945D0ACE01D8
:101D9000DF91CF910C941E2404970C94C20ECF9324
:101DA000DF93EC010E94440ACE01DF91CF910C94A5
:101DB0001E24CF93DF93EC010E945F0ECE01DF91D2
:101DC000CF910C941E2404970C94D90E0C941E24CD
:101DD0000C941E24CF93DF93EC010E94BD0BCE0127
:101DE000DF91CF910C941E2404970C94EA0E08976F
:101DF0000C94EA0ECF93DF93EC010E94820BCE018C
:101E0000DF91CF910C941E24CF93DF93EC010E94BD
:101E10004D0ECE01DF91CF910C941E2404970C94AB
:101E2000040FCF93DF93EC010E94150ECE01DF91DA
:101E3000CF910C941E2404970C94110FFC01019077
:101E40000020E9F73197AF01481B590BBC0181E233
:101E500095E00C94FB05CF93DF93FC014481558101
:101E60006081718181E295E00E94FB05EC018CEEBE
:101E700092E00E941E0F8C0F9D1FDF91CF9108955D
:101E8000CF92DF92EF92FF920F931F93CF93DF9346
:101E9000CDB7DEB7A1970FB6F894DEBF0FBECDBFAA
:101EA000282F30E050E040E019A28E010F5D1F4F57
:101EB0008AE0C82ED12CE12CF12CCA01B901A7016E
:101EC00096010E947122605DF80162938F012115D5
:101ED00031054105510589F790E080E0309719F010
:101EE000CF010E941E0FA1960FB6F894DEBF0FBE61
:101EF000CDBFDF91CF911F910F91FF90EF90DF90B9
:101F0000CF9008950C941E0FCF93DF93EC018FEECA
:101F100092E00E94820FCE01DF91CF910C942B0FA3
:101F200084E0E7EFF2E0DB0101900D928A95E1F7A2
:101F300084E008950E9464250F931F93CF93DF934D
:101F4000EC0188819981009759F02A813B812617FD
:101F5000370730F081E0DF91CF911F910F91089505
:101F60008B016F5F7F4F0E94A724009759F09983E0
:101F700088831B830A832C813D81232B59F7FC0125
:101F80001082E8CF80E0E7CFEF92FF920F931F938C
:101F9000CF93DF93EC017B01198218821B821A8296
:101FA0001D821C82FB0101900020E9F731978F010F
:101FB000061B170BB8010E949C0F811109C0CE01AE
:101FC000DF91CF911F910F91FF90EF900C949C0E99
:101FD0001D830C83B70188819981DF91CF911F9177
:101FE0000F91FF90EF900C947D25EF92FF920F934D
:101FF0001F93CF93DF938C017B01EB0109900020AD
:10200000E9F72197C61BD70BBE010E949C0F8111D7
:1020100009C0C801DF91CF911F910F91FF90EF9000
:102020000C949C0EF801D583C483B7018081918103
:10203000DF91CF911F910F91FF90EF900C947D2530
:102040000F931F93CF93DF93CDB7DEB729970FB6CA
:10205000F894DEBF0FBECDBF8C01862FF801118230
:10206000108213821282158214824AE0BE016F5FD1
:102070007F4F90E00E94C120BE016F5F7F4FC8017B
:102080000E94F50F29960FB6F894DEBF0FBECDBFA4
:10209000DF91CF911F910F9108950F931F93CF93CD
:1020A000DF93CDB7DEB762970FB6F894DEBF0FBEF1
:1020B000CDBF8C01CB01F8011182108213821282F4
:1020C000158214824AE0BE016F5F7F4F0E94A120FB
:1020D000BE016F5F7F4FC8010E94F50F62960FB679
:1020E000F894DEBF0FBECDBFDF91CF911F910F914E
:1020F0000895EF92FF920F931F93CF93DF93611593
:10210000710541F480E0DF91CF911F910F91FF9015
:10211000EF90089541155105B1F07B01EC010C8160
:102120001D81040F151FB8010E949C0F882351F3D5
:10213000288139818C819D81B701820F931F0E9474
:102140007D251D830C8381E0DECFCF93DF93EC01EF
:10215000FB0144815581608171810E947910811158
:1021600003C0CE010E949C0ECE01DF91CF91089555
:102170000C94F221EF92FF920F931F93CF93DF9372
:10218000082F8091FE049091FF04009731F00E9487
:102190001E241092FF041092FE048091FC04909182
:1021A000FD04009759F0DC01ED91FC910280F38170
:1021B000E02D09951092FD041092FC0490E080E05F
:1021C0000E94B8100F70182F1F7784E190E00E94D2
:1021D0008223EC0182E18883110F812F8160898342
:1021E0000A838DEC9CECACE4BDE38B879C87AD87C8
:1021F000BE878FEF9FEFDC018F87988BA98BBA8BFF
:102200001B8A82E10E946002092E000CAA0BBB0B04
:102210008B839C83AD83BE838F839887A987BA877E
:10222000D093FF04C093FE048FE090E00E948223CD
:10223000FC011160128303831782168211861086B7
:102240008EE291E09183808382E491E095838483A0
:102250008091DE049091DF04892B21F4F093DF0458
:10226000E093DE04A091E004B091E104B187A0877F
:10227000109721F01796FC93EE931697F093E104D4
:10228000E093E0041782168281E0848715868EE948
:1022900091E0918380838AEB91E09583848382EC43
:1022A00091E093878287F093FD04E093FC0460E063
:1022B000CF010A960E94190B90E09093140180932D
:1022C0001301C091BB05D091BC058E819F81892BE4
:1022D00089F58A819B81892B69F50091C20410914F
:1022E000C3040115110561F40091BF051091C005EB
:1022F0000115110519F00850110911F40E94651516
:102300007E01BEE1EB0EF11CB701CE010E94A109D6
:10231000B701C80104960E948B097E01E0E3EE0E2E
:10232000F11CB701CE0104960E948B09B701C801C8
:102330000E94A109609122017091230180912401E2
:10234000909125010E9429070091E2041091E30475
:102350000115110561F0D801ED91FC910484F5851A
:10236000E02DC8010995F80106811781F1CF009190
:10237000DE041091DF040115110561F0D801ED9123
:10238000FC910480F581E02DC8010995F8010681D2
:102390001781F1CF0091D2041091D30401151105DA
:1023A00061F0D801ED91FC910480F581E02DC80128
:1023B0000995F80106811781F1CF0091D60410919B
:1023C000D7040115110561F0D801ED91FC9104804D
:1023D000F581E02DC8010995F80106811781F1CF3B
:1023E0000091DA041091DB040115110561F0D801A8
:1023F000ED91FC910480F581E02DC8010995F8016B
:1024000006811781F1CF0091CE041091CF04011500
:10241000110561F0D801ED91FC910480F581E02D6A
:10242000C8010995F80102811381F1CFCE01089608
:102430000E945C07CE014096DF91CF911F910F91D2
:10244000FF90EF900C945C071F93CF93DF93EC0108
:10245000162F0E94B810811739F0612FCE01DF913D
:10246000CF911F910C94FA21DF91CF911F91089584
:102470001F920F920FB60F9211242F933F938F93B9
:102480009F93AF93BF938091010590910205A09116
:102490000305B09104053091000523E0230F2D378B
:1024A00058F50196A11DB11D2093000580930105EB
:1024B00090930205A0930305B09304058091050550
:1024C00090910605A0910705B09108050196A11D00
:1024D000B11D8093050590930605A0930705B09361
:1024E0000805BF91AF919F918F913F912F910F90D0
:1024F0000FBE0F901F90189526E8230F0296A11D7E
:10250000B11DD2CF1F920F920FB60F9211242F93AD
:102510003F934F935F936F937F938F939F93AF936B
:10252000BF93CF93EF93FF93C091E1008091E100BF
:10253000837F8093E100C3FF0FC01092E90081E028
:102540008093EB001092EC0082E38093ED001092F8
:10255000CD0488E08093F000C2FF1BC083E00E949E
:10256000AE038091CA04882341F08091CA0481504F
:102570008093CA04811101C05D9A8091C9048823A7
:1025800041F08091C90481508093C904811101C038
:10259000289AC4FF23C08091E2008E7E81608093E0
:1025A000E2008091E1008F7E8093E1008091CB0476
:1025B0008E7E80618093CB04FF91EF91CF91BF918C
:1025C000AF919F918F917F916F915F914F913F91CB
:1025D0002F910F900FBE0F901F901895C0FFECCF5A
:1025E0008091E2008E7E80618093E2008091E10024
:1025F0008E7E8093E1008091CB048E7E8160DACF65
:102600001F920F920FB60F921124CF92DF92EF928A
:10261000FF920F931F932F933F934F935F936F936B
:102620007F938F939F93AF93BF93EF93FF93CF933A
:10263000DF93CDB7DEB76C97DEBFCDBF1092E90058
:102640008091E80083FF25C068E0CE0145960E9496
:10265000EE0582EF8093E8008D8987FF39C0909165
:10266000E80090FFFCCF982F907609F034C19E8946
:102670004F89588D2F89F88C911131C0803861F5C0
:102680008091CC048093F1001092F1008EEF809342
:10269000E8006C960FB6F894DEBF0FBECDBFDF9199
:1026A000CF91FF91EF91BF91AF919F918F917F91CA
:1026B0006F915F914F913F912F911F910F91FF90DB
:1026C000EF90DF90CF900F900FBE0F901F90189556
:1026D0009EEF9093E800C7CF1092F100D5CF9130D4
:1026E00059F48111D3CF4130510581F68091CC044A
:1026F0008D7F8093CC04CACF933049F48111C6CF2B
:102700004130510519F68091CC048260F2CF9530AA
:1027100041F48091E80080FFFCCF20682093E30023
:10272000B5CF963009F0A9C00B8D1C8D22E0109218
:10273000E9001092C7041092C604F2122EC0109243
:10274000C5041092C4040E94DF041F8299E099839B
:10275000FA8291E09E8390EA98879AEF9987209178
:10276000C6043091C704275F3F4F3C832B838D8382
:102770001092E9001092C7041092C6041093C50489
:102780000093C40449E050E0BE016F5F7F4F80E0DA
:102790000E94E9030E94DF0479CF1093C5040093DF
:1027A000C4040E94AA01DC0112960D911C9101152E
:1027B000110509F451C1D801ED91FC910480F58116
:1027C000E02DBE016B5E7F4FC8010995009709F0AF
:1027D0003EC1F80100851185EACFF3E0FF120EC07B
:1027E0008F89882309F440C0823061F440E869E0B1
:1027F0008DE091E00E943215811148CF81E28093F3
:10280000EB0047CF813029F440E868E084E091E0B4
:10281000F1CF833099F70E94AA01DC011296ED9066
:10282000FC908E010F5F1F4F6801E114F10479F0F5
:10283000D701ED91FC910680F781E02DB801C70129
:102840000995080F111DF701E084F184EECFD8013E
:102850001C92F60101900020E9F73197BF016C1935
:102860007D0940E0C601C6CF6EEE70E0FB014491E9
:1028700050E080E80E94E90309CF973009F4BECF09
:10288000983021F481E08093F10000CF993009F075
:10289000FDCE837009F0B2CFE6E1F1E081E031E0F6
:1028A00096E32191222371F08093E9003093EB00AD
:1028B000DF0111972C912093EC009093ED008F5F36
:1028C000873079F78EE78093EA001092EA008F89CB
:1028D0008093CD04DBCE8B8D9C8D1092E9001092FD
:1028E000C7041092C6049093C5048093C404898DD4
:1028F000811192C08E899D89913A49F4813209F003
:102900007DCF47E050E064E071E080E0B3CF9132EA
:1029100009F074CF833269F48F89988DB0E0A0E01C
:102920008093000190930101A0930201B0930301F1
:10293000ADCE803269F48091E80082FFFCCF67E081
:1029400084E091E00E94EE058BEF8093E8009ECE3C
:10295000823209F09BCE8F8980930B01EEEFFFE767
:10296000859194918B3F9C4D51F1E0E0F8E080918E
:10297000040190910501A0910601B0910701803BEF
:102980009440A105B105F1F480910B0180FD1AC0BE
:10299000EE3F8AE0F80789F587E797E79183808320
:1029A000809160008093C80488E19BE00FB6F894A2
:1029B000A895809360000FBE9093600067CEEEEF05
:1029C000FAE0D5CF808191818737974709F05ECEB5
:1029D000A895809160008861809360008091C80410
:1029E00080936000EE3F2AE0F20789F08091FE0AB2
:1029F0009091FF0A9183808349CE808191818737AE
:102A0000980751F29093FF0A8093FE0AC5CF109267
:102A1000FF0A1092FE0A3ACE0E94AA01DC01129629
:102A20000D911C910115110509F4E8CED801ED9125
:102A3000FC910190F081E02DBE016B5E7F4FC801DB
:102A40000995811123CEF80100851185EBCF181669
:102A500019060CF41BCED2CEF1E0FF12BECE62EF0F
:102A600070E004CFEF92FF920F931F93CF93DF9309
:102A7000F82E192FE62E042F81E0860F880F0E9472
:102A8000BB0383E00E94BB03CF2DD12FEC0EFD2EA4
:102A9000F11CCE15DF05B9F007FF13C0FE018491CC
:102AA0000E94BB03182F80E00E94BB038123219664
:102AB0008111EFCFDF91CF911F910F91FF90EF9098
:102AC00008958881EDCF81E0F5CF61E08DE00E942F
:102AD0002F0261E08DE00E94BE0162E370E080E0C1
:102AE00090E00E947C0360E08DE00E94BE0162E302
:102AF00070E080E090E00E947C0361E08DE00E9445
:102B0000BE0162E370E080E090E00E947C0360E040
:102B10008DE00E94BE0162E573E080E090E00E94DB
:102B20007C03D7CFCF93DF93EC018CE092E09983C5
:102B3000888386E292E09D838C83CE010E94B60951
:102B4000CE0104960E943D0A82ED91E0998388832C
:102B5000CE01DF91CF910C944B0A04970C949215FF
:102B6000CF92DF92EF92FF920F931F93CF93DF9359
:102B7000EC018A89811108C0E881F981048CF58D06
:102B8000E02DCE0109958A8B8A89882309F46EC0CD
:102B9000823061F1833009F453C0813069F7EE85EA
:102BA000FF85C280D380E480F5800E811F810115EE
:102BB000110539F06F2DC8010E94880A882309F495
:102BC00055C00115110529F0A601B701C8010E94E1
:102BD000E30688899989009779F2DC01ED91FC91EF
:102BE0000190F081E02DBE010995C6CF8E859F85AD
:102BF000DC01ED91FC910190F081E02D09956B01D4
:102C00007C010E811F810115110531F06F2DC80166
:102C10000E94880A882351F10115110529F0A601A7
:102C2000B701C8010E94C30688899989009709F4F1
:102C3000A3CFDC01ED91FC910280F381E02DD3CF95
:102C4000EE85FF85778166818E819F81009711F0E7
:102C50000E94A90688899989009709F48DCFDC0123
:102C6000ED91FC910480F581E02DBDCFDF91CF91F6
:102C70001F910F91FF90EF90DF90CF9008950897EC
:102C80000C94B015CF93DF93EC010E949215CE0106
:102C9000DF91CF910C941E2404970C944216CF938D
:102CA000DF9382E08093190580931A058FE195E008
:102CB00090931C0580931B0510921E0510921D0514
:102CC0008EEE91E0909316058093150580E8809331
:102CD0001F0581E8809320050E94AA01FC018181E3
:102CE00090911905482F490F5527551F4830510518
:102CF0009CF5A281B381109709F525E135E0338376
:102D000022832081209317058093180580911A054E
:102D1000820F808320911B05A22FB0911C058A2F62
:102D2000821B8917C8F481813D91C82FD0E0CB5E0A
:102D3000DE4F38838F5F8183F2CFD90118962D91B2
:102D40003C91199721153105C1F725E135E0199618
:102D50003C932E931897D5CF1092240510922305FB
:102D600088EE93E0A0E0B0E08093250590932605DF
:102D7000A0932705B09328052AEF31E03093220570
:102D8000209321052FEF3FEF30932E0520932D0543
:102D90002091B3052111A3C0109274051092730500
:102DA000109278051092770520E332E03093720597
:102DB0002093710522E432E0309376052093750567
:102DC0008093790590937A05A0937B05B0937C0559
:102DD00010927D0510927E0510927F05109280055D
:102DE00089E795E00E945C078AE191E4A0E0B0E009
:102DF0008093810590938205A0938305B093840509
:102E0000109285051092860510928705109288050C
:102E100081E895E00E945C0710928A05109289056E
:102E200010928C0510928B0510928E0510928D05D4
:102E300010929205109291051092960510929505A8
:102E40002CE032E03093900520938F0586E292E0EB
:102E5000909394058093930510929805109297058E
:102E600010929A051092990545E955E050939C05FA
:102E700040939B0541E955E050939E0540939D0585
:102E80001092A00510929F051092A4051092A30520
:102E90001092A8051092A7053093A2052093A105D2
:102EA0009093A6058093A5051092AA051092A905F6
:102EB0001092AC051092AB0587EA95E09093AE05B1
:102EC0008093AD0583EA95E09093B0058093AF05BC
:102ED0001092B2051092B10581E08093B30581E7AD
:102EE00095E09093BC058093BB051092610610920B
:102EF000680610926F06109270061092710610927A
:102F0000720681E080936E0680936B0610926C06C9
:102F100092E090936D068093600688E190E0909334
:102F20006506809364060E94822390936A068093CC
:102F30006906009709F498C028E1FC0111922A95CE
:102F4000E9F788E090E0909363068093620689E059
:102F500090E09093670680936606809161068823CF
:102F600041F061E089E00E942F0260E089E00E9468
:102F7000BE01E5E8F1E0E491F0E0EE0FFF1FE25959
:102F8000FE4F859194919093740680937306E8E5C3
:102F9000F1E0E491E09375061092C4051092C30528
:102FA0001092C8051092C7058091BD059091BE058D
:102FB000892B31F489EC95E09093BE058093BD0593
:102FC000E091BF05F091C005F093CE05E093CD05EB
:102FD000309721F089EC95E09383828389EC95E02A
:102FE0009093C0058093BF051092CC051092CB053D
:102FF00084ED95E09093D0058093CF051092D20593
:103000001092D1051092D30588EB92E09093C205FF
:103010008093C1058AED92E09093C6058093C50523
:1030200084EE92E09093CA058093C9058FEF809358
:10303000D6051092D7051092D8051092D905809325
:10304000DA051092DB058CE492E09093D50580932D
:10305000D4051092DC0510925E0610925D06109267
:103060005F06DF91CF910895109265061092640675
:1030700010926306109262066ACFCF93DF93CDB7AA
:10308000DEB7E3970FB6F894DEBF0FBECDBF7894DE
:1030900084B5826084BD84B5816084BD85B582605D
:1030A00085BD85B5816085BD80916E00816080930E
:1030B0006E00109281008091810082608093810077
:1030C0008091810081608093810080918000816087
:1030D0008093800080919100826080939100809124
:1030E0009100816080939100809190008160809335
:1030F00090008091C10084608093C1008091C100E4
:1031000082608093C1008091C10081608093C10082
:103110008091C30081608093C3008091C000826071
:103120008093C0008091C20081608093C200809132
:103130007A00846080937A0080917A008260809324
:103140007A0080917A00816080937A0080917A0081
:10315000806880937A001092CD041092CC04109273
:10316000CB048091D70081608093D70080EA809360
:10317000D80089B5806189BD89B5826089BD09B4EF
:1031800000FEFDCF61E070E080E090E00E947C03F3
:103190008091D8008F7C80618093D8008091E0007E
:1031A000807F8093E0008091E1008E7E8093E1003B
:1031B0008DE08093E200559A209A81E090E00E9491
:1031C000B8100E94BA10809166069091670697FD2C
:1031D000FBC061E00E942F0260E0809166060E94C1
:1031E000BE0181E0809361060E94A90283E090E025
:1031F0000E94B810E82E8093100184E090E00E94B5
:10320000B810D82E8093110185E090E00E94B8108C
:10321000C82E8093120190E0880F991F23E030E0C0
:10322000B9010E94A222962E8D2D90E0880F991F41
:10323000B9010E94A222862E8E2D90E0880F991F40
:10324000B9010E94A222762E8BEAC89E612C11241D
:103250006694D89E512C11245694E89EF12C11248A
:10326000F69412E0A12EB12C10E000E02C2D4D2D93
:103270006E2DC8010E94FA000115110509F41BC743
:10328000292D482D672DC80101970E94FA000130B1
:10329000110589F0262D452D6F2DC80102970E943A
:1032A000FA000230110539F020E040E060E0C8018A
:1032B00003970E94FA000E94A90264E670E080E091
:1032C00090E00E947C030F5F1F4F0830110571F6DC
:1032D00010E000E020E040E060E0C8010E94FA0059
:1032E0000F5F1F4F08301105A9F70E94A90264E67D
:1032F00070E080E090E00E947C03AA94AB2809F083
:1033000066C010E000E02C2D4D2D6E2DC8010E94EE
:10331000FA000F5F1F4F08301105A9F70E94A9029C
:103320008FEF9FEF90932E0580932D0580902601BF
:1033300090902701A0902801B090290188AA99AA0D
:10334000AAAABBAA0091BB051091BC050E948402E9
:10335000D8011C968D909D90AD90BC901F971896AB
:10336000CD90DD90ED90FC901B97AB01BC0148190E
:1033700059096A097B094C155D056E057F0558F0F2
:10338000D501C4018C0D9D1DAE1DBF1DF8018487A4
:103390009587A687B78768A979A98AA99BA90E945A
:1033A0002907E090DE04F090DF04E114F10499F0C5
:1033B000D701ED91FC910084F185E02DC7010995BD
:1033C000F701E680F780F1CF109261060DCFAA24B5
:1033D000A394B12C49CFE090DA04F090DB04E1141F
:1033E000F10461F0D701ED91FC910084F185E02DAD
:1033F000C7010995F701E680F780F1CFE090D60488
:10340000F090D704E114F10461F0D701ED91FC9143
:103410000084F185E02DC7010995F701E680F7806A
:10342000F1CFE090D204F090D304E114F10461F004
:10343000D701ED91FC910084F185E02DC70109953C
:10344000F701E680F780F1CFE090CE04F090CF0452
:10345000E114F10461F0D701ED91FC910084F18554
:10346000E02DC7010995F701E280F380F1CF0E94BA
:103470008402D80154968D909D90AD90BC90579742
:103480005096CD90DD90ED90FC905397AB01BC0130
:10349000481959096A097B094C155D056E057F05B8
:1034A00058F0D501C4018C0D9D1DAE1DBF1DF80146
:1034B000848B958BA68BB78B0091FE041091FF0433
:1034C0000115110509F4FDC08FB7F894C0900105EE
:1034D000D0900205E0900305F09004058FBFD8015D
:1034E0008C910E9460021C01F80183849484A5845D
:1034F000B68467817085818592850E94F6202B01B4
:103500003C01A501940160E070E080E89FE30E9427
:10351000DF229B01AC01C301B2010E9431212B01CA
:103520003C01B101330C880B990B0E94F620A501D8
:1035300094010E9431219B01AC01C301B2010E94A0
:10354000E0220E944C239B01AC01D80117962D93D9
:103550003D934D935C931A97A1E8BFEF0E943522EB
:103560002CEE33E040E050E00E940822BA01A901AD
:1035700041585F4F6F4F7F4FF8018389882381F156
:1035800087859089A189B2898F3FFFEF9F07AF0799
:10359000BF0779F14A015B01881A990AAA0ABB0A96
:1035A000D501C401B7FF07C0B095A095909581954E
:1035B0009F4FAF4FBF4F0397A105B105D4F4D8017A
:1035C00053961C92F801438354836583768340931A
:1035D0000C0150930D0160930E0170930F0109C00F
:1035E00083819481A581B68184179507A607B707C3
:1035F00071F7D80153968C91811163C08091E604D4
:103600009091E704A091E804B091E90446015701C4
:10361000881A990AAA0ABB0AD501C401C297A10552
:10362000B10508F44EC0C092E604D092E704E092DF
:10363000E804F092E90480910C0190910D01A091B1
:103640000E01B0910F018F3F2FEF9207A207B20733
:10365000C1F1F80143815481658176818417950712
:10366000A607B70771F183839483A583B68383E0AC
:103670000E94AE03D80111965C91119750FF16C0BD
:10368000E091BB05F091BC05569513966C9113978C
:103690006F7712964C91742F72957F704F70406BBC
:1036A00086819781009711F00E94E3068FEF9FEFCC
:1036B000DC0180930C0190930D01A0930E01B09357
:1036C0000F018091FC049091FD04009799F1DC01B9
:1036D0001A96ED91FC910190F081E02D60E00A9640
:1036E0000995282F30E040911301509114012417BF
:1036F000350701F13093140120931301E091FE048A
:10370000F091FF043097B1F090E0B0E0A0E0438189
:1037100054816581768184179507A607B70751F014
:103720008787908BA18BB28B21E0238B838394833B
:10373000A583B6838091F004811109C06EEE72E01A
:103740008AEE94E00E94C40F81E08093F00422246A
:103750002A94312C81E295E00E9476067C01892B27
:1037600009F45EC381E295E00E942C068A3009F0DC
:103770004BC3C090EA04D090EB04C114D10449F0CB
:103780000091EE041091EF0476010115110509F086
:10379000EAC06CEF72E0CE0101960E94C40F6AEE9F
:1037A00074E0CE0101960E94A5100E942B0FCE015D
:1037B00001960E94AE0E6EE073E0CE0101960E946B
:1037C000C40F4D815E818091EE049091EF048417C7
:1037D000950780F08091EA049091EB04009751F0F6
:1037E00069817A816115710529F00E94842511E0B3
:1037F000892B09F010E0CE0101960E94AE0E112334
:1038000009F4F5C2FE0131962F0166E0E62EF12C97
:10381000D12CC12CA090EE04B090EF044701EA1423
:10382000FB0408F0DCC0F5E0CF16D10409F4DCC0DD
:103830006090EA047090EB046CE270E0C3018E0DBE
:103840009F1D0E947225009731F08C0106191709FF
:103850000F3F100709F4850158010E151F0510F0E0
:10386000570148016EEE72E0CE010B960E94C40F24
:10387000E090EE04F090EF04AE14BF0410F58E1447
:103880009F0408F47401E091EA04F091EB04EE0D5A
:10389000FF1D908010826091EA047091EB046A0D24
:1038A0007B1DCE010B966115710509F484C20E943F
:1038B000F50F8091EA049091EB04E80EF91ED70110
:1038C0009C928B859C85812C912C5401009719F03A
:1038D0000E947A204B01F201819291922F01CE0138
:1038E0000B960E94AE0EB401CE010B960E944D10B5
:1038F000B601CE0141960E944D1064E173E0CE0105
:1039000047960E94C40FBE016F5E7F4FCE0147965F
:103910000E94A5107C0142E050E069E473E00E943F
:103920007910811103C0C7010E949C0EBE01655F22
:103930007F4FC7010E94A5100E94840FCE014796B9
:103940000E94AE0ECE0141960E94AE0ECE010B96A5
:103950000E94AE0EFFEFCF1ADF0A78012FEFE21AB6
:10396000F20A58CF75015701BFEFAB1ABB0AF70136
:103970008081082E000C990B0E94DB20892B91F787
:10398000015011090C0D1D1DD8018C91082E000C41
:10399000990B0E94DB20892B31F00E151F0518F0C2
:1039A00001501109F1CFA8014F5F5F4F4E195F0918
:1039B0005093EF044093EE04CE14DF0420F4B701DB
:1039C000C6010E946925E091EA04F091EB04809120
:1039D000EE049091EF04E80FF91F1082DACE35E083
:1039E000C316D10409F0EAC149845A844DA68F80D8
:1039F00098849E8E8D8E9D8C9EA6AD80BE80BAA230
:103A0000A9A2B9A0BFA67B80698062E273E0CE0163
:103A10000B960E94C40FCE010B960E94840FCE011C
:103A20000B960E94AE0E662DCE010B960E942010C2
:103A300065E373E0CE0141960E94C40FBE01655F4D
:103A40007F4FCE0141960E94A5100E94840FCE01A7
:103A500041960E94AE0ECE010B960E94AE0E672DCF
:103A6000CE010B960E9420106AE373E0CE014196CE
:103A70000E94C40FBE01655F7F4FCE0141960E9438
:103A8000A5100E94840FCE0141960E94AE0ECE0179
:103A90000B960E94AE0E69A1CE010B960E942010DB
:103AA00064E473E0CE0141960E94C40FBE01655FDD
:103AB0007F4FCE0141960E94A5100E94840FCE0137
:103AC00041960E94AE0ECE010B960E94AE0E6D8DF9
:103AD000CE010B960E94201063EF72E0CE0141965A
:103AE0000E94C40FBE01655F7F4FCE0141960E94C8
:103AF000A5100E94840FCE0141960E94AE0ECE0109
:103B00000B960E94AE0E642DCE010B960E942010E3
:103B100068E473E0CE0141960E94C40FBE01655F68
:103B20007F4FCE0141960E94A5100E94840FCE01C6
:103B300041960E94AE0ECE010B960E94AE0E662DEF
:103B400090E080E00E942412672D81E090E00E94C6
:103B5000241269A183E090E00E9424126D8D84E01C
:103B600090E00E942412642D85E090E00E942412CF
:103B7000A09210018092110140921201E12CFF24C9
:103B8000F394D12CC12C29A13AA1332738A72FA314
:103B90004D8D5E8D55275AA749A7C20199279CA72D
:103BA0008BA78FA098A48C9CC0018D9C900D9C9C91
:103BB000900D1124B1010E94A222262FA9A4BAA41B
:103BC000AC9CC001AD9C900DBC9C900D1124B1012A
:103BD0000E94A222862E912CB12CA12CBA2CA92CA9
:103BE000982C8824A22A2BA53CA52C9DC0012D9D94
:103BF000900D3C9D900D1124B1010E94A222862AB5
:103C000010E000E0809162069091630608171907A2
:103C100028F4B501A401C8010E9440010F5F1F4FA5
:103C20000830110579F70E94A90261E070E080E098
:103C300090E00E947C033FEFC31AD30A41E0E41AEC
:103C4000F10809F0AECF2FEFABA4BCA42A9D400130
:103C50002B9D900C11249CA28BA2AA24AA9489A427
:103C60009AA4A89C7001A99CF00C11248FA098A480
:103C7000A89C6001A99CD00C112420E031E03EA357
:103C80002DA3C601B1010E94A222262FC701B101B6
:103C90000E94A222862E912CB12CA12CBA2CA92CE8
:103CA000982C8824A22A8BA19CA1B1010E94A22257
:103CB000862A10E000E08091620690916306081762
:103CC000190728F4B501A401C8010E9440010F5F43
:103CD0001F4F0830110579F70E94A90261E070E0DA
:103CE00080E090E00E947C034DA15EA1415051090B
:103CF0005EA34DA38BA09CA0ABA4BCA48A189B0878
:103D00009CA28BA289A49AA4E818F908AFA0B8A431
:103D1000CA18DB08452B09F0B4CF10E000E02DA550
:103D20004EA56FA5C8010E94FA000F5F1F4F083013
:103D30001105A9F70E94A902872D0E94BA108CE4F0
:103D400093E00E94820F862D0E94400F81E593E050
:103D50000E94820F872D0E94400F81E593E00E9410
:103D6000820F89A10E94400F81E593E00E94820F9B
:103D70008D8D0E94400F81E593E00E94820F842D7B
:103D80000E94400F8CEE92E00E941E0F63E573E0EC
:103D9000CE010B960E94C40FCE010B960E94840F99
:103DA000CE010B960E94AE0E6EEE72E08AEE94E0AB
:103DB0000E94F50FCFCC0E949C0E7BCDB601CE01A8
:103DC0000B960E944D1062E773E0CE0141960E946F
:103DD000C40FBE01655F7F4FCE0141960E94A510C2
:103DE0000E94840FCE0141960E94AE0ED9CF6DE99C
:103DF00073E0CE0101960E94C40FCE0101960E948D
:103E0000840FCE010196CECF89831A8241E050E023
:103E1000BE016F5F7F4F8AEE94E00E9479109ACCCA
:103E2000E091FE04F091FF04309709F4BEC0D388FE
:103E3000DD2009F4BAC00785108920E040E060E089
:103E4000C7010E94FA002FEFE21AF20A38E0E316E7
:103E5000F10499F7DD2009F41CC12FB7F8946091A3
:103E600001057091020580910305909104052FBF13
:103E70002AEF30E040E050E00E94712220FD1BC09C
:103E800017FF02C0015F1F4F94E0159507959A95A3
:103E9000E1F717FF02C010E000E0C801083011058B
:103EA00014F087E090E0209112014091110160919F
:103EB00010010E94FA000E94A9022FB7F894809185
:103EC000010590910205A0910305B09104052FBF53
:103ED0004091F8045091F9046091FA047091FB0448
:103EE000841B950BA60BB70B853F9140A105B1052F
:103EF00008F453C090E080E00E94B810D82E81E012
:103F000090E00E94B810E82E83E090E00E94B81084
:103F1000F82E84E090E00E94B810082F85E090E031
:103F20000E94B810182F85EB93E00E94820F8D2D10
:103F30000E94400F81E593E00E94820F8E2D0E9427
:103F4000400F81E593E00E94820F8F2D0E94400F69
:103F500081E593E00E94820F802F0E94400F81E54F
:103F600093E00E94820F812F0E94400F8CEE92E01E
:103F70000E941E0F2FB7F8948091010590910205C1
:103F8000A0910305B09104052FBF8093F80490938E
:103F9000F904A093FA04B093FB0480E090E0892B2D
:103FA00009F4D0C90E940000CDC982E10E946002DC
:103FB0009C01A1E8BFEF0E94BC222FEF33E040E05C
:103FC00050E00E94082289019A0101581F4F2F4F8B
:103FD0003F4FD12C32CF4FEFA41AB40A50E1C50E97
:103FE000D11CE11CF11C80E8C816D104E104F104E5
:103FF00009F461CFC6014096209112014091110150
:1040000060911001081719070CF03FC00C151D0531
:1040100014F3AFEFB0E02D8D3E8D4F8D58A12C19CC
:104020003D094E095F090E9427222FE030E040E061
:1040300050E00E94082229012091120130E0249DC5
:10404000C001259D900D349D900D1124B4010E9456
:10405000A222262F4091110150E0449DC001459DB0
:10406000900D549D900D1124B4010E94A222462F60
:104070006091100170E0649DC001659D900D749D7C
:10408000900D1124B4010E94A222C5010E94FA00E1
:10409000A2CFC12CD12C7601B12CA12C9801012EDC
:1040A000000C440B550B2D8F3E8F4F8F58A3882447
:1040B0008A94912C9FCF0E94A90264E670E080E070
:1040C00090E00E947C0301E010E0D0C881EC95E014
:1040D0000E94BD0B8091690690916A060E941E2481
:1040E000809166069091670697FD03C060E00C948E
:1040F0002F0208951F93FC0199278827BC01E8949B
:1041000011911032E9F3193010F01E30C8F31B3250
:1041100051F01D3249F4689406C00E94AC20610F32
:10412000711D811D911D119110531A30B0F33EF491
:1041300090958095709561957F4F8F4F9F4F1F9100
:104140000895BB274A3031F4992322F4BDE29095BB
:1041500081959F4F0C94C220592F482F372F262F1F
:10416000660F771F881F991F660F771F881F991F7B
:10417000620F731F841F951F660F771F881F991F7B
:104180000895BB27FB015527AA27880F991FAA1F4F
:10419000A41710F0A41B83955051B9F7A05DAA3362
:1041A00008F0A95DA193009779F7B111B19311922D
:1041B000CB010C94E42091110C949E21803219F0D3
:1041C00089508550C8F70895DC01FC01672F719173
:1041D0007723E1F7329704C07C916D9370836291ED
:1041E000AE17BF07C8F30895E89409C097FB3EF4E3
:1041F00090958095709561957F4F8F4F9F4F992334
:10420000A9F0F92F96E9BB279395F69587957795B1
:104210006795B795F111F8CFFAF4BB0F11F460FF71
:104220001BC06F5F7F4F8F4F9F4F16C0882311F0C9
:1042300096E911C0772321F09EE8872F762F05C0DD
:10424000662371F096E8862F70E060E02AF09A9578
:10425000660F771F881FDAF7880F9695879597F96D
:1042600008950E9444210C94B8210E94AA2138F09C
:104270000E94B12120F0952311F00C94A1210C94FF
:10428000A72111240C94EC210E94C92170F3959F61
:10429000C1F3950F50E0551F629FF001729FBB273D
:1042A000F00DB11D639FAA27F00DB11DAA1F649FD9
:1042B0006627B00DA11D661F829F2227B00DA11D8C
:1042C000621F739FB00DA11D621F839FA00D611D12
:1042D000221F749F3327A00D611D231F849F600D33
:1042E000211D822F762F6A2F11249F5750409AF05C
:1042F000F1F088234AF0EE0FFF1FBB1F661F771FE8
:10430000881F91505040A9F79E3F510580F00C94B2
:10431000A1210C94EC215F3FE4F3983ED4F3869501
:1043200077956795B795F795E7959F5FC1F7FE2B52
:10433000880F911D9695879597F908959927882755
:10434000089597F99F6780E870E060E008959FEF17
:1043500080EC089500240A9416161706180609061C
:10436000089500240A9412161306140605060895EB
:10437000092E0394000C11F4882352F0BB0F40F473
:10438000BF2B11F460FF04C06F5F7F4F8F4F9F4FB3
:10439000089557FD9058440F551F59F05F3F71F035
:1043A0004795880F97FB991F61F09F3F79F087959C
:1043B0000895121613061406551FF2CF4695F1DF25
:1043C00008C0161617061806991FF1CF86957105B5
:1043D000610508940895E894BB2766277727CB01E9
:1043E00097F90895F999FECF92BD81BDF89A992762
:1043F00080B50895262FF999FECF1FBA92BD81BDD1
:1044000020BD0FB6F894FA9AF99A0FBE0196089556
:10441000052E97FB1EF400940E941F2257FD07D023
:104420000E94712207FC03D04EF40C941F22509579
:104430004095309521953F4F4F4F5F4F0895909590
:104440008095709561957F4F8F4F9F4F08950E9483
:104450009322A59F900DB49F900DA49F800D911D58
:1044600011240895B7FF0C9427220E942722821B53
:10447000930B08952F923F924F925F926F927F928B
:104480008F929F92AF92BF92CF92DF92EF92FF9264
:104490000F931F93CF93DF93CDB7DEB7CA1BDB0B10
:1044A0000FB6F894DEBF0FBECDBF09942A883988B5
:1044B00048885F846E847D848C849B84AA84B984BC
:1044C000C884DF80EE80FD800C811B81AA81B981C8
:1044D000CE0FD11D0FB6F894DEBF0FBECDBFED01DC
:1044E0000895A1E21A2EAA1BBB1BFD010DC0AA1F35
:1044F000BB1FEE1FFF1FA217B307E407F50720F04D
:10450000A21BB30BE40BF50B661F771F881F991FC7
:104510001A9469F760957095809590959B01AC0110
:10452000BD01CF010895A29FB001B39FC001A39F19
:10453000700D811D1124911DB29F700D811D1124DC
:10454000911D089597FB072E16F4009407D077FD70
:1045500009D00E94CB2207FC05D03EF490958195AE
:104560009F4F0895709561957F4F0895EE0FFF1F3F
:104570000590F491E02D09940E949322332312F4C4
:104580008A1B9B0B0C94C6220E949322B7FF0895AE
:10459000821B930B0895AA1BBB1B51E107C0AA1FE6
:1045A000BB1FA617B70710F0A61BB70B881F991FD4
:1045B0005A95A9F780959095BC01CD010895505862
:1045C000BB27AA270E94F7220C94B8210E94AA2197
:1045D00038F00E94B12120F039F49F3F19F426F4FD
:1045E0000C94A7210EF4E095E7FB0C94A121E92F90
:1045F0000E94C92158F3BA17620773078407950709
:1046000020F079F4A6F50C94EB210EF4E0950B2E36
:10461000BA2FA02D0B01B90190010C01CA01A00114
:104620001124FF27591B99F0593F50F4503E68F16F
:104630001A16F040A22F232F342F4427585FF3CFB0
:10464000469537952795A795F0405395C9F77EF481
:104650001F16BA0B620B730B840BBAF09150A1F0CA
:10466000FF0FBB1F661F771F881FC2F70EC0BA0F50
:10467000621F731F841F48F4879577956795B795D8
:10468000F7959E3F08F0B0CF9395880F08F09927D3
:10469000EE0F9795879508950E9453236894B11162
:1046A0000C94EC2108950E94D12188F09F5798F036
:1046B000B92F9927B751B0F0E1F0660F771F881F27
:1046C000991F1AF0BA95C9F714C0B13091F00E9441
:1046D000EB21B1E008950C94EB21672F782F882708
:1046E000B85F39F0B93FCCF3869577956795B39568
:1046F000D9F73EF490958095709561957F4F8F4FD7
:104700009F4F08950F931F93CF93DF9382309105AE
:1047100010F482E090E0E0917806F091790630E0C4
:1047200020E0B0E0A0E0309799F42115310509F4BC
:104730004AC0281B390B24303105D8F58A819B816A
:104740006115710589F1FB0193838283FE0111C01C
:10475000408151810281138148175907E0F04817C1
:10476000590799F4109761F012960C9312971396CB
:104770001C933296CF01DF91CF911F910F91089535
:104780000093780610937906F4CF2115310551F086
:104790004217530738F0A901DB019A01BD01DF017F
:1047A000F801C1CFEF01F9CF909379068093780695
:1047B000CDCFFE01E20FF31F819391932250310977
:1047C00039832883D7CF2091760630917706232B23
:1047D00041F420911E0130911F0130937706209300
:1047E000760620911C0130911D012115310541F4FF
:1047F0002DB73EB74091200150912101241B350B6C
:10480000E0917606F0917706E217F307A0F42E1BED
:104810003F0B2817390778F0AC014E5F5F4F241724
:10482000350748F04E0F5F1F50937706409376068A
:10483000819391939FCFF0E0E0E09CCFCF93DF9303
:104840000097E9F0FC01329713821282A09178065A
:10485000B0917906ED0130E020E01097A1F42081BD
:104860003181820F931F20917606309177062817A9
:10487000390709F061C0F0937706E0937606DF917F
:10488000CF910895EA01CE17DF07E8F54A815B81F1
:104890009E0141155105B1F7E901FB83EA83499176
:1048A0005991C40FD51FEC17FD0761F480819181E8
:1048B0000296840F951FE9019983888382819381F1
:1048C0009B838A83F0E0E0E012968D919C91139790
:1048D0000097B9F52D913C911197CD010296820F69
:1048E000931F20917606309177062817390739F6FD
:1048F000309751F51092790610927806B0937706AA
:10490000A0937606BCCFD383C28340815181840FAC
:10491000951FC817D90761F44E5F5F4F8881998151
:10492000480F591F518340838A819B8193838283DF
:104930002115310509F0B0CFF0937906E0937806A0
:104940009ECFFD01DC01C0CF13821282D7CFB0E031
:10495000A0E0EDEAF4E20C943C228C01009751F4C3
:10496000CB010E9482238C01C801CDB7DEB7E0E104
:104970000C945822FC01E60FF71F9C0122503109CC
:10498000E217F30708F49DC0D901CD91DC9111978E
:10499000C617D70798F0C530D10530F3CE0104977C
:1049A0008617970708F3C61BD70B2297C193D1939D
:1049B0006D937C93CF010E941E24D6CF5B01AC1A6D
:1049C000BD0A4C018C0E9D1EA0917806B09179060F
:1049D000512C412CF12CE12C109731F58091760669
:1049E000909177068815990509F05CC04616570620
:1049F00008F058C080911C0190911D01009741F46E
:104A00008DB79EB74091200150912101841B950BD9
:104A1000E817F90708F055C0F0937706E09376069B
:104A2000F90171836083A0CF8D919C9111971296AB
:104A30006C90129713967C901397A815B90559F5A9
:104A40006C0142E0C40ED11CCA14DB0420F1AC019D
:104A50004A195B09DA011296159780F06282738217
:104A600051834083D9016D937C93E114F10471F07B
:104A7000D7011396FC93EE93129776CF22968C0F64
:104A80009D1FF90191838083F301EFCFF0937906A5
:104A9000E093780669CF4816590608F42C017D0189
:104AA000D3019ACFCB010E9482237C01009749F069
:104AB000AE01B8010E946925C8010E941E24870129
:104AC00053CF10E000E050CF81E090E0F8940C94D8
:104AD0009225FB01DC0102C001900D924150504033
:104AE000D8F70895FC018191861721F08823D9F722
:104AF000992708953197CF010895FB01DC010190BA
:104B00000D920020E1F70895FB01DC014150504077
:104B100030F08D910190801919F40020B9F7881BAD
:104B2000990B089510E0CFECD0E004C0FE010E9484
:0E4B3000B6222196C03DD107C9F7F894FFCFF9
:104B3E00FFFFFFFF00E1000000000000FFFFFFFF8E
:104B4E00050505FFFF00C1808100000000007A0608
:104B5E0080000400010006000100000000000000BB
:104B6E000000720B720B720B9A0F8A0E740EFCFF02
:104B7E0000000000000000000000150E110F720B67
:104B8E006F0B720B330B8A0E740E040B020B000BA1
:104B9E00F90AFCFF0000710E1B0FF6FF0000190B47
:104BAE00000000004D0E040F720B6F0B720B330BD7
:104BBE008A0E1C0B040B020B000BF90AFCFF000003
:104BCE005C0E0E0FF6FF0000190B000000005F0ECA
:104BDE00D90E720B6F0B720B330B8A0E1C0B040B60
:104BEE00020B000BF90AFCFF00006E0EE30EF6FF3F
:104BFE000000190B00000000440ACF0E9A0E0000B0
:104C0E000000000000009A0F9A0F9A0F9B0E9A0E4A
:104C1E00000000003D0AB80E9A0E00000000A80128
:104C2E000F04A501900F000000001106FB052706DA
:104C3E00B80376062C064E060000000092154216AA
:104C4E00650957094909C80A390965095709490902
:104C5E002609FCFF0000AD154C16360900000000B9
:104C6E005D0AC20E4908B107A8079B0E9A0EFCFFFB
:104C7E000000850ACC0E9A0E00000000090E0000FE
:104C8E000000820BFA0E00000000000000009A0FD8
:104C9E009A0F00000000000000000B07AD0A03078A
:104CAE009B0E9A0E720B9A0F9A0F9A0F9A0F9A0FDB
:104CBE009A0FFCFF0000000000009A0EF8FF0000A3
:104CCE0000000000990E9A0F000000000000000086
:104CDE009A0F9A0F9A0F9B0E9A0EFCFF000000007F
:104CEE0000009A0E00000000BD0BEA0E0B07AD0A85
:104CFE0003079B0E9A0E720BB015950EF40DE80D70
:104D0E00A80D9A0D050CFCFF0000FF0BF40E9A0E79
:104D1E00F8FF0000020CF70E990E3F160D0A004424
:104D2E00454255473A20004D494449004172647549
:104D3E00696E6F52656365697665643A2000425705
:104D4E00505944005061727365642076616C7565CC
:104D5E0020005570646174696E67207365747469A0
:104D6E006E67733A0043433A20004368616E6E6586
:104D7E006C3A2000523A2000423A200042575059D5
:104D8E00442C0053657474696E677320757064618A
:104D9E00746564207375636365737366756C6C7983
:104DAE002E004D616C666F726D656420636F6D6D64
:104DBE00616E643A204578706563746564203520B1
:104DCE0076616C7565732C20676F742000496E7662
:104DDE00616C696420636F6D6D616E6420707265C5
:0A4DEE006669782E004D4D2C000080
:00000001FF
