:100000000C94D1000C94F9000C94F9000C94F900B4
:100010000C94F9000C94F9000C94F9000C94F9007C
:100020000C94F9000C94F9000C94FB100C947911C9
:100030000C94F9000C94F9000C94F9000C94F9005C
:100040000C94F9000C94F9000C94F9000C94F9004C
:100050000C94F9000C94F9000C94F9000C94B11074
:100060000C94F9000C94F9000C94F9000C94F9002C
:100070000C94F9000C94F9000C94F9000C94F9001C
:100080000C94F9000C94F9000C94F9000C94F9000C
:100090000C94F9000C94F9000C94F9000C94F900FC
:1000A0000C94F9000C94F9000C94F900080B000270
:1000B0000202000009040000010202000005240001
:1000C0001001052401010104240206052406000193
:1000D0000705810310004009040100020A00000026
:1000E00007050202400000070583024000000403E8
:1000F000090412010002EF0201404F1B0A920001A5
:1001000001020301537061726B46756E004D6963A5
:10011000726F4D69646932300007060504010008FA
:100120000A0B0C0D0900000000240027002A002DF6
:100130000030000000000200090F0000030401006D
:100140000C000000000000000000000000000000A3
:1001500000040802011040804010204080408008C8
:100160000204018040201002011080102040402035
:1001700000000000250028002B002E0031000404A0
:100180000404040304050202020204030202020240
:100190000606060606060404020202040400C81449
:1001A000331E11241FBECFEFDAE0DEBFCDBF13E058
:1001B000A0E0B1E0E8EDF6E402C005900D92AE31AA
:1001C000B107D9F725E0AEE1B3E001C01D92AC3D27
:1001D000B207E1F710E0C0EDD0E004C02197FE01C6
:1001E0000E948320CF3CD107C9F70E94B6160C9419
:1001F0005F230C940000E091C405F091C5058E17B3
:100200009F0798F53091CA05332361F0639FB001D1
:100210001124672F349FA0011124452F329F900194
:100220001124232F3091D005E091CB05F091CC051E
:100230005091CD0535131AC0DC01AA0FBB1F8A0FE0
:100240009B1F8E0F9F1FE091CD05E80FF92FF11D29
:100250006083E091CE05E80FF92FF11D40833091C6
:10026000CF05830F911DFC0120830895880F991FEE
:10027000880F991F8E0F9F1FFC01E30FF11D108245
:10028000E2CF8F929F92AF92BF92CF92DF92EF9286
:10029000FF920F931F93FC014B01AA24BB24C52E90
:1002A000D62EE72EFF24BC2DA42F9091CA05B82C82
:1002B000992391F0A92FB0E0A89D9001A99D300D40
:1002C000B89D300D1124B32E9C9D60011124BD2DCD
:1002D000949F80011124A12F4091D0052091CB053E
:1002E0003091CC058091CD05481324C0CF01880FF3
:1002F000991F8E0F9F1F820F931FE091CD05E80F6E
:10030000F92FF11DB082E091CE05E80FF92FF11D14
:10031000B0832091CF05820F911DFC01A0831F9116
:100320000F91FF90EF90DF90CF90BF90AF909F9094
:100330008F900895CF01880F991F880F991F820F02
:10034000931FFC01E40FF11D1082D7CF90E080E0F5
:10035000089580E0089580916F0481110DC082E0BE
:1003600080936B0484E080936C0410926E0410926E
:100370006D0481E080936F048BE694E00895282F4C
:1003800030E0F901ED5CFE4F9491F901EF5AFE4F18
:10039000849122583E4FF9012491222309F430C060
:1003A0009923E9F091509F30D0F4E92FF0E0E55225
:1003B000FE4F0C94832009020D02EA01010205029E
:1003C000EF01EF01EF01100216021A021E022402D1
:1003D000EF012802909180009F7790938000E22F98
:1003E000F0E0EE0FFF1FE059FE4FA591B4919FB7CB
:1003F000F894EC91611132C080958E238C939FBF4D
:100400000895909180009F7DE8CF90918000977F24
:10041000E4CF94B59F7794BDE2CF94B59F7DFBCF99
:10042000909190009F7790939000D9CF90919000F9
:100430009F7DF9CF90919000977FF5CF9091C0006C
:100440009F779093C000CBCF9091C0009F7DF9CF54
:100450009091C200977F9093C200C1CF8E2BCECFD8
:10046000CF93DF9390E0FC01EF5AFE4F2491825826
:100470009E4FFC0184918823D1F090E0880F991F52
:10048000FC01EB5DFE4FA591B491FC01E059FE4FDC
:10049000C591D49161110EC09FB7F8948C91E22F51
:1004A000E0958E238C932881E223E8839FBFDF9120
:1004B000CF9108958FB7F894EC91E22BEC938FBF16
:1004C000F6CF823108F08251E82FF0E0E75EFE4F70
:1004D000E49190917B008E2F880F880F80729F7D12
:1004E000892B80937B00E770E064E0937C0080912F
:1004F0007A00806480937A0080917A0086FDFCCF38
:10050000809178009091790008953FB7F894809198
:10051000670490916804A0916904B0916A0426B5BB
:10052000A89B05C02F3F19F00196A11DB11D3FBF2B
:10053000BA2FA92F982F8827BC01CD01620F711DFA
:10054000811D911D42E0660F771F881F991F4A95F4
:10055000D1F708950F931F93CF93DF93CDB7DEB7F5
:1005600029970FB6F894DEBF0FBECDBF8091CB05A3
:100570009091CC05892B09F47CC00E9485020091E2
:10058000D1051091D2052091D3053091D405601783
:1005900071078207930740F46093D1057093D205E9
:1005A0008093D3059093D4050091D1051091D20585
:1005B0002091D3053091D405601B710B820B930BF6
:1005C0006C32714081059105C0F2F8948091C605A6
:1005D0009091C7059A838983E091CB05F091CC0572
:1005E000DF011196808189879091C205E091D50540
:1005F000F091D6058091D705992309F445C09081E3
:10060000982B98879081809589238F838F818C8305
:1006100088E08B8358856F8149853B812C81898156
:100620009A81508347FD252F3A952083262F39F054
:10063000441F00C000006083000000C0F2CF38E01B
:100640004D9160830000019761F7F093D605E09328
:10065000D50549873B832C839A83898378940E94AC
:1006600085026093D1057093D2058093D305909352
:10067000D40529960FB6F894DEBF0FBECDBFDF912B
:10068000CF911F910F9108959081982B9887908119
:10069000809589238F838F818E8388E08D83588511
:1006A0006F8149853D812E8189819A81508347FDE3
:1006B000252F00C000C0208300C000C000C000C0C3
:1006C00000C060830000262F3A9541F0441F0000CF
:1006D00000C000C000C000C000C0E8CF38E04D91AD
:1006E00000C0608300C0019709F7F093D605E0933E
:1006F000D50549873D832E83AFCF8F929F92AF92CE
:10070000BF92CF92DF92EF92FF924B015C010E9469
:1007100085026B017C010E9485026C197D098E099E
:100720009F09683E734081059105A8F321E0821A74
:100730009108A108B10888EEC80E83E0D81EE11C1C
:10074000F11C81149104A104B10429F7FF90EF90EA
:10075000DF90CF90BF90AF909F908F90089580933F
:10076000E9008091F200882319F08AE38093E80081
:10077000089583E00C94AF0340912A0450912B0418
:10078000209128043091290442175307B4F4909122
:10079000E8009570E1F39091E80092FD19C0809314
:1007A000F10080912A0490912B0401968F73992770
:1007B000892B19F48EEF8093E80080912A049091A0
:1007C0002B04019690932B0480932A0481E00895D2
:1007D00080E00895DF92EF92FF920F931F93CF93E3
:1007E000DF93D82E8A01EB017B01E40EF51ECE15B6
:1007F000DF0559F0D7FE12C0FE0184910E94BC03B0
:1008000021968111F4CF0FEF1FEFC801DF91CF9137
:100810001F910F91FF90EF90DF9008958881EECFA8
:100820000F931F93CF93DF93CDB7DEB7C456D10993
:100830000FB6F894DEBF0FBECDBFFC01DB019C916B
:100840009E5F9C939E01295F3F4F8AE5D9011D92CF
:100850008A95E9F788E089838BE08A8322E02C83FC
:1008600091E09D839E8339E0398764E06A879E87A3
:100870009F873A8B44E24B8B9C8BA0E0B1E0BE8B10
:10088000AD8B09E010E0188F0F8B998F3B8F6C8F29
:100890002F8F98A353E059A387E08CA34DA39EA369
:1008A000B8A7AFA3A1E4B0E0BAA7A9A786E08BA739
:1008B0004CA72DA79EA79FA789AB4AAB2BAB2CAB10
:1008C0002DAB3FAB48AF59AF9AAF5BAF9CAF2DAFED
:1008D0009EAF21963FAF219722964FAF2297239646
:1008E0005FAF239724962FAF249725966FAF259758
:1008F00026969FAF269727969FAF279728969FAF5C
:1009000028972A963FAF2A9745E02B964FAF2B9713
:100910002D962FAF2D9760E470E02F967FAF6EAFCE
:100920002F9763964FAF639785E264968FAF649776
:1009300065969FAF659766969FAF669767969FAFE0
:10094000679768963FAF689769964FAF69976B96C0
:100950002FAF6B976D967FAF6EAF6D97A1964FAF30
:10096000A197A2968FAFA297A3969FAFA397A496A5
:100970009FAFA497A5965FAFA59792819B839B8716
:100980009F5F9A8F9D8F83812C968FAF2C978F5F5F
:1009900080686A968FAF6A9744E650E0BE016F5F49
:1009A0007F4F80E00E94EA03CC59DF4F0FB6F894E6
:1009B000DEBF0FBECDBFDF91CF911F910F91089584
:1009C0000F931F93CF93DF931F92CDB7DEB782E0D3
:1009D000898342E450E06CEA70E080E80E94EA0318
:1009E0000E94AB01DC0112960D911C9101151105BD
:1009F00089F0D801ED91FC910280F381E02DBE01D8
:100A00006F5F7F4FC801099597FD04C0F80100850D
:100A10001185ECCF89810F90DF91CF911F910F91BC
:100A200008952FB7F89487708093E9009091E800BB
:100A3000892F807295FF04C09091F20080E4891B99
:100A40002FBF08957F928F929F92AF92BF92CF92C5
:100A5000DF92EF92FF920F931F93CF93DF93C82EF5
:100A60008B017A0180913104811110C08FEF9FEFCB
:100A7000DF91CF911F910F91FF90EF90DF90CF907A
:100A8000BF90AF909F908F907F90089580912F049A
:100A900080FF05C08091E00082608093E000CE2D51
:100AA000DF2DD12C8AEFB82E8C2D8770982E8C2DAF
:100AB0008072882E8C2D8074782E9AE3A92E209730
:100AC00019F4DD2009F452C08C2D0E94110581110A
:100AD0000AC0BA94BB2051F261E070E080E090E07F
:100AE0000E947D03ECCF8C171D0611F00CF08C2FAB
:100AF0009FB7F8949092E9002091E80025FD02C08C
:100B00009FBFDDCF282F30E0C21BD30B882029F0F8
:100B10008150A0F01092F100FBCFF801C7FC0AC091
:100B2000815050F041914093F100FACF44914093AD
:100B3000F10031968150D0F7020F131FDD2021F014
:100B4000A092E800D12CDCCF8091E80085FD07C0A1
:100B5000A092E800DD24D394209791F2F3CF209760
:100B600079F6772069F2A092E800CACF5D9884E612
:100B700080932E04C7017CCF90913104992319F101
:100B80003FB7F89487708093E9008091F20090E07D
:100B9000481759070CF4CA01282FFB0154E62150CD
:100BA00038F0289850932D044091F1004193F7CFED
:100BB000009739F02091F200211103C02BE6209319
:100BC000E8003FBF08958FEF9FEF08959FB7F89417
:100BD00087708093E9008091F2009FBF0895615073
:100BE00030F02091F100FC0120830196F8CF289885
:100BF00084E680932D040895CF93DF93EC018091D8
:100C00000B01882331F083E00E9422051816190693
:100C100034F081E090E09B838A8380E090E0DF9174
:100C2000CF910895CF93DF931F92CDB7DEB769833D
:100C3000DC01ED91FC910280F381E02D41E050E078
:100C4000BE016F5F7F4F09950F90DF91CF9108959F
:100C500083E00E94110590E00895CF93DF931F92E7
:100C6000CDB7DEB7FC018485958597FD08C02FEFD1
:100C70003FEF358724870F90DF91CF91089541E0B2
:100C800050E0BE016F5F7F4F82E00E94BC0501977C
:100C900019F4898190E0EFCF8FEF9FEFECCF0F93A6
:100CA0001F93CF93DF931F92CDB7DEB78C01FC016A
:100CB0008485958597FF0FC041E050E0BE016F5FCE
:100CC0007F4F82E00E94BC05019771F4898190E01A
:100CD000F80195878487F801848595850F90DF91C9
:100CE000CF911F910F9108958FEF9FEFF1CFFC01EE
:100CF0008485958597FD06C082E00E94E60590E018
:100D00000196089582E00E94E60590E00895089516
:100D10000F93CF93DF9300D000D0CDB7DEB730E193
:100D2000839FC0011124682B69834A832B830C8322
:100D300080917A0444E050E0BE016F5F7F4F8F5F87
:100D40000E9422050F900F900F900F90DF91CF918E
:100D50000F9108950F931F93CF93DF93EC018B01B5
:100D6000EC85FD8580819181009711F00E94AA0693
:100D7000E881F9810288F389E02DB801CE01DF9185
:100D8000CF911F910F910994CF92DF92EF92FF9232
:100D9000CF93DF93EC016A017B01EC85FD858081B7
:100DA0009181009711F00E94C406E881F9810088C2
:100DB000F189E02DB701A601CE01DF91CF91FF901F
:100DC000EF90DF90CF900994CF92DF92EF92FF9255
:100DD000CF93DF93EC016A017B01EC85FD85808177
:100DE0009181009711F00E94E406E881F981068460
:100DF000F785E02DB701A601CE01DF91CF91FF90DD
:100E0000EF90DF90CF900994472FDC01ED91FC919A
:100E1000028CF38DE02D09940F93342F452F232F4F
:100E2000207FDC01ED91FC91213B48F0203E39F020
:100E30000688F789E02D272F632F0F910994072F3C
:100E4000262F632F0488F589E02D09950F910895C9
:100E500008950895CF92DF92EF92FF920F931F9320
:100E6000CF93DF938B01C0911F05D09120057C01AA
:100E7000F594E7946C0121E0C222DD242097A1F0D3
:100E8000CE018E0D9F1DF801C114D10441F0DC018B
:100E9000ED91FC91E00FF11F0190F081E02D09959B
:100EA0000A80DB81C02DEACFDF91CF911F910F9196
:100EB000FF90EF90DF90CF9008950F931F93CF9303
:100EC000DF93EC010E948502088119812A813B8110
:100ED000601B710B820B930B6C837D838E839F83CE
:100EE000DF91CF911F910F910895CF93DF93DB0195
:100EF0001896ED91FC911997309701F12085318575
:100F000016964D915C91179721153105D1F0E901A5
:100F10007F836E8357834683B187A0871796FC93A0
:100F2000EE93169719963C932E93189741155105F9
:100F300061F0DA011996FC93EE931897DF91CF9147
:100F40000895EC0179836883E5CFEC01FB83EA83A4
:100F5000F5CFDC015C96ED91FC91309711F0CB015F
:100F600009940895EF92FF920F931F93CF93DF930D
:100F7000042FF52EE62E172FDC015A96ED91FC91E9
:100F80003097B1F5C0913204D09133042097B9F174
:100F90008E81811345C0E881F9810284F385E02DBB
:100FA000402F5F2D6E2D712FCE0109958823C1F141
:100FB000EC81FD81309719F1848195812A813B81F3
:100FC000009721F1DC011396DC93CE9312973383C3
:100FD0002283D583C483FB83EA839D838C8321157D
:100FE0003105C9F0D9011596FC93EE93149707C00B
:100FF000642F752F8E2D912F0995882319F2DF917B
:10100000CF911F910F91FF90EF900895D0933304EB
:10101000C0933204DCCFF0933504E0933404EFCF77
:101020000A80DB81C02DB2CFEF92FF920F931F9306
:10103000CF93DF9300D0CDB7DEB78C017B01DC010D
:10104000ED91FC910484F585E02D09959A838983BF
:10105000D801ED91FC910684F785E02DBE016F5F0C
:101060007F4FC8010995882361F0D801ED91FC916B
:101070000284F385E02DAE014F5F5F4FB701C801D9
:1010800009950F900F90DF91CF911F910F91FF90D5
:10109000EF9008950F931F93CF93DF9300D000D06C
:1010A0001F92CDB7DEB7162F372F242F207F29832D
:1010B000642F6F702A81207F262B2A835B831C83F9
:1010C0007D83DC015896ED91FC91309731F0BA01A7
:1010D000812F932F099581115AC08981803B09F096
:1010E00060C08B81893731F500914204109143042F
:1010F0000115110561F0D801ED91FC910680F78191
:10110000E02DC8010995F80106811781F1CF009102
:101110003A0410913B0401151105C9F1D801ED9174
:10112000FC910680F781E02DC8010995F801068140
:101130001781F1CF00914204109143048B37B9F429
:1011400000913E0410913F040115110501F1D801F1
:10115000ED91FC910680F781E02DC8010995F80119
:1011600006811781F1CFD80116960D911C910115BA
:10117000110569F0BE016F5F7F4FC8010E9414081E
:10118000882389F3B80182E494E00E9475070F90E8
:101190000F900F900F900F90DF91CF911F910F91B3
:1011A0000895982F9F7E9038C9F400913E041091C5
:1011B0003F040115110559F3BE016F5F7F4FC80150
:1011C0000E941408882331F0B8018EE394E00E9455
:1011D0007507DDCFF80106811781EBCF803DD1F493
:1011E00000913A0410913B040115110581F2BE01F2
:1011F0006F5F7F4FC8010E941408882331F0B80147
:101200008AE394E00E947507C2CFD80116960D912B
:101210001C91EACF803C09F0BACF009136041091BE
:1012200037040115110509F4B2CFBE016F5F7F4F7E
:10123000C8010E941408882331F0B80186E394E0C5
:101240000E947507A4CFF80106811781EACFDC015F
:101250001A968D919C91009739F0DC01ED91FC91EB
:101260000480F581E02D099490E080E008950497D2
:101270000C942709DC0118968D919C91009739F008
:10128000DC01ED91FC910484F585E02D099490E05A
:1012900080E00895DC0118968D919C91009739F0BB
:1012A000DC01ED91FC910084F185E02D0994089515
:1012B000DC0118968D919C91009739F0DC01ED913D
:1012C000FC910680F781E02D09940895DC011896C1
:1012D0008D919C91009739F0DC01ED91FC91048097
:1012E000F581E02D0994089561110E94DE13FC013F
:1012F000E757FF4F208131812038310558F4820FA4
:10130000931FDC0119964C932F5F3F4F318320834D
:1013100081E0089580E00895FC0122813381211548
:10132000310569F4FB0122853385232B11F00E94DE
:10133000DE1393878287FC01738362830895C9015A
:101340000496EACFFC01228133812115310569F42D
:10135000FB0120853185232B11F00E94DE1391873C
:101360008087FC01738362830895C901EBCFCF931B
:10137000DF93EC01888599850097F1F0EE85FF8574
:101380006081718161157105B9F0DC011296ED91F2
:10139000FC911397309731F01186108613961C92AA
:1013A0001E921297EA81FB81309721F011861086F8
:1013B0001B821A820E94A2098A859B850097F1F000
:1013C000EC85FD856081718161157105B9F0DC01E5
:1013D0001296ED91FC911397309731F01386128697
:1013E00013961C921E921297EE81FF81309721F086
:1013F000138612861F821E820E948C09E885F98559
:10140000309751F0A281B381109731F019961C9258
:101410001E92189713821282EA85FB85309751F04D
:10142000A281B381109731F01B961C921E921A97DD
:1014300013821282EE85FF8580819181892B31F4A0
:10144000EC85FD8580819181892B11F00E94DE134E
:10145000DF91CF910895CF93DF93EC018A819B8137
:10146000009749F004960E942B0A8A819B810E9472
:10147000B7091B821A82DF91CF91089528E431E0E9
:10148000FC01318320830C942B0A2CE231E0FC0117
:10149000318320830C943E0ACF93DF93EC018A8141
:1014A0009B81009741F00E944C0A8A819B810E9497
:1014B000B7091B821A82DF91CF910895CF93DF93F2
:1014C000EC0184E991E09983888386EA91E09D8329
:1014D0008C83CE01C0960E940B14CE014E960E94C2
:1014E0000B1480E092E09983888382E192E09D83EF
:1014F0008C83CE0104960E94450A86E391E099838D
:101500008883CE01DF91CF910C944C0A04970C9400
:101510005E0ACF93DF93462F469546954695A42FB6
:10152000B0E0677021E001C0220F6A95EAF742300F
:1015300010F00E94DE13FC01EA0FFB1F30893223FA
:1015400059F4EC01EC85FD8580819181009779F754
:1015500081E0DF91CF91089580E0FBCFCF93DF93BF
:10156000A42F352F272F662389F0623010F40E94B4
:10157000DE13462F50E0EC01E881F981008CF18DFB
:10158000E02D6A2F732FDF91CF910994DF91CF91D6
:101590000895562F577021E030E002C0220F331F0C
:1015A0005A95E2F7562F569556955695E52FF0E049
:1015B0004423B1F0523010F00E94DE13E80FF91FFF
:1015C0003089232B208BDC0118968D919C910097FC
:1015D00081F0DC01ED91FC910284F385E02D09940A
:1015E00020953095523040F7E80FF91F30892323BA
:1015F000E9CF0895049608950296089505960895F2
:101600000296089503960895029608950895089500
:101610000895CF93DF93FC0186EB91E09183808363
:10162000309781F080911F059091200522813381B0
:10163000A481B581E817F90741F02115310529F496
:10164000109729F4DF91CF910895109721F0139608
:101650003C932E9312972091210530912205E21799
:10166000F30721F4B0932205A0932105C281D38111
:10167000209711F0BD83AC83E817F90719F7D093D1
:101680002005C0931F05DECFCF93DF93EC018AECDA
:1016900091E0998388838AEE91E09D838C8384EF27
:1016A00091E099878887809126049091270400977C
:1016B00049F420912105309122052115310511F0C1
:1016C000C9010897C817D90721F41092270410926E
:1016D00026048EEB91E099878887CE0108960E94B8
:1016E000090B80E092E09983888382E192E09D83F8
:1016F0008C83CE0104960E94450A86E391E099838B
:101700008883CE01DF91CF910C944C0A04970C94FE
:10171000440B08970C94440B2F923F924F925F9288
:101720006F927F928F929F92AF92BF92CF92DF92F1
:10173000EF92FF920F931F93CF93DF9300D000D0CF
:101740001F92CDB7DEB77C012BE22D836C0183E1C4
:10175000C80ED11CF701E256FF4F5F014701FCE9BB
:101760008F0E911C80911E0490911F04A091200463
:10177000B0912104409122045091230460912404EB
:1017800070912504841B950BA60BB70B8F739927BB
:10179000AA27BB27892B8A2B8B2B09F46EC080913B
:1017A000220490912304A0912404B0912504880F71
:1017B000991F880F991FFC01E25EFC4F80814181D7
:1017C0007280638020901E0430901F04409020049B
:1017D00050902104009122041091230420912404AC
:1017E000309125042016310642065306C1F00091BF
:1017F00022041091230420912404309125040F5FCA
:101800001F4F2F4F3F4F0F7311272227332700936E
:101810002204109323042093240430932504882366
:1018200009F4B5C0082F10E094E0159507959A9536
:10183000E1F78F7028EF280F273008F07DC0F701FF
:10184000458B768A678A008F81E00F900F900F900A
:101850000F900F90DF91CF911F910F91FF90EF901C
:10186000DF90CF90BF90AF909F908F907F906F90C0
:101870005F904F903F902F90089580917A040E943E
:10188000E605612C712C40E0882309F49BCF809100
:101890001E0490911F04A0912004B0912104019690
:1018A000A11DB11D2C013D012FE3422255246624C8
:1018B00077248091220490912304A0912404B09174
:1018C000250484159505A605B70509F468CF809110
:1018D0007A040E94E60544E050E0BE016F5F7F4F4E
:1018E00080917A040E94BC0504970CF458CF809133
:1018F0001E0490911F04A0912004B0912104880F30
:10190000991F880F991F825E9C4F49815A816B8174
:101910007C81FC01408351836283738340921E0467
:1019200050921F046092200470922104FFEF4F1A1E
:101930005F0A6F0A7F0AB8CF843059F5403FE1F45F
:1019400001110E94DE13F4011182108221E0F501E1
:101950002083602FC6010E947409882399F0472DC7
:10196000602FC6010E947409882361F0462D602F04
:10197000C6010E94740906C00111E3CFF501808100
:101980008111E7CFFD81F150FD83F111EBCE80E0B5
:101990005CCF8530B1F4473FA9F70111D2CFF501F3
:1019A0008081882379F360E0C6010E94740988234E
:1019B00049F3F701E256FF4F1082F701138E82E0E0
:1019C00044CF8630D1F4403F89F40111BACFF401FD
:1019D0001182108221E0F5012083602FC6010E9450
:1019E000740947EF602F882369F2DECF0111A9CF78
:1019F000F50180818111F1CFC5CF8730D1F4403F0F
:101A000089F401119ECFF4011182108221E0F501C9
:101A10002083602FC6010E947409882309F4B2CF85
:101A2000472DDBCF01118DCFF50180818111F1CFE1
:101A3000A9CF8F3009F0A6CFF701418F028F83E045
:101A400004CF0F93842F00E020E0462F6FE00E9428
:101A5000880680917A048F5F0F910C94AF03EF9208
:101A6000FF920F931F93CF93DF93EB017A01122F15
:101A700084E0E816F10460F00A812981488164E07D
:101A8000812F0E948806239683E0E81AF108F0CFA0
:101A900082E0E816F104F1F083E0E816F10441F089
:101AA000EA94EF2861F400E020E0488165E004C09A
:101AB0000A812981488167E0812F0E9488068091F0
:101AC0007A048F5FDF91CF911F910F91FF90EF907C
:101AD0000C94AF0300E02981488166E0EDCF0F93BD
:101AE000DC01ED91FC910488F589E02D022F20E0C6
:101AF00009950F9108950F93802FE62FF0E094E061
:101B0000F595E7959A95E1F7022F242F462F6E2F32
:101B10000E94880680917A048F5F0F910C94AF0326
:101B2000FC01208521110E94DE13E757FF4F099623
:101B3000BC01808190E00895FC01718B608B089559
:101B40000895089508950895CF93DF93EC01888157
:101B50009981009711F00E94EB21198218821D8251
:101B60001C821B821A82DF91CF910895FC01808133
:101B70009181009711F00C94EB210895CF93DF939E
:101B8000EC010E945E0ACE01DF91CF910C94EB2113
:101B900004970C94BE0DCF93DF93EC010E943E0A94
:101BA000CE01DF91CF910C94EB21CF93DF93EC0129
:101BB0000E94450ACE01DF91CF910C94EB210C9449
:101BC000EB210C94EB210C94EB21CF93DF93EC01F0
:101BD0000E94440BCE01DF91CF910C94EB2104972E
:101BE0000C94E50D08970C94E50DCF93DF93EC0171
:101BF0000E94090BCE01DF91CF910C94EB21FC01E7
:101C000001900020E9F73197AF01481B590BBC0147
:101C100083E894E00C94FC05CF93DF93FC014481AE
:101C200055816081718183E894E00E94FC05EC019C
:101C300080E592E00E94FF0D8C0F9D1FDF91CF91F8
:101C40000895CF92DF92EF92FF920F931F93CF935D
:101C5000DF93CDB7DEB7A1970FB6F894DEBF0FBE06
:101C6000CDBF282F30E050E040E019A28E010F5D7B
:101C70001F4F8AE0C82ED12CE12CF12CCA01B901EA
:101C8000A70196010E943E20605DF80162938F01DA
:101C9000211531054105510589F790E080E0309725
:101CA00019F0CF010E94FF0DA1960FB6F894DEBF88
:101CB0000FBECDBFDF91CF911F910F91FF90EF909D
:101CC000DF90CF9008950C94FF0DCF93DF93EC013C
:101CD00083E592E00E94630ECE01DF91CF910C94D8
:101CE0000C0E84E0EBE5F2E0DB0101900D928A95A9
:101CF000E1F784E008950E9431230F931F93CF935F
:101D0000DF93EC0188819981009759F02A813B810A
:101D10002617370730F081E0DF91CF911F910F91A7
:101D200008958B016F5F7F4F0E947422009759F0D6
:101D3000998388831B830A832C813D81232B59F748
:101D4000FC011082E8CF80E0E7CFEF92FF920F9383
:101D50001F93CF93DF93EC017B01198218821B82C2
:101D60001A821D821C82FB0101900020E9F7319745
:101D70008F01061B170BB8010E947D0E811109C04F
:101D8000CE01DF91CF911F910F91FF90EF900C94B6
:101D9000A40D1D830C83B70188819981DF91CF91B8
:101DA0001F910F91FF90EF900C944A23EF92FF92B6
:101DB0000F931F93CF93DF938C017B01EB0109906D
:101DC0000020E9F72197C61BD70BBE010E947D0EAC
:101DD000811109C0C801DF91CF911F910F91FF9030
:101DE000EF900C94A40DF801D583C483B7018081D2
:101DF0009181DF91CF911F910F91FF90EF900C9403
:101E00004A230F931F93CF93DF93CDB7DEB7299764
:101E10000FB6F894DEBF0FBECDBF8C01862FF80140
:101E20001182108213821282158214824AE0BE014E
:101E30006F5F7F4F90E00E948E1EBE016F5F7F4FED
:101E4000C8010E94D60E29960FB6F894DEBF0FBEC9
:101E5000CDBFDF91CF911F910F9108950F931F93E5
:101E6000CF93DF93CDB7DEB762970FB6F894DEBF9E
:101E70000FBECDBF8C01CB01F801118210821382FD
:101E80001282158214824AE0BE016F5F7F4F0E946A
:101E90006E1EBE016F5F7F4FC8010E94D60E629614
:101EA0000FB6F894DEBF0FBECDBFDF91CF911F916B
:101EB0000F910895EF92FF920F931F93CF93DF93AB
:101EC0006115710541F480E0DF91CF911F910F9171
:101ED000FF90EF90089541155105B1F07B01EC01A1
:101EE0000C811D81040F151FB8010E947D0E8823EF
:101EF00051F3288139818C819D81B701820F931F15
:101F00000E944A231D830C8381E0DECFCF93DF93B1
:101F1000EC01FB0144815581608171810E945A0F5F
:101F2000811103C0CE010E94A40DCE01DF91CF919B
:101F300008950C94BF1FEF92FF920F931F93CF93BE
:101F4000DF93082F8091600490916104009731F035
:101F50000E94EB21109261041092600490E080E0F6
:101F60000E94990F182F8FE090E00E944F21EC0102
:101F700082E18883110F116019830F700A838DEC41
:101F80009CECACE4BDE38B879C87AD87BE8782E188
:101F90000E946102092E000CAA0BBB0B8B839C8351
:101FA000AD83BE838F839887A987BA87D093610456
:101FB000C0936004C0911D05D0911E058E819F8144
:101FC000892B89F58A819B81892B69F500912604EB
:101FD000109127040115110561F40091210510915C
:101FE00022050115110519F00850110911F40E947C
:101FF000DE137E018EE1E80EF11CB701CE010E94D6
:10200000A209B701C80104960E948C097E01A0E3D1
:10201000EA0EF11CB701CE0104960E948C09B701AB
:10202000C8010E94A2096091200170912101809154
:102030002201909123010E942A07009146041091E9
:1020400047040115110561F0D801ED91FC9104845C
:10205000F585E02DC8010995F80106811781F1CFBA
:1020600000914204109143040115110561F0D8015B
:10207000ED91FC910480F581E02DC8010995F801EE
:1020800006811781F1CF00913604109137040115B4
:10209000110561F0D801ED91FC910480F581E02DEE
:1020A000C8010995F80106811781F1CF00913A0422
:1020B00010913B040115110561F0D801ED91FC91DF
:1020C0000480F581E02DC8010995F801068117818A
:1020D000F1CF00913E0410913F040115110561F00C
:1020E000D801ED91FC910480F581E02DC80109959E
:1020F000F80106811781F1CF009132041091330469
:102100000115110561F0D801ED91FC910480F58174
:10211000E02DC8010995F80102811381F1CFCE01AC
:1021200008960E945D07CE014096DF91CF911F91E6
:102130000F91FF90EF900C945D071F93CF93DF9367
:10214000EC01162F0E94990F811739F0612FCE01F3
:10215000DF91CF911F910C94C71FDF91CF911F91F9
:1021600008951F920F920FB60F9211242F933F9351
:102170008F939F93AF93BF93809163049091640476
:10218000A0916504B09166043091620423E0230FAE
:102190002D3758F50196A11DB11D2093620480933F
:1021A000630490936404A0936504B09366048091E3
:1021B000670490916804A0916904B0916A04019643
:1021C000A11DB11D8093670490936804A0936904D6
:1021D000B0936A04BF91AF919F918F913F912F91DE
:1021E0000F900FBE0F901F90189526E8230F0296B0
:1021F000A11DB11DD2CF1F920F920FB60F921124C5
:102200002F933F934F935F936F937F938F939F93FE
:10221000AF93BF93CF93EF93FF93C091E100809171
:10222000E100837F8093E100C3FF0FC01092E900BB
:1022300081E08093EB001092EC0082E38093ED004C
:102240001092310488E08093F000C2FF1BC083E04D
:102250000E94AF0380912E04882341F080912E04C8
:10226000815080932E04811101C05D9A80912D04CC
:10227000882341F080912D04815080932D04811199
:1022800001C0289AC4FF23C08091E2008E7E816045
:102290008093E2008091E1008F7E8093E100809145
:1022A0002F048E7E806180932F04FF91EF91CF9158
:1022B000BF91AF919F918F917F916F915F914F915E
:1022C0003F912F910F900FBE0F901F901895C0FF58
:1022D000ECCF8091E2008E7E80618093E20080915D
:1022E000E1008E7E8093E10080912F048E7E8160DC
:1022F000DACF1F920F920FB60F921124CF92DF9276
:10230000EF92FF920F931F932F933F934F935F93FF
:102310006F937F938F939F93AF93BF93EF93FF93AD
:10232000CF93DF93CDB7DEB76C97DEBFCDBF1092F2
:10233000E9008091E80083FF25C068E0CE01459662
:102340000E94EF0582EF8093E8008D8987FF39C0F6
:102350009091E80090FFFCCF982F907609F034C15F
:102360009E894F89588D2F89F88C911131C0803802
:1023700061F5809130048093F1001092F1008EEFAE
:102380008093E8006C960FB6F894DEBF0FBECDBF09
:10239000DF91CF91FF91EF91BF91AF919F918F917D
:1023A0007F916F915F914F913F912F911F910F916D
:1023B000FF90EF90DF90CF900F900FBE0F901F9087
:1023C00018959EEF9093E800C7CF1092F100D5CFFB
:1023D000913059F48111D3CF4130510581F680916C
:1023E00030048D7F80933004CACF933049F481113B
:1023F000C6CF4130510519F6809130048260F2CF8A
:10240000953041F48091E80080FFFCCF2068209354
:10241000E300B5CF963009F0A9C00B8D1C8D22E0EA
:102420001092E90010922B0410922A04F2122EC08E
:1024300010922904109228040E94E0041F8299E05F
:102440009983FA8291E09E8390EA98879AEF998720
:1024500020912A0430912B04275F3F4F3C832B832C
:102460008D831092E90010922B0410922A0410938D
:1024700029040093280449E050E0BE016F5F7F4FBC
:1024800080E00E94EA030E94E00479CF10932904BF
:10249000009328040E94AB01DC0112960D911C915F
:1024A0000115110509F451C1D801ED91FC91048089
:1024B000F581E02DBE016B5E7F4FC8010995009745
:1024C00009F03EC1F80100851185EACFF3E0FF1263
:1024D0000EC08F89882309F440C0823061F440E83F
:1024E0006BE08DE091E00E94AB13811148CF81E257
:1024F0008093EB0047CF813029F440E868E084E026
:1025000091E0F1CF833099F70E94AB01DC01129684
:10251000ED90FC908E010F5F1F4F6801E114F104F4
:1025200079F0D701ED91FC910680F781E02DB8019B
:10253000C7010995080F111DF701E084F184EECF62
:10254000D8011C92F60101900020E9F73197BF01F4
:102550006C197D0940E0C601C6CF6EEE70E0FB014C
:10256000449150E080E80E94EA0309CF973009F4D3
:10257000BECF983021F481E08093F10000CF9930F4
:1025800009F0FDCE837009F0B2CFE4E1F1E081E023
:1025900031E096E32191222371F08093E90030939A
:1025A000EB00DF0111972C912093EC009093ED004C
:1025B0008F5F873079F78EE78093EA001092EA0008
:1025C0008F8980933104DBCE8B8D9C8D1092E90036
:1025D00010922B0410922A049093290480932804CB
:1025E000898D811192C08E899D89913A49F48132F9
:1025F00009F07DCF47E050E064E071E080E0B3CFC8
:10260000913209F074CF833269F48F89988DB0E0EC
:10261000A0E08093000190930101A0930201B09388
:102620000301ADCE803269F48091E80082FFFCCFD7
:1026300067E084E091E00E94EF058BEF8093E80073
:102640009ECE823209F09BCE8F8980930B01EEEFF4
:10265000FFE7859194918B3F9C4D51F1E0E0F8E0CC
:102660008091040190910501A0910601B0910701AC
:10267000803B9440A105B105F1F480910B0180FDF0
:102680001AC0EE3F8AE0F80789F587E797E791835C
:1026900080838091600080932C0488E19BE00FB6DA
:1026A000F894A895809360000FBE9093600067CE69
:1026B000EEEFFAE0D5CF808191818737974709F017
:1026C0005ECEA895809160008861809360008091C3
:1026D0002C0480936000EE3F2AE0F20789F080919D
:1026E000FE0A9091FF0A9183808349CE8081918177
:1026F0008737980751F29093FF0A8093FE0AC5CF5F
:102700001092FF0A1092FE0A3ACE0E94AB01DC0141
:1027100012960D911C910115110509F4E8CED8010E
:10272000ED91FC910190F081E02DBE016B5E7F4F39
:10273000C8010995811123CEF80100851185EBCFE1
:10274000181619060CF41BCED2CEF1E0FF12BECE45
:1027500062EF70E004CFEF92FF920F931F93CF933D
:10276000DF93F82E192FE62E042F81E0860F880FB5
:102770000E94BC0383E00E94BC03CF2DD12FEC0E3E
:10278000FD2EF11CCE15DF05B9F007FF13C0FE01C9
:1027900084910E94BC03182F80E00E94BC03812317
:1027A00021968111EFCFDF91CF911F910F91FF9073
:1027B000EF9008958881EDCF81E0F5CF61E08DE065
:1027C0000E94300261E08DE00E94BF0162E370E090
:1027D00080E090E00E947D0360E08DE00E94BF01F8
:1027E00062E370E080E090E00E947D0361E08DE0B4
:1027F0000E94BF0162E370E080E090E00E947D03F0
:1028000060E08DE00E94BF0162E573E080E090E04F
:102810000E947D03D7CFCF93DF93EC0180E791E057
:10282000998388838AE891E09D838C83CE010E94FE
:10283000B709CE0104960E943E0A86E391E099838F
:102840008883CE01DF91CF910C944C0A04970C94AD
:102850000B14CF92DF92EF92FF920F931F93CF93BF
:10286000DF93EC018A89811108C0E881F981048C29
:10287000F58DE02DCE0109958A8B8A89882309F48C
:102880006EC0823061F1833009F453C0813069F742
:10289000EE85FF85C280D380E480F5800E811F81A4
:1028A0000115110539F06F2DC8010E94890A88238E
:1028B00009F455C00115110529F0A601B701C80199
:1028C0000E94E40688899989009779F2DC01ED91EC
:1028D000FC910190F081E02DBE010995C6CF8E8557
:1028E0009F85DC01ED91FC910190F081E02D09952F
:1028F0006B017C010E811F810115110531F06F2DD7
:10290000C8010E94890A882351F10115110529F097
:10291000A601B701C8010E94C40688899989009759
:1029200009F4A3CFDC01ED91FC910280F381E02D4D
:10293000D3CFEE85FF85778166818E819F81009759
:1029400011F00E94AA0688899989009709F48DCF11
:10295000DC01ED91FC910480F581E02DBDCFDF918C
:10296000CF911F910F91FF90EF90DF90CF9008953E
:1029700008970C942914CF93DF93EC010E940B1459
:10298000CE01DF91CF910C94EB2104970C94BB14F2
:10299000CF93DF9382E080937B0480937C0481E873
:1029A00094E090937E0480937D04109280041092B2
:1029B0007F0482E591E0909378048093770480E827
:1029C0008093810481E8809382040E94AB01FC0122
:1029D000818190917B04482F490F5527551F48301E
:1029E00051059CF5A281B381109709F527E734E0E2
:1029F0003383228320812093790480937A04809109
:102A00007C04820F808320917D04A22FB0917E04EC
:102A10008A2F821B8917C8F481813D91C82FD0E08D
:102A2000CD5EDE4F38838F5F8183F2CFD901189658
:102A30002D913C91199721153105C1F727E734E015
:102A400019963C932E931897D5CF10928604109226
:102A5000850488EE93E0A0E0B0E080938704909333
:102A60008804A0938904B0938A042EE531E0309362
:102A70008404209383042FEF3FEF3093900420933E
:102A80008F04209115052111A3C01092D604109235
:102A9000D5041092DA041092D90424E931E030937D
:102AA000D4042093D30426EA31E03093D804209351
:102AB000D7048093DB049093DC04A093DD04B093EF
:102AC000DE041092DF041092E0041092E1041092F0
:102AD000E2048BED94E00E945D078AE191E4A0E0BE
:102AE000B0E08093E3049093E404A093E504B093F2
:102AF000E6041092E7041092E8041092E9041092A0
:102B0000EA0483EE94E00E945D071092EC041092B8
:102B1000EB041092EE041092ED041092F004109267
:102B2000EF041092F4041092F3041092F80410923F
:102B3000F70420E731E03093F2042093F1048AE8AF
:102B400091E09093F6048093F5041092FA041092A9
:102B5000F9041092FC041092FB0447EF54E05093E8
:102B6000FE044093FD0443EF54E05093000540936E
:102B7000FF041092020510920105109206051092B2
:102B8000050510920A05109209053093040520935B
:102B90000305909308058093070510920C05109289
:102BA0000B0510920E0510920D0589E095E09093AB
:102BB000100580930F0585E095E0909312058093B2
:102BC0001105109214051092130581E080931505EC
:102BD00083ED94E090931E0580931D051092C3052C
:102BE0001092CA051092D1051092D2051092D30509
:102BF0001092D40581E08093D0058093CD0510928A
:102C0000CE0592E09093CF058093C20588E190E0D5
:102C10009093C7058093C6050E944F219093CC05E1
:102C20008093CB05009709F498C028E1FC0111922C
:102C30002A95E9F788E090E09093C5058093C40554
:102C400089E090E09093C9058093C8058091C30501
:102C5000882341F061E089E00E94300260E089E071
:102C60000E94BF01E7E8F1E0E491F0E0EE0FFF1F02
:102C7000E059FE4F859194919093D6058093D505A8
:102C8000EAE5F1E0E491E093D70510922605109271
:102C9000250510922A051092290580911F05909113
:102CA0002005892B31F48BE295E0909320058093E9
:102CB0001F05E0912105F0912205F0933005E09386
:102CC0002F05309721F08BE295E0938382838BE28E
:102CD00095E0909322058093210510922E05109285
:102CE0002D0586E395E0909332058093310510928F
:102CF000340510923305109235058CE192E09093E3
:102D00002405809323058EE392E090932805809319
:102D1000270588E492E090932C0580932B058FEF94
:102D2000809338051092390510923A0510923B05B0
:102D300080933C0510923D0580EB91E09093370520
:102D40008093360510923E051092C0051092BF0583
:102D50001092C105DF91CF9108951092C70510928E
:102D6000C6051092C5051092C4056ACFCF93DF93B4
:102D7000CDB7DEB7E3970FB6F894DEBF0FBECDBF79
:102D8000789484B5826084BD84B5816084BD85B546
:102D9000826085BD85B5816085BD80916E00816052
:102DA00080936E00109281008091810082608093F8
:102DB00081008091810081608093810080918000FA
:102DC0008160809380008091910082608093910067
:102DD000809191008160809391008091900081604A
:102DE000809390008091C10084608093C1008091A5
:102DF000C10082608093C1008091C1008160809396
:102E0000C1008091C30081608093C3008091C000A5
:102E100082608093C0008091C20081608093C20074
:102E200080917A00846080937A0080917A00826039
:102E300080937A0080917A00816080937A008091FB
:102E40007A00806880937A001092310410923004E6
:102E500010922F048091D70081608093D70080EA80
:102E60008093D80089B5806189BD89B5826089BDAC
:102E700009B400FEFDCF61E070E080E090E00E94C8
:102E80007D038091D8008F7C80618093D8008091F1
:102E9000E000807F8093E0008091E1008E7E80934F
:102EA000E1008DE08093E200559A209A81E090E065
:102EB0000E94990F0E949B0F8091C8059091C905AF
:102EC00097FDFBC061E00E94300260E08091C80580
:102ED0000E94BF0181E08093C3050E94AA0283E0A3
:102EE00090E00E94990FE82E8093100184E090E01A
:102EF0000E94990FD82E8093110185E090E00E94E6
:102F0000990FC82E8093120190E0880F991F23E03B
:102F100030E0B9010E946F20962E8D2D90E0880F31
:102F2000991FB9010E946F20862E8E2D90E0880F88
:102F3000991FB9010E946F20762E8BEAC89E612CE2
:102F400011246694D89E512C11245694E89EF12C9D
:102F50001124F694B2E0AB2EB12C10E000E02C2D41
:102F60004D2D6E2DC8010E94FB000115110509F4BD
:102F70006FC6292D482D672DC80101970E94FB00BF
:102F80000130110589F0262D452D6F2DC8010297BE
:102F90000E94FB000230110539F020E040E060E0C3
:102FA000C80103970E94FB000E94AA0264E670E039
:102FB00080E090E00E947D030F5F1F4F08301105F5
:102FC00071F610E000E020E040E060E0C8010E94FF
:102FD000FB000F5F1F4F08301105A9F70E94AA02DE
:102FE00064E670E080E090E00E947D03AA94AB2844
:102FF00009F066C010E000E02C2D4D2D6E2DC801AB
:103000000E94FB000F5F1F4F08301105A9F70E94B7
:10301000AA028FEF9FEF9093900480938F0480908B
:10302000240190902501A0902601B090270188AA44
:1030300099AAAAAABBAA00911D0510911E050E947B
:103040008502D8011C968D909D90AD90BC901F97E5
:103050001896CD90DD90ED90FC901B97AB01BC01D4
:10306000481959096A097B094C155D056E057F05EC
:1030700058F0D501C4018C0D9D1DAE1DBF1DF8017A
:1030800084879587A687B78768A979A98AA99BA904
:103090000E942A07E0904204F0904304E114F104F6
:1030A00099F0D701ED91FC910084F185E02DC701E5
:1030B0000995F701E680F780F1CF1092C3050DCF97
:1030C000AA24A394B12C49CFE0903E04F0903F0491
:1030D000E114F10461F0D701ED91FC910084F185D8
:1030E000E02DC7010995F701E680F780F1CFE09068
:1030F0003A04F0903B04E114F10461F0D701ED9142
:10310000FC910084F185E02DC7010995F701E68067
:10311000F780F1CFE0903604F0903704E114F10429
:1031200061F0D701ED91FC910084F185E02DC7019C
:103130000995F701E680F780F1CFE0903204F09036
:103140003304E114F10461F0D701ED91FC910084A6
:10315000F185E02DC7010995F701E280F380F1CFF9
:103160000E948502D80154968D909D90AD90BC90A0
:1031700057975096CD90DD90ED90FC905397AB0112
:10318000BC01481959096A097B094C155D056E0592
:103190007F0558F0D501C4018C0D9D1DAE1DBF1DCE
:1031A000F801848B958BA68BB78B009160041091EE
:1031B00061040115110509F4CBC08FB7F894C090D4
:1031C0006304D0906404E0906504F09066048FBFBF
:1031D000D8018C910E9461021C01F80183849484BF
:1031E000A584B68467817085818592850E94C31EFF
:1031F0002B013C01A501940160E070E080E89FE3B1
:103200000E94AC209B01AC01C301B2010E94FE1ED2
:103210002B013C01B101330C880B990B0E94C31E9A
:10322000A50194010E94FE1E9B01AC01C301B201E5
:103230000E94AD200E9419219B01AC01D801179674
:103240002D933D934D935C931A97A1E8BFEF0E9495
:1032500002202CEE33E040E050E00E94D51FBA017E
:10326000A90141585F4F6F4F7F4FF80183819481CF
:10327000A581B68184179507A607B70741F040934B
:103280000C0150930D0160930E0170930F0140915A
:103290004A0450914B0460914C0470914D044601D6
:1032A0005701841A950AA60AB70AB501A401423348
:1032B00051056105710508F44BC0C0924A04D092D3
:1032C0004B04E0924C04F0924D0440910C0150915B
:1032D0000D0160910E0170910F014F3F2FEF5207CA
:1032E00062077207A9F184179507A607B70781F14E
:1032F000D80113964D935D936D937C93169783E05D
:103300000E94AF03F801518150FF17C0E0911D05E5
:10331000F0911E055695D80113966C9113976F770F
:1033200012964C91742F72957F704F70406B86810E
:103330009781009711F00E94E4068FEF9FEFDC0168
:1033400080930C0190930D01A0930E01B0930F0197
:1033500080915404811109C062E572E08EE494E02A
:103360000E94A50E81E08093540422242A94312CDB
:1033700083E894E00E9477067C01892B09F45EC300
:1033800083E894E00E942D068A3009F04BC3C09078
:103390004E04D0904F04C114D10449F0009152045E
:1033A0001091530476010115110509F0EAC060E699
:1033B00072E0CE0101960E94A50E6EE474E0CE018B
:1033C00001960E94860F0E940C0ECE0101960E946B
:1033D000B60D62E772E0CE0101960E94A50E4D8106
:1033E0005E8180915204909153048417950780F078
:1033F00080914E0490914F04009751F069817A8139
:103400006115710529F00E94512311E0892B09F003
:1034100010E0CE0101960E94B60D112309F4F5C209
:10342000FE0131962F0156E0E52EF12CD12CC12C56
:10343000A0905204B09053044701EA14FB0408F032
:10344000DCC0F5E0CF16D10409F4DCC060904E0476
:1034500070904F046CE270E0C3018E0D9F1D0E94BE
:103460003F23009731F08C01061917090F3F100711
:1034700009F4850158010E151F0510F05701480188
:1034800062E572E0CE010B960E94A50EE090520418
:10349000F0905304AE14BF0410F58E149F0408F48A
:1034A0007401E0914E04F0914F04EE0DFF1D9080E9
:1034B000108260914E0470914F046A0D7B1DCE0105
:1034C0000B966115710509F484C20E94D60E809195
:1034D0004E0490914F04E80EF91ED7019C928B8503
:1034E0009C85812C912C5401009719F00E94471E55
:1034F0004B01F201819291922F01CE010B960E9415
:10350000B60DB401CE010B960E942E0FB601CE016E
:1035100041960E942E0F68E772E0CE0147960E9406
:10352000A50EBE016F5E7F4FCE0147960E94860FAB
:103530007C0142E050E06DEA72E00E945A0F811176
:1035400003C0C7010E94A40DBE01655F7F4FC70184
:103550000E94860F0E94650ECE0147960E94B60D0E
:10356000CE0141960E94B60DCE010B960E94B60D7B
:10357000FFEFCF1ADF0A78012FEFE21AF20A58CFD5
:1035800075015701BFEFAB1ABB0AF7018081082E06
:10359000000C990B0E94A81E892B91F7015011096C
:1035A0000C0D1D1DD8018C91082E000C990B0E944A
:1035B000A81E892B31F00E151F0518F001501109B6
:1035C000F1CFA8014F5F5F4F4E195F09509353042D
:1035D00040935204CE14DF0420F4B701C6010E94C8
:1035E0003623E0914E04F0914F0480915204909163
:1035F0005304E80FF91F1082DACE35E0C316D10468
:1036000009F0EAC149845A844DA68F8098849E8E21
:103610008D8E9D8C9EA6AD80BE80BAA2A9A2B9A0B7
:10362000BFA67B80698066E872E0CE010B960E949F
:10363000A50ECE010B960E94650ECE010B960E9440
:10364000B60D662DCE010B960E94010F69E972E05E
:10365000CE0141960E94A50EBE01655F7F4FCE014F
:1036600041960E94860F0E94650ECE0141960E94EF
:10367000B60DCE010B960E94B60D672DCE010B96AE
:103680000E94010F6EE972E0CE0141960E94A50EE4
:10369000BE01655F7F4FCE0141960E94860F0E945A
:1036A000650ECE0141960E94B60DCE010B960E948A
:1036B000B60D69A1CE010B960E94010F68EA72E077
:1036C000CE0141960E94A50EBE01655F7F4FCE01DF
:1036D00041960E94860F0E94650ECE0141960E947F
:1036E000B60DCE010B960E94B60D6D8DCE010B96D8
:1036F0000E94010F67E572E0CE0141960E94A50E7F
:10370000BE01655F7F4FCE0141960E94860F0E94E9
:10371000650ECE0141960E94B60DCE010B960E9419
:10372000B60D642DCE010B960E94010F6CEA72E07B
:10373000CE0141960E94A50EBE01655F7F4FCE016E
:1037400041960E94860F0E94650ECE0141960E940E
:10375000B60DCE010B960E94B60D662D90E080E06E
:103760000E949D10672D81E090E00E949D1069A14C
:1037700083E090E00E949D106D8D84E090E00E94B7
:103780009D10642D85E090E00E949D10A092100194
:103790008092110140921201E12CFF24F394D12C6C
:1037A000C12C29A13AA1332738A72FA34D8D5E8DB7
:1037B00055275AA749A7C20199279CA78BA78FA075
:1037C00098A48C9CC0018D9C900D9C9C900D112404
:1037D000B1010E946F20262FA9A4BAA4AC9CC001FD
:1037E000AD9C900DBC9C900D1124B1010E946F20E6
:1037F000862E912CB12CA12CBA2CA92C982C882483
:10380000A22A2BA53CA52C9DC0012D9D900D3C9D71
:10381000900D1124B1010E946F20862A10E000E073
:103820008091C4059091C5050817190728F4B501C2
:10383000A401C8010E9441010F5F1F4F083011050C
:1038400079F70E94AA0261E070E080E090E00E94B7
:103850007D033FEFC31AD30A41E0E41AF10809F0EF
:10386000AECF2FEFABA4BCA42A9D40012B9D900CA2
:1038700011249CA28BA2AA24AA9489A49AA4A89CED
:103880007001A99CF00C11248FA098A4A89C600141
:10389000A99CD00C112420E031E03EA32DA3C60149
:1038A000B1010E946F20262FC701B1010E946F2035
:1038B000862E912CB12CA12CBA2CA92C982C8824C2
:1038C000A22A8BA19CA1B1010E946F20862A10E040
:1038D00000E08091C4059091C5050817190728F4E8
:1038E000B501A401C8010E9441010F5F1F4F0830BC
:1038F000110579F70E94AA0261E070E080E090E093
:103900000E947D034DA15EA1415051095EA34DA3CC
:103910008BA09CA0ABA4BCA48A189B089CA28BA2E1
:1039200089A49AA4E818F908AFA0B8A4CA18DB08BB
:10393000452B09F0B4CF10E000E02DA54EA56FA5F2
:10394000C8010E94FB000F5F1F4F08301105A9F747
:103950000E94AA02872D0E949B0F80EB92E00E949A
:10396000630E862D0E94210E85EB92E00E94630E6D
:10397000872D0E94210E85EB92E00E94630E89A1A3
:103980000E94210E85EB92E00E94630E8D8D0E94B5
:10399000210E85EB92E00E94630E842D0E94210E81
:1039A00080E592E00E94FF0D67EB72E0CE010B967E
:1039B0000E94A50ECE010B960E94650ECE010B96BD
:1039C0000E94B60D62E572E08EE494E00E94D60E8D
:1039D000CFCC0E94A40D7BCDB601CE010B960E94E8
:1039E0002E0F66ED72E0CE0141960E94A50EBE013B
:1039F000655F7F4FCE0141960E94860F0E94650E43
:103A0000CE0141960E94B60DD9CF61E073E0CE01A0
:103A100001960E94A50ECE0101960E94650ECE0170
:103A20000196CECF89831A8241E050E0BE016F5FDC
:103A30007F4F8EE494E00E945A0F9ACC82E10E945C
:103A400061029C01A1E8BFEF0E9489202FEF33E0C3
:103A500040E050E00E94D51F89019A0101581F4F94
:103A60002F4F3F4F20E040E060E0C7010E94FB0085
:103A70002FEFE21AF20A38E0E316F10499F7C12CAD
:103A8000D12C7601B12CA12C9801012E000C440BF5
:103A9000550B2D8F3E8F4F8F58A388248A94912CDD
:103AA000C6014096209112014091110160911001D0
:103AB000081719070CF040C00C151D050CF43FC089
:103AC000AFEFB0E02D8D3E8D4F8D58A12C193D09E3
:103AD0004E095F090E94F41F2FE030E040E050E003
:103AE0000E94D51F29012091120130E0249DC001C0
:103AF000259D900D349D900D1124B4010E946F20DE
:103B0000262F4091110150E0449DC001459D900D2C
:103B1000549D900D1124B4010E946F20462F609196
:103B2000100170E0649DC001659D900D749D900D25
:103B30001124B4010E946F20C5010E94FB004FEFC9
:103B4000A41AB40A50E1C50ED11CE11CF11C80E896
:103B5000C816D104E104F10409F0A2CF0E94AA0220
:103B60002FB7F8948091630490916404A091650448
:103B7000B09166042FBF40915C0450915D04609148
:103B80005E0470915F04841B950BA60BB70B853FF9
:103B90009140A105B10508F453C090E080E00E9477
:103BA000990FD82E81E090E00E94990FE82E83E0D3
:103BB00090E00E94990FF82E84E090E00E94990F07
:103BC000082F85E090E00E94990F182F89E193E07B
:103BD0000E94630E8D2D0E94210E85EB92E00E94C3
:103BE000630E8E2D0E94210E85EB92E00E94630EE3
:103BF0008F2D0E94210E85EB92E00E94630E802F94
:103C00000E94210E85EB92E00E94630E812F0E949C
:103C1000210E80E592E00E94FF0D2FB7F89480916D
:103C2000630490916404A0916504B09166042FBF71
:103C300080935C0490935D04A0935E04B0935F0452
:103C400080E090E0892B09F4F6C90E940000F3C9D6
:103C50000E94AA0264E670E080E090E00E947D038A
:103C600001E010E07CC983E295E00E94440B809162
:103C7000CB059091CC050E94EB218091C8059091D5
:103C8000C90597FD03C060E00C94300208951F93AE
:103C9000FC0199278827BC01E89411911032E9F3BF
:103CA000193010F01E30C8F31B3251F01D3249F4A8
:103CB000689406C00E94791E610F711D811D911DBF
:103CC000119110531A30B0F33EF490958095709591
:103CD00061957F4F8F4F9F4F1F910895BB274A30AB
:103CE00031F4992322F4BDE2909581959F4F0C9475
:103CF0008F1E592F482F372F262F660F771F881FAB
:103D0000991F660F771F881F991F620F731F841FEB
:103D1000951F660F771F881F991F0895BB27FB010A
:103D20005527AA27880F991FAA1FA41710F0A41BB4
:103D300083955051B9F7A05DAA3308F0A95DA1930E
:103D4000009779F7B111B1931192CB010C94B11E88
:103D500091110C946B1F803219F089508550C8F76F
:103D60000895DC01FC01672F71917723E1F7329709
:103D700004C07C916D9370836291AE17BF07C8F346
:103D80000895E89409C097FB3EF49095809570954E
:103D900061957F4F8F4F9F4F9923A9F0F92F96E997
:103DA000BB279395F695879577956795B795F1110C
:103DB000F8CFFAF4BB0F11F460FF1BC06F5F7F4FA9
:103DC0008F4F9F4F16C0882311F096E911C07723BB
:103DD00021F09EE8872F762F05C0662371F096E8C4
:103DE000862F70E060E02AF09A95660F771F881F93
:103DF000DAF7880F9695879597F908950E94111F15
:103E00000C94851F0E94771F38F00E947E1F20F0BF
:103E1000952311F00C946E1F0C94741F11240C94B4
:103E2000B91F0E94961F70F3959FC1F3950F50E044
:103E3000551F629FF001729FBB27F00DB11D639F5C
:103E4000AA27F00DB11DAA1F649F6627B00DA11D02
:103E5000661F829F2227B00DA11D621F739FB00DA8
:103E6000A11D621F839FA00D611D221F749F332718
:103E7000A00D611D231F849F600D211D822F762FB1
:103E80006A2F11249F5750409AF0F1F088234AF08E
:103E9000EE0FFF1FBB1F661F771F881F91505040FA
:103EA000A9F79E3F510580F00C946E1F0C94B91F2A
:103EB0005F3FE4F3983ED4F3869577956795B79581
:103EC000F795E7959F5FC1F7FE2B880F911D96959B
:103ED000879597F9089599278827089597F99F67F7
:103EE00080E870E060E008959FEF80EC0895002482
:103EF0000A941616170618060906089500240A944F
:103F000012161306140605060895092E0394000CD4
:103F100011F4882352F0BB0F40F4BF2B11F460FF63
:103F200004C06F5F7F4F8F4F9F4F089557FD90588C
:103F3000440F551F59F05F3F71F04795880F97FB6D
:103F4000991F61F09F3F79F0879508951216130627
:103F50001406551FF2CF4695F1DF08C01616170656
:103F60001806991FF1CF869571056105089408958B
:103F7000E894BB2766277727CB0197F90895F9992D
:103F8000FECF92BD81BDF89A992780B50895262F5E
:103F9000F999FECF1FBA92BD81BD20BD0FB6F8942E
:103FA000FA9AF99A0FBE01960895052E97FB1EF412
:103FB00000940E94EC1F57FD07D00E943E2007FC92
:103FC00003D04EF40C94EC1F5095409530952195FC
:103FD0003F4F4F4F5F4F0895909580957095619535
:103FE0007F4F8F4F9F4F08950E946020A59F900D97
:103FF000B49F900DA49F800D911D11240895B7FFCB
:104000000C94F41F0E94F41F821B930B08952F92AF
:104010003F924F925F926F927F928F929F92AF9258
:10402000BF92CF92DF92EF92FF920F931F93CF93A5
:10403000DF93CDB7DEB7CA1BDB0B0FB6F894DEBF3C
:104040000FBECDBF09942A88398848885F846E8462
:104050007D848C849B84AA84B984C884DF80EE80AC
:10406000FD800C811B81AA81B981CE0FD11D0FB6B5
:10407000F894DEBF0FBECDBFED010895A1E21A2E68
:10408000AA1BBB1BFD010DC0AA1FBB1FEE1FFF1FFC
:10409000A217B307E407F50720F0A21BB30BE40B4C
:1040A000F50B661F771F881F991F1A9469F7609593
:1040B0007095809590959B01AC01BD01CF0108954D
:1040C000A29FB001B39FC001A39F700D811D112459
:1040D000911DB29F700D811D1124911D089597FBB4
:1040E000072E16F4009407D077FD09D00E9498207F
:1040F00007FC05D03EF4909581959F4F08957095EB
:1041000061957F4F0895EE0FFF1F0590F491E02D0C
:1041100009940E946020332312F48A1B9B0B0C9499
:1041200093200E946020B7FF0895821B930B08958F
:10413000AA1BBB1B51E107C0AA1FBB1FA617B707CD
:1041400010F0A61BB70B881F991F5A95A9F78095E9
:104150009095BC01CD0108955058BB27AA270E9415
:10416000C4200C94851F0E94771F38F00E947E1F88
:1041700020F039F49F3F19F426F40C94741F0EF4C8
:10418000E095E7FB0C946E1FE92F0E94961F58F3F1
:10419000BA17620773078407950720F079F4A6F52C
:1041A0000C94B81F0EF4E0950B2EBA2FA02D0B0126
:1041B000B90190010C01CA01A0011124FF27591B6C
:1041C00099F0593F50F4503E68F11A16F040A22F72
:1041D000232F342F4427585FF3CF469537952795E3
:1041E000A795F0405395C9F77EF41F16BA0B620BE2
:1041F000730B840BBAF09150A1F0FF0FBB1F661F29
:10420000771F881FC2F70EC0BA0F621F731F841F6B
:1042100048F4879577956795B795F7959E3F08F091
:10422000B0CF9395880F08F09927EE0F9795879553
:1042300008950E9420216894B1110C94B91F08952B
:104240000E949E1F88F09F5798F0B92F9927B75169
:10425000B0F0E1F0660F771F881F991F1AF0BA952A
:10426000C9F714C0B13091F00E94B81FB1E00895B1
:104270000C94B81F672F782F8827B85F39F0B93FA3
:10428000CCF3869577956795B395D9F73EF49095DD
:104290008095709561957F4F8F4F9F4F08950F9335
:1042A0001F93CF93DF938230910510F482E090E06A
:1042B000E091DA05F091DB0530E020E0B0E0A0E02D
:1042C000309799F42115310509F44AC0281B390BA0
:1042D00024303105D8F58A819B816115710589F1FA
:1042E000FB0193838283FE0111C0408151810281D1
:1042F000138148175907E0F04817590799F41097A8
:1043000061F012960C93129713961C933296CF017C
:10431000DF91CF911F910F9108950093DA051093CB
:10432000DB05F4CF2115310551F04217530738F062
:10433000A901DB019A01BD01DF01F801C1CFEF0145
:10434000F9CF9093DB058093DA05CDCFFE01E20F24
:10435000F31F819391932250310939832883D7CF5A
:104360002091D8053091D905232B41F420911C01CF
:1043700030911D013093D9052093D80520911A0161
:1043800030911B012115310541F42DB73EB7409105
:104390001E0150911F01241B350BE091D805F091AF
:1043A000D905E217F307A0F42E1B3F0B2817390796
:1043B00078F0AC014E5F5F4F2417350748F04E0F81
:1043C0005F1F5093D9054093D805819391939FCF58
:1043D000F0E0E0E09CCFCF93DF930097E9F0FC01A1
:1043E000329713821282A091DA05B091DB05ED01BC
:1043F00030E020E01097A1F420813181820F931FDB
:104400002091D8053091D9052817390709F061C0E6
:10441000F093D905E093D805DF91CF910895EA0193
:10442000CE17DF07E8F54A815B819E0141155105F2
:10443000B1F7E901FB83EA8349915991C40FD51F74
:10444000EC17FD0761F4808191810296840F951F1E
:10445000E90199838883828193819B838A83F0E039
:10446000E0E012968D919C9113970097B9F52D91EC
:104470003C911197CD010296820F931F2091D80590
:104480003091D9052817390739F6309751F5109230
:10449000DB051092DA05B093D905A093D805BCCFFF
:1044A000D383C28340815181840F951FC817D907D8
:1044B00061F44E5F5F4F88819981480F591F518386
:1044C00040838A819B81938382832115310509F082
:1044D000B0CFF093DB05E093DA059ECFFD01DC0160
:1044E000C0CF13821282D7CFB0E0A0E0EAE7F2E2B9
:1044F0000C9409208C01009751F4CB010E944F21AC
:104500008C01C801CDB7DEB7E0E10C942520FC0199
:10451000E60FF71F9C0122503109E217F30708F458
:104520009DC0D901CD91DC911197C617D70798F09E
:10453000C530D10530F3CE0104978617970708F3ED
:10454000C61BD70B2297C193D1936D937C93CF0158
:104550000E94EB21D6CF5B01AC1ABD0A4C018C0E38
:104560009D1EA091DA05B091DB05512C412CF12C58
:10457000E12C109731F58091D8059091D9058815D7
:10458000990509F05CC04616570608F058C080919E
:104590001A0190911B01009741F48DB79EB740918D
:1045A0001E0150911F01841B950BE817F90708F0B5
:1045B00055C0F093D905E093D805F9017183608364
:1045C000A0CF8D919C91119712966C901297139693
:1045D0007C901397A815B90559F56C0142E0C40EFB
:1045E000D11CCA14DB0420F1AC014A195B09DA01C1
:1045F0001296159780F06282738251834083D901AD
:104600006D937C93E114F10471F0D7011396FC9340
:10461000EE93129776CF22968C0F9D1FF90191830E
:104620008083F301EFCFF093DB05E093DA0569CFE8
:104630004816590608F42C017D01D3019ACFCB010D
:104640000E944F217C01009749F0AE01B8010E9401
:104650003623C8010E94EB21870153CF10E000E010
:1046600050CF81E090E0F8940C945F23FB01DC01D3
:1046700002C001900D9241505040D8F70895FC01BE
:104680008191861721F08823D9F7992708953197CA
:10469000CF010895FB01DC0101900D920020E1F7AC
:1046A0000895FB01DC014150504030F08D910190A4
:1046B000801919F40020B9F7881B990B089510E0B0
:1046C000C0EDD0E004C0FE010E9483202196C13DD0
:0846D000D107C9F7F894FFCFF0
:1046D800FFFFFFFF00E1000000000000FFFFFFFFF9
:1046E80005050500C180810000000000DC05800090
:1046F800040001000600010000000000450AD50D75
:10470800A20D00000000000000007B0E7B0E7B0E57
:10471800A30DA20D000000003E0ACB0DA20D000063
:104728000000A9011004A601710E00000000120685
:10473800FC052806B90377062D064F060000000081
:104748000B14BB14660958094A09C90A3A096609CB
:1047580058094A092709FCFF00002614C51437091F
:10476800000000005E0ABE0D4A08B207A907A30DA3
:10477800A20DFCFF0000860AC80DA20D0000000073
:10478800900D00000000090BF50D0000000000006E
:1047980000007B0E7B0E00000000000000000C07EC
:1047A800AE0A0407A30DA20DA10D7B0E7B0E7B0E96
:1047B8007B0E7B0E7B0EFCFF000000000000A20DAC
:1047C800F8FF000000000000A00D7B0E00000000B4
:1047D800000000007B0E7B0E7B0EA30DA20DFCFFDC
:1047E800000000000000A20D00000000440BE50DD1
:1047F8000C07AE0A0407A30DA20DA10D29149C0DE8
:104808007B0D6F0D2F0D210D8C0BFCFF0000860B0F
:10481800EF0DA20DF8FF0000890BF20DA00DB814E2
:104828000D0A0044454255473A20004D4944490085
:1048380041726475696E6F52656365697665643A3D
:1048480020004257505944005061727365642076C5
:10485800616C756520005570646174696E672073BA
:10486800657474696E67733A0043433A200043687D
:10487800616E6E656C3A2000523A2000423A200080
:1048880042575059442C0053657474696E677320FD
:1048980075706461746564207375636365737366AA
:1048A800756C6C792E004D616C666F726D65642055
:1048B800636F6D6D616E643A2045787065637465E9
:1048C8006420352076616C7565732C20676F7420C1
:1048D80000496E76616C696420636F6D6D616E640A
:0E48E800207072656669782E004D4D2C000020
:00000001FF
