:100000000C94C1050C94E9050C94E9050C94E905E0
:100010000C94E9050C94E9050C94E9050C94E905A8
:100020000C94E9050C94E9050C940A1D0C94881DA8
:100030000C94E9050C94E9050C94E9050C94E90588
:100040000C94E9050C94E9050C94E9050C94E90578
:100050000C94BA1F0C94E9050C94E9050C94C01C8F
:100060000C94E9050C94E9050C94E9050C94E90558
:100070000C94E9050C94E9050C94E9050C94E90548
:100080000C94E9050C94E9050C94E9050C94E90538
:100090000C94E11F0C94E9050C94E9050C94E90516
:1000A0000C94E9050C94E9050C94E90500000000A6
:1000B000003E5B4F5B3E3E6B4F6B3E1C3E7C3E1CEE
:1000C000183C7E3C181C577D571C1C5E7F5E1C0034
:1000D000183C1800FFE7C3E7FF0018241800FFE7EB
:1000E000DBE7FF30483A060E2629792926407F05AE
:1000F0000507407F05253F5A3CE73C5A7F3E1C1CC4
:1001000008081C1C3E7F14227F22145F5F005F5F83
:1001100006097F017F006689956A6060606060946F
:10012000A2FFA29408047E040810207E2010080874
:100130002A1C08081C2A08081E101010100C1E0C7F
:100140001E0C30383E3830060E3E0E060000000011
:100150000000005F00000007000700147F147F14F8
:10016000242A7F2A1223130864623649562050003D
:1001700008070300001C2241000041221C002A1C29
:100180007F1C2A08083E0808008070300008080814
:100190000808000060600020100804023E51494534
:1001A0003E00427F400072494949462141494D3352
:1001B0001814127F1027454545393C4A49493141B9
:1001C000211109073649494936464949291E000087
:1001D00014000000403400000008142241141414DC
:1001E0001414004122140802015909063E415D59C8
:1001F0004E7C1211127C7F494949363E41414122D1
:100200007F4141413E7F494949417F090909013EFA
:10021000414151737F0808087F00417F4100204021
:10022000413F017F081422417F404040407F021C33
:10023000027F7F0408107F3E4141413E7F0909094A
:10024000063E4151215E7F09192946264949493216
:1002500003017F01033F4040403F1F2040201F3FDC
:100260004038403F63140814630304780403615961
:10027000494D43007F4141410204081020004141A3
:10028000417F04020102044040404040000307084F
:100290000020545478407F2844443838444444284B
:1002A000384444287F385454541800087E090218F2
:1002B000A4A49C787F0804047800447D400020407A
:1002C000403D007F1028440000417F40007C0478BE
:1002D00004787C080404783844444438FC18242406
:1002E0001818242418FC7C08040408485454542486
:1002F00004043F44243C4040207C1C2040201C3C03
:100300004030403C44281028444C9090907C4464F9
:10031000544C44000836410000007700000041368C
:10032000080002010204023C2623263C1EA1A16112
:10033000123A4040207A3854545559215555794144
:100340002254547842215554784020545579400C19
:100350001E527212395555555939545454593955FC
:100360005454580000457C410002457D420001453F
:100370007C407D1211127DF0282528F07C545545D3
:10038000002054547C547C0A097F4932494949323F
:100390003A4444443A324A4848303A4141217A3A50
:1003A00042402078009DA0A07D3D4242423D3D401C
:1003B00040403D3C24FF2424487E4943662B2FFCCB
:1003C0002F2BFF0929F620C0887E09032054547979
:1003D000410000447D413048484A32384040227A4A
:1003E000007A0A0A727D0D19317D2629292F2826C7
:1003F0002929292630484D402038080808080808CF
:100400000808382F10C8ACBA2F102834FA00007B27
:10041000000008142A142222142A1408550055003A
:1004200055AA55AA55AAFF55FF55FF000000FF0029
:10043000101010FF00141414FF001010FF00FF1024
:1004400010F010F0141414FC001414F700FF000056
:10045000FF00FF1414F404FC141417101F10101FD5
:10046000101F1414141F00101010F0000000001FC3
:10047000101010101F10101010F010000000FF10CE
:100480001010101010101010FF10000000FF1400CA
:1004900000FF00FF00001F10170000FC04F41414FC
:1004A0001710171414F404F40000FF00F7141414C8
:1004B00014141414F700F7141414171410101F1048
:1004C0001F141414F4141010F010F000001F101F6B
:1004D0000000001F14000000FC140000F010F010D9
:1004E00010FF10FF141414FF141010101F00000050
:1004F00000F010FFFFFFFFFFF0F0F0F0F0FFFFFF54
:100500000000000000FFFF0F0F0F0F0F38444438AA
:1005100044FC4A4A4A347E02020606027E027E02F9
:1005200063554941633844443C04407E201E200604
:10053000027E020299A5E7A5991C2A492A1C4C7241
:1005400001724C304A4D4D303048784830BC625AC8
:10055000463D3E494949007E0101017E2A2A2A2A58
:100560002A44445F444440514A444040444A514034
:100570000000FF0103E080FF000008086B6B0836F5
:1005800012362436060F090F060000181800000066
:100590001010003040FF0101001F01011E00191D55
:1005A0001712003C3C3C3C00000000000001030727
:1005B0000F1F3F7F0080C0E0F0F8FCFE080B000238
:1005C00002020000090400000102020000052400EC
:1005D000100105240101010424020605240600017E
:1005E0000705810310004009040100020A00000011
:1005F00007050202400000070583024000000403D3
:10060000090412010002EF0201404F1B0D9200018C
:1006100001020301537061726B46756E004D4B6EA3
:100620006F625F312E343900DB40A4A62EAF20006C
:10063000A1C8D300408DAED580A8000060000000A6
:100640000000000000000000000000E000000000CA
:1006500000000000000000000001E00000000000B9
:10066000000000000000000001F000000000000099
:100670000000000000000003F00000000000000087
:1006800000000000000007F0000000000000000073
:10069000000000000007F80000000000000000005B
:1006A000000000000FF800000003C0007E00000101
:1006B000E0007F0FF800000003C000FE000001E032
:1006C00000FFEFF800000003C000FE000001E000A2
:1006D000FFFFF800000003C000F00000000F007FE3
:1006E000FE7FC0000003C000F00000000F003FFECE
:1006F0007FF83FF1FBCFFCFEF3BC3DEFE01FFE7F38
:10070000FF7FFBFFDFFEFEFFBC3DEFE01FC6FFFFEC
:100710007FFBFFDFFEFEFFBC3DEFE00FE3C7FE788F
:100720007BC3DE1EF0FFBC3DEF0007FF87FC787B3C
:10073000C3DE1EF0F83C3DEF0001FFFFF0007BC37D
:10074000C01EF0F03C3DEF0001F37FE03FFBC3CF64
:10075000FEF0F03C3DEF0003E33F807FFBC3DFFE94
:10076000F0F03C3DEF0007E73C00787BC3DE1EF075
:10077000F03C3DEF0007FFBE00787BC3DE1EF0F0CB
:100780003C3DEF0007FFFE00787BC3DE1EF0F03C2F
:100790003DEF000FFFFE007FFBFFDFFEF0F03FFDAF
:1007A000EFE00FFFFF007FFBFFDFFEF0F03FFDEF0C
:1007B000E00FF9FF003E79F9CF9EF0F01F3DE7E032
:1007C0001FF1FF0000000000000000000000001FFB
:1007D00080FF007FFFFFFFFFFFFFFFFFFFE01C0028
:1007E0007F007FFFFFFFFEB46D888D18E000001FC3
:1007F000007FFFFFFFFE95AD7DB577E000000F00A5
:100800007FFFFFFFFEA5AD9D8D19E0000006007F74
:10081000FFFFFFFEB5ADEDB57EE00000000000017A
:1008200080000000000000000000038000000000C5
:10083000000000000007C0000000000000000000F1
:1008400007C00000000000000000000FC000000012
:100850000000000000001FE0000000000000000099
:10086000001FE00000000000000000003FE000006A
:10087000000000000000003FF00000000000000049
:1008800000007FF0000000000000001FF87FF00073
:100890000000000000003FFE7FF0000000000000AC
:1008A000003FFF7FF0000000000000001FFFFBE0A2
:1008B000000000000000000FFFF9FFC00000000072
:1008C00000000FFFF9FFF800000000000007FFF133
:1008D000FFFF00000000000003FC73FFFF8000002A
:1008E00000000001FE3FFFFF80000000000000FF4D
:1008F0001E0FFF000000000000007FFE1FFC000034
:1009000000000000003FFFFFF800000000000000B2
:100910000FDFFFE0000000000000001F19FFC00013
:100920000000000000003F3CFF000000000000004D
:10093000007E7CF800000000000000007FFE7C00CC
:1009400000000000000000FFFFFC000000000000AD
:100950000000FFFFFE0000000000000000FFFFFE9F
:100960000000000000000001FFEFFE00000000009A
:10097000000001FFCFFE0000000000000003FF07A1
:10098000FE0000000000000003FC07FE0000000065
:1009900000000003F003FE000000000000000180E2
:1009A00000FE000000000000000000007E000000CB
:1009B000000000000000003E0000000000000000F9
:1009C00000000C000000000000078000FC00000395
:1009D000C0000000078001FC000003C00000000709
:1009E0008001FC000003C0000000078001E000005F
:1009F000001E000000078001E00000001E007FE3F1
:100A0000F79FF9FDE7787BDFC0FFF7FFBFFDFDFF34
:100A1000787BDFC0FFF7FFBFFDFDFF787BDFC0F015
:100A2000F787BC3DE1FF787BDE00F0F787BC3DE156
:100A3000F0787BDE0000F787803DE1E0787BDE0028
:100A40007FF7879FFDE1E0787BDE00FFF787BFFD42
:100A5000E1E0787BDE00F0F787BC3DE1E0787BDE0B
:100A600000F0F787BC3DE1E0787BDE00F0F787BC63
:100A70003DE1E0787BDE00FFF7FFBFFDE1E07FFBBB
:100A8000DFC0FFF7FFBFFDE1E07FFBDFC07CF3F3DA
:100A90009F3DE1E03E7BCFC0000000000000000071
:100AA000000000FFFFFFFFFFFFFFFFFFFFC0FFFF92
:100AB000FFFFFD68DB111A31C0FFFFFFFFFD2B5A5E
:100AC000FB6AEFC0FFFFFFFFFD4B5B3B1A33C0FF2C
:100AD000FFFFFFFD6B5BDB6AFDC0535344313330D6
:100AE0003620616C6C6F636174696F6E206661693A
:100AF0006C65640000000000240027002A002D001F
:100B00003000000000002300260029002C002F00E8
:100B10000000000200090F0000030401000C0000A7
:100B200000000000000000000000000000002200A3
:100B3000FF210408020110408040102040804080C6
:100B40000802040180402010020110801020404063
:100B50002000000000250028002B002E003100049A
:100B60000404040403040502020202040302020254
:100B700002060606060606040402020204043321E5
:100B8000652F11241FBECFEFDAE0DEBFCDBF13E02B
:100B9000A0E0B1E0EAECF6E602C005900D92A835BF
:100BA000B107D9F726E0A8E5B3E001C01D92A63C45
:100BB000B207E1F715E0C0ECD5E004C02197FE01D3
:100BC0000E94CF2FCF3BD107C9F70E94F6220C9489
:100BD00058330C9400004F925F926F927F928F92E5
:100BE0009F92AF92BF92FF9220916206309163066E
:100BF0008217930708F043C02B0166247724852EC3
:100C0000962EA72EBB24B82DA42F20916806F42C75
:100C1000222391F0E22FF0E0E49DD001E59DB00D9C
:100C2000F49DB00D1124FB2E289D40011124B92DF7
:100C3000249F90011124A32FE0916E062091690654
:100C400030916A0650916B06E51323C0FC01EE0F4C
:100C5000FF1F8E0F9F1F820F931FE0916B06E80FFF
:100C6000F92FF11DF082E0916C06E80FF92FF11DCC
:100C7000B08320916D06820F911DFC01A083FF902F
:100C8000BF90AF909F908F907F906F905F904F90AC
:100C90000895880F991F880F991F820F931FE80FDF
:100CA000F92FF11D1082D9CF8091560690915706E9
:100CB00020915606309157062330310521F01092CD
:100CC0005706109256060895F89480914E0690911A
:100CD0004F0620915206223001F59C0121703327E6
:100CE00030934F0620934E0678942091520624307C
:100CF000F9F495958795959587952091550622232A
:100D0000E1F02091530630915406232F332797FFAB
:100D100017C0C901809590950895243021F49C0155
:100D200023703327DDCF10924F0610924E06DCCF92
:100D3000223019F795958795E0CF30E020E0E7CF96
:100D4000009711F0C90101960895089581508F30E0
:100D500008F047C0E82FF0E0E055F94F0C94CF2F92
:100D6000CD06D106BF06C506C906F106F106F10695
:100D7000D406DA06DE06E206E806F106EC06809105
:100D800080008F77809380000895809180008F7D10
:100D9000F9CF80918000877FF5CF84B58F7784BDB0
:100DA000089584B58F7DFBCF809190008F778093DD
:100DB00090000895809190008F7DF9CF80919000F0
:100DC000877FF5CF8091C0008F778093C000089512
:100DD0008091C0008F7DF9CF8091C200877F809382
:100DE000C2000895CF93DF93282F30E0F901E05F30
:100DF000F44F8491F901EE5CF44FD491F901E15A7A
:100E0000F44FC491CC23A1F081110E94A606EC2FCF
:100E1000F0E0EE0FFF1FEE5FF44FA591B491EC915F
:100E2000ED2381E090E009F480E0DF91CF91089517
:100E300080E090E0FACF1F93CF93DF93282F30E02C
:100E4000F901E05FF44F8491F901EE5CF44FD49125
:100E5000F901E15AF44FC491CC23A9F0162F811166
:100E60000E94A606EC2FF0E0EE0FFF1FEF5AF44FA2
:100E7000A591B4918FB7F894EC91111108C0D09559
:100E8000DE23DC938FBFDF91CF911F910895DE2B7E
:100E9000F8CFCF93DF9390E0FC01EE5CF44F249108
:100EA000815A944FFC0184918823C9F090E0880F07
:100EB000991FFC01EC50F54FA591B491FC01EF5A3C
:100EC000F44FC591D49161110DC09FB7F8948C91E6
:100ED000209582238C938881282328839FBFDF91CC
:100EE000CF910895623051F49FB7F8943C91822FCE
:100EF000809583238C93E8812E2BEFCF8FB7F894C6
:100F0000EC912E2B2C938FBFEACF3FB7F8948091B2
:100F1000E6059091E705A091E805B091E90526B5B1
:100F2000A89B05C02F3F19F00196A11DB11D3FBF21
:100F3000BA2FA92F982F8827BC01CD01620F711DF0
:100F4000811D911D42E0660F771F881F991F4A95EA
:100F5000D1F708950F931F93CF93DF93CDB7DEB7EB
:100F600029970FB6F894DEBF0FBECDBF80916906FA
:100F700090916A06892B09F47CC00E948507009134
:100F80006F061091700620917106309172066017FD
:100F900071078207930740F460936F0670937006A1
:100FA000809371069093720600916F0610917006FF
:100FB0002091710630917206601B710B820B930BAE
:100FC0006C32714081059105C0F2F89480916406FD
:100FD000909165069A838983E0916906F0916A068B
:100FE000DF0111968081898790916006E0917306F8
:100FF000F091740680917506992309F445C090819B
:10100000982B98879081809589238F838F818C83FB
:1010100088E08B8358856F8149853B812C8189814C
:101020009A81508347FD252F3A952083262F39F04A
:10103000441F00C000006083000000C0F2CF38E011
:101040004D9160830000019761F7F0937406E0937F
:10105000730649873B832C839A83898378940E9403
:10106000850760936F067093700680937106909366
:10107000720629960FB6F894DEBF0FBECDBFDF9182
:10108000CF911F910F9108959081982B988790810F
:10109000809589238F838F818E8388E08D83588507
:1010A0006F8149853D812E8189819A81508347FDD9
:1010B000252F00C000C0208300C000C000C000C0B9
:1010C00000C060830000262F3A9541F0441F0000C5
:1010D00000C000C000C000C000C0E8CF38E04D91A3
:1010E00000C0608300C0019709F7F0937406E09395
:1010F000730649873D832E83AFCF8F929F92AF9225
:10110000BF92CF92DF92EF92FF924B015C010E945F
:1011100085076B017C010E9485076C197D098E098A
:101120009F09683E734081059105A8F321E0821A6A
:101130009108A108B10888EEC80E83E0D81EE11C12
:10114000F11C81149104A104B10429F7FF90EF90E0
:10115000DF90CF90BF90AF909F908F9008952FB762
:10116000F8946091E2057091E3058091E405909117
:10117000E5052FBF0895089508958093E9008091B3
:10118000F200882319F08AE38093E80008954091E3
:10119000160450911704209114043091150442173D
:1011A0005307B4F49091E8009570E1F39091E80052
:1011B00092FD19C08093F10080911604909117045C
:1011C00001968F739927892B19F48EEF8093E8008D
:1011D00080911604909117040196909317048093C0
:1011E000160481E0089580E00895DF92EF92FF9267
:1011F0000F931F93CF93DF93D82E8A01EB017B01CE
:10120000E40EF51ECE15DF0559F0D7FE12C0FE0123
:1012100084910E94C70821968111F4CF0FEF1FEF30
:10122000C801DF91CF911F910F91FF90EF90DF9058
:1012300008958881EECF2FB7F89487708093E900E6
:101240009091E800892F807295FF04C09091F20080
:1012500080E4891B2FBF08957F928F929F92AF9257
:10126000BF92CF92DF92EF92FF920F931F93CF9393
:10127000DF93C82E8B017A0180911D04811110C06B
:101280008FEF9FEFDF91CF911F910F91FF90EF9024
:10129000DF90CF90BF90AF909F908F907F900895F8
:1012A00080911B0480FF05C08091E00082608093E4
:1012B000E000CE2DDF2DD12C8AEFB82E8C2D87703B
:1012C000982E8C2D8072882E8C2D8074782E9AE327
:1012D000A92E209719F4DD2009F452C08C2D0E940C
:1012E0001B0981110AC0BA94BB2051F261E070E081
:1012F00080E090E00E947D08ECCF8C171D0611F075
:101300000CF08C2F9FB7F8949092E9002091E800A0
:1013100025FD02C09FBFDDCF282F30E0C21BD30BBD
:10132000882029F08150A0F01092F100FBCFF80145
:10133000C7FC0AC0815050F041914093F100FACFB0
:1013400044914093F10031968150D0F7020F131F62
:10135000DD2021F0A092E800D12CDCCF8091E800C4
:1013600085FD07C0A092E800DD24D394209791F278
:10137000F3CF209779F6772069F2A092E800CACFE0
:101380005D9884E680931A04C7017CCF90911D0478
:10139000992319F13FB7F89487708093E900809101
:1013A000F20090E0481759070CF4CA01282FFB01FE
:1013B00054E6215038F02898509319044091F100D8
:1013C0004193F7CF009739F02091F200211103C02B
:1013D0002BE62093E8003FBF08958FEF9FEF08951D
:1013E0009FB7F89487708093E9008091F2009FBFC7
:1013F0000895615030F02091F100FC0120830196A6
:10140000F8CF289884E6809319040895AF92BF928C
:10141000CF92DF92EF92FF920F931F93CF93DF93C0
:101420006C017B018B01040F151FEB015E01AE18EF
:10143000BF08C017D10759F06991D601ED91FC9111
:101440000190F081E02DC6010995892B79F7C5013E
:10145000DF91CF911F910F91FF90EF90DF90CF9090
:10146000BF90AF90089580910C0481110DC082E06F
:101470008093080484E08093090410920B04109276
:101480000A0481E080930C0488E094E008950F93AF
:101490001F93CF93DF931F92CDB7DEB782E089838E
:1014A00042E450E06CEB75E080E80E94F5080E9491
:1014B000330ADC0112960D911C910115110589F07A
:1014C000D801ED91FC910280F381E02DBE016F5FA8
:1014D0007F4FC801099597FD04C0F801008511856B
:1014E000ECCF89810F90DF91CF911F910F910895DB
:1014F000CF93DF93EC0180910B01882331F083E0DF
:101500000E942C091816190634F081E090E09B83A4
:101510008A8380E090E0DF91CF910895CF93DF93AD
:101520001F92CDB7DEB76983DC01ED91FC9102809B
:10153000F381E02D41E050E0BE016F5F7F4F0995E0
:101540000F90DF91CF91089583E00C94BD0883E064
:101550000E941B0990E00895CF93DF931F92CDB7AF
:10156000DEB7FC018485958597FD08C02FEF3FEF1E
:10157000358724870F90DF91CF91089541E050E0A7
:10158000BE016F5F7F4F82E00E94C609019719F488
:10159000898190E0EFCF8FEF9FEFECCF0F931F93F8
:1015A000CF93DF931F92CDB7DEB78C01FC0184850A
:1015B000958597FF0FC041E050E0BE016F5F7F4F00
:1015C00082E00E94C609019771F4898190E0F801D8
:1015D00095878487F801848595850F90DF91CF9159
:1015E0001F910F9108958FEF9FEFF1CFFC0184853C
:1015F000958597FD06C082E00E94F00990E0019673
:10160000089582E00E94F00990E00895EF92FF9221
:101610000F931F93CF93DF93EC01EC80FD806E1549
:101620007F050CF070C057FF04C0240F351F50E039
:1016300040E08E819F81FA01E20FF31F8E179F0712
:101640001CF49C01241B350B121613060CF05BC016
:10165000922F842F8695869586958E9DD0018F9D9D
:10166000B00D11246A0F7B1FAF8DB8A1A60FB71F55
:10167000477049F188E0841B482F682F70E0FB0118
:10168000EC54FA4FE491281708F063C0621B71090B
:101690002FEF30E002C0359527956A95E2F7E223F7
:1016A0000130110539F0B0F10230110561F58C916E
:1016B000E82702C08C91E82BEC93941720F12C8141
:1016C0003D81A20FB31FE92FE41BE83078F0023010
:1016D000110521F58E2F9C9190959C932C813D8135
:1016E000A20FB31F88508830B0F7E770EE2359F08F
:1016F000F0E0E455FA4FE49101301105F9F010F1F2
:101700000230110519F1DF91CF911F910F91FF90D8
:10171000EF900895E0958C91E823CECF81E00115FC
:10172000110509F480E081959E2F8C932C813D81D9
:10173000A20FB31F98509830C0F7D7CF8C91E82BE9
:10174000EC93E1CFE0958C91E823FACF8C91E827D8
:10175000F7CF0130110509F4ADCFE0F202301105E9
:1017600009F4A5CFAE0DBF1DAECF0F931F93CF933E
:10177000DF9377FF04C0260F371F70E060E0DC01C5
:101780001496CD91DC91FB01E20FF31FCE17DF071A
:101790001CF49E01261B370B121613064CF5FA019A
:1017A00057FD3796A3E0F595E795AA95E1F7EC9FED
:1017B000D001ED9FB00DFC9FB00D11246A0F7B1F6F
:1017C000DC015F96ED91FC91E60FF71F47705527FE
:1017D00081E090E001C0880F4A95EAF7482F013078
:1017E000110559F0A8F02E0F3F1F02301105E1F04E
:1017F000DF91CF911F910F9108952E0F3F1FE21798
:10180000F307B1F38191DF011197842B8C93F7CF0C
:1018100080952E0F3F1FE217F30751F39191DF01DF
:10182000119798239C93F7CFE217F30709F381915F
:10183000DF01119784278C93F7CF0F931F93FA0141
:10184000DC0156964C9156974230E9F04330A1F1B5
:10185000413061F514964D915C91DA01AE1BBF0BDE
:10186000FD01E21BF30B77FD0BC0DC0116964D91D9
:101870005C916417750724F4AB01BF010E94B50B9E
:101880001F910F91089514964D915C91DA01A61B5A
:10189000B70BBD0161507109DC0116964D915C9149
:1018A000DA01AE1BBF0BFD01E21BF30B77FDE8CFA6
:1018B000AF010E94060BE4CF16964D915C91DA01C0
:1018C000A61BB70BBD0161507109CDCF0F931F93BC
:1018D000FA01DC0156964C9156974230A9F04330FC
:1018E00091F1413019F514964D915C91DA01AE1BDE
:1018F000BF0BFD013197F7FD04C0AB01BF010E9492
:10190000060B1F910F91089514964D915C91DA0189
:10191000A61BB70BBD01DC0116964D915C91DA0157
:10192000AE1BBF0BFD013197621B730BF7FDE9CFB7
:10193000DC0116964D915C91E417F50714F7AF01A1
:101940000E94B50BDECF16964D915C91DA01A61B75
:10195000B70BBD01621B730BCECFFC0177FD64C0DA
:1019600080859185681779070CF05EC057FD5CC0D3
:1019700082859385481759070CF056C086898230B6
:10198000B1F0833029F1813041F484819581841B49
:10199000950BAB01BC01615071092130310509F192
:1019A00008F443C02230310509F463C008958481EE
:1019B0009581DC01A61BB70BBD01615071098681C1
:1019C0009781DC01A41BB50BAD0141505109E5CF56
:1019D00086819781861B970BBA01AC014150510952
:1019E000DCCFCA0157FD0796A3E095958795AA9588
:1019F000E1F7A481B5818A9F90018B9F300D9A9F5A
:101A0000300D1124620F731F078CF0A1E02DE60F3B
:101A1000F71F4770552721E030E001C0220F4A959B
:101A2000EAF78081822B80830895CA0157FD0796CB
:101A300033E0959587953A95E1F7A481B5818A9F22
:101A400090018B9F300D9A9F300D1124620F731FF0
:101A5000078CF0A1E02DE60FF71F4770552781E0B6
:101A600090E001C0880F4A95EAF78095908189231C
:101A7000DACFCA0157FD079623E0959587952A95F9
:101A8000E1F7A481B5818A9F90018B9F300D9A9FC9
:101A9000300D1124620F731F078CF0A1E02DE60FAB
:101AA000F71F4770552721E030E001C0220F4A950B
:101AB000EAF780818227B7CF08958EBD00000DB46C
:101AC00007FEFDCF8EB508958CBD9DBD0895089588
:101AD0000895FC016370668B84819581268137812E
:101AE000613039F0633029F091878087338722870E
:101AF0000895318720879387828708952F923F9298
:101B00004F925F926F927F928F929F92AF92BF920D
:101B1000CF92DF92EF92FF920F931F93CF93DF93B9
:101B2000CDB7DEB76A970FB6F894DEBF0FBECDBF54
:101B30009A8F898F7A8369834A01D22E18870F83FF
:101B40003701BC2CDC0159962D913C915A972115F7
:101B5000310509F015C118968D919C911997681758
:101B600079070CF0D7C11A968D919C9148175907A7
:101B70000CF0D0C14C2C512CB6E0CB9E600D711DE9
:101B800011247C876B87161617060CF0C3C1EA2D4B
:101B9000F0E0FA87E98793E0EE0FFF1F9A95E1F7EF
:101BA000F88BEF87CF01840F951F181619060CF0DC
:101BB000B1C1A98DBA8D58968C91811104C0BFEA2C
:101BC000BD1508F4D394A98DBA8DED91FC911197B0
:101BD0000284F385E02DCD010995B5E0DB9EC001BF
:101BE0001124E981FA81FC83EB83312C212C9C01A7
:101BF00024553F4F388F2F8B4A2D50E05E8B4D8BF5
:101C0000EF89F88DE20DF31D44919E828D82D12CD7
:101C1000C12C69817A81620D731D7A8B698B842F47
:101C200090E09C8B8B8BE98DFA8DA081B18140FF78
:101C300082C0F1E0BF126FC0AF126DC01C96ED9173
:101C4000FC912F813885A4014C0D5D1D69897A892D
:101C5000898D9A8D0995EB89FC89F595E7954E2F2D
:101C60005FEFC51AD50A6D817E818D899E89680FC7
:101C7000791F7E836D8398E0C916D10481F6AFEF9A
:101C80002A1A3A0AEB81FC81E40DF51DFC83EB83F3
:101C9000F5E02F16310409F0B3CF2F8138852615D2
:101CA0003705B9F0A98DBA8DED91FC91B1E0BB1269
:101CB00057C0AB1255C069817A816B5F7F4F008836
:101CC000F189E02D830128E030E0A401898D9A8D0F
:101CD0000995A98DBA8DED91FC9111970688F78928
:101CE000E02DCD016A960FB6F894DEBF0FBECDBFD2
:101CF000DF91CF911F910F91FF90EF90DF90CF90E8
:101D0000BF90AF909F908F907F906F905F904F901B
:101D10003F902F9009941E96ED91FC91EF80F884EE
:101D200009851A8592014D815E816B817C81898D47
:101D30009A8D099590CF2F8138852615370509F49E
:101D40008ACF31E0B31207C0A31205C01C96ED91F3
:101D5000FC91930178CF1E96ED91FC917301E0CF39
:101D60006B857C85641975090684F785E02D730100
:101D70000F8518899201A401898D9A8D0995A9CFA3
:101D8000F90134969491329745915491D91AB7E05C
:101D9000DB9E400D511D1124F901259134913C8B9E
:101DA0002B8BFA0125903490FA013296749031967B
:101DB0003491398B329664903196449041E04C15C1
:101DC00018F04A1508F07FC0662D062C000C770B22
:101DD0007C836B83842D042C000C990B9E838D8354
:101DE000A98DBA8DED91FC9111970284F385E02DB8
:101DF000CD010995512CD12CC12CEA2DF0E0FA87A8
:101E0000E9872B2D30E03C872B87A401440D511D21
:101E100047FC5A95588F4F8B69817A81660D711DE9
:101E200067FC7A957E876D877989C71608F051CF50
:101E30002C2D30E04D815E81420F531FA985BA855C
:101E40004A9FC0014B9F900D5A9F900D1124FC0199
:101E5000E80DF91DF88BEF87852D612C4F89588D82
:101E6000420F531F5E8B4D8B671408F050C0442403
:101E70004394480E877041F4C1010196EB89FC89B7
:101E8000E20DF31DD4901C01D7FE19C0A98DBA8DA7
:101E9000ED91FC91662D70E0B1E0BB1219C0AB1260
:101EA00017C02D853E85620F731F0484F585E02DD4
:101EB0002F8138854D895E89898D9A8D0995DD0C34
:101EC0006394842DD1CF1E821D821C821B8288CFF9
:101ED0004B815C81640F751FAB85BC856A9FC00117
:101EE0006B9F900D7A9F900D112469817A81680F04
:101EF000791F0684F785E02DEF80F88409851A851F
:101F00009D014F855889898D9A8D0995D8CF570C99
:101F1000C3948ACF6A960FB6F894DEBF0FBECDBFCA
:101F2000DF91CF911F910F91FF90EF90DF90CF90B5
:101F3000BF90AF909F908F907F906F905F904F90E9
:101F40003F902F9008958F929F92AF92CF92EF92F1
:101F5000FF920F931F93CF93DF93EC01262F898D70
:101F60009A8D009709F051C06A30D1F41D861C8605
:101F70008D8948E0849F900111248E859F85820F72
:101F8000931F9F878E8781E090E0DF91CF911F9113
:101F90000F91FF90EF90CF90AF909F908F9008950A
:101FA0006D3089F3CC88AD888F898823C1F08C850A
:101FB0009D8536E0C39E800D911D1124488559856D
:101FC0004817590764F44E855F851D861C8638E0E6
:101FD000A39EC0011124840F951F9F878E87EA88D6
:101FE000FB88088919894E855F856C857D85CE01C2
:101FF0000E947E0D2C898C859D8546E0249F800D56
:10200000911D11249D878C87BECF6A3069F41D868F
:102010001C86FC013896E4912D898E859F85E29F70
:10202000800D911D1124ADCF6D3009F4ACCFFC01B2
:1020300034963491631708F4A6CF3296E491E617EC
:1020400008F4A1CFFC01329685909490462F431B53
:10205000342F47E0349F800C911C1124F4013296F8
:1020600034913196E4913323A9F1EE2399F1CC8890
:10207000F4013596E491AD884F89442301F10E2E89
:10208000000CFF0BE30FF11DCE9EA001CF9E500D63
:1020900011246C857D85460F571F688579856417E7
:1020A00075076CF44E855F851D861C86FC0138968D
:1020B000E491AE9E400D511D11245F874E87EA8842
:1020C000FB88088919894E855F856C857D85CE01E1
:1020D0000E947E0DF4013496E4912C898C859D85B7
:1020E000E29F800D911D11248DCF6F927F928F9270
:1020F0009F92AF92BF92CF92DF92EF92FF920F9397
:102100001F93CF93DF93EC016B015A013901480112
:10211000E881F9810284F385E02D0995E881F98150
:102120000288F389E02D87019301A501B601CE0154
:102130000995A501480D591D41505109E881F981C2
:102140000288F389E02D9301B601CE010995E8815B
:10215000F9810088F189E02D9401A501B601CE0135
:102160000995C60CD71CB60161507109E881F98147
:102170000088F189E02D9401A501CE010995E8813F
:10218000F9810688F789E02DCE01DF91CF911F916B
:102190000F91FF90EF90DF90CF90BF90AF909F9006
:1021A0008F907F906F9009946F927F928F929F9201
:1021B000AF92BF92CF92DF92EF92FF920F931F9355
:1021C000CF93DF935C01EB016A014901380187017C
:1021D000DC01ED91FC916217730719F56416750621
:1021E0002CF0962D872D3A01C92ED82E960126194E
:1021F00037092F5F3F4F048CF58DE02DA301BE0101
:10220000C5010995DF91CF911F910F91FF90EF903C
:10221000DF90CF90BF90AF909F908F907F906F9006
:1022200008954615570591F42617370724F0892D90
:102230004B01C22FD82F9E01281939092F5F3F4F1C
:10224000068CF78DE02DA601B401DACF0284F38568
:10225000E02D0995D501ED91FC910488F589E02DDB
:1022600083019401A601BE01C5010995D501ED9137
:10227000FC910688F789E02DC501DF91CF911F9170
:102280000F91FF90EF90DF90CF90BF90AF909F9015
:102290008F907F906F900994EF92FF920F931F930E
:1022A000DC011A960D911C911B9718962D913C916B
:1022B0001997ED91FC9100A0F1A1E02D7B0150E078
:1022C00040E070E060E009951F910F91FF90EF9062
:1022D00008954F925F926F927F928F929F92AF92EA
:1022E000BF92CF92DF92EF92FF920F931F93CF9303
:1022F000DF936C012B015A0139014801DC01ED919A
:10230000FC910284F385E02D0995E201640C751CB3
:10231000D601ED91FC91C615D7055CF40088F189D2
:10232000E02D87019401A501BE01C6010995219602
:10233000EFCF0688F789E02DC601DF91CF911F917D
:102340000F91FF90EF90DF90CF90BF90AF909F9054
:102350008F907F906F905F904F9009948F929F9293
:10236000AF92BF92CF92DF92EF92FF920F931F93A3
:10237000CF93DF93EC015B014A016901E881F981A8
:102380000284F385E02D099595012C0D3D1D21500A
:102390003109E881F9810488F589E02D780184010B
:1023A000A401B501CE010995E881F9810688F78974
:1023B000E02DCE01DF91CF911F910F91FF90EF9013
:1023C000DF90CF90BF90AF909F908F9009948F92A5
:1023D0009F92AF92BF92CF92DF92EF92FF920F93B4
:1023E0001F93CF93DF93EC015B014A0169017801F0
:1023F000E881F9810284F385E02D0995C80CD91C88
:10240000860101501109E881F9810488F589E02DE0
:102410009501A401B501CE010995E881F9810688ED
:10242000F789E02DCE01DF91CF911F910F91FF90A1
:10243000EF90DF90CF90BF90AF909F908F900994D6
:10244000EF92FF920F931F93DC01ED91FC9100A09E
:10245000F1A1E02D09951F910F91FF90EF90089544
:102460000F931F93DC01ED91FC91068CF78DE02D0D
:1024700009951F910F9108950F931F93DC01ED9122
:10248000FC91048CF58DE02D09951F910F91089515
:10249000DC01ED91FC910084F185E02D09943F92DF
:1024A0004F925F926F927F928F929F92AF92BF9264
:1024B000CF92DF92EF92FF920F931F93CF93DF9310
:1024C0005C017B014A016901390187E0680E711CDA
:1024D00093E0759467949A95E1F72B01400E511E95
:1024E00010E000E0312CD0E0C0E0CE0187709927E9
:1024F000330C892B59F4FE0183E0F595E7958A9515
:10250000E1F7E00FF11FE80DF91D349037FE0AC026
:1025100021E030E0A701B5016C0F7D1F82E896E055
:102520000E9448122196CC16DD06F9F68FEFE81AC4
:10253000F80A060D171DE414F504A9F6DF91CF91F2
:102540001F910F91FF90EF90DF90CF90BF90AF90D1
:102550009F908F907F906F905F904F903F900895E5
:102560002F923F924F925F926F927F928F929F92A3
:10257000AF92BF92CF92DF92EF92FF920F931F9391
:10258000CF93DF9300D000D000D0CDB7DEB73C01B1
:102590006A013E832D83FC82EB825801A41AB50A9E
:1025A000B7FE03C0B194A194B1088D809E80861AB5
:1025B000970A97FE03C09194819491088A149B0412
:1025C0005CF0902F812F0D811E819D838E839C2D29
:1025D0008D2D6B01692F782F0C151D055CF09D81E9
:1025E0008E817E836D83692F782F902F812F8601B6
:1025F000C92ED82E1601201A310A2B012D813E81B9
:10260000421A530A57FE03C0519441945108710174
:1026100037FE03C03FEFE31AF30AF594E7948D8188
:102620009E81861797075CF5A1E0B0E0BA83A98385
:10263000C016D1064CF1D301ED91FC910484F585CF
:10264000E02D2B813C81A8016D817E818A149B0441
:102650001CF04D815E81B801C3010995E418F508AD
:10266000F7FE0AC02D813E8189819A81280F391F8A
:102670003E832D83E20CF31C0F5F1F4FD9CF2FEF4A
:102680003FEF3A832983D4CF26960FB6F894DEBF66
:102690000FBECDBFDF91CF911F910F91FF90EF90B3
:1026A000DF90CF90BF90AF909F908F907F906F9072
:1026B0005F904F903F902F90089508952091BE0312
:1026C000260F3327331F21323105ECF42091E2032A
:1026D000FC0190E080E0243069F082E00895A09150
:1026E000BE032191AC0142565C4FA40FB52FB11D22
:1026F0002C930196861798F38091BE03680F609320
:10270000BE0380E0089581E008951092E20381E025
:102710008093E4031092E30361E082E00E941B07D0
:1027200061E083E00E941B07E9EBF0E080818E7F8F
:10273000808380818D7F808388E48093B80085E4E6
:102740008093BC000895CF93DF9391E090939D0315
:102750008823B9F0C091B800D091BA008091BC0034
:102760008A7B8093BC0060E082E00E941B0760E0EF
:1027700083E00E941B070E948513D093BA00C09388
:10278000B800DF91CF910895E09124048091230453
:10279000E81730F4F0E0E858FC4F808190E00895AD
:1027A0008FEF9FEF089590912404809123042FEFE1
:1027B0003FEF981748F4E92FF0E0E858FC4F2081EC
:1027C00030E09F5F90932404C90108958091230411
:1027D00090912404891B990B0895CF92DF92EF9278
:1027E000FF920F931F93CF93DF937C01CB018A015C
:1027F0002091ED05222389F0EB016B01C40ED51E5B
:10280000CC15DD0569F06991D701ED91FC9101903E
:10281000F081E02DC7010995F3CF642F0E945E136C
:10282000C801DF91CF911F910F91FF90EF90DF9042
:10283000CF900895CF93DF931F92CDB7DEB7698312
:102840002091ED052223F9F02091EA05203258F07D
:1028500021E030E0FC013383228390E080E00F90A0
:10286000DF91CF9108958091EB05E82FF0E0E85AD1
:10287000FC4F998190838F5F8093EB058093EA05ED
:1028800081E090E0ECCF61E0CE0101960E945E1302
:10289000F7CFCF92DF92EF92FF920F931F93CF93D8
:1028A000DF93D091EA0581E0D13208F09CC0C0915D
:1028B000EC050E9485076B017C018091E203811188
:1028C0006CC082E08093E20381E08093E4038FEFA9
:1028D0008093E10310920604D0930504A8E5B3E0C9
:1028E000E5EEF3E080E0D8138DC0109207048091EC
:1028F0000704CC0FC82BC09307048091E3038130F9
:1029000009F084C01092E3030E9485076B017C01EB
:10291000809107048093BB008091990390919A0362
:10292000A0919B03B0919C03892B8A2B8B2BA1F048
:102930000E9485070091990310919A0320919B03AF
:1029400030919C036C197D098E099F0906171707A2
:102950002807390708F442C08091BC0083FDD8CF16
:1029600085EC8093BC000E9485076B017C018091FF
:10297000E203823009F44CC08091E1038F3F09F4F7
:1029800069C08091E103803209F466C08091E1035F
:10299000803309F463C084E026C08091990390914C
:1029A0009A03A0919B03B0919C03892B8A2B8B2BBC
:1029B00009F483CF0E9485070091990310919A032F
:1029C00020919B0330919C036C197D098E099F090E
:1029D000061717072807390708F06FCF809198036B
:1029E0000E94A31385E01092EB051092EA05109265
:1029F000ED05DF91CF911F910F91FF90EF90DF9048
:102A0000CF9008959D9191938F5F6DCF85EEA9CF63
:102A10008091990390919A03A0919B03B0919C039C
:102A2000892B8A2B8B2B09F4A2CF0E94850700915A
:102A3000990310919A0320919B0330919C036C1988
:102A40007D098E099F09061717072807390708F01F
:102A50008ECFC4CF80E0C7CF82E0C5CF83E0C3CFA5
:102A6000EF92FF920F931F93CF93DF937C01C62FBA
:102A700080919F069091A006009709F459C020917B
:102A8000A30631E03093ED052093EC051092EB05A1
:102A90001092EA05DC01ED91FC910190F081E02DAE
:102AA00060E009958701EE24E394F12CD1E0C15058
:102AB00080919F069091A006CF3F91F1B0E2EB1676
:102AC000F104D8F00E94491480919F069091A006CD
:102AD0002091A306D093ED052093EC051092EB0511
:102AE0001092EA05DC01ED91FC910190F081E02D5E
:102AF00060E00995EE24E394F12C80919F0690917B
:102B0000A006F8016491DC01ED91FC910190F08147
:102B1000E02D0995BFEFEB1AFB0A0F5F1F4FC7CFE0
:102B2000DF91CF911F910F91FF90EF900C9449147A
:102B3000E091AF06F091B00690818091B506809546
:102B4000892380838701C15008F438C0F80184913B
:102B500020919D0630919E06232B29F00E945D0D49
:102B60000F5F1F4FF0CF28E030E040E8E091AB0668
:102B7000F091AC069091B306582F5423D9F05081B0
:102B8000952B9083E091AD06F091AE069081509127
:102B9000B406952B9083E091AD06F091AE0650817E
:102BA0009091B406909595239083469521503109D4
:102BB000E9F6D6CF508190959523E3CFDF91CF9161
:102BC0001F910F91FF90EF9008951F93CF93DF9384
:102BD000EC018D8D9E8D009721F1162F29A131E0FA
:102BE0003093ED052093EC051092EB051092EA0569
:102BF000DC01ED91FC910190F081E02D60E0099500
:102C00008D8D9E8DDC01ED91FC910190F081E02D88
:102C1000612F09958D8D9E8DDF91CF911F910C9421
:102C20004914ADA5BEA59C918BA9809589238C9351
:102C30008B8D9C8D892B31F0862FDF91CF911F9149
:102C40000C945D0D28E030E080E8A9A5BAA599A90B
:102C5000462F4823C1F04C91942B9C93ABA5BCA567
:102C60009C914AA9942B9C93ABA5BCA54C919AA985
:102C7000909594239C9386952150310931F7DF91EB
:102C8000CF911F9108954C9190959423E6CFDF92B8
:102C9000EF92FF920F931F93CF93DF9380919F0644
:102CA0009091A006892B09F4A5C02091B706309118
:102CB000B8064091B9065091BA0660E074E284EF1C
:102CC00090E00E94AD2F20513109410951095695DC
:102CD0004795379527952093B80064E08EE29BE0F6
:102CE0000E94301580918606909187068034910568
:102CF00009F097C060E282E896E00E94E5156091D5
:102D00008606615E82E896E00E94E51520918806BD
:102D100030918906C901079697FD079633E095958E
:102D200087953A95E1F72091860630918706829F34
:102D30008001839F100D929F100D1124C091A10658
:102D4000D091A20680919F069091A0060C0F1D1FA6
:102D5000009709F498C02091A30631E03093ED0567
:102D60002093EC051092EB051092EA05DC01ED9141
:102D7000FC910190F081E02D60E40995EE24E3944C
:102D8000F12CDD24D39480919F069091A0060C171E
:102D90001D0709F44FC0B0E2EB16F104D8F00E9411
:102DA000491480919F069091A0062091A306D0928D
:102DB000ED052093EC051092EB051092EA05DC017D
:102DC000ED91FC910190F081E02D60E40995EE24F5
:102DD000E394F12C80919F069091A0066991DC010B
:102DE000ED91FC910190F081E02D0995BFEFEB1A78
:102DF000FB0AC9CF80919D0690919E06892B31F0E8
:102E00008091C0069091C1060E94640DE091B106C8
:102E1000F091B20690818091B606809589238083D7
:102E20005CCF60E082E896E00E94E515609186063E
:102E3000615068CF0E94491480919F069091A0062E
:102E4000892B09F461C02091BB063091BC064091EA
:102E5000BD065091BE0660E074E284EF90E00E94EF
:102E6000AD2F2051310941095109569547953795A4
:102E700027952093B800DF91CF911F910F91FF907C
:102E8000EF90DF900895E091AF06F091B006808159
:102E90009091B506892B80830C171D0769F28991E3
:102EA00020919D0630919E06232B19F00E945D0D06
:102EB000F3CF28E030E040E8E091AB06F091AC06BB
:102EC0009091B306582F5423D9F05081952B9083BD
:102ED000E091AD06F091AE0690815091B406952B2D
:102EE0009083E091AD06F091AE0650819091B406CA
:102EF000909595239083469521503109E9F6CCCFE2
:102F0000508190959523E3CFE091B106F091B20600
:102F100080819091B606892B8083ADCF1F93CF938C
:102F2000DF93EC01162F8D8D9E8D892BB1F12DA98C
:102F30003EA94FA958AD60E074E284EF90E00E9492
:102F4000AD2F2051310941095109569547953795C3
:102F500027952093B80066EA111167EACE010E9416
:102F6000E5158D8D9E8D892B41F129AD3AAD4BAD87
:102F70005CAD60E074E284EF90E00E94AD2F2051E0
:102F80003109410951095695479537952795209361
:102F9000B800DF91CF911F9108958B8D9C8D892B67
:102FA00021F08EAD9FAD0E94640DEFA5F8A9908130
:102FB0008CA9809589238083CECFEFA5F8A9808145
:102FC0009CA9892B8083E5CF90E080E0089590E074
:102FD00080E0089580E008950F931F93CF93DF93CF
:102FE000CDB7DEB7C456D1090FB6F894DEBF0FBE19
:102FF000CDBFFC01DB019C919E5F9C939E01295FEC
:103000003F4F8AE5D9011D928A95E9F788E08983C7
:103010008BE08A8322E02C8391E09D839E8339E0BC
:10302000398764E06A879E879F873A8B44E24B8B9F
:103030009C8BA0E0B1E0BE8BAD8B09E010E0188F57
:103040000F8B998F3B8F6C8F2F8F98A353E059A3D1
:1030500087E08CA34DA39EA3B8A7AFA3A1E4B0E0E3
:10306000BAA7A9A786E08BA74CA72DA79EA79FA7C5
:1030700089AB4AAB2BAB2CAB2DAB3FAB48AF59AFB9
:103080009AAF5BAF9CAF2DAF9EAF21963FAF21971C
:1030900022964FAF229723965FAF239724962FAFA8
:1030A000249725966FAF259726969FAF269727964C
:1030B0009FAF279728969FAF28972A963FAF2A97CA
:1030C00045E02B964FAF2B972D962FAF2D9760E4B1
:1030D00070E02F967FAF6EAF2F9763964FAF6397D9
:1030E00085E264968FAF649765969FAF6597669605
:1030F0009FAF669767969FAF679768963FAF689751
:1031000069964FAF69976B962FAF6B976D967FAFB0
:103110006EAF6D97A1964FAFA197A2968FAFA29772
:10312000A3969FAFA397A4969FAFA497A5965FAFD2
:10313000A59792819B839B879F5F9A8F9D8F8381A9
:103140002C968FAF2C978F5F80686A968FAF6A97A7
:1031500044E650E0BE016F5F7F4F80E00E94F508BB
:10316000CC59DF4F0FB6F894DEBF0FBECDBFDF9155
:10317000CF911F910F910895CF92DF92EF92FF921E
:103180000F931F93CF93DF93181619060CF066C0A8
:103190008130910581F18F3791050CF062C0019764
:1031A0002AE0289FB001299F700D1124072E000CE2
:1031B000880B990B0E94053120E030E04CEF52E47F
:1031C0000E945B306B017C0120E030E0A9010E948D
:1031D000B53120E030E040E05FE387FD3AC0C70151
:1031E000B6010E94EA2F0E94CD30CB010196D0E0BB
:1031F000C0E097FD05C0EC010D9714F0CCE0D0E0E5
:1032000010E000E040E050E0BA010C171D077CF42C
:10321000809114014091150150E070E060E0762F3C
:10322000652F542F4427682B80911601482BC80125
:103230000E94EB050F5F1F4F0C30110519F7DF914E
:10324000CF911F910F91FF90EF90DF90CF900C9452
:10325000AA07C701B6010E94E92FC5CF90E080E020
:10326000CACF8CE090E0C7CFCF93DF9300D000D0DF
:10327000CDB7DEB71816190684F58131910514F023
:1032800080E190E0815077FD2AC06038710514F02C
:103290006FE770E057FD25C04038510514F04FE747
:1032A00050E09BE09983806B8A836B834C83809191
:1032B000410644E050E0BE016F5F7F4F8F5F0E9488
:1032C0002C09809141068F5F0E94BD080F900F90DE
:1032D0000F900F90DF91CF91089580E0D4CF60E000
:1032E000D9CF40E0DECFCF92DF92EF92FF920F93E3
:1032F0001F93CF93DF930E94AF086B017C018091F5
:103300005506882399F080915306909154060297B0
:1033100090935406809353068091530690915406DF
:1033200097FF04C0109254061092530680914A06EB
:103330000E94F20620914D06C3E02817190609F0F5
:10334000C0E080914B060E94F20620914D0628179E
:10335000190611F481E0C82780915006909151061A
:103360008C1B80FFA4C00C2E000CDD0BD0935106EB
:10337000C093500620914E0630914F068270082E61
:10338000000C990B0197820F931F90934F06809327
:103390004E0681E090915506992391F0882381F0A3
:1033A0008091530690915406883E9B4048F480914A
:1033B0005306909154064996909354068093530671
:1033C00080914C06882309F469C040915C065091B5
:1033D0005D0660915E0670915F0697018601041B91
:1033E000150B260B370BB901A8014A3051056105B1
:1033F000710508F453C0C0925C06D0925D06E0925D
:103400005E06F0925F060E94F20620914D06281794
:10341000190691F48091590690915A06019690935D
:103420005A06809359068937910530F083E090E081
:10343000909357068093560680914C060E94F206A0
:1034400020914D0631E0232728171906C1F48091F9
:10345000590690915A06892B71F0809156069091E9
:103460005706039731F584E090E0909357068093D8
:10347000560610925B0610925A06109259068091D9
:103480005B06882359F0825080935B06811106C049
:1034900085E090E09093570680935606DF91CF9198
:1034A0001F910F91FF90EF90DF90CF90089580E0F3
:1034B00071CF80915B06823028F08C33E0F686E095
:1034C00090E0D3CF80915806811104C081E08093B1
:1034D0005B06D1CF8CE3FBCF209188063091890623
:1034E000C901079697FD079623E0959587952A953C
:1034F000E1F72091860630918706829FA001839F85
:10350000500D929F500D112470E060E08091A10653
:103510009091A2060C945133FF920F931F93CF9377
:10352000DF9304E111E0D0E0C0E0F801F1908F01F9
:10353000CE010E94832FF81621F06F2DCE010E943C
:103540008B2F2196C330D10581F784E191E0DF9183
:10355000CF911F910F91FF9008950E944C33FB0172
:1035600001900020E9F73197AF01461B570BDC01B2
:10357000ED91FC910280F381E02D09948F929F924E
:10358000AF92BF92CF92DF92EF92FF920F931F9371
:10359000CF93DF93CDB7DEB7A1970FB6F894DEBF18
:1035A0000FBECDBF6C01990FEE08FF08F7FE43C0B8
:1035B0006DE282E896E00E94A30F8C012227332758
:1035C000A9012C193D094E095F0919A2CE01819666
:1035D0007C019AE0892E912CA12CB12CCA01B90151
:1035E000A50194010E94AD2F605DF70162937F01F8
:1035F000211531054105510589F790E080E03097AC
:1036000029F0BF0182E896E00E94AF1A800F911F57
:10361000A1960FB6F894DEBF0FBECDBFDF91CF915C
:103620001F910F91FF90EF90DF90CF90BF90AF90E0
:103630009F908F900895A701960119A28E010F5DAA
:103640001F4F8AE0C82ED12CE12CF12CCA01B90100
:10365000A70196010E94AD2F605DF80162938F0172
:10366000211531054105510589F790E080E030973B
:1036700079F2BF0182E896E00E94AF1AC9CFBC017F
:1036800082E896E00C94AF1ACF93DF93BC0182E8F6
:1036900096E00E94AF1AEC0160EE71E082E896E0DD
:1036A0000E94AF1A8C0F9D1FDF91CF910895CF9389
:1036B0000E946C1A82E0809396068093970681E0C0
:1036C00090E0909395068093940690939306809350
:1036D000920610928F0610928E061092910610920A
:1036E000900680912D0590912E058130910509F469
:1036F00056C008F44FC0029709F454C08FE090E020
:1037000090938F0680938E0689E190E090939106C6
:103710008093900681E0809396068093970681E0DF
:1037200092E00E943F1B8091DB059091DC050196A1
:103730000E94BE1A84E092E00E943F1B8091DB054C
:103740009091DC05C6E0C89FF001C99FF00D1124DF
:10375000ED59FA4F808191810E94BE1A89E092E072
:103760000E943F1B8091DB059091DC05C89FF00112
:10377000C99FF00D1124ED59FA4F828193810E9467
:10378000BE1A60EE71E082E896E00E94AF1ACF9117
:103790000C94471683EE91E00E94441BAFCF8EEE4F
:1037A00091E0FACF88EF91E0F7CFCF93DF930E94BB
:1037B0006C1A82E0809396068093970681E090E0F1
:1037C0009093950680939406909393068093920627
:1037D000C5E0D0E0D0938F06C0938E06109291067C
:1037E000109290068FE092E00E94441B81E080934B
:1037F000960680939706D0938F06C0938E0688E135
:1038000090E0909391068093900680915805909156
:1038100059058130910561F030F0029761F0DF9138
:10382000CF910C94471688E192E00E94441BF7CF99
:1038300083E292E0FACF8FE292E0F7CFCF930E943B
:103840006C1AE2E8F6E082E0848B858B81E090E000
:10385000938B828B918B808B1586148617861686A8
:103860008DE392E00E943F1B8091DB059091DC0587
:1038700001960E94BE1A80E492E00E943F1B809154
:10388000DB059091DC05C6E0C89FF001C99FF00DF3
:103890001124ED59FA4F808191810E94BE1A60EE89
:1038A00071E082E896E00E94AF1A85E492E00E94FF
:1038B0003F1B8091DB059091DC05C89FF001C99FFB
:1038C000F00D1124ED59FA4F828193810E94BE1AA6
:1038D00088E492E00E943F1B8091DB059091DC051B
:1038E000C89FF001C99FF00D1124ED59FA4F848152
:1038F00095810E94BE1ACF910C94471685ED809356
:10390000BC008091990390919A03A0919B03B09180
:103910009C030796A11DB11D23E0B695A795979529
:1039200087952A95D1F72091BC0024FD03C0109201
:10393000E20308954091990350919A0360919B038B
:1039400070919C03452B462B472B69F30097A105EB
:10395000B10541F02AE22A95F1F700C00197A109CB
:10396000B109E1CF809198030C94A31384E0EBE4B8
:10397000F2E0DB0101900D928A95E1F784E0089571
:103980001F920F920FB60F9211242F933F938F9394
:103990009F93AF93BF938091E2059091E305A0912F
:1039A000E405B091E5053091E10523E0230F2D37C3
:1039B00058F50196A11DB11D2093E1058093E20504
:1039C0009093E305A093E405B093E5058091E605A7
:1039D0009091E705A091E805B091E9050196A11D38
:1039E000B11D8093E6059093E705A093E805B09399
:1039F000E905BF91AF919F918F913F912F910F90CA
:103A00000FBE0F901F90189526E8230F0296A11D58
:103A1000B11DD2CF1F920F920FB60F9211242F9388
:103A20003F934F935F936F937F938F939F93AF9346
:103A3000BF93CF93EF93FF93C091E1008091E1009A
:103A4000837F8093E100C3FF0FC01092E90081E003
:103A50008093EB001092EC0082E38093ED001092D3
:103A60001D0488E08093F000C2FF1BC083E00E9429
:103A7000BD0880911A04882341F080911A04815076
:103A800080931A04811101C05D9A809119048823E2
:103A900041F080911904815080931904811101C073
:103AA000289AC4FF23C08091E2008E7E81608093BB
:103AB000E2008091E1008F7E8093E10080911B0401
:103AC0008E7E806180931B04FF91EF91CF91BF9117
:103AD000AF919F918F917F916F915F914F913F91A6
:103AE0002F910F900FBE0F901F901895C0FFECCF35
:103AF0008091E2008E7E80618093E2008091E100FF
:103B00008E7E8093E10080911B048E7E8160DACFEF
:103B10001F920F920FB60F921124CF92DF92EF9265
:103B2000FF920F931F932F933F934F935F936F9346
:103B30007F938F939F93AF93BF93EF93FF93CF9315
:103B4000DF93CDB7DEB76C97DEBFCDBF1092E90033
:103B50008091E80083FF25C068E0CE0145960E9471
:103B6000F90982EF8093E8008D8987FF39C0909131
:103B7000E80090FFFCCF982F907609F034C19E8921
:103B80004F89588D2F89F88C911131C0803861F59B
:103B900080911C048093F1001092F1008EEF8093CD
:103BA000E8006C960FB6F894DEBF0FBECDBFDF9174
:103BB000CF91FF91EF91BF91AF919F918F917F91A5
:103BC0006F915F914F913F912F911F910F91FF90B6
:103BD000EF90DF90CF900F900FBE0F901F90189531
:103BE0009EEF9093E800C7CF1092F100D5CF9130AF
:103BF00059F48111D3CF4130510581F680911C04D5
:103C00008D7F80931C04CACF933049F48111C6CFB5
:103C10004130510519F680911C048260F2CF953035
:103C200041F48091E80080FFFCCF20682093E300FE
:103C3000B5CF963009F0A9C00B8D1C8D22E01092F3
:103C4000E9001092170410921604F2122EC010927E
:103C50001504109214040E94470A1F8299E0998368
:103C6000FA8291E09E8390EA98879AEF9987209153
:103C7000160430911704275F3F4F3C832B838D83BD
:103C80001092E90010921704109216041093150474
:103C90000093140449E050E0BE016F5F7F4F80E065
:103CA0000E94F5080E94470A79CF109315040093EB
:103CB00014040E94330ADC0112960D911C91011527
:103CC000110509F451C1D801ED91FC910480F581F1
:103CD000E02DBE016B5E7F4FC8010995009709F08A
:103CE0003EC1F80100851185EACFF3E0FF120EC056
:103CF0008F89882309F440C0823061F440E86AE08B
:103D00008DE196E00E940021811148CF81E28093ED
:103D1000EB0047CF813029F440E868E084E196E089
:103D2000F1CF833099F70E94330ADC011296ED90AF
:103D3000FC908E010F5F1F4F6801E114F10479F0D0
:103D4000D701ED91FC910680F781E02DB801C70104
:103D50000995080F111DF701E084F184EECFD80119
:103D60001C92F60101900020E9F73197BF016C1910
:103D70007D0940E0C601C6CF6EEF75E0FB014491BE
:103D800050E080E80E94F50809CF973009F4BECFD3
:103D9000983021F481E08093F10000CF993009F050
:103DA000FDCE837009F0B2CFE8E1F1E081E031E0CF
:103DB00096E32191222371F08093E9003093EB0088
:103DC000DF0111972C912093EC009093ED008F5F11
:103DD000873079F78EE78093EA001092EA008F89A6
:103DE00080931D04DBCE8B8D9C8D1092E900109288
:103DF0001704109216049093150480931404898D6F
:103E0000811192C08E899D89913A49F4813209F0DD
:103E10007DCF47E050E064E071E080E0B3CF9132C5
:103E200009F074CF833269F48F89988DB0E0A0E0F7
:103E30008093000190930101A0930201B0930301CC
:103E4000ADCE803269F48091E80082FFFCCF67E05C
:103E500084E091E00E94F9098BEF8093E8009ECE08
:103E6000823209F09BCE8F8980930B01EEEFFFE742
:103E7000859194918B3F9C4D51F1E0E0F8E0809169
:103E8000040190910501A0910601B0910701803BCA
:103E90009440A105B105F1F480910B0180FD1AC099
:103EA000EE3F8AE0F80789F587E797E791838083FB
:103EB000809160008093180488E19BE00FB6F8942D
:103EC000A895809360000FBE9093600067CEEEEFE0
:103ED000FAE0D5CF808191818737974709F05ECE90
:103EE000A89580916000886180936000809118049B
:103EF00080936000EE3F2AE0F20789F08091FE0A8D
:103F00009091FF0A9183808349CE80819181873788
:103F1000980751F29093FF0A8093FE0AC5CF109242
:103F2000FF0A1092FE0A3ACE0E94330ADC01129672
:103F30000D911C910115110509F4E8CED801ED9100
:103F4000FC910190F081E02DBE016B5E7F4FC801B6
:103F50000995811123CEF80100851185EBCF181644
:103F600019060CF41BCED2CEF1E0FF12BECE62E0F9
:103F700076E004CF1F920F920FB60F9211242F9369
:103F80003F934F935F936F937F938F939F93AF93E1
:103F9000BF93EF93FF93E0910C01F0910D01099510
:103FA000FF91EF91BF91AF919F918F917F916F9111
:103FB0005F914F913F912F910F900FBE0F901F90E7
:103FC00018951F920F920FB60F9211242F933F93C3
:103FD0004F935F936F937F938F939F93AF93BF9311
:103FE000EF93FF938091B900887F803609F44AC02F
:103FF000F0F5883209F4A7C018F5803109F49BC0A8
:10400000B8F4882309F4F9C0883009F494C0FF910A
:10401000EF91BF91AF919F918F917F916F915F9140
:104020004F913F912F910F900FBE0F901F901895B9
:10403000883109F488C0803251F78093E10314C0BD
:10404000803409F49DC040F48033B9F38833F9F625
:104050008093E10385ECB0C0803509F485C08835D4
:1040600009F496C0883499F60E947E1CD0CF883916
:1040700009F48CC038F5883729F050F4883611F0EF
:10408000803729F683E08093E2031092E00357C063
:10409000883809F47BC0803919F0803809F0B7CF2F
:1040A0008091E003803208F071C0E091E00381E08C
:1040B0008E0F8093E0038091BB00F0E0E054FC4F52
:1040C00080833DC0803B39F0E0F4803A09F479C048
:1040D000883A09F09CCF84E08093E2031092BF03FA
:1040E0001092BE03E0912104F09122040995809181
:1040F000BE0381110FC081E08093BE0310929E0326
:1041000009C0803C09F4A6CF883C09F4A3CF883BC2
:1041100009F07DCFE091BF0381E08E0F8093BF0354
:10412000F0E0E256FC4F80818093BB009091BF038A
:104130008091BE0329C0809107048093BB0085EC69
:104140008093BC0064CF9091060480910504981779
:1041500058F5E091060481E08E0F80930604F0E0AC
:10416000EB51FC4F8081E9CFE091060481E08E0F96
:10417000809306048091BB00F0E0EB51FC4F8083FC
:1041800090910604809105049817C8F285E8D8CF6D
:10419000E091060481E08E0F809306048091BB00BD
:1041A000F0E0EB51FC4F80838091E40381115CCF00
:1041B00081E08093E30384EA8093BC001092E203E1
:1041C00026CF85EC8093BC001092E2038091E0033F
:1041D000803230F4E091E003F0E0E054FC4F1082D4
:1041E0006091E00370E0E0911F04F091200480EC06
:1041F00093E009951092E0030ACF1092E10334CFC7
:10420000EF92FF920F931F93CF93DF93F82E192F06
:10421000E62E042F81E0860F880F0E94C70883E0F6
:104220000E94C708CF2DD12FEC0EFD2EF11CCE150C
:10423000DF05B9F007FF13C0FE0184910E94C70893
:10424000182F80E00E94C708812321968111EFCFAB
:10425000DF91CF911F910F91FF90EF90089588818A
:10426000EDCF81E0F5CFCF93DF931092F10510925F
:10427000F00588EE93E0A0E0B0E08093F205909323
:10428000F305A093F405B093F50528E831E03093E9
:10429000EF052093EE052FEF3FEF3093FB052093C2
:1042A000FA05109279061092780680937A06909318
:1042B0007B06A0937C06B0937D068AE991E09093FB
:1042C00077068093760682E08093420680934306C9
:1042D00088E496E090934506809344061092470642
:1042E000109246068CEA91E090933F0680933E063A
:1042F00080E88093480681E8809349060E94330A4B
:10430000FC01818190914206482F490F5527551F86
:10431000483051059CF5A281B381109709F52EE331
:1043200036E0338322832081209340068093410628
:1043300080914306820F808320914406A22FB09182
:1043400045068A2F821B8917C8F481813D91C82FA9
:10435000D0E0C95EDE4F38838F5F8183F2CFD90111
:1043600018962D913C91199721153105C1F72EE32F
:1043700036E019963C932E931897D5CF1092850668
:104380001092840620E830E030938706209386065A
:1043900080E290E0909389068093880630938B06A4
:1043A00020938A0690938D0680938C06109298062F
:1043B00010928F0610928E0610929106109290061F
:1043C00081E080939706809396062FEF3FEF30931E
:1043D000950620939406309393062093920680933B
:1043E000990610929A0610929C0610929B0628EB52
:1043F00031E0309383062093820610929E0610923D
:104400009D0626E736E03093A00620939F06109283
:10441000A2061092A1069FEF9093A6069093A7067E
:104420009093A8069093A9069093AA0640E85AE1B3
:1044300066E070E04093B7065093B8066093B90603
:104440007093BA0640EA56E861E070E04093BB061C
:104450005093BC066093BD067093BE0690E59093A2
:10446000C0061092C1061092610610926806109262
:104470006F06109270061092710610927206809369
:104480006E0680936B0610926C0692E090936D0618
:104490008093600684E290E09093650680936406C2
:1044A0000E94273290936A0680936906009709F468
:1044B00094C024E2FC0111922A95E9F78CE090E087
:1044C000909363068093620689E090E0909367067C
:1044D0008093660680916106882341F061E089E05F
:1044E0000E94490760E089E00E941B07E8E6FBE0C4
:1044F000E491F0E0EE0FFF1FEF5AF44F8591949195
:104500009093740680937306EBE3FBE0E491E093F1
:10451000750684E180934A0683E180934B0682E12D
:1045200080934C0610924D0610924F0610924E0644
:10453000109251061092500682E08093520610921B
:1045400054061092530681E0809355061092570648
:10455000109256068093580610925A0610925906E9
:1045600010925B0610925C0610925D0610925E0639
:1045700010925F0662E084E10E94490762E0809148
:104580004B060E94490762E080914C060E94490751
:1045900080914A060E94F20620914D0628171906BE
:1045A00031F483E090E0909351068093500680911F
:1045B0004B060E94F20620914D062817190651F469
:1045C0008091500690915106F1E08F27909351060B
:1045D00080935006DF91CF91089510926506109256
:1045E000640610926306109262066ECFCF93DF933B
:1045F000CDB7DEB72B970FB6F894DEBF0FBECDBF99
:10460000789484B5826084BD84B5816084BD85B5AD
:10461000826085BD85B5816085BD80916E008160B9
:1046200080936E001092810080918100826080935F
:104630008100809181008160809381008091800061
:1046400081608093800080919100826080939100CE
:1046500080919100816080939100809190008160B1
:10466000809390008091C10084608093C10080910C
:10467000C10082608093C1008091C10081608093FD
:10468000C1008091C30081608093C3008091C0000D
:1046900082608093C0008091C20081608093C200DC
:1046A00080917A00846080937A0080917A008260A1
:1046B00080937A0080917A00816080937A00809163
:1046C0007A00806880937A0010921D0410921C0476
:1046D00010921B048091D70081608093D70080EAFC
:1046E0008093D80089B5806189BD89B5826089BD14
:1046F00009B400FEFDCF61E070E080E090E00E9430
:104700007D088091D8008F7C80618093D800809153
:10471000E000807F8093E0008091E1008E7E8093B6
:10472000E1008DE08093E200559A209A10925506A0
:104730001092540610925306809166069091670677
:1047400097FD8AC061E00E94490760E0809166069B
:104750000E941B0781E0809361064091640650919E
:10476000650670E060E08091690690916A060E949B
:10477000513390E080E00E94832F082F8093140132
:1047800081E090E00E94832F182F8093150182E032
:1047900090E00E94832F809316010F3F81F41F3F0A
:1047A00071F48F3F61F48091240190912501A091D3
:1047B00026018093140190931501A093160110E037
:1047C00000E0809114014091150150E070E060E03C
:1047D000762F652F542F4427682B80911601482B84
:1047E000C8010E94EB0562E370E080E090E00E9467
:1047F0007D080E94AA070F5F1F4F0C30110509F7B3
:1048000061E089E00E9449078091A1069091A2068B
:10481000892B29F10E946C1A209188063091890613
:104820008091860690918706213231050CF046C0B2
:10483000B9016052710977FF02C06F5F7F4F7595B4
:1048400067958357910997FD019600E210E023E7F1
:1048500030E04AE356E045C0109261067ECF2091D9
:10486000880630918906C901079697FD0796B3E03F
:1048700095958795BA95E1F7209186063091870640
:104880004C01829EC001839E900D929E900D11243A
:104890000E9427329093A2068093A106892B09F0EB
:1048A000B9CF0AED1AE0F80164916111A9C260EE76
:1048B00071E08EEE95E00E94AF1AFFCFB90160540F
:1048C000710977FF02C06F5F7F4F759567958255BD
:1048D000910997FD019600E410E022E530E04AE1FD
:1048E00058E0959587950E944F1282E08093A40628
:1048F00080919F069091A006892B09F47CC18CE3DE
:104900008093A30610922404109223041092EB05C6
:104910001092EA050E9485138BEB98E09093220495
:10492000809321048CEB98E09093200480931F04E3
:104930008091AA0687FD1EC061E00E94490761E0E0
:104940008091AA060E941B0761E070E080E090E081
:104950000E947D0860E08091AA060E941B076AE021
:1049600070E080E090E00E947D0861E08091AA06FE
:104970000E941B0780919F069091A006892B09F445
:10498000F9C12091B7063091B8064091B90650910F
:10499000BA0660E074E284EF90E00E94AD2F2051EF
:1049A0003109410951095695479537952795209327
:1049B000B80064E086E396E00E94301560918806B6
:1049C000615082E896E00E94E51564E082E396E09B
:1049D0000E9430158091A40660E1813009F064E105
:1049E00082E896E00E94E51564E08EE296E00E947F
:1049F00030158FE88093BF068091860690918706D8
:104A00008038910509F0CDC1809188069091890682
:104A10008034910509F0D5C18091A406813009F058
:104A2000E3C18FE98093BF0612E16AED82E896E068
:104A30000E94E515612F82E896E00E94E51561E885
:104A400082E896E00E94E5156091BF0682E896E054
:104A50000E94E51569ED82E896E00E94E5158091D7
:104A6000A40662E2813009F061EF82E896E00E94DC
:104A7000E51566E088E296E00E94301580919F0679
:104A80009091A006892B09F4B1C12091BB06309109
:104A9000BC064091BD065091BE0660E074E284EF12
:104AA00090E00E94AD2F20513109410951095695DE
:104AB0004795379527952093B8000E946C1A82E09D
:104AC000809396068093970681E090E090939506F8
:104AD00080939406909393068093920680E190E0F1
:104AE00090938F0680938E0685E090E090939106D8
:104AF0008093900680E592E00E94441B11E01093A1
:104B000096061093970682E290E090938F0680932A
:104B10008E0689E190E0909391068093900689E556
:104B200092E00E943F1B0E9447160E94AF0868EB6C
:104B30007BE080E090E00E947D080E946C1A8FEF7D
:104B40009FEF9093FB058093FA0580E180938100AD
:104B50001092800080EE9EE2909387008093860002
:104B600081E18093810083E799E190930D01809327
:104B70000C0110936F000E9464060E94540601E02D
:104B800010E022242394312C7EE1872E912CE2E147
:104B90004E2E512C0E946C1A82E0809396068093D0
:104BA00097063092950620929406309293062092B2
:104BB00092060430110509F432C20CF0EEC1023045
:104BC000110509F404C20330110509F40FC25FE0B6
:104BD000A52EB12CB0928F06A0928E0628E030E070
:104BE000309391062093900685E692E00E943F1B49
:104BF0000E94471611C161E08091A8060E944907F2
:104C000061E08091A9060E9449078091A806082EBC
:104C1000000C990BFC01E15AF44FE491F0E0EE0F27
:104C2000FF1FEF5AF44F259134913093B006209333
:104C3000AF06FC01EE5CF44FE491E093B506809181
:104C4000A906082E000C990BFC01E15AF44FE491DF
:104C5000F0E0EE0FFF1FEF5AF44FA591B491B0931F
:104C6000B206A093B106FC01EE5CF44FE491E09330
:104C7000B6068C91E82BEC9380919D0690919E0650
:104C8000892B09F434C01FB7F89480911E04811158
:104C900027C0E0E7FBE08491E3E4FBE09491E82F98
:104CA000F0E0EE0FFF1FEC50F54FA591B491EC91A1
:104CB000E92321F461E081E10E941B0761E081E1C9
:104CC0000E9449078CB580618CBD8CB580648CBD19
:104CD00061E08FE00E94490761E080E10E9449079E
:104CE00080911E048F5F80931E041FBF21CE61E060
:104CF0008091A6060E94490761E08091A7060E9464
:104D000049078091A606082E000C990BFC01E15A78
:104D1000F44FE491F0E0EE0FFF1FEF5AF44F2591AE
:104D200034913093AC062093AB06FC01EE5CF44F5B
:104D3000E491E093B3068091A706082E000C990B2E
:104D4000FC01E15AF44FE491F0E0EE0FFF1FEF5A3F
:104D5000F44FA591B491B093AE06A093AD06FC01BB
:104D6000EE5CF44FE491E093B4068C91E095E82377
:104D7000EC93DECD80919D0690919E06892B31F0BB
:104D80008091C0069091C1060E94640DE091B10629
:104D9000F091B20690818091B60680958923808338
:104DA00008CE8036910589F4809188069091890615
:104DB000409739F48091A406813029F480E18093F2
:104DC000BF0612E032CE8FEAFACF80349105C9F7E0
:104DD0008091880690918906809799F78091A40622
:104DE000813011F480E11ECE8FEC1CCEE091B10633
:104DF000F091B20680819091B606892B80835DCEBA
:104E00008EEE95E00E948E0A0F5F1F4F892B09F0EE
:104E10004ACD4DCDD110BECE0E946406D12C009754
:104E200061F0080F191FDD24D394101611060CF041
:104E300027C1083011050CF026C10E9454067C01E0
:104E4000059709F0F5C20430110509F4DFC10CF033
:104E50001DC10230110509F485C10330110509F4A3
:104E6000BDC133E6632E35E0732E73011F824AE025
:104E700050E05E834D83B12CA12CC7010696998723
:104E800088876701AD81BE81AE19BF09BB87AA873C
:104E90008A859B858C0D9D1D0E94832FF601819331
:104EA0006F01288539852E173F0791F72D813E81A7
:104EB0002A5F3F4F3E832D83D7018D919C9111979F
:104EC0000197409768F412968D919C9113978038C2
:104ED000910530F414968D919C918038910548F09D
:104EE000F70131822082B382A28215821482F1E01E
:104EF000FF834FEFA41AB40A76012238310509F076
:104F0000BCCFAF80AA2009F411C10E946C1A81E0C5
:104F10008093960680939706309295062092940689
:104F2000309293062092920610928F0610928E066F
:104F300010929106109290068BE992E00E94441B19
:104F40008EEA92E00E94441B0E94471660ED77E0D3
:104F500080E090E00E947D081092DC051092DB0555
:104F60000E946C1A81E080939606809397061092B7
:104F70008F0610928E0625E0A22EB12CB0929106DB
:104F8000A09290068DEB92E00E94441B0E9447166F
:104F900068EE73E080E090E017C10630110509F477
:104FA00056C00CF447C00730110509F010CE89E156
:104FB00090E090938F0680938E0648E0A42EB12C4B
:104FC000B0929106A092900684E992E00FCE89E11A
:104FD00090E090938F0680938E0648E050E05093C7
:104FE0009106409390068DE692E000CE8AE090E034
:104FF00090938F0680938E061092910610929006E1
:1050000083E792E00E943F1B90928F0680928E066B
:1050100050929106409290068BE792E0E7CD9092F5
:105020008F0680928E06109291061092900681E86B
:1050300092E0E8CFA3E2B0E0B0938F06A0938E0693
:10504000109291061092900686E892E0DBCFE3E2A0
:10505000F0E0F0938F06E0938E0610929106109286
:1050600090068AE892E00E943F1B90928F06809201
:105070008E0650929106409290068EE892E0B6CD50
:1050800007E010E0DACE01E010E0D7CE06301105DF
:1050900009F4ECC00CF4D2C00730110509F0E1CEE0
:1050A0000E946C1A81E0809396068093970681E0B7
:1050B00090E0909395068093940690939306809346
:1050C0009206F0928F06E0928E06F0929106E092A0
:1050D000900681E393E00E94441B8FE090E0909360
:1050E0008F0680938E0684E190E0909391068093E2
:1050F000900682E493E00E94441B0E94471668EEEB
:1051000073E080E090E00E947D0887E797E7909346
:1051100001088093000888E198E00FB6F894A895FC
:10512000809360000FBE90936000FFCFD301149670
:105130004D915C91159712966D917C9113978D917D
:105140009C910E94341965E070E080E090E00E943C
:105150007D08B6E06B0E711CEBEDF5E0E615F7058A
:1051600029F7FACEE3E6F5E090E080E03182208294
:105170009383828315821482019636968431910539
:10518000A9F71092DC051092DB050E946C1A81E0F1
:10519000809396068093970610928F0610928E0643
:1051A00025E030E030939106209390068DEC92E05C
:1051B0000E94441B8CED92E00E94441B0E94471603
:1051C0006CED75E080E090E00E947D080E9464062E
:1051D0000E945406DD24D3941D8231C187E090E003
:1051E00090931301809312010E946C1A81E08093C6
:1051F00096068093970610928F0610928E06F09274
:105200009106E09290068DEE92E0BECE40E150E035
:1052100050931301409312010E946C1A81E0809315
:1052200096068093970610928F0610928E06F09243
:105230009106E092900680E093E0A6CE84E090E0B4
:1052400090931301809312010E946C1A81E0809365
:1052500096068093970610928F0610928E06F09213
:105260009106E092900681E193E08ECE8091140148
:105270009091150120911601E4E2F1E0F12CE12C6E
:105280003081381306C03181391303C0328132179F
:1052900051F05FEFE51AF50A3396A0E2EA16F10441
:1052A00079F7F12CE12C0E946C1A82E0809396062B
:1052B000809397063092950620929406309293063A
:1052C00020929206E3E2F0E0F0938F06E0938E06E0
:1052D00010929106109290068EE892E00E94441B74
:1052E00090928F0680928E06509291064092900680
:1052F00080E293E00E94441B0E94471664EF71E035
:1053000080E090E00E947D0886E0B82E92E0A92E11
:105310000E9464060097B1F1E80EF91EF7FC7BC00D
:10532000F0E2EF16F1040CF07AC0F701EE0FFF1F68
:10533000EE0DFF1DEC5DFE4F80819181A281809377
:10534000140190931501A0931601D12CC12C8091CA
:1053500014014091150150E070E060E0762F652F58
:10536000542F4427682B80911601482BC6010E94B8
:10537000EB052FEFC21AD20A3CE0C316D10439F76D
:105380000E94AA070E9454068530910509F04AC080
:105390000E948C1A0E946C1AA0929606A092970600
:1053A00030929506209294063092930620929206AF
:1053B0004FE050E050938F0640938E0688E090E0D7
:1053C000909391068093900687E293E00E94441B9D
:1053D0000E94471668EE73E080E090E00E947D082E
:1053E0008091DB059091DC05B89EF001B99EF00D2F
:1053F0001124ED59FA4F848195810E94BC18DD2457
:10540000D39464E170E080E090E00E947D08DD20AC
:1054100009F47ECFDBCEBFE1EB2EF12C86CFF12C51
:10542000E12C83CFD12C069761F70E948C1AD8CF3C
:1054300091E09D83A6E0EA16F10409F0CDCE6AE082
:1054400070E080E090E00E947D08AD80AA2009F421
:10545000E1CC0E9464060E9454060E946C1A0E94CD
:105460001E1C8091DB059091DC0526E0289FF00151
:10547000299FF00D1124ED59FA4F848195810E94E6
:10548000BC180E9464068C0156E0F52EEE24E394CD
:105490008091250590912605A0912705B0912805BA
:1054A0004091290550912A0560912B0570912C059A
:1054B000841B950BA60BB70B8F739927AA27BB27C5
:1054C000892B8A2B8B2B09F478C080912905909128
:1054D0002A05A0912B05B0912C05880F991F880FE4
:1054E000991FFC01EB5DFB4F308121814281A3813B
:1054F000409025055090260560902705709028055E
:105500008090290590902A05A0902B05B0902C053D
:10551000481459046A047B04D1F0809029059090C6
:105520002A05A0902B05B0902C05FFEF8F1A9F0A3B
:10553000AF0ABF0A5FE385229924AA24BB24809284
:10554000290590922A05A0922B05B0922C053323B1
:1055500009F4E8C3822F807F803B09F099CF822F26
:105560008F708F5FE3E6F5E030E020E090E050E000
:10557000608171816817790709F085C06281738144
:105580006417750709F07FC0F29EF001F39EF00DDD
:105590001124ED59FA4FB0E0B583A4838091DB0567
:1055A0009091DC058217930709F072CF8091DF0597
:1055B00081116ECFE092E0056BCF809141060E9491
:1055C000F009382FA0E040E020E0882309F490CFD4
:1055D0008090250590902605A0902705B09028057D
:1055E0002FEF821A920AA20AB20A3FE38322992479
:1055F000AA24BB248091290590912A05A0912B050E
:10560000B0912C0588159905AA05BB0509F45DCF55
:10561000809141060E94F00944E050E0BE016F5FB6
:105620007F4F809141060E94C60904970CF44DCF2C
:105630008091250590912605A0912705B091280518
:10564000880F991F880F991F8B5D9B4F49815A8145
:105650006B817C81DC014D935D936D937C931397FB
:105660008092250590922605A0922705B0922805E4
:10567000BFEF8B1A9B0AAB0ABB0AEFE38E22992479
:10568000AA24BB24B7CF2F5F3F4F36962431310574
:1056900009F06ECFFDCE10925E059EC3CC24C3945C
:1056A000D12C101611061CF0CC24CA94DC2C0E94BC
:1056B000AF0800915A0510915B0520915C0530916F
:1056C0005D054B015C01801A910AA20AB30A95019B
:1056D0008401063911052105310508F08BC02091A0
:1056E0001001309111012F5F3F4F30931101209332
:1056F000100160935A0570935B0580935C0590934D
:105700005D0580915805909159058130910509F00A
:1057100074C000911001109111010430110514F0B2
:1057200003E010E01016110614F001E010E0F1E4BF
:10573000AF2EB12C21E0C216D10419F0EFE3AE2E4A
:10574000B12CF12CE12C76E0972E8091DB05909125
:10575000DC05989EF001999EF00D1124ED59FA4F49
:1057600062817381A501808191810E9434198091A9
:105770000E0190910F018C0D9D1D0C966CE070E058
:105780000E94992F90930F0180930E012FE235E034
:1057900046E0F9017896D9015E9601900D924A95FE
:1057A000E1F72650310941E155E04217530781F7EF
:1057B0009093300580932F0580E090E0A0E8BFE350
:1057C0008093310590933205A0933305B09334054F
:1057D0000E94AF086093530570935405809355055C
:1057E000909356059FEFE91AF90A0E151F0509F067
:1057F000ACCF3FC321E030E078CF029709F095CFDE
:105800000091100110911101073011050CF48ACF9D
:1058100006E010E087CF0E941E1C8091DB0590916E
:10582000DC0526E0289FF001299FF00D1124ED5999
:10583000FA4F848195810E94BC1826C381E0809331
:10584000DE0510922E0510922D050E94571B46E092
:10585000B42E5FE7E52EF12CAA24A394CC24C394A4
:10586000D12C0E9454068C010E946406009779F0A6
:1058700020912D0530912E052130310509F447C0C6
:10588000D8F02230310509F463C00E94571B05305F
:10589000110509F08BC080912D0590912E05813066
:1058A000910509F477C008F470C0029709F479C033
:1058B0000E94571B10E081C02091DB053091DC0570
:1058C000820F931F97FF16C0A3E1B0E0B093DC05F1
:1058D000A093DB058091DB059091DC05B89EF0017B
:1058E000B99EF00D1124ED59FA4F848195810E94E3
:1058F000BC18CBCF843191052CF49093DC058093B8
:10590000DB05E8CF1092DC051092DB05E3CF409178
:10591000DB055091DC05B49EF001B59EF00D11241D
:10592000ED59FA4F40815181840F951F18161906C1
:1059300034F030E1832E912C91828082A6CF813188
:1059400091051CF491838083A0CF318320839DCF68
:105950002091DB053091DC05B29EF001B39EF00D85
:105960001124ED59FA4F22813381820F931F97FF43
:1059700003C0F382E28289CF803891051CF49383BF
:10598000828383CF1382128280CFD0922E05C09261
:105990002D058ECF22E030E030932E0520932D058B
:1059A00087CF10922E0510922D0582CF063011055B
:1059B00009F080CFA092DD051D8165E070E080E0F8
:1059C00090E00E947D08112309F44BCF1092DE0570
:1059D0000E9464060E945406ABC01091DF05863019
:1059E000910509F073C0112309F180915805909138
:1059F0005905019663E070E00E94992F9093590534
:105A0000809358050E94D51B6CE271E080E090E025
:105A10000E947D080E9464060E94540680E090E087
:105A2000892B09F42ECD0E9400002BCD0AE010E056
:105A3000A801475A5A4F6A01F12CE12CD6019D90DA
:105A40006D015801AE0CBF1CC5010E94832F981632
:105A500021F0692DC5010E948B2FBFEFEB1AFB0AC5
:105A6000E6E0EE16F10451F70A5F1F4F0238110508
:105A7000F9F60E946C1A82E080939606809397064E
:105A800081E090E09093950680939406909393061E
:105A90008093920685E090E090938F0680938E0627
:105AA0008AE090E090939106809390068EE493E0D4
:105AB0000E94441B0E94471668EE73E080E090E06D
:105AC0000E947D08F4C10E941E1CF8C1833091051C
:105AD00009F01EC18091570581112AC081E0182765
