:100000000C9472030C949A030C949A030C949A0324
:100010000C949A030C949A030C949A030C949A03EC
:100020000C949A030C949A030C94491A0C94C71AD2
:100030000C949A030C949A030C949A030C949A03CC
:100040000C949A030C949A030C949A030C949A03BC
:100050000C94F91C0C949A030C949A030C94FF19B9
:100060000C949A030C949A030C949A030C949A039C
:100070000C949A030C949A030C949A030C949A038C
:100080000C949A030C949A030C949A030C949A037C
:100090000C94201D0C949A030C949A030C949A03CC
:1000A0000C949A030C949A030C949A030000000099
:1000B000003E5B4F5B3E3E6B4F6B3E1C3E7C3E1CEE
:1000C000183C7E3C181C577D571C1C5E7F5E1C0034
:1000D000183C1800FFE7C3E7FF0018241800FFE7EB
:1000E000DBE7FF30483A060E2629792926407F05AE
:1000F0000507407F05253F5A3CE73C5A7F3E1C1CC4
:1001000008081C1C3E7F14227F22145F5F005F5F83
:1001100006097F017F006689956A6060606060946F
:10012000A2FFA29408047E040810207E2010080874
:100130002A1C08081C2A08081E101010100C1E0C7F
:100140001E0C30383E3830060E3E0E060000000011
:100150000000005F00000007000700147F147F14F8
:10016000242A7F2A1223130864623649562050003D
:1001700008070300001C2241000041221C002A1C29
:100180007F1C2A08083E0808008070300008080814
:100190000808000060600020100804023E51494534
:1001A0003E00427F400072494949462141494D3352
:1001B0001814127F1027454545393C4A49493141B9
:1001C000211109073649494936464949291E000087
:1001D00014000000403400000008142241141414DC
:1001E0001414004122140802015909063E415D59C8
:1001F0004E7C1211127C7F494949363E41414122D1
:100200007F4141413E7F494949417F090909013EFA
:10021000414151737F0808087F00417F4100204021
:10022000413F017F081422417F404040407F021C33
:10023000027F7F0408107F3E4141413E7F0909094A
:10024000063E4151215E7F09192946264949493216
:1002500003017F01033F4040403F1F2040201F3FDC
:100260004038403F63140814630304780403615961
:10027000494D43007F4141410204081020004141A3
:10028000417F04020102044040404040000307084F
:100290000020545478407F2844443838444444284B
:1002A000384444287F385454541800087E090218F2
:1002B000A4A49C787F0804047800447D400020407A
:1002C000403D007F1028440000417F40007C0478BE
:1002D00004787C080404783844444438FC18242406
:1002E0001818242418FC7C08040408485454542486
:1002F00004043F44243C4040207C1C2040201C3C03
:100300004030403C44281028444C9090907C4464F9
:10031000544C44000836410000007700000041368C
:10032000080002010204023C2623263C1EA1A16112
:10033000123A4040207A3854545559215555794144
:100340002254547842215554784020545579400C19
:100350001E527212395555555939545454593955FC
:100360005454580000457C410002457D420001453F
:100370007C407D1211127DF0282528F07C545545D3
:10038000002054547C547C0A097F4932494949323F
:100390003A4444443A324A4848303A4141217A3A50
:1003A00042402078009DA0A07D3D4242423D3D401C
:1003B00040403D3C24FF2424487E4943662B2FFCCB
:1003C0002F2BFF0929F620C0887E09032054547979
:1003D000410000447D413048484A32384040227A4A
:1003E000007A0A0A727D0D19317D2629292F2826C7
:1003F0002929292630484D402038080808080808CF
:100400000808382F10C8ACBA2F102834FA00007B27
:10041000000008142A142222142A1408550055003A
:1004200055AA55AA55AAFF55FF55FF000000FF0029
:10043000101010FF00141414FF001010FF00FF1024
:1004400010F010F0141414FC001414F700FF000056
:10045000FF00FF1414F404FC141417101F10101FD5
:10046000101F1414141F00101010F0000000001FC3
:10047000101010101F10101010F010000000FF10CE
:100480001010101010101010FF10000000FF1400CA
:1004900000FF00FF00001F10170000FC04F41414FC
:1004A0001710171414F404F40000FF00F7141414C8
:1004B00014141414F700F7141414171410101F1048
:1004C0001F141414F4141010F010F000001F101F6B
:1004D0000000001F14000000FC140000F010F010D9
:1004E00010FF10FF141414FF141010101F00000050
:1004F00000F010FFFFFFFFFFF0F0F0F0F0FFFFFF54
:100500000000000000FFFF0F0F0F0F0F38444438AA
:1005100044FC4A4A4A347E02020606027E027E02F9
:1005200063554941633844443C04407E201E200604
:10053000027E020299A5E7A5991C2A492A1C4C7241
:1005400001724C304A4D4D303048784830BC625AC8
:10055000463D3E494949007E0101017E2A2A2A2A58
:100560002A44445F444440514A444040444A514034
:100570000000FF0103E080FF000008086B6B0836F5
:1005800012362436060F090F060000181800000066
:100590001010003040FF0101001F01011E00191D55
:1005A0001712003C3C3C3C00000000000001030727
:1005B0000F1F3F7F0080C0E0F0F8FCFE080B000238
:1005C00002020000090400000102020000052400EC
:1005D000100105240101010424020605240600017E
:1005E0000705810310004009040100020A00000011
:1005F00007050202400000070583024000000403D3
:10060000090412010002EF0201404F1B0692000193
:1006100001020301537061726B46756E004D4B6EA3
:100620006F625F312E323400DB40A4A62EAF200073
:10063000A1C8D300408DAED580A853534431333088
:100640003620616C6C6F636174696F6E20666169DE
:100650006C65640000000000240027002A002D00C3
:100660003000000000002300260029002C002F008D
:100670000000000200090F0000030401000C00004C
:100680000000000000000000000000000000220048
:10069000FF210004080201104080401020408040EB
:1006A00080080204018040201002011080102040C8
:1006B000402000000000250028002B002E00310003
:1006C00004040404040304050202020204030202F7
:1006D00002020606060606060404020202040400DC
:1006E000721E742C11241FBECFEFDAE0DEBFCDBF27
:1006F00013E0A0E0B1E0E8EEF0E602C005900D9254
:10070000A236B107D9F726E0A2E6B3E001C01D92F8
:10071000A03DB207E1F713E0C1E7D3E004C02197A1
:10072000FE010E94DE2CC037D107C9F70E94352098
:100730000C9467300C9400004F925F926F927F92FE
:100740008F929F92AF92BF92FF9220916C06309150
:100750006D068217930708F043C02B0166247724A7
:10076000852E962EA72EBB24B82DA42F209172067D
:10077000F42C222391F0E22FF0E0E49DD001E59DDE
:10078000B00DF49DB00D1124FB2E289D40011124C5
:10079000B92D249F90011124A32FE0917806209178
:1007A00073063091740650917506E51323C0FC0161
:1007B000EE0FFF1F8E0F9F1F820F931FE091750694
:1007C000E80FF92FF11DF082E0917606E80FF92F7E
:1007D000F11DB08320917706820F911DFC01A0834B
:1007E000FF90BF90AF909F908F907F906F905F90A1
:1007F0004F900895880F991F880F991F820F931F9C
:10080000E80FF92FF11D1082D9CF809160069091E9
:10081000610620916006309161062330310521F098
:1008200010926106109260060895F894809158061F
:100830009091590620915C06223001F59C012170AF
:1008400033273093590620935806789420915C06FC
:100850002430F9F4959587959595879520915F06B5
:100860002223E1F020915D0630915E06232F33278D
:1008700097FF17C0C901809590950895243021F401
:100880009C0123703327DDCF109259061092580631
:10089000DCCF223019F795958795E0CF30E020E046
:1008A000E7CF009711F0C9010196089581508F306C
:1008B00008F047C0E82FF0E0E05AFB4F0C94DE2C24
:1008C0007D0481046F0475047904A104A104A104CA
:1008D00084048A048E0492049804A1049C048091E8
:1008E00080008F77809380000895809180008F7DB5
:1008F000F9CF80918000877FF5CF84B58F7784BD55
:10090000089584B58F7DFBCF809190008F77809381
:1009100090000895809190008F7DF9CF8091900094
:10092000877FF5CF8091C0008F778093C0000895B6
:100930008091C0008F7DF9CF8091C200877F809326
:10094000C2000895CF93DF93282F30E0F901E059DA
:10095000F94F8491F901ED56F94FD491F901E05422
:10096000F94FC491CC23A1F081110E945604EC2FC1
:10097000F0E0EE0FFF1FEE59F94FA591B491EC9105
:10098000ED2381E090E009F480E0DF91CF910895BC
:1009900080E090E0FACF1F93CF93DF93282F30E0D1
:1009A000F901E059F94F8491F901ED56F94FD491CD
:1009B000F901E054F94FC491CC23A9F0162F81110D
:1009C0000E945604EC2FF0E0EE0FFF1FEE54F94F9B
:1009D000A591B4918FB7F894EC91111108C0D095FE
:1009E000DE23DC938FBFDF91CF911F910895DE2B23
:1009F000F8CFCF93DF9390E0FC01ED56F94F2491AF
:100A00008054994FFC0184918823C9F090E0880FAD
:100A1000991FFC01EC5AF94FA591B491FC01EE54D9
:100A2000F94FC591D49161110DC09FB7F8948C9185
:100A3000209582238C938881282328839FBFDF9170
:100A4000CF910895623051F49FB7F8943C91822F72
:100A5000809583238C93E8812E2BEFCF8FB7F8946A
:100A6000EC912E2B2C938FBFEACF3FB7F894809157
:100A7000F0059091F105A091F205B091F30526B52E
:100A8000A89B05C02F3F19F00196A11DB11D3FBFC6
:100A9000BA2FA92F982F8827BC01CD01620F711D95
:100AA000811D911D42E0660F771F881F991F4A958F
:100AB000D1F708950F931F93CF93DF93CDB7DEB790
:100AC00029970FB6F894DEBF0FBECDBF8091730695
:100AD00090917406892B09F47CC00E943505009121
:100AE000790610917A0620917B0630917C0660177A
:100AF00071078207930740F46093790670937A0632
:100B000080937B0690937C060091790610917A067B
:100B100020917B0630917C06601B710B820B930B3E
:100B20006C32714081059105C0F2F89480916E0697
:100B300090916F069A838983E0917306F091740611
:100B4000DF0111968081898790916A06E0917D0688
:100B5000F0917E0680917F06992309F445C090812B
:100B6000982B98879081809589238F838F818C83A0
:100B700088E08B8358856F8149853B812C818981F1
:100B80009A81508347FD252F3A952083262F39F0EF
:100B9000441F00C000006083000000C0F2CF38E0B6
:100BA0004D9160830000019761F7F0937E06E0931A
:100BB0007D0649873B832C839A83898378940E949E
:100BC00035056093790670937A0680937B0690933F
:100BD0007C0629960FB6F894DEBF0FBECDBFDF911D
:100BE000CF911F910F9108959081982B98879081B4
:100BF000809589238F838F818E8388E08D835885AC
:100C00006F8149853D812E8189819A81508347FD7D
:100C1000252F00C000C0208300C000C000C000C05D
:100C200000C060830000262F3A9541F0441F000069
:100C300000C000C000C000C000C0E8CF38E04D9147
:100C400000C0608300C0019709F7F0937E06E0932F
:100C50007D0649873D832E83AFCF8F929F92AF92BF
:100C6000BF92CF92DF92EF92FF924B015C010E9404
:100C700035056B017C010E9435056C197D098E09D3
:100C80009F09683E734081059105A8F321E0821A0F
:100C90009108A108B10888EEC80E83E0D81EE11CB7
:100CA000F11C81149104A104B10429F7FF90EF9085
:100CB000DF90CF90BF90AF909F908F9008952FB707
:100CC000F8946091EC057091ED058091EE0590919E
:100CD000EF052FBF0895089508958093E90080914E
:100CE000F200882319F08AE38093E8000895409188
:100CF00020045091210420911E0430911F044217BA
:100D00005307B4F49091E8009570E1F39091E800F6
:100D100092FD19C08093F1008091200490912104EC
:100D200001968F739927892B19F48EEF8093E80031
:100D30008091200490912104019690932104809346
:100D4000200481E0089580E00895DF92EF92FF9201
:100D50000F931F93CF93DF93D82E8A01EB017B0172
:100D6000E40EF51ECE15DF0559F0D7FE12C0FE01C8
:100D700084910E94770621968111F4CF0FEF1FEF27
:100D8000C801DF91CF911F910F91FF90EF90DF90FD
:100D900008958881EECF2FB7F89487708093E9008B
:100DA0009091E800892F807295FF04C09091F20025
:100DB00080E4891B2FBF08957F928F929F92AF92FC
:100DC000BF92CF92DF92EF92FF920F931F93CF9338
:100DD000DF93C82E8B017A0180912704811110C006
:100DE0008FEF9FEFDF91CF911F910F91FF90EF90C9
:100DF000DF90CF90BF90AF909F908F907F9008959D
:100E00008091250480FF05C08091E000826080937E
:100E1000E000CE2DDF2DD12C8AEFB82E8C2D8770DF
:100E2000982E8C2D8072882E8C2D8074782E9AE3CB
:100E3000A92E209719F4DD2009F452C08C2D0E94B0
:100E4000CB0681110AC0BA94BB2051F261E070E078
:100E500080E090E00E942D06ECCF8C171D0611F06B
:100E60000CF08C2F9FB7F8949092E9002091E80045
:100E700025FD02C09FBFDDCF282F30E0C21BD30B62
:100E8000882029F08150A0F01092F100FBCFF801EA
:100E9000C7FC0AC0815050F041914093F100FACF55
:100EA00044914093F10031968150D0F7020F131F07
:100EB000DD2021F0A092E800D12CDCCF8091E80069
:100EC00085FD07C0A092E800DD24D394209791F21D
:100ED000F3CF209779F6772069F2A092E800CACF85
:100EE0005D9884E680932404C7017CCF9091270409
:100EF000992319F13FB7F89487708093E9008091A6
:100F0000F20090E0481759070CF4CA01282FFB01A2
:100F100054E6215038F02898509323044091F10072
:100F20004193F7CF009739F02091F200211103C0CF
:100F30002BE62093E8003FBF08958FEF9FEF0895C1
:100F40009FB7F89487708093E9008091F2009FBF6B
:100F50000895615030F02091F100FC01208301964A
:100F6000F8CF289884E6809323040895AF92BF9227
:100F7000CF92DF92EF92FF920F931F93CF93DF9365
:100F80006C017B018B01040F151FEB015E01AE1894
:100F9000BF08C017D10759F06991D601ED91FC91B6
:100FA0000190F081E02DC6010995892B79F7C501E3
:100FB000DF91CF911F910F91FF90EF90DF90CF9035
:100FC000BF90AF9008958091160481110DC082E00A
:100FD0008093120484E080931304109215041092FD
:100FE000140481E08093160482E194E008950F9345
:100FF0001F93CF93DF931F92CDB7DEB782E0898333
:1010000042E450E06CEB75E080E80E94A5060E9487
:10101000E307DC0112960D911C910115110589F071
:10102000D801ED91FC910280F381E02DBE016F5F4C
:101030007F4FC801099597FD04C0F801008511850F
:10104000ECCF89810F90DF91CF911F910F9108957F
:10105000CF93DF93EC0180910B01882331F083E083
:101060000E94DC061816190634F081E090E09B839C
:101070008A8380E090E0DF91CF910895CF93DF9352
:101080001F92CDB7DEB76983DC01ED91FC91028040
:10109000F381E02D41E050E0BE016F5F7F4F099585
:1010A0000F90DF91CF91089583E00C946D0683E05B
:1010B0000E94CB0690E00895CF93DF931F92CDB7A7
:1010C000DEB7FC018485958597FD08C02FEF3FEFC3
:1010D000358724870F90DF91CF91089541E050E04C
:1010E000BE016F5F7F4F82E00E947607019719F47F
:1010F000898190E0EFCF8FEF9FEFECCF0F931F939D
:10110000CF93DF931F92CDB7DEB78C01FC018485AE
:10111000958597FF0FC041E050E0BE016F5F7F4FA4
:1011200082E00E947607019771F4898190E0F801CE
:1011300095878487F801848595850F90DF91CF91FD
:101140001F910F9108958FEF9FEFF1CFFC018485E0
:10115000958597FD06C082E00E94A00790E0019669
:10116000089582E00E94A00790E00895EF92FF9218
:101170000F931F93CF93DF93EC01EC80FD806E15EE
:101180007F050CF070C057FF04C0240F351F50E0DE
:1011900040E08E819F81FA01E20FF31F8E179F07B7
:1011A0001CF49C01241B350B121613060CF05BC0BB
:1011B000922F842F8695869586958E9DD0018F9D42
:1011C000B00D11246A0F7B1FAF8DB8A1A60FB71FFA
:1011D000477049F188E0841B482F682F70E0FB01BD
:1011E000EC54FA4FE491281708F063C0621B7109B0
:1011F0002FEF30E002C0359527956A95E2F7E2239C
:101200000130110539F0B0F10230110561F58C9112
:10121000E82702C08C91E82BEC93941720F12C81E5
:101220003D81A20FB31FE92FE41BE83078F00230B4
:10123000110521F58E2F9C9190959C932C813D81D9
:10124000A20FB31F88508830B0F7E770EE2359F033
:10125000F0E0E455FA4FE49101301105F9F010F196
:101260000230110519F1DF91CF911F910F91FF907D
:10127000EF900895E0958C91E823CECF81E00115A1
:10128000110509F480E081959E2F8C932C813D817E
:10129000A20FB31F98509830C0F7D7CF8C91E82B8E
:1012A000EC93E1CFE0958C91E823FACF8C91E8277D
:1012B000F7CF0130110509F4ADCFE0F2023011058E
:1012C00009F4A5CFAE0DBF1DAECF0F931F93CF93E3
:1012D000DF9377FF04C0260F371F70E060E0DC016A
:1012E0001496CD91DC91FB01E20FF31FCE17DF07BF
:1012F0001CF49E01261B370B121613064CF5FA013F
:1013000057FD3796A3E0F595E795AA95E1F7EC9F91
:10131000D001ED9FB00DFC9FB00D11246A0F7B1F13
:10132000DC015F96ED91FC91E60FF71F47705527A2
:1013300081E090E001C0880F4A95EAF7482F01301C
:10134000110559F0A8F02E0F3F1F02301105E1F0F2
:10135000DF91CF911F910F9108952E0F3F1FE2173C
:10136000F307B1F38191DF011197842B8C93F7CFB1
:1013700080952E0F3F1FE217F30751F39191DF0184
:10138000119798239C93F7CFE217F30709F3819104
:10139000DF01119784278C93F7CF0F931F93FA01E6
:1013A000DC0156964C9156974230E9F04330A1F15A
:1013B000413061F514964D915C91DA01AE1BBF0B83
:1013C000FD01E21BF30B77FD0BC0DC0116964D917E
:1013D0005C916417750724F4AB01BF010E94650995
:1013E0001F910F91089514964D915C91DA01A61BFF
:1013F000B70BBD0161507109DC0116964D915C91EE
:10140000DA01AE1BBF0BFD01E21BF30B77FDE8CF4A
:10141000AF010E94B608E4CF16964D915C91DA01B7
:10142000A61BB70BBD0161507109CDCF0F931F9360
:10143000FA01DC0156964C9156974230A9F04330A0
:1014400091F1413019F514964D915C91DA01AE1B82
:10145000BF0BFD013197F7FD04C0AB01BF010E9436
:10146000B6081F910F91089514964D915C91DA0181
:10147000A61BB70BBD01DC0116964D915C91DA01FC
:10148000AE1BBF0BFD013197621B730BF7FDE9CF5C
:10149000DC0116964D915C91E417F50714F7AF0146
:1014A0000E946509DECF16964D915C91DA01A61B6C
:1014B000B70BBD01621B730BCECFFC0177FD64C07F
:1014C00080859185681779070CF05EC057FD5CC078
:1014D00082859385481759070CF056C0868982305B
:1014E000B1F0833029F1813041F484819581841BEE
:1014F000950BAB01BC01615071092130310509F137
:1015000008F443C02230310509F463C00895848192
:101510009581DC01A61BB70BBD0161507109868165
:101520009781DC01A41BB50BAD0141505109E5CFFA
:1015300086819781861B970BBA01AC0141505109F6
:10154000DCCFCA0157FD0796A3E095958795AA952C
:10155000E1F7A481B5818A9F90018B9F300D9A9FFE
:10156000300D1124620F731F078CF0A1E02DE60FE0
:10157000F71F4770552721E030E001C0220F4A9540
:10158000EAF78081822B80830895CA0157FD079670
:1015900033E0959587953A95E1F7A481B5818A9FC7
:1015A00090018B9F300D9A9F300D1124620F731F95
:1015B000078CF0A1E02DE60FF71F4770552781E05B
:1015C00090E001C0880F4A95EAF7809590818923C1
:1015D000DACFCA0157FD079623E0959587952A959E
:1015E000E1F7A481B5818A9F90018B9F300D9A9F6E
:1015F000300D1124620F731F078CF0A1E02DE60F50
:10160000F71F4770552721E030E001C0220F4A95AF
:10161000EAF780818227B7CF08958EBD00000DB410
:1016200007FEFDCF8EB508958CBD9DBD089508952C
:101630000895FC016370668B8481958126813781D2
:10164000613039F0633029F09187808733872287B2
:101650000895318720879387828708952F923F923C
:101660004F925F926F927F928F929F92AF92BF92B2
:10167000CF92DF92EF92FF920F931F93CF93DF935E
:10168000CDB7DEB76A970FB6F894DEBF0FBECDBFF9
:101690009A8F898F7A8369834A01D22E18870F83A4
:1016A0003701BC2CDC0159962D913C915A9721159C
:1016B000310509F015C118968D919C9119976817FD
:1016C00079070CF0D7C11A968D919C91481759074C
:1016D0000CF0D0C14C2C512CB6E0CB9E600D711D8E
:1016E00011247C876B87161617060CF0C3C1EA2DF0
:1016F000F0E0FA87E98793E0EE0FFF1F9A95E1F794
:10170000F88BEF87CF01840F951F181619060CF080
:10171000B1C1A98DBA8D58968C91811104C0BFEAD0
:10172000BD1508F4D394A98DBA8DED91FC91119754
:101730000284F385E02DCD010995B5E0DB9EC00163
:101740001124E981FA81FC83EB83312C212C9C014B
:1017500024553F4F388F2F8B4A2D50E05E8B4D8B99
:10176000EF89F88DE20DF31D44919E828D82D12C7C
:10177000C12C69817A81620D731D7A8B698B842FEC
:1017800090E09C8B8B8BE98DFA8DA081B18140FF1D
:1017900082C0F1E0BF126FC0AF126DC01C96ED9118
:1017A000FC912F813885A4014C0D5D1D69897A89D2
:1017B000898D9A8D0995EB89FC89F595E7954E2FD2
:1017C0005FEFC51AD50A6D817E818D899E89680F6C
:1017D000791F7E836D8398E0C916D10481F6AFEF3F
:1017E0002A1A3A0AEB81FC81E40DF51DFC83EB8398
:1017F000F5E02F16310409F0B3CF2F813885261577
:101800003705B9F0A98DBA8DED91FC91B1E0BB120D
:1018100057C0AB1255C069817A816B5F7F4F0088DA
:10182000F189E02D830128E030E0A401898D9A8DB3
:101830000995A98DBA8DED91FC9111970688F789CC
:10184000E02DCD016A960FB6F894DEBF0FBECDBF76
:10185000DF91CF911F910F91FF90EF90DF90CF908C
:10186000BF90AF909F908F907F906F905F904F90C0
:101870003F902F9009941E96ED91FC91EF80F88493
:1018800009851A8592014D815E816B817C81898DEC
:101890009A8D099590CF2F8138852615370509F443
:1018A0008ACF31E0B31207C0A31205C01C96ED9198
:1018B000FC91930178CF1E96ED91FC917301E0CFDE
:1018C0006B857C85641975090684F785E02D7301A5
:1018D0000F8518899201A401898D9A8D0995A9CF48
:1018E000F90134969491329745915491D91AB7E001
:1018F000DB9E400D511D1124F901259134913C8B43
:101900002B8BFA0125903490FA013296749031961F
:101910003491398B329664903196449041E04C1565
:1019200018F04A1508F07FC0662D062C000C770BC6
:101930007C836B83842D042C000C990B9E838D83F8
:10194000A98DBA8DED91FC9111970284F385E02D5C
:10195000CD010995512CD12CC12CEA2DF0E0FA874C
:10196000E9872B2D30E03C872B87A401440D511DC6
:1019700047FC5A95588F4F8B69817A81660D711D8E
:1019800067FC7A957E876D877989C71608F051CFF5
:101990002C2D30E04D815E81420F531FA985BA8501
:1019A0004A9FC0014B9F900D5A9F900D1124FC013E
:1019B000E80DF91DF88BEF87852D612C4F89588D27
:1019C000420F531F5E8B4D8B671408F050C04424A8
:1019D0004394480E877041F4C1010196EB89FC895C
:1019E000E20DF31DD4901C01D7FE19C0A98DBA8D4C
:1019F000ED91FC91662D70E0B1E0BB1219C0AB1205
:101A000017C02D853E85620F731F0484F585E02D78
:101A10002F8138854D895E89898D9A8D0995DD0CD8
:101A20006394842DD1CF1E821D821C821B8288CF9D
:101A30004B815C81640F751FAB85BC856A9FC001BB
:101A40006B9F900D7A9F900D112469817A81680FA8
:101A5000791F0684F785E02DEF80F88409851A85C3
:101A60009D014F855889898D9A8D0995D8CF570C3E
:101A7000C3948ACF6A960FB6F894DEBF0FBECDBF6F
:101A8000DF91CF911F910F91FF90EF90DF90CF905A
:101A9000BF90AF909F908F907F906F905F904F908E
:101AA0003F902F9008958F929F92AF92CF92EF9296
:101AB000FF920F931F93CF93DF93EC01262F898D15
:101AC0009A8D009709F051C06A30D1F41D861C86AA
:101AD0008D8948E0849F900111248E859F85820F17
:101AE000931F9F878E8781E090E0DF91CF911F91B8
:101AF0000F91FF90EF90CF90AF909F908F900895AF
:101B00006D3089F3CC88AD888F898823C1F08C85AE
:101B10009D8536E0C39E800D911D11244885598511
:101B20004817590764F44E855F851D861C8638E08A
:101B3000A39EC0011124840F951F9F878E87EA887A
:101B4000FB88088919894E855F856C857D85CE0166
:101B50000E942E0B2C898C859D8546E0249F800D4C
:101B6000911D11249D878C87BECF6A3069F41D8634
:101B70001C86FC013896E4912D898E859F85E29F15
:101B8000800D911D1124ADCF6D3009F4ACCFFC0157
:101B900034963491631708F4A6CF3296E491E61791
:101BA00008F4A1CFFC01329685909490462F431BF8
:101BB000342F47E0349F800C911C1124F40132969D
:101BC00034913196E4913323A9F1EE2399F1CC8835
:101BD000F4013596E491AD884F89442301F10E2E2E
:101BE000000CFF0BE30FF11DCE9EA001CF9E500D08
:101BF00011246C857D85460F571F6885798564178C
:101C000075076CF44E855F851D861C86FC01389631
:101C1000E491AE9E400D511D11245F874E87EA88E6
:101C2000FB88088919894E855F856C857D85CE0185
:101C30000E942E0BF4013496E4912C898C859D85AD
:101C4000E29F800D911D11248DCF6F927F928F9214
:101C50009F92AF92BF92CF92DF92EF92FF920F933B
:101C60001F93CF93DF93EC016B015A0139014801B7
:101C7000E881F9810284F385E02D0995E881F981F5
:101C80000288F389E02D87019301A501B601CE01F9
:101C90000995A501480D591D41505109E881F98167
:101CA0000288F389E02D9301B601CE010995E88100
:101CB000F9810088F189E02D9401A501B601CE01DA
:101CC0000995C60CD71CB60161507109E881F981EC
:101CD0000088F189E02D9401A501CE010995E881E4
:101CE000F9810688F789E02DCE01DF91CF911F9110
:101CF0000F91FF90EF90DF90CF90BF90AF909F90AB
:101D00008F907F906F9009946F927F928F929F92A5
:101D1000AF92BF92CF92DF92EF92FF920F931F93F9
:101D2000CF93DF935C01EB016A0149013801870120
:101D3000DC01ED91FC916217730719F564167506C5
:101D40002CF0962D872D3A01C92ED82E96012619F2
:101D500037092F5F3F4F048CF58DE02DA301BE01A5
:101D6000C5010995DF91CF911F910F91FF90EF90E1
:101D7000DF90CF90BF90AF909F908F907F906F90AB
:101D800008954615570591F42617370724F0892D35
:101D90004B01C22FD82F9E01281939092F5F3F4FC1
:101DA000068CF78DE02DA601B401DACF0284F3850D
:101DB000E02D0995D501ED91FC910488F589E02D80
:101DC00083019401A601BE01C5010995D501ED91DC
:101DD000FC910688F789E02DC501DF91CF911F9115
:101DE0000F91FF90EF90DF90CF90BF90AF909F90BA
:101DF0008F907F906F900994EF92FF920F931F93B3
:101E0000DC011A960D911C911B9718962D913C910F
:101E10001997ED91FC9100A0F1A1E02D7B0150E01C
:101E200040E070E060E009951F910F91FF90EF9006
:101E300008954F925F926F927F928F929F92AF928E
:101E4000BF92CF92DF92EF92FF920F931F93CF93A7
:101E5000DF936C012B015A0139014801DC01ED913E
:101E6000FC910284F385E02D0995E201640C751C58
:101E7000D601ED91FC91C615D7055CF40088F18977
:101E8000E02D87019401A501BE01C60109952196A7
:101E9000EFCF0688F789E02DC601DF91CF911F9122
:101EA0000F91FF90EF90DF90CF90BF90AF909F90F9
:101EB0008F907F906F905F904F9009948F929F9238
:101EC000AF92BF92CF92DF92EF92FF920F931F9348
:101ED000CF93DF93EC015B014A016901E881F9814D
:101EE0000284F385E02D099595012C0D3D1D2150AF
:101EF0003109E881F9810488F589E02D78018401B0
:101F0000A401B501CE010995E881F9810688F78918
:101F1000E02DCE01DF91CF911F910F91FF90EF90B7
:101F2000DF90CF90BF90AF909F908F9009948F9249
:101F30009F92AF92BF92CF92DF92EF92FF920F9358
:101F40001F93CF93DF93EC015B014A016901780194
:101F5000E881F9810284F385E02D0995C80CD91C2C
:101F6000860101501109E881F9810488F589E02D85
:101F70009501A401B501CE010995E881F981068892
:101F8000F789E02DCE01DF91CF911F910F91FF9046
:101F9000EF90DF90CF90BF90AF909F908F9009947B
:101FA0000895EF92FF920F931F93DC01ED91FC9146
:101FB00000A0F1A1E02D09951F910F91FF90EF90E6
:101FC00008950F931F93DC01ED91FC91068CF78D22
:101FD000E02D09951F910F9108950F931F93DC0138
:101FE000ED91FC91048CF58DE02D09951F910F91D9
:101FF0000895DC01ED91FC910084F185E02D0994B8
:102000002F923F924F925F926F927F928F929F9208
:10201000AF92BF92CF92DF92EF92FF920F931F93F6
:10202000CF93DF9300D000D000D0CDB7DEB73C0116
:102030006A013E832D83FC82EB825801A41AB50A03
:10204000B7FE03C0B194A194B1088D809E80861A1A
:10205000970A97FE03C09194819491088A149B0477
:102060005CF0902F812F0D811E819D838E839C2D8E
:102070008D2D6B01692F782F0C151D055CF09D814E
:102080008E817E836D83692F782F902F812F86011B
:10209000C92ED82E1601201A310A2B012D813E811E
:1020A000421A530A57FE03C05194419451087101DA
:1020B00037FE03C03FEFE31AF30AF594E7948D81EE
:1020C0009E81861797075CF5A1E0B0E0BA83A983EB
:1020D000C016D1064CF1D301ED91FC910484F58535
:1020E000E02D2B813C81A8016D817E818A149B04A7
:1020F0001CF04D815E81B801C3010995E418F50813
:10210000F7FE0AC02D813E8189819A81280F391FEF
:102110003E832D83E20CF31C0F5F1F4FD9CF2FEFAF
:102120003FEF3A832983D4CF26960FB6F894DEBFCB
:102130000FBECDBFDF91CF911F910F91FF90EF9018
:10214000DF90CF90BF90AF909F908F907F906F90D7
:102150005F904F903F902F90089508952091C8036D
:10216000260F3327331F21323105ECF42091EC0385
:10217000FC0190E080E0243069F082E00895A091B5
:10218000C8032191AC0148555C4FA40FB52FB11D78
:102190002C930196861798F38091C803680F60937B
:1021A000C80380E0089581E008951092EC0381E077
:1021B0008093EE031092ED0361E082E00E94CB0475
:1021C00061E083E00E94CB04E9EBF0E080818E7F48
:1021D000808380818D7F808388E48093B80085E44C
:1021E0008093BC000895CF93DF9391E09093A70371
:1021F0008823B9F0C091B800D091BA008091BC009A
:102200008A7B8093BC0060E082E00E94CB0460E0A7
:1022100083E00E94CB040E94D510D093BA00C093F3
:10222000B800DF91CF910895E0912E0480912D04A4
:10223000E81730F4F0E0EE57FC4F808190E008950D
:102240008FEF9FEF089590912E0480912D042FEF32
:102250003FEF981748F4E92FF0E0EE57FC4F20814C
:1022600030E09F5F90932E04C901089580912D0462
:1022700090912E04891B990B0895CF92DF92EF92D3
:10228000FF920F931F93CF93DF937C01CB018A01C1
:102290002091F705222389F0EB016B01C40ED51EB6
:1022A000CC15DD0569F06991D701ED91FC910190A4
:1022B000F081E02DC7010995F3CF642F0E94AE1085
:1022C000C801DF91CF911F910F91FF90EF90DF90A8
:1022D000CF900895CF93DF931F92CDB7DEB7698378
:1022E0002091F7052223F9F02091F405203258F0CF
:1022F00021E030E0FC013383228390E080E00F9006
:10230000DF91CF9108958091F505E82FF0E0EE5927
:10231000FC4F998190838F5F8093F5058093F4053E
:1023200081E090E0ECCF61E0CE0101960E94AE101A
:10233000F7CFCF92DF92EF92FF920F931F93CF933D
:10234000DF93D091F40581E0D13208F09CC0C091B8
:10235000F6050E9435056B017C018091EC0381112B
:102360006CC082E08093EC0381E08093EE038FEFFA
:102370008093EB0310921004D0930F04A2E6B3E015
:10238000EFEEF3E080E0D8138DC01092110480913D
:102390001104CC0FC82BC09311048091ED03813040
:1023A00009F084C01092ED030E9435056B017C0199
:1023B000809111048093BB008091A3039091A403AA
:1023C000A091A503B091A603892B8A2B8B2BA1F09A
:1023D0000E9435050091A3031091A4032091A50349
:1023E0003091A6036C197D098E099F0906171707FE
:1023F0002807390708F442C08091BC0083FDD8CF7C
:1024000085EC8093BC000E9435056B017C018091B6
:10241000EC03823009F44CC08091EB038F3F09F448
:1024200069C08091EB03803209F466C08091EB03B0
:10243000803309F463C084E026C08091A3039091A7
:10244000A403A091A503B091A603892B8A2B8B2B03
:1024500009F483CF0E9435050091A3031091A403D2
:102460002091A5033091A6036C197D098E099F095F
:10247000061717072807390708F06FCF8091A203C6
:102480000E94F31085E01092F5051092F405109269
:10249000F705DF91CF911F910F91FF90EF90DF90A3
:1024A000CF9008959D9191938F5F6DCF85EEA9CFC9
:1024B0008091A3039091A403A091A503B091A603DA
:1024C000892B8A2B8B2B09F4A2CF0E943505009112
:1024D000A3031091A4032091A5033091A6036C19C6
:1024E0007D098E099F09061717072807390708F085
:1024F0008ECFC4CF80E0C7CF82E0C5CF83E0C3CF0B
:10250000EF92FF920F931F93CF93DF937C01C62F1F
:102510008091A9069091AA06009709F459C02091CC
:10252000AD0631E03093F7052093F6051092F505DE
:102530001092F405DC01ED91FC910190F081E02D09
:1025400060E009958701EE24E394F12CD1E0C150BD
:102550008091A9069091AA06CF3F91F1B0E2EB16C7
:10256000F104D8F00E9499118091A9069091AA06D1
:102570002091AD06D093F7052093F6051092F5054E
:102580001092F405DC01ED91FC910190F081E02DB9
:1025900060E00995EE24E394F12C8091A9069091D6
:1025A000AA06F8016491DC01ED91FC910190F081A3
:1025B000E02D0995BFEFEB1AFB0A0F5F1F4FC7CF46
:1025C000DF91CF911F910F91FF90EF900C94991193
:1025D000E091B906F091BA0690818091BF0680958E
:1025E000892380838701C15008F438C0F8018491A1
:1025F0002091A7063091A806232B29F00E940D0BED
:102600000F5F1F4FF0CF28E030E040E8E091B506C3
:10261000F091B6069091BD06582F5423D9F0508101
:10262000952B9083E091B706F091B8069081509178
:10263000BE06952B9083E091B706F091B8065081C5
:102640009091BE069095952390834695215031092F
:10265000E9F6D6CF508190959523E3CFDF91CF91C6
:102660001F910F91FF90EF9008951F93CF93DF93E9
:10267000EC018D8D9E8D009721F1162F29A131E05F
:102680003093F7052093F6051092F5051092F405A6
:10269000DC01ED91FC910190F081E02D60E0099565
:1026A0008D8D9E8DDC01ED91FC910190F081E02DEE
:1026B000612F09958D8D9E8DDF91CF911F910C9487
:1026C0009911ADA5BEA59C918BA9809589238C936A
:1026D0008B8D9C8D892B31F0862FDF91CF911F91AF
:1026E0000C940D0B28E030E080E8A9A5BAA599A9C3
:1026F000462F4823C1F04C91942B9C93ABA5BCA5CD
:102700009C914AA9942B9C93ABA5BCA54C919AA9EA
:10271000909594239C9386952150310931F7DF9150
:10272000CF911F9108954C9190959423E6CFDF921D
:10273000EF92FF920F931F93CF93DF938091A9069F
:102740009091AA06892B09F498C02091C106309176
:10275000C2064091C3065091C40660E074E284EF63
:1027600090E00E94BC2C2051310941095109569535
:102770004795379527952093B80065E08EE896E059
:102780000E9480126091900661508CE896E00E9451
:1027900035132091920630919306C901079697FD53
:1027A000079633E0959587953A95E1F72091900645
:1027B00030919106829F8001839F100D929F100D92
:1027C0001124C091AB06D091AC068091A9069091DE
:1027D000AA060C0F1D1F009709F48FC02091AD06AB
:1027E00031E03093F7052093F6051092F50510922D
:1027F000F405DC01ED91FC910190F081E02D60E4A5
:102800000995EE24E394F12CDD24D3948091A9065C
:102810009091AA060C171D0709F446C0B0E2EB160A
:10282000F104D8F00E9499118091A9069091AA060E
:102830002091AD06D092F7052093F6051092F5058C
:102840001092F405DC01ED91FC910190F081E02DF6
:1028500060E40995EE24E394F12C8091A90690910F
:10286000AA066991DC01ED91FC910190F081E02DC7
:102870000995BFEFEB1AFB0AC9CF8091A70690918B
:10288000A806892B31F08091CA069091CB060E9450
:10289000140BE091BB06F091BC0690818091C006BC
:1028A00080958923808369CF0E9499118091A90620
:1028B0009091AA06892B09F461C02091C506309138
:1028C000C6064091C7065091C80660E074E284EFE6
:1028D00090E00E94BC2C20513109410951095695C4
:1028E0004795379527952093B800DF91CF911F9199
:1028F0000F91FF90EF90DF900895E091B906F0916D
:10290000BA0680819091BF06892B80830C171D0722
:1029100069F289912091A7063091A806232B19F01E
:102920000E940D0BF3CF28E030E040E8E091B506BF
:10293000F091B6069091BD06582F5423D9F05081DE
:10294000952B9083E091B706F091B8069081509155
:10295000BE06952B9083E091B706F091B8065081A2
:102960009091BE069095952390834695215031090C
:10297000E9F6CCCF508190959523E3CFE091BB064B
:10298000F091BC0680819091C006892B8083ADCFE9
:102990001F93CF93DF93EC01162F8D8D9E8D892B86
:1029A000B1F12DA93EA94FA958AD60E074E284EFC2
:1029B00090E00E94BC2C20513109410951095695E3
:1029C0004795379527952093B80066EA111167EA75
:1029D000CE010E9435138D8D9E8D892B41F129AD3D
:1029E0003AAD4BAD5CAD60E074E284EF90E00E94E4
:1029F000BC2C20513109410951095695479537950D
:102A000027952093B800DF91CF911F9108958B8D6A
:102A10009C8D892B21F08EAD9FAD0E94140BEFA5EC
:102A2000F8A990818CA9809589238083CECFEFA5CA
:102A3000F8A980819CA9892B8083E5CF90E080E074
:102A4000089590E080E0089580E008950F931F932B
:102A5000CF93DF93CDB7DEB7C456D1090FB6F89444
:102A6000DEBF0FBECDBFFC01DB019C919E5F9C933E
:102A70009E01295F3F4F8AE5D9011D928A95E9F7AA
:102A800088E089838BE08A8322E02C8391E09D8318
:102A90009E8339E0398764E06A879E879F873A8BF7
:102AA00044E24B8B9C8BA0E0B1E0BE8BAD8B09E088
:102AB00010E0188F0F8B998F3B8F6C8F2F8F98A3FF
:102AC00053E059A387E08CA34DA39EA3B8A7AFA35F
:102AD000A1E4B0E0BAA7A9A786E08BA74CA72DA7D1
:102AE0009EA79FA789AB4AAB2BAB2CAB2DAB3FABC3
:102AF00048AF59AF9AAF5BAF9CAF2DAF9EAF219659
:102B00003FAF219722964FAF229723965FAF23972F
:102B100024962FAF249725966FAF259726969FAFC3
:102B2000269727969FAF279728969FAF28972A9694
:102B30003FAF2A9745E02B964FAF2B972D962FAF9F
:102B40002D9760E470E02F967FAF6EAF2F9763965E
:102B50004FAF639785E264968FAF649765969FAF9A
:102B6000659766969FAF669767969FAF67976896DB
:102B70003FAF689769964FAF69976B962FAF6B978A
:102B80006D967FAF6EAF6D97A1964FAFA197A2964E
:102B90008FAFA297A3969FAFA397A4969FAFA4973A
:102BA000A5965FAFA59792819B839B879F5F9A8F26
:102BB0009D8F83812C968FAF2C978F5F80686A964C
:102BC0008FAF6A9744E650E0BE016F5F7F4F80E0B1
:102BD0000E94A506CC59DF4F0FB6F894DEBF0FBE9A
:102BE000CDBFDF91CF911F910F910895CF92DF92CA
:102BF000EF92FF920F931F93CF93DF93181619064E
:102C00000CF066C08130910581F18F3791050CF091
:102C100062C001972AE0289FB001299F700D1124FE
:102C2000072E000C880B990B0E94142E20E030E038
:102C30004CEF52E40E946A2D6B017C0120E030E0F1
:102C4000A9010E94C42E20E030E040E05FE387FD50
:102C50003AC0C701B6010E94F92C0E94DC2DCB01BD
:102C60000196D0E0C0E097FD05C0EC010D9714F08F
:102C7000CCE0D0E010E000E040E050E0BA010C17FA
:102C80001D077CF4809114014091150150E070E023
:102C900060E0762F652F542F4427682B8091160112
:102CA000482BC8010E949C030F5F1F4F0C30110579
:102CB00019F7DF91CF911F910F91FF90EF90DF9067
:102CC000CF900C945A05C701B6010E94F82CC5CFCD
:102CD00090E080E0CACF8CE090E0C7CFCF93DF9345
:102CE00000D000D0CDB7DEB71816190684F58131B3
:102CF000910514F080E190E0815077FD2AC06038A2
:102D0000710514F06FE770E057FD25C0403851059C
:102D100014F04FE750E09BE09983806B8A836B83CC
:102D20004C8380914B0644E050E0BE016F5F7F4FC3
:102D30008F5F0E94DC0680914B068F5F0E946D06BC
:102D40000F900F900F900F90DF91CF91089580E03A
:102D5000D4CF60E0D9CF40E0DECFCF92DF92EF92C8
:102D6000FF920F931F93CF93DF930E945F066B0137
:102D70007C0180915F06882399F080915D06909197
:102D80005E06029790935E0680935D0680915D06D5
:102D900090915E0697FF04C010925E0610925D0649
:102DA000809154060E94A20420915706C3E0281780
:102DB000190609F0C0E0809155060E94A2042091F6
:102DC00057062817190611F481E0C82780915A0682
:102DD00090915B068C1B80FFA4C00C2E000CDD0BB9
:102DE000D0935B06C0935A0620915806309159063D
:102DF0008270082E000C990B0197820F931F9093FD
:102E000059068093580681E090915F06992391F0CE
:102E1000882381F080915D0690915E06883E9B40FC
:102E200048F480915D0690915E06499690935E0607
:102E300080935D0680915606882309F469C040910D
:102E40006606509167066091680670916906970161
:102E50008601041B150B260B370BB901A8014A305C
:102E600051056105710508F453C0C0926606D09201
:102E70006706E0926806F09269060E94A20420911B
:102E800057062817190691F48091630690916406FD
:102E9000019690936406809363068937910530F01C
:102EA00083E090E0909361068093600680915606DF
:102EB0000E94A2042091570631E023272817190603
:102EC000C1F48091630690916406892B71F0809122
:102ED000600690916106039731F584E090E090934D
:102EE0006106809360061092650610926406109247
:102EF000630680916506882359F0825080936506A9
:102F0000811106C085E090E0909361068093600691
:102F1000DF91CF911F910F91FF90EF90DF90CF90B5
:102F2000089580E071CF80916506823028F08C335F
:102F3000E0F686E090E0D3CF80916206811104C074
:102F400081E080936506D1CF8CE3FBCF2091920680
:102F500030919306C901079697FD079623E0959552
:102F600087952A95E1F72091900630919106829FEE
:102F7000A001839F500D929F500D112470E060E0DE
:102F80008091AB069091AC060C946030FF920F9349
:102F90001F93CF93DF9304E111E0D0E0C0E0F8018C
:102FA000F1908F01CE010E94922CF81621F06F2D26
:102FB000CE010E949A2C2196C330D10581F784E17D
:102FC00091E0DF91CF911F910F91FF9008950E94A2
:102FD0005B30FB0101900020E9F73197AF01461B00
:102FE000570BDC01ED91FC910280F381E02D0994F7
:102FF0008F929F92AF92BF92CF92DF92EF92FF9209
:103000000F931F93CF93DF93CDB7DEB7A1970FB682
:10301000F894DEBF0FBECDBF6C01990FEE08FF081C
:10302000F7FE43C06DE28CE896E00E94530D8C01E0
:1030300022273327A9012C193D094E095F0919A23E
:10304000CE0181967C019AE0892E912CA12CB12C85
:10305000CA01B901A50194010E94BC2C605DF70171
:1030600062937F01211531054105510589F790E0F3
:1030700080E0309729F0BF018CE896E00E94E917C4
:10308000800F911FA1960FB6F894DEBF0FBECDBF83
:10309000DF91CF911F910F91FF90EF90DF90CF9034
:1030A000BF90AF909F908F900895A701960119A2AD
:1030B0008E010F5D1F4F8AE0C82ED12CE12CF12C20
:1030C000CA01B901A70196010E94BC2C605DF801FC
:1030D00062938F01211531054105510589F790E073
:1030E00080E0309779F2BF018CE896E00E94E91702
:1030F000C9CF009729F0BC018CE896E00C94E91741
:1031000090E080E00895CF93DF93BC018CE896E0D7
:103110000E94E917EC0160EE71E08CE896E00E94F5
:10312000E9178C0F9D1FDF91CF910895CF930E94D7
:10313000A61782E08093A0068093A10681E090E02C
:1031400090939F0680939E0690939D0680939C0685
:10315000109299061092980610929B0610929A0669
:1031600080913705909138058130910509F456C05A
:1031700008F44FC0029709F454C08FE090E0909398
:1031800099068093980689E190E090939B0680933E
:103190009A0681E08093A0068093A10681E092E0E8
:1031A0000E9479188091E5059091E60501960E94AC
:1031B000F81784E092E00E9479188091E5059091DB
:1031C000E605C6E0C89FF001C99FF00D1124E35940
:1031D000FA4F808191810E94F81789E092E00E9465
:1031E00079188091E5059091E605C89FF001C99F87
:1031F000F00D1124E359FA4F828193810E94F81750
:1032000060EE71E08CE896E00E94E917CF910C9493
:10321000971383EE91E00E948318AFCF8EEE91E07A
:10322000FACF88EF91E0F7CFCF93DF930E94A617F4
:1032300082E08093A0068093A10681E090E09093C5
:103240009F0680939E0690939D0680939C06C5E002
:10325000D0E0D0939906C093980610929B061092E6
:103260009A068FE092E00E94831881E08093A00686
:103270008093A106D0939906C093980688E190E0C8
:1032800090939B0680939A068091620590916305C6
:103290008130910561F030F0029761F0DF91CF91BC
:1032A0000C94971388E192E00E948318F7CF83E291
:1032B00092E0FACF8FE292E0F7CFCF930E94A61769
:1032C000ECE8F6E082E0848B858B81E090E0938BE4
:1032D000828B918B808B15861486178616868DE3DC
:1032E00092E00E9479188091E5059091E60501969B
:1032F0000E94F81780E492E00E9479188091E50519
:103300009091E605C6E0C89FF001C99FF00D112419
:10331000E359FA4F808191810E94F81760EE71E0C5
:103320008CE896E00E94E91785E492E00E94791803
:103330008091E5059091E605C89FF001C99FF00DC9
:103340001124E359FA4F828193810E94F81788E48F
:1033500092E00E9479188091E5059091E605C89F5A
:10336000F001C99FF00D1124E359FA4F8481958132
:103370000E94F817CF910C94971385ED8093BC00B1
:103380008091A3039091A403A091A503B091A603FB
:103390000796A11DB11D23E0B695A7959795879532
:1033A0002A95D1F72091BC0024FD03C01092EC03B4
:1033B00008954091A3035091A4036091A5037091D7
:1033C000A603452B462B472B69F30097A105B105B2
:1033D00041F02AE22A95F1F700C00197A109B1094D
:1033E000E1CF8091A2030C94F31084E0EBE4F2E0CF
:1033F000DB0101900D928A95E1F784E008951F9218
:103400000F920FB60F9211242F933F938F939F9398
:10341000AF93BF938091EC059091ED05A091EE05DF
:10342000B091EF053091EB0523E0230F2D3758F5D0
:103430000196A11DB11D2093EB058093EC0590939F
:10344000ED05A093EE05B093EF058091F005909106
:10345000F105A091F205B091F3050196A11DB11DF2
:103460008093F0059093F105A093F205B093F305D6
:10347000BF91AF919F918F913F912F910F900FBE70
:103480000F901F90189526E8230F0296A11DB11DDD
:10349000D2CF1F920F920FB60F9211242F933F930A
:1034A0004F935F936F937F938F939F93AF93BF934C
:1034B000CF93EF93FF93C091E1008091E100837F70
:1034C0008093E100C3FF0FC01092E90081E0809378
:1034D000EB001092EC0082E38093ED001092270441
:1034E00088E08093F000C2FF1BC083E00E946D065D
:1034F00080912404882341F080912404815080939A
:103500002404811101C05D9A80912304882341F035
:1035100080912304815080932304811101C0289A53
:10352000C4FF23C08091E2008E7E81608093E20020
:103530008091E1008F7E8093E100809125048E7E52
:10354000806180932504FF91EF91CF91BF91AF915E
:103550009F918F917F916F915F914F913F912F91AB
:103560000F900FBE0F901F901895C0FFECCF809169
:10357000E2008E7E80618093E2008091E1008E7E89
:103580008093E100809125048E7E8160DACF1F92C6
:103590000F920FB60F921124CF92DF92EF92FF920B
:1035A0000F931F932F933F934F935F936F937F934B
:1035B0008F939F93AF93BF93EF93FF93CF93DF933B
:1035C000CDB7DEB76C97DEBFCDBF1092E90080911A
:1035D000E80083FF25C068E0CE0145960E94A90758
:1035E00082EF8093E8008D8987FF39C09091E800D1
:1035F00090FFFCCF982F907609F034C19E894F89B7
:10360000588D2F89F88C911131C0803861F58091E7
:1036100026048093F1001092F1008EEF8093E80071
:103620006C960FB6F894DEBF0FBECDBFDF91CF9181
:10363000FF91EF91BF91AF919F918F917F916F918A
:103640005F914F913F912F911F910F91FF90EF90BC
:10365000DF90CF900F900FBE0F901F9018959EEFA8
:103660009093E800C7CF1092F100D5CF913059F474
:103670008111D3CF4130510581F6809126048D7F91
:1036800080932604CACF933049F48111C6CF4130CC
:10369000510519F6809126048260F2CF953041F4ED
:1036A0008091E80080FFFCCF20682093E300B5CF35
:1036B000963009F0A9C00B8D1C8D22E01092E90014
:1036C0001092210410922004F2122EC010921F04B6
:1036D00010921E040E94F7071F8299E09983FA82D4
:1036E00091E09E8390EA98879AEF99872091200431
:1036F00030912104275F3F4F3C832B838D831092B1
:10370000E900109221041092200410931F040093EA
:103710001E0449E050E0BE016F5F7F4F80E00E94D1
:10372000A5060E94F70779CF10931F0400931E048B
:103730000E94E307DC0112960D911C910115110501
:1037400009F451C1D801ED91FC910480F581E02D7F
:10375000BE016B5E7F4FC8010995009709F03EC11D
:10376000F80100851185EACFF3E0FF120EC08F89C2
:10377000882309F440C0823061F440E86AE08DE1BA
:1037800096E00E943F1E811148CF81E28093EB00BA
:1037900047CF813029F440E868E084E196E0F1CF3A
:1037A000833099F70E94E307DC011296ED90FC90BC
:1037B0008E010F5F1F4F6801E114F10479F0D7010A
:1037C000ED91FC910680F781E02DB801C7010995C4
:1037D000080F111DF701E084F184EECFD8011C928F
:1037E000F60101900020E9F73197BF016C197D09BE
:1037F00040E0C601C6CF6EEF75E0FB01449150E09A
:1038000080E80E94A50609CF973009F4BECF983012
:1038100021F481E08093F10000CF993009F0FDCED2
:10382000837009F0B2CFE8E1F1E081E031E096E3A6
:103830002191222371F08093E9003093EB00DF01A6
:1038400011972C912093EC009093ED008F5F8730BF
:1038500079F78EE78093EA001092EA008F898093CF
:103860002704DBCE8B8D9C8D1092E90010922104F1
:103870001092200490931F0480931E04898D81115F
:1038800092C08E899D89913A49F4813209F07DCFA9
:1038900047E050E064E071E080E0B3CF913209F09E
:1038A00074CF833269F48F89988DB0E0A0E0809363
:1038B000000190930101A0930201B0930301ADCEEA
:1038C000803269F48091E80082FFFCCF67E084E0F9
:1038D00091E00E94A9078BEF8093E8009ECE823290
:1038E00009F09BCE8F8980930B01EEEFFFE7859166
:1038F00094918B3F9C4D51F1E0E0F8E08091040100
:1039000090910501A0910601B0910701803B944080
:10391000A105B105F1F480910B0180FD1AC0EE3FC5
:103920008AE0F80789F587E797E79183808380919C
:1039300060008093220488E19BE00FB6F894A8957C
:10394000809360000FBE9093600067CEEEEFFAE0C8
:10395000D5CF808191818737974709F05ECEA895B2
:103960008091600088618093600080912204809340
:103970006000EE3F2AE0F20789F08091FE0A909104
:10398000FF0A9183808349CE808191818737980790
:1039900051F29093FF0A8093FE0AC5CF1092FF0A5E
:1039A0001092FE0A3ACE0E94E307DC0112960D91B6
:1039B0001C910115110509F4E8CED801ED91FC9197
:1039C0000190F081E02DBE016B5E7F4FC80109952B
:1039D000811123CEF80100851185EBCF1816190649
:1039E0000CF41BCED2CEF1E0FF12BECE62E076E048
:1039F00004CF1F920F920FB60F9211242F933F9373
:103A00004F935F936F937F938F939F93AF93BF93E6
:103A1000EF93FF93E0910C01F0910D010995FF9157
:103A2000EF91BF91AF919F918F917F916F915F9136
:103A30004F913F912F910F900FBE0F901F901895AF
:103A40001F920F920FB60F9211242F933F934F9313
:103A50005F936F937F938F939F93AF93BF93EF93F6
:103A6000FF938091B900887F803609F44AC0F0F551
:103A7000883209F4A7C018F5803109F49BC0B8F466
:103A8000882309F4F9C0883009F494C0FF91EF91BC
:103A9000BF91AF919F918F917F916F915F914F9166
:103AA0003F912F910F900FBE0F901F901895883166
:103AB00009F488C0803251F78093EB0314C080343E
:103AC00009F49DC040F48033B9F38833F9F680934C
:103AD000EB0385ECB0C0803509F485C0883509F466
:103AE00096C0883499F60E94BD19D0CF883909F460
:103AF0008CC038F5883729F050F4883611F08037BB
:103B000029F683E08093EC031092EA0357C08838CB
:103B100009F47BC0803919F0803809F0B7CF809163
:103B2000EA03803208F071C0E091EA0381E08E0F71
:103B30008093EA038091BB00F0E0E653FC4F808362
:103B40003DC0803B39F0E0F4803A09F479C0883A0E
:103B500009F09CCF84E08093EC031092C90310928B
:103B6000C803E0912B04F0912C0409958091C803BF
:103B700081110FC081E08093C8031092A80309C08F
:103B8000803C09F4A6CF883C09F4A3CF883B09F018
:103B90007DCFE091C90381E08E0F8093C903F0E0EF
:103BA000E855FC4F80818093BB009091C9038091C0
:103BB000C80329C0809111048093BB0085EC8093D9
:103BC000BC0064CF9091100480910F04981758F5B1
:103BD000E091100481E08E0F80931004F0E0E15139
:103BE000FC4F8081E9CFE091100481E08E0F80933B
:103BF00010048091BB00F0E0E151FC4F8083909174
:103C0000100480910F049817C8F285E8D8CFE0918E
:103C1000100481E08E0F809310048091BB00F0E0CF
:103C2000E151FC4F80838091EE0381115CCF81E0F4
:103C30008093ED0384EA8093BC001092EC0326CFBE
:103C400085EC8093BC001092EC038091EA038032F3
:103C500030F4E091EA03F0E0E653FC4F108260910B
:103C6000EA0370E0E0912904F0912A048AEC93E0E1
:103C700009951092EA030ACF1092EB0334CFEF922A
:103C8000FF920F931F93CF93DF93F82E192FE62EF9
:103C9000042F81E0860F880F0E94770683E00E9440
:103CA0007706CF2DD12FEC0EFD2EF11CCE15DF05A2
:103CB000B9F007FF13C0FE0184910E947706182F08
:103CC00080E00E947706812321968111EFCFDF915A
:103CD000CF911F910F91FF90EF9008958881EDCFC4
:103CE00081E0F5CFCF93DF931092FB051092FA0598
:103CF00088EE93E0A0E0B0E08093FC059093FD0592
:103D0000A093FE05B093FF0528E831E03093F90554
:103D10002093F8052FEF3FEF30930506209304061C
:103D200010928306109282068093840690938506F3
:103D3000A0938606B09387068AE991E09093810666
:103D40008093800682E080934C0680934D0682E546
:103D500096E090934F0680934E0610925106109273
:103D600050068CEA91E0909349068093480680E8DB
:103D70008093520681E8809353060E94E307FC017A
:103D8000818190914C06482F490F5527551F483087
:103D900051059CF5A281B381109709F528E436E01E
:103DA00033832283208120934A0680934B0680919F
:103DB0004D06820F808320914E06A22FB0914F06B0
:103DC0008A2F821B8917C8F481813D91C82FD0E0CA
:103DD000C95EDE4F38838F5F8183F2CFD901189699
:103DE0002D913C91199721153105C1F728E436E052
:103DF00019963C932E931897D5CF10928F06109258
:103E00008E0620E830E0309391062093900680E201
:103E100090E09093930680939206309395062093BA
:103E2000940690939706809396061092A20610929D
:103E300099061092980610929B0610929A0681E0BD
:103E40008093A1068093A0062FEF3FEF30939F064B
:103E500020939E0630939D0620939C068093A30694
:103E60001092A4061092A6061092A50628EB31E047
:103E700030938D0620938C061092A8061092A70608
:103E800020E836E03093AA062093A9061092AC06EB
:103E90001092AB069FEF9093B0069093B10690936B
:103EA000B2069093B3069093B40640E85AE166E0F8
:103EB00070E04093C1065093C2066093C3067093AE
:103EC000C40640EA56E861E070E04093C5065093AE
:103ED000C6066093C7067093C80690E59093CA061D
:103EE0001092CB0610926B06109272061092790611
:103EF00010927A0610927B0610927C0680937806C8
:103F0000809375061092760692E0909377068093E0
:103F10006A0684E290E090936F0680936E060E949A
:103F2000362F9093740680937306009709F494C01B
:103F300024E2FC0111922A95E9F78CE090E090933D
:103F40006D0680936C0689E090E0909371068093F3
:103F5000700680916B06882341F061E089E00E9441
:103F6000F90460E089E00E94CB04E9ECF6E0E4911A
:103F7000F0E0EE0FFF1FEE54F94F8591949190936E
:103F80007E0680937D06ECE9F6E0E491E0937F06FF
:103F900084E18093540683E18093550682E1809307
:103FA0005606109257061092590610925806109213
:103FB0005B0610925A0682E080935C0610925E06C1
:103FC00010925D0681E080935F0610926106109268
:103FD0006006809362061092640610926306109247
:103FE0006506109266061092670610926806109297
:103FF000690662E084E10E94F90462E0809155065E
:104000000E94F90462E0809156060E94F9048091B2
:1040100054060E94A204209157062817190631F46D
:1040200083E090E090935B0680935A06809155065A
:104030000E94A204209157062817190651F4809176
:104040005A0690915B06F1E08F2790935B06809370
:104050005A06DF91CF91089510926F0610926E0666
:1040600010926D0610926C066ECFCF93DF93CDB792
:10407000DEB72C970FB6F894DEBF0FBECDBF789495
:1040800084B5826084BD84B5816084BD85B582605D
:1040900085BD85B5816085BD80916E00816080930E
:1040A0006E00109281008091810082608093810077
:1040B0008091810081608093810080918000816087
:1040C0008093800080919100826080939100809124
:1040D0009100816080939100809190008160809335
:1040E00090008091C10084608093C1008091C100E4
:1040F00082608093C1008091C10081608093C10083
:104100008091C30081608093C3008091C000826071
:104110008093C0008091C20081608093C200809132
:104120007A00846080937A0080917A008260809324
:104130007A0080917A00816080937A0080917A0081
:10414000806880937A0010922704109226041092BF
:1041500025048091D70081608093D70080EA809306
:10416000D80089B5806189BD89B5826089BD09B4EF
:1041700000FEFDCF61E070E080E090E00E942D063F
:104180008091D8008F7C80618093D8008091E0007E
:10419000807F8093E0008091E1008E7E8093E1003B
:1041A0008DE08093E200559A209A10925F0610925B
:1041B0005E0610925D06809170069091710697FDE3
:1041C00008C061E00E94F90460E0809170060E94DE
:1041D000CB0481E080936B0640916E0650916F0690
:1041E00070E060E080917306909174060E946030E8
:1041F00090E080E00E94922C082F8093140181E0CF
:1042000090E00E94922C182F8093150182E090E09C
:104210000E94922C809316010F3F81F41F3F71F48E
:104220008F3F61F48091240190912501A091260196
:104230008093140190931501A093160110E000E003
:10424000809114014091150150E070E060E0762FFC
:10425000652F542F4427682B80911601482BC801E5
:104260000E949C0362E370E080E090E00E942D06D3
:104270000E945A050F5F1F4F0C30110509F761E0CE
:1042800089E00E94F9048091AB069091AC06892BDD
:1042900009F488C00E94A61782E08093AE06809140
:1042A000A9069091AA06892B09F0ABC061E0809124
:1042B000B2060E94F90461E08091B3060E94F904FD
:1042C0008091B206082E000C990BFC01E054F94FC6
:1042D000E491F0E0EE0FFF1FEE54F94F2591349179
:1042E0003093BA062093B906FC01ED56F94FE491DC
:1042F000E093BF068091B306082E000C990BFC01D9
:10430000E054F94FE491F0E0EE0FFF1FEE54F94F47
:10431000A591B491B093BC06A093BB06FC01ED56E9
:10432000F94FE491E093C0068C91E82BEC938091D7
:10433000A7069091A806892B09F46DC31FB7F894BE
:1043400080912804811127C0E1EDF6E08491E4EA30
:10435000F6E09491E82FF0E0EE0FFF1FEC5AF94FD2
:10436000A591B491EC91E92321F461E081E10E94EF
:10437000CB0461E081E10E94F9048CB580618CBDC1
:104380008CB580648CBD61E08FE00E94F90461E02F
:1043900080E10E94F904809128048F5F80932804B3
:1043A0001FBF48C02091920630919306C90107961D
:1043B00097FD079673E0959587957A95E1F720919B
:1043C0009006309191064C01829EC001839E900D13
:1043D000929E900D11240E94362F9093AC068093EC
:1043E000AB06892B09F056CF0AE316E0F801649179
:1043F00061118BC360EE71E088EF95E00E94E917D0
:10440000FFCF8CE38093AD0610922E0410922D0402
:104410001092F5051092F4050E94D5108BE696E0F7
:1044200090932C0480932B048CE696E090932A04BE
:10443000809329048091B40687FD1EC061E00E942C
:10444000F90461E08091B4060E94CB0461E070E061
:1044500080E090E00E942D0660E08091B4060E940A
:10446000CB046AE070E080E090E00E942D0661E0FD
:104470008091B4060E94CB048091A9069091AA066F
:10448000892B09F40BC32091C1063091C2064091DB
:10449000C3065091C40660E074E284EF90E00E948D
:1044A000BC2C205131094109510956954795379542
:1044B00027952093B80064E086E396E00E9480127E
:1044C0006091920661508CE896E00E94351364E09A
:1044D00082E396E00E9480128091AE0660E1813016
:1044E00009F064E18CE896E00E94351364E08EE206
:1044F00096E00E9480128FE88093C9068091900612
:10450000909191068038910509F0E1C28091920660
:10451000909193068034910509F0E9C28091AE062E
:10452000813009F0D2C28FE98093C90612E16AEDA9
:104530008CE896E00E943513612F8CE896E00E948B
:10454000351361E88CE896E00E9435136091C90646
:104550008CE896E00E94351369ED8CE896E00E94A5
:1045600035138091AE0662E2813009F061EF8CE88C
:1045700096E00E94351366E088E296E00E94801281
:104580008091A9069091AA06892B09F4B4C22091C2
:10459000C5063091C6064091C7065091C80660E036
:1045A00074E284EF90E00E94BC2C20513109410953
:1045B000510956954795379527952093B8000E9445
:1045C000A61782E08093A0068093A10681E090E088
:1045D00090939F0680939E0690939D0680939C06E1
:1045E00084E190E0909399068093980685E090E0AE
:1045F00090939B0680939A0680E592E00E94831830
:1046000011E01093A0061093A10610929906109243
:10461000980689E190E090939B0680939A0689E53D
:1046200092E00E9479188AE692E00E9479180E942E
:1046300097130E945F0668EB7BE080E090E00E94A9
:104640002D060E94A6178FEF9FEF9093050680938B
:10465000040680E1809381001092800080EE9EE24B
:10466000909387008093860081E1809381008DEA9A
:1046700096E190930D0180930C0110936F000E94BE
:1046800015040E940504EE24E394F12C01E010E0EF
:10469000FEE12F2E312CA2E18A2E912CB8E04B2E78
:1046A000512C0E94A61782E08093A0068093A10659
:1046B00010939F0600939E0610939D0600939C0600
:1046C000F4E0EF16F10409F46AC20CF028C232E0FB
:1046D000E316F10409F43CC243E0E416F10409F4E2
:1046E00044C2AFE0B0E0B0939906A0939806509210
:1046F0009B0640929A068FE692E00E9479180E94EB
:1047000097130E941504009759F0E80EF91E1E1425
:104710001F040CF075C298E0E916F1040CF074C2A5
:104720000E9405046C018530910509F050C4B4E085
:10473000EB16F10409F43BC30CF06AC2F2E0EF1689
:10474000F10409F4D3C223E0E216F10409F405C32D
:104750004DE6642E45E0742E73011F828AE090E0DE
:104760009E838D83B12CA12CD7011696BA87A98779
:104770006701ED81FE81EE19FF09FC87EB878B85D0
:104780009C858C0D9D1D0E94922CD6018D936D01F0
:10479000E985FA85EA17FB0791F72D813E812A5FAB
:1047A0003F4F3E832D83D7018D919C9111970197A7
:1047B000409768F412968D919C91139780389105DB
:1047C00030F414968D919C918038910548F0F70152
:1047D00011830083B382A28215821482F1E0FF83E9
:1047E0004FEFA41AB40A76012238310509F0BCCF84
:1047F000AF80AA2009F45EC20E94A61781E08093D0
:10480000A0068093A10610939F0600939E06109326
:104810009D0600939C06109299061092980610929D
:104820009B0610929A0685EA92E00E94831888EB14
:1048300092E00E9483180E94971360ED77E080E079
:1048400090E00E942D061092E6051092E5050E9468
:10485000A61781E08093A0068093A1061092990686
:104860001092980625E0A22EB12CB0929B06A09241
:104870009A0687EC92E00E9483180E94971368EED4
:1048800073E080E090E00E942D06EE24E394F12C8A
:1048900021E02D8362E370E080E090E00E942D062D
:1048A000AD80AA2009F4FDCE0E9415040E940504E3
:1048B0000E94A6170E945D198091E5059091E6057A
:1048C00026E0289FF001299FF00D1124E359FA4FAB
:1048D000848195810E94F6154CE0242E312C0E9493
:1048E00015048C0136E0F32EEE24E39480912F051D
:1048F00090913005A0913105B0913205409133057A
:10490000509134056091350570913605841B950BE7
:10491000A60BB70B8F739927AA27BB27892B8A2B46
:104920008B2B09F45AC38091330590913405A091E3
:104930003505B0913605880F991F880F991FFC0126
:10494000E15DFB4F308121814281A38180902F0561
:1049500090903005A0903105B0903205409033051D
:104960005090340560903505709036058414950498
:10497000A604B704D1F04090330550903405609000
:10498000350570903605FFEF4F1A5F0A6F0A7F0AF0
:104990005FE34522552466247724409233055092E4
:1049A00034056092350570923605332309F4C9C683
:1049B000822F807F803B09F099CF822F8F708F5F8D
:1049C000EDE6F5E030E020E090E050E060817181BC
:1049D0006817790709F067C36281738164177507E7
:1049E00009F061C3F29EF001F39EF00D1124E3592A
:1049F000FA4FB0E0B583A4838091E5059091E60578
:104A00008217930709F072CF8091E90581116ECF6B
:104A1000E092EA056BCF61E08091B0060E94F90454
:104A200061E08091B1060E94F9048091B006082EE1
:104A3000000C990BFC01E054F94FE491F0E0EE0F0B
:104A4000FF1FEE54F94F259134913093B606209311
:104A5000B506FC01ED56F94FE491E093BD06809157
:104A6000B106082E000C990BFC01E054F94FE491BB
:104A7000F0E0EE0FFF1FEE54F94FA591B491B09303
:104A8000B806A093B706FC01ED56F94FE491E09308
:104A9000BE068C91E095E823EC93CCCC8091A706E0
:104AA0009091A806892B31F08091CA069091CB068F
:104AB0000E94140BE091BB06F091BC06908180919E
:104AC000C006809589238083F6CC8FEC2DCD80366F
:104AD000910569F48091920690919306409739F47C
:104AE0008091AE06813029F480E18093C90612E0FE
:104AF0001ECD8FEAFACFE091BB06F091BC06808113
:104B00009091C006892B80835ACD88EF95E00E9452
:104B10003E080F5F1F4F892B09F068CC6BCC56E025
:104B2000E516F10409F453C00CF444C097E0E9160B
:104B3000F10409F0D6CD89E190E090939906809335
:104B4000980650929B0640929A068EE992E0D5CD47
:104B5000E9E1F0E0F0939906E093980650929B0605
:104B600040929A0687E792E0C8CD7AE0A72EB12C52
:104B7000B0929906A092980610929B0610929A06FF
:104B80008DE792E00E94791830929906209298065B
:104B900090929B0680929A0685E892E0AECD309284
:104BA00099062092980610929B0610929A068BE81E
:104BB00092E0E8CF23E230E0309399062093980604
:104BC00010929B0610929A0680E992E0DBCF43E2B6
:104BD00050E0509399064093980610929B061092CD
:104BE0009A0684E992E00E94791830929906209200
:104BF000980690929B0680929A0688E992E07DCD75
:104C000067E0E62EF12C8CCDEE24E394F12C88CDD8
:104C100036E0E316F10409F4FAC00CF4E0C057E002
:104C2000E516F10409F094CD0E94A61781E0809367
:104C3000A0068093A10681E090E090939F06809368
:104C40009E0690939D0680939C06D0929906C092F2
:104C50009806D0929B06C0929A068BE393E00E943E
:104C600083188FE090E0909399068093980684E1F2
:104C700090E090939B0680939A068CE493E00E94C8
:104C800083180E94971368EE73E080E090E00E9422
:104C90002D0687E797E7909301088093000888E145
:104CA00098E00FB6F894A895809360000FBE90939B
:104CB0006000FFCFD30114964D915C911597129629
:104CC0006D917C9113978D919C910E946E1665E079
:104CD00070E080E090E00E942D06B6E06B0E711C43
:104CE000E5EEF5E0E615F70529F7ADCDEDE6F5E0E3
:104CF00090E080E011830083938382831582148285
:104D00000196369684319105A9F71092E605109226
:104D1000E5050E94A61781E08093A0068093A10676
:104D2000109299061092980645E050E050939B0629
:104D300040939A0687ED92E00E94831886EE92E0F7
:104D40000E9483180E9497136CED75E080E090E05C
:104D50000E942D0651E05D839DCD87E090E0909309
:104D60001301809312010E94A61781E08093A00690
:104D70008093A1061092990610929806D0929B06F5
:104D8000C0929A0687EF92E00E9483180E949713C0
:104D900068EE73E080E090E00E942D060E9415040A
:104DA0000E940504EE24E394F12C1D8273CD80E172
:104DB00090E090931301809312010E94A61781E066
:104DC0008093A0068093A1061092990610929806EF
:104DD000D0929B06C0929A068AE093E0D5CFA4E0D9
:104DE000B0E0B0931301A09312010E94A61781E0D6
:104DF0008093A0068093A1061092990610929806BF
:104E0000D0929B06C0929A068BE193E0BDCF809131
:104E100014019091150120911601E4E2F1E0F12CCA
:104E2000E12C3081381306C03181391303C032813F
:104E3000321751F0BFEFEB1AFB0A339630E2E3165C
:104E4000F10479F7F12CE12C0E94A61782E08093FF
:104E5000A0068093A10610939F0600939E061093D0
:104E60009D0600939C0643E250E0509399064093C0
:104E7000980610929B0610929A0688E992E00E948A
:104E80008318309299062092980690929B06809201
:104E90009A068AE293E00E9483180E94971364EFB7
:104EA00071E080E090E00E942D0686E0B82E92E04E
:104EB000A92E0E9415040097B1F1E80EF91EF7FC27
:104EC00079C050E2E516F1040CF078C0F701EE0F5E
:104ED000FF1FEE0DFF1DEC5DFE4F80819181A281D1
:104EE0008093140190931501A0931601D12CC12C2D
:104EF000809114014091150150E070E060E0762F40
:104F0000652F542F4427682B80911601482BC6012A
:104F10000E949C038FEFC81AD80A9CE0C916D104DE
:104F200039F70E945A050E9405048530910509F061
:104F300048C00E94C6170E94A617A092A006A09281
:104F4000A10610939F0600939E0610939D06009362
:104F50009C06AFE0B0E0B0939906A09398065092FB
:104F60009B0640929A0681E393E00E9483180E9478
:104F7000971368EE73E080E090E00E942D06809128
:104F8000E5059091E605B89EF001B99EF00D11245B
:104F9000E359FA4F848195810E94F615DD24D3945C
:104FA00064E170E080E090E00E942D06DD2009F4CD
:104FB00080CFF4CEBFE1EB2EF12C88CFF12CE12C89
:104FC00085CFD12C069761F70E94C617D8CFB1E0E4
:104FD000BD83069709F0E9CE5DCC80914B060E9417
:104FE000A007382FA0E040E020E0882309F4AECCF1
:104FF00040902F055090300560903105709032053B
:105000002FEF421A520A620A720A3FE343225524E2
:10501000662477248091330590913405A09135055D
:10502000B091360584159505A605B70509F47BCC26
:1050300080914B060E94A00744E050E0BE016F5FE4
:105040007F4F80914B060E94760704970CF46BCC3F
:1050500080912F0590913005A0913105B0913205D6
:10506000880F991F880F991F815D9B4F49815A8135
:105070006B817C81DC014D935D936D937C931397E1
:1050800040922F05509230056092310570923205A2
:10509000BFEF4B1A5B0A6B0A7B0AEFE34E225524E3
:1050A00066247724B7CF2F5F3F4F369624313105E2
:1050B00009F08CCC1BCC109268059DC3CC24C39402
:1050C000D12C101611061CF0CC24CA94DC2C0E94A2
:1050D0005F06009164051091650520916605309189
:1050E00067054B015C01801A910AA20AB30A950177
:1050F0008401063911052105310508F08AC0209187
:105100001001309111012F5F3F4F30931101209317
:105110001001609364057093650580936605909314
:10512000670580916205909163058130910509F0D2
:1051300073C000911001109111010430110514F099
:1051400003E010E01016110614F001E010E071E425
:10515000872E912C21E0C216D10419F06FE3862E20
:10516000912CF12CE12C56E0A52E8091E505909133
:10517000E605A89EF001A99EF00D1124E359FA4F0F
:1051800062817381A401808191810E946E16809159
:105190000E0190910F018C0D9D1D0C96B1010E9486
:1051A000A82C90930F0180930E0129E335E046E08F
:1051B000F9017896D9015E9601900D924A95E1F732
:1051C000265031094BE155E04217530781F7909380
:1051D0003A058093390580E090E0A0E8BFE3809332
:1051E0003B0590933C05A0933D05B0933E050E947E
:1051F0005F0660935D0570935E0580935F059093F5
:1052000060059FEFE91AF90A0E151F0509F0ADCFE9
:105210003FC321E030E079CF029709F096CF0091AB
:10522000100110911101073011050CF48BCF06E02D
:1052300010E088CF0E945D198091E5059091E60508
:1052400026E0289FF001299FF00D1124E359FA4F21
:10525000848195810E94F61526C381E08093E8053C
:1052600010923805109237050E94961826E0A22E5B
:105270003FE7E32EF12C99249394CC24C394D12CB2
:105280000E9405048C010E941504009779F020917A
:105290003705309138052130310509F447C0D8F081
:1052A0002230310509F45FC00E94961805301105BF
:1052B00009F087C0809137059091380581309105BC
:1052C00009F473C008F46CC0029709F475C00E9419
:1052D000961810E07DC02091E5053091E605820F1B
:1052E000931F97FF16C0A3E1B0E0B093E605A0932B
:1052F000E5058091E5059091E605A89EF001A99E3F
:10530000F00D1124E359FA4F848195810E94F6151E
:10531000CBCF843191052CF49093E6058093E5057D
:10532000E8CF1092E6051092E505E3CF4091E50540
:105330005091E605A49EF001A59EF00D1124E359BD
:10534000FA4F40815181840F951F181619062CF0D1
:1053500020E130E031832083A7CF81319105D4F75C
:1053600091838083A1CF2091E5053091E605A29E2F
:10537000F001A39EF00D1124E359FA4F22813381ED
:10538000820F931F97FF03C0F382E2828DCF803894
:1053900091051CF49383828387CF1382128284CF7A
:1053A000D0923805C092370592CF42E050E050933A
:1053B0003805409337058BCF10923805109237058A
:1053C00086CF0630110509F084CF9092E7051D8144
:1053D00065E070E080E090E00E942D06112309F462
:1053E0004FCF1092E8050E9415040E940504ABC03F
:1053F0001091E9058630910509F073C0112309F178
:105400008091620590916305019663E070E00E94CF
:10541000A82C90936305809362050E9414196CE296
:1054200071E080E090E00E942D060E9415040E9429
:10543000050480E090E0892B09F451CA0E94000025
:105440004ECA0AE010E0C8018D599A4F6C01F12C48
:10545000E12CD601AD906D0148018E0C9F1CC4015A
:105460000E94922CA81621F06A2DC4010E949A2C49
:10547000BFEFEB1AFB0AE6E0EE16F10451F70A5F04
:105480001F4F02381105F9F60E94A61782E080939B
:10549000A0068093A10681E090E090939F06809300
:1054A0009E0690939D0680939C0685E090E09093E5
:1054B0009906809398068AE090E090939B068093EB
:1054C0009A0688E593E00E9483180E94971368EE7D
:1054D00073E080E090E00E942D06F8C10E945D1903
:1054E000FCC18330910509F022C1809161058111D1
:1054F0002AC081E018271093E9050E9415040E9434
:105500000504112309F400C10E9414198091E905D2
:10551000811110C08091E5059091E60526E0289F55
:10552000F001299FF00D1124E359FA4F84819581F0
:105530000E94F61562E370E080E090E00E942D0684
:1055400081E0809361051091E9058091E805811162
:1055500004C0111102C00E945F0661E070E080E0AB
:1055600090E00E942D06112309F463CF0E945F068C
:1055700000915D0510915E0520915F0530916005F9
:10558000601B710B820B930B0E94122E20E030E007
:105590004AE754E40E946A2D9B01AC0160E070E090
:1055A00080E89FE30E94F82C2B013C0120E030E0D2
:1055B000A9010E94652D87FDC0C020E030E040E8D1
:1055C0005FE3C301B2010E94C42E181634F4412CCB
:1055D000512C90E8692E9FE3792E10E000E040E026
:1055E00050E0BA01C8010E949C030F5F1F4F0C30AE
:1055F0001105A9F729E335E038872F8310E000E093
:10560000AF81B8851296CD90DD90ED90FC90159706
:105610002AE037ED43E25CE3C701B6010E94C42EE5
:1056200018160CF062C0B801012E000C880B990B03
:105630000E94142E20E030E040EA50E40E946A2DDF
:105640009B01AC0160E070E080E89FE30E94F82CD1
:10565000A70196010E94C92EA30192010E94C92EA2
:105660004B015C012AE037ED43E25CE30E94652DCB
:1056700087FD3BC06091140170E090E080E00E94E3
:10568000142EA50194010E94C92E0E94E32DC62E5E
:10569000D12CF12CE12C7601DD24CC246091150174
:1056A00070E090E080E00E94142EA50194010E9419
:1056B000C92E0E94E32DD62A6091160170E090E079
:1056C00080E00E94142EA50194010E94C92E0E9420
:1056D000E32DC62AEF81F88580819181B1010E9476
:1056E000A82CB701A6010E949C030F5F1F4F2F81BA
:1056F00038852A5F3F4F38872F830630110509F020
:105700007FCF0E945A0595CE0E945D198091E505D4
:105710009091E60526E0289FF001299FF00D1124C5
:10572000E359FA4F848195810E94F615EFCE0497D4
:1057300009F009CF1092610558CE412C512C32014D
:105740004CCF8091EA05882301F18091E905811110
:105750001AC08091E805811116C08091E70581117A
:1057600012C00E945D198091E5059091E60526E042
:10577000289FF001299FF00D1124E359FA4F8481ED
:1057800095810E94F6151092EA050115110509F49C
:105790007FC08091E905811191CC8091E80581114C
:1057A00077C08091E5059091E60526E0289FF001FD
:1057B000299FF00D1124E359FA4FE480F5800E94EF
:1057C0005F064090690550906A0560906B05709087
:1057D0006C054B015C0184189508A608B7082401E4
:1057E000350124E6421651046104710408F063CCCB
:1057F00021E0209368056093690570936A058093A2
:105800006B0590936C0580916805882361F0809109
:10581000120190911301A801489F8001499F100D2A
:10582000589F100D11240E0D1F1D0038110514F086
:105830000FE710E017FF02C010E000E0E016F106ED
:1058400039F18091E5059091E605A6E0FA2EF89EE3
:10585000F001F99EF00D1124E359FA4F15830483EA
:105860000E945D198091E5059091E605F89EF00192
:10587000F99EF00D1124E359FA4F4481558162815C
:105880007381808191810E946E16C8010E94F61575
:105890008091E705882369F08091E905882309F460
:1058A000C9CC0E9414191092E7050E9415040E94A9
:1058B00005040E9405048530910509F099CD809179
:1058C000E805882309F4C9CC1092E8058091E90520
:1058D000882309F403CE0E94141962E370E080E08B
:1058E00090E00E942D067FCD809173069091740602
:1058F0000E94D22F809170069091710697FD03C08F
:1059000060E00E94F90488EB91E090938D0680930B
:105910008C068091AB069091AC06009711F00C9428
:10592000D22F0895F999FECF92BD81BDF89A99279B
:1059300080B50895262FF999FECF1FBA92BD81BD7B
:1059400020BD0FB6F894FA9AF99A0FBE0196089501
:1059500097FB072E16F4009407D077FD09D00E941C
:10596000E42C07FC05D03EF4909581959F4F089557
:10597000709561957F4F0895A1E21A2EAA1BBB1B5B
:10598000FD010DC0AA1FBB1FEE1FFF1FA217B3070B
:10599000E407F50720F0A21BB30BE40BF50B661F21
:1059A000771F881F991F1A9469F7609570958095E5
:1059B00090959B01AC01BD01CF010895EE0FFF1F33
:1059C0000590F491E02D0994AA1BBB1B51E107C07F
:1059D000AA1FBB1FA617B70710F0A61BB70B881F7F
:1059E000991F5A95A9F780959095BC01CD0108950E
:1059F0005058BB27AA270E94102D0C948A2E0E9473
:105A00007C2E38F00E94832E20F039F49F3F19F449
:105A100026F40C94792E0EF4E095E7FB0C94732E8B
:105A2000E92F0E949B2E58F3BA1762077307840769
:105A3000950720F079F4A6F50C94BD2E0EF4E095B0
:105A40000B2EBA2FA02D0B01B90190010C01CA0138
:105A5000A0011124FF27591B99F0593F50F4503EE3
:105A600068F11A16F040A22F232F342F4427585FD5
:105A7000F3CF469537952795A795F0405395C9F7ED
:105A80007EF41F16BA0B620B730B840BBAF09150A5
:105A9000A1F0FF0FBB1F661F771F881FC2F70EC044
:105AA000BA0F621F731F841F48F487957795679517
:105AB000B795F7959E3F08F0B0CF9395880F08F003
:105AC0009927EE0F9795879508950E944F2E08F419
:105AD00081E008950E947E2D0C948A2E0E94832ED0
