:100000000C94C1050C94E9050C94E9050C94E905E0
:100010000C94E9050C94E9050C94E9050C94E905A8
:100020000C94E9050C94E9050C940A1D0C94881DA8
:100030000C94E9050C94E9050C94E9050C94E90588
:100040000C94E9050C94E9050C94E9050C94E90578
:100050000C94BA1F0C94E9050C94E9050C94C01C8F
:100060000C94E9050C94E9050C94E9050C94E90558
:100070000C94E9050C94E9050C94E9050C94E90548
:100080000C94E9050C94E9050C94E9050C94E90538
:100090000C94E11F0C94E9050C94E9050C94E90516
:1000A0000C94E9050C94E9050C94E90500000000A6
:1000B000003E5B4F5B3E3E6B4F6B3E1C3E7C3E1CEE
:1000C000183C7E3C181C577D571C1C5E7F5E1C0034
:1000D000183C1800FFE7C3E7FF0018241800FFE7EB
:1000E000DBE7FF30483A060E2629792926407F05AE
:1000F0000507407F05253F5A3CE73C5A7F3E1C1CC4
:1001000008081C1C3E7F14227F22145F5F005F5F83
:1001100006097F017F006689956A6060606060946F
:10012000A2FFA29408047E040810207E2010080874
:100130002A1C08081C2A08081E101010100C1E0C7F
:100140001E0C30383E3830060E3E0E060000000011
:100150000000005F00000007000700147F147F14F8
:10016000242A7F2A1223130864623649562050003D
:1001700008070300001C2241000041221C002A1C29
:100180007F1C2A08083E0808008070300008080814
:100190000808000060600020100804023E51494534
:1001A0003E00427F400072494949462141494D3352
:1001B0001814127F1027454545393C4A49493141B9
:1001C000211109073649494936464949291E000087
:1001D00014000000403400000008142241141414DC
:1001E0001414004122140802015909063E415D59C8
:1001F0004E7C1211127C7F494949363E41414122D1
:100200007F4141413E7F494949417F090909013EFA
:10021000414151737F0808087F00417F4100204021
:10022000413F017F081422417F404040407F021C33
:10023000027F7F0408107F3E4141413E7F0909094A
:10024000063E4151215E7F09192946264949493216
:1002500003017F01033F4040403F1F2040201F3FDC
:100260004038403F63140814630304780403615961
:10027000494D43007F4141410204081020004141A3
:10028000417F04020102044040404040000307084F
:100290000020545478407F2844443838444444284B
:1002A000384444287F385454541800087E090218F2
:1002B000A4A49C787F0804047800447D400020407A
:1002C000403D007F1028440000417F40007C0478BE
:1002D00004787C080404783844444438FC18242406
:1002E0001818242418FC7C08040408485454542486
:1002F00004043F44243C4040207C1C2040201C3C03
:100300004030403C44281028444C9090907C4464F9
:10031000544C44000836410000007700000041368C
:10032000080002010204023C2623263C1EA1A16112
:10033000123A4040207A3854545559215555794144
:100340002254547842215554784020545579400C19
:100350001E527212395555555939545454593955FC
:100360005454580000457C410002457D420001453F
:100370007C407D1211127DF0282528F07C545545D3
:10038000002054547C547C0A097F4932494949323F
:100390003A4444443A324A4848303A4141217A3A50
:1003A00042402078009DA0A07D3D4242423D3D401C
:1003B00040403D3C24FF2424487E4943662B2FFCCB
:1003C0002F2BFF0929F620C0887E09032054547979
:1003D000410000447D413048484A32384040227A4A
:1003E000007A0A0A727D0D19317D2629292F2826C7
:1003F0002929292630484D402038080808080808CF
:100400000808382F10C8ACBA2F102834FA00007B27
:10041000000008142A142222142A1408550055003A
:1004200055AA55AA55AAFF55FF55FF000000FF0029
:10043000101010FF00141414FF001010FF00FF1024
:1004400010F010F0141414FC001414F700FF000056
:10045000FF00FF1414F404FC141417101F10101FD5
:10046000101F1414141F00101010F0000000001FC3
:10047000101010101F10101010F010000000FF10CE
:100480001010101010101010FF10000000FF1400CA
:1004900000FF00FF00001F10170000FC04F41414FC
:1004A0001710171414F404F40000FF00F7141414C8
:1004B00014141414F700F7141414171410101F1048
:1004C0001F141414F4141010F010F000001F101F6B
:1004D0000000001F14000000FC140000F010F010D9
:1004E00010FF10FF141414FF141010101F00000050
:1004F00000F010FFFFFFFFFFF0F0F0F0F0FFFFFF54
:100500000000000000FFFF0F0F0F0F0F38444438AA
:1005100044FC4A4A4A347E02020606027E027E02F9
:1005200063554941633844443C04407E201E200604
:10053000027E020299A5E7A5991C2A492A1C4C7241
:1005400001724C304A4D4D303048784830BC625AC8
:10055000463D3E494949007E0101017E2A2A2A2A58
:100560002A44445F444440514A444040444A514034
:100570000000FF0103E080FF000008086B6B0836F5
:1005800012362436060F090F060000181800000066
:100590001010003040FF0101001F01011E00191D55
:1005A0001712003C3C3C3C00000000000001030727
:1005B0000F1F3F7F0080C0E0F0F8FCFE080B000238
:1005C00002020000090400000102020000052400EC
:1005D000100105240101010424020605240600017E
:1005E0000705810310004009040100020A00000011
:1005F00007050202400000070583024000000403D3
:10060000090412010002EF0201404F1B0D9200018C
:1006100001020301537061726B46756E004D4B6EA3
:100620006F625F312E333000DB40A4A62EAF200076
:10063000A1C8D300408DAED580A8000060000000A6
:100640000000000000000000000000E000000000CA
:1006500000000000000000000001E00000000000B9
:10066000000000000000000001F000000000000099
:100670000000000000000003F00000000000000087
:1006800000000000000007F0000000000000000073
:10069000000000000007F80000000000000000005B
:1006A000000000000FF800000003C0007E00000101
:1006B000E0007F0FF800000003C000FE000001E032
:1006C00000FFEFF800000003C000FE000001E000A2
:1006D000FFFFF800000003C000F00000000F007FE3
:1006E000FE7FC0000003C000F00000000F003FFECE
:1006F0007FF83FF1FBCFFCFEF3BC3DEFE01FFE7F38
:10070000FF7FFBFFDFFEFEFFBC3DEFE01FC6FFFFEC
:100710007FFBFFDFFEFEFFBC3DEFE00FE3C7FE788F
:100720007BC3DE1EF0FFBC3DEF0007FF87FC787B3C
:10073000C3DE1EF0F83C3DEF0001FFFFF0007BC37D
:10074000C01EF0F03C3DEF0001F37FE03FFBC3CF64
:10075000FEF0F03C3DEF0003E33F807FFBC3DFFE94
:10076000F0F03C3DEF0007E73C00787BC3DE1EF075
:10077000F03C3DEF0007FFBE00787BC3DE1EF0F0CB
:100780003C3DEF0007FFFE00787BC3DE1EF0F03C2F
:100790003DEF000FFFFE007FFBFFDFFEF0F03FFDAF
:1007A000EFE00FFFFF007FFBFFDFFEF0F03FFDEF0C
:1007B000E00FF9FF003E79F9CF9EF0F01F3DE7E032
:1007C0001FF1FF0000000000000000000000001FFB
:1007D00080FF007FFFFFFFFFFFFFFFFFFFE01C0028
:1007E0007F007FFFFFFFFEB46D888D18E000001FC3
:1007F000007FFFFFFFFE95AD7DB577E000000F00A5
:100800007FFFFFFFFEA5AD9D8D19E0000006007F74
:10081000FFFFFFFEB5ADEDB57EE00000000000017A
:1008200080000000000000000000038000000000C5
:10083000000000000007C0000000000000000000F1
:1008400007C00000000000000000000FC000000012
:100850000000000000001FE0000000000000000099
:10086000001FE00000000000000000003FE000006A
:10087000000000000000003FF00000000000000049
:1008800000007FF0000000000000001FF87FF00073
:100890000000000000003FFE7FF0000000000000AC
:1008A000003FFF7FF0000000000000001FFFFBE0A2
:1008B000000000000000000FFFF9FFC00000000072
:1008C00000000FFFF9FFF800000000000007FFF133
:1008D000FFFF00000000000003FC73FFFF8000002A
:1008E00000000001FE3FFFFF80000000000000FF4D
:1008F0001E0FFF000000000000007FFE1FFC000034
:1009000000000000003FFFFFF800000000000000B2
:100910000FDFFFE0000000000000001F19FFC00013
:100920000000000000003F3CFF000000000000004D
:10093000007E7CF800000000000000007FFE7C00CC
:1009400000000000000000FFFFFC000000000000AD
:100950000000FFFFFE0000000000000000FFFFFE9F
:100960000000000000000001FFEFFE00000000009A
:10097000000001FFCFFE0000000000000003FF07A1
:10098000FE0000000000000003FC07FE0000000065
:1009900000000003F003FE000000000000000180E2
:1009A00000FE000000000000000000007E000000CB
:1009B000000000000000003E0000000000000000F9
:1009C00000000C000000000000078000FC00000395
:1009D000C0000000078001FC000003C00000000709
:1009E0008001FC000003C0000000078001E000005F
:1009F000001E000000078001E00000001E007FE3F1
:100A0000F79FF9FDE7787BDFC0FFF7FFBFFDFDFF34
:100A1000787BDFC0FFF7FFBFFDFDFF787BDFC0F015
:100A2000F787BC3DE1FF787BDE00F0F787BC3DE156
:100A3000F0787BDE0000F787803DE1E0787BDE0028
:100A40007FF7879FFDE1E0787BDE00FFF787BFFD42
:100A5000E1E0787BDE00F0F787BC3DE1E0787BDE0B
:100A600000F0F787BC3DE1E0787BDE00F0F787BC63
:100A70003DE1E0787BDE00FFF7FFBFFDE1E07FFBBB
:100A8000DFC0FFF7FFBFFDE1E07FFBDFC07CF3F3DA
:100A90009F3DE1E03E7BCFC0000000000000000071
:100AA000000000FFFFFFFFFFFFFFFFFFFFC0FFFF92
:100AB000FFFFFD68DB111A31C0FFFFFFFFFD2B5A5E
:100AC000FB6AEFC0FFFFFFFFFD4B5B3B1A33C0FF2C
:100AD000FFFFFFFD6B5BDB6AFDC0535344313330D6
:100AE0003620616C6C6F636174696F6E206661693A
:100AF0006C65640000000000240027002A002D001F
:100B00003000000000002300260029002C002F00E8
:100B10000000000200090F0000030401000C0000A7
:100B200000000000000000000000000000002200A3
:100B3000FF210408020110408040102040804080C6
:100B40000802040180402010020110801020404063
:100B50002000000000250028002B002E003100049A
:100B60000404040403040502020202040302020254
:100B700002060606060606040402020204043321E5
:100B8000792F11241FBECFEFDAE0DEBFCDBF13E017
:100B9000A0E0B1E0E2EFF6E602C005900D92A235CA
:100BA000B107D9F726E0A2E5B3E001C01D92A03C51
:100BB000B207E1F715E0C0ECD5E004C02197FE01D3
:100BC0000E94E32FCF3BD107C9F70E94F6220C9475
:100BD0006C330C9400004F925F926F927F928F92D1
:100BE0009F92AF92BF92FF9220915C0630915D067A
:100BF0008217930708F043C02B0166247724852EC3
:100C0000962EA72EBB24B82DA42F20916206F42C7B
:100C1000222391F0E22FF0E0E49DD001E59DB00D9C
:100C2000F49DB00D1124FB2E289D40011124B92DF7
:100C3000249F90011124A32FE09168062091630660
:100C40003091640650916506E51323C0FC01EE0F58
:100C5000FF1F8E0F9F1F820F931FE0916506E80F05
:100C6000F92FF11DF082E0916606E80FF92FF11DD2
:100C7000B08320916706820F911DFC01A083FF9035
:100C8000BF90AF909F908F907F906F905F904F90AC
:100C90000895880F991F880F991F820F931FE80FDF
:100CA000F92FF11D1082D9CF8091500690915106F5
:100CB00020915006309151062330310521F01092D9
:100CC0005106109250060895F8948091480690912C
:100CD000490620914C06223001F59C0121703327F2
:100CE0003093490620934806789420914C0624308E
:100CF000F9F4959587959595879520914F06222330
:100D0000E1F020914D0630914E06232F332797FFB7
:100D100017C0C901809590950895243021F49C0155
:100D200023703327DDCF1092490610924806DCCF9E
:100D3000223019F795958795E0CF30E020E0E7CF96
:100D4000009711F0C90101960895089581508F30E0
:100D500008F047C0E82FF0E0E055F94F0C94E32F7E
:100D6000CD06D106BF06C506C906F106F106F10695
:100D7000D406DA06DE06E206E806F106EC06809105
:100D800080008F77809380000895809180008F7D10
:100D9000F9CF80918000877FF5CF84B58F7784BDB0
:100DA000089584B58F7DFBCF809190008F778093DD
:100DB00090000895809190008F7DF9CF80919000F0
:100DC000877FF5CF8091C0008F778093C000089512
:100DD0008091C0008F7DF9CF8091C200877F809382
:100DE000C2000895CF93DF93282F30E0F901E05F30
:100DF000F44F8491F901EE5CF44FD491F901E15A7A
:100E0000F44FC491CC23A1F081110E94A606EC2FCF
:100E1000F0E0EE0FFF1FEE5FF44FA591B491EC915F
:100E2000ED2381E090E009F480E0DF91CF91089517
:100E300080E090E0FACF1F93CF93DF93282F30E02C
:100E4000F901E05FF44F8491F901EE5CF44FD49125
:100E5000F901E15AF44FC491CC23A9F0162F811166
:100E60000E94A606EC2FF0E0EE0FFF1FEF5AF44FA2
:100E7000A591B4918FB7F894EC91111108C0D09559
:100E8000DE23DC938FBFDF91CF911F910895DE2B7E
:100E9000F8CFCF93DF9390E0FC01EE5CF44F249108
:100EA000815A944FFC0184918823C9F090E0880F07
:100EB000991FFC01EC50F54FA591B491FC01EF5A3C
:100EC000F44FC591D49161110DC09FB7F8948C91E6
:100ED000209582238C938881282328839FBFDF91CC
:100EE000CF910895623051F49FB7F8943C91822FCE
:100EF000809583238C93E8812E2BEFCF8FB7F894C6
:100F0000EC912E2B2C938FBFEACF3FB7F8948091B2
:100F1000E0059091E105A091E205B091E30526B5C9
:100F2000A89B05C02F3F19F00196A11DB11D3FBF21
:100F3000BA2FA92F982F8827BC01CD01620F711DF0
:100F4000811D911D42E0660F771F881F991F4A95EA
:100F5000D1F708950F931F93CF93DF93CDB7DEB7EB
:100F600029970FB6F894DEBF0FBECDBF8091630600
:100F700090916406892B09F47CC00E94850700913A
:100F8000690610916A0620916B0630916C06601715
:100F900071078207930740F46093690670936A06AD
:100FA00080936B0690936C060091690610916A0617
:100FB00020916B0630916C06601B710B820B930BBA
:100FC0006C32714081059105C0F2F89480915E0603
:100FD00090915F069A838983E0916306F09164069D
:100FE000DF0111968081898790915A06E0916D0604
:100FF000F0916E0680916F06992309F445C09081A7
:10100000982B98879081809589238F838F818C83FB
:1010100088E08B8358856F8149853B812C8189814C
:101020009A81508347FD252F3A952083262F39F04A
:10103000441F00C000006083000000C0F2CF38E011
:101040004D9160830000019761F7F0936E06E09385
:101050006D0649873B832C839A83898378940E9409
:1010600085076093690670936A0680936B06909378
:101070006C0629960FB6F894DEBF0FBECDBFDF9188
:10108000CF911F910F9108959081982B988790810F
:10109000809589238F838F818E8388E08D83588507
:1010A0006F8149853D812E8189819A81508347FDD9
:1010B000252F00C000C0208300C000C000C000C0B9
:1010C00000C060830000262F3A9541F0441F0000C5
:1010D00000C000C000C000C000C0E8CF38E04D91A3
:1010E00000C0608300C0019709F7F0936E06E0939B
:1010F0006D0649873D832E83AFCF8F929F92AF922B
:10110000BF92CF92DF92EF92FF924B015C010E945F
:1011100085076B017C010E9485076C197D098E098A
:101120009F09683E734081059105A8F321E0821A6A
:101130009108A108B10888EEC80E83E0D81EE11C12
:10114000F11C81149104A104B10429F7FF90EF90E0
:10115000DF90CF90BF90AF909F908F9008952FB762
:10116000F8946091DC057091DD058091DE05909129
:10117000DF052FBF0895089508958093E9008091B9
:10118000F200882319F08AE38093E80008954091E3
:1011900010045091110420910E0430910F04421755
:1011A0005307B4F49091E8009570E1F39091E80052
:1011B00092FD19C08093F100809110049091110468
:1011C00001968F739927892B19F48EEF8093E8008D
:1011D00080911004909111040196909311048093D2
:1011E000100481E0089580E00895DF92EF92FF926D
:1011F0000F931F93CF93DF93D82E8A01EB017B01CE
:10120000E40EF51ECE15DF0559F0D7FE12C0FE0123
:1012100084910E94C70821968111F4CF0FEF1FEF30
:10122000C801DF91CF911F910F91FF90EF90DF9058
:1012300008958881EECF2FB7F89487708093E900E6
:101240009091E800892F807295FF04C09091F20080
:1012500080E4891B2FBF08957F928F929F92AF9257
:10126000BF92CF92DF92EF92FF920F931F93CF9393
:10127000DF93C82E8B017A0180911704811110C071
:101280008FEF9FEFDF91CF911F910F91FF90EF9024
:10129000DF90CF90BF90AF909F908F907F900895F8
:1012A0008091150480FF05C08091E00082608093EA
:1012B000E000CE2DDF2DD12C8AEFB82E8C2D87703B
:1012C000982E8C2D8072882E8C2D8074782E9AE327
:1012D000A92E209719F4DD2009F452C08C2D0E940C
:1012E0001B0981110AC0BA94BB2051F261E070E081
:1012F00080E090E00E947D08ECCF8C171D0611F075
:101300000CF08C2F9FB7F8949092E9002091E800A0
:1013100025FD02C09FBFDDCF282F30E0C21BD30BBD
:10132000882029F08150A0F01092F100FBCFF80145
:10133000C7FC0AC0815050F041914093F100FACFB0
:1013400044914093F10031968150D0F7020F131F62
:10135000DD2021F0A092E800D12CDCCF8091E800C4
:1013600085FD07C0A092E800DD24D394209791F278
:10137000F3CF209779F6772069F2A092E800CACFE0
:101380005D9884E680931404C7017CCF9091170484
:10139000992319F13FB7F89487708093E900809101
:1013A000F20090E0481759070CF4CA01282FFB01FE
:1013B00054E6215038F02898509313044091F100DE
:1013C0004193F7CF009739F02091F200211103C02B
:1013D0002BE62093E8003FBF08958FEF9FEF08951D
:1013E0009FB7F89487708093E9008091F2009FBFC7
:1013F0000895615030F02091F100FC0120830196A6
:10140000F8CF289884E6809313040895AF92BF9292
:10141000CF92DF92EF92FF920F931F93CF93DF93C0
:101420006C017B018B01040F151FEB015E01AE18EF
:10143000BF08C017D10759F06991D601ED91FC9111
:101440000190F081E02DC6010995892B79F7C5013E
:10145000DF91CF911F910F91FF90EF90DF90CF9090
:10146000BF90AF9008958091060481110DC082E075
:101470008093020484E08093030410920504109288
:10148000040481E08093060482E094E008950F93C1
:101490001F93CF93DF931F92CDB7DEB782E089838E
:1014A00042E450E06CEB75E080E80E94F5080E9491
:1014B000330ADC0112960D911C910115110589F07A
:1014C000D801ED91FC910280F381E02DBE016F5FA8
:1014D0007F4FC801099597FD04C0F801008511856B
:1014E000ECCF89810F90DF91CF911F910F910895DB
:1014F000CF93DF93EC0180910B01882331F083E0DF
:101500000E942C091816190634F081E090E09B83A4
:101510008A8380E090E0DF91CF910895CF93DF93AD
:101520001F92CDB7DEB76983DC01ED91FC9102809B
:10153000F381E02D41E050E0BE016F5F7F4F0995E0
:101540000F90DF91CF91089583E00C94BD0883E064
:101550000E941B0990E00895CF93DF931F92CDB7AF
:10156000DEB7FC018485958597FD08C02FEF3FEF1E
:10157000358724870F90DF91CF91089541E050E0A7
:10158000BE016F5F7F4F82E00E94C609019719F488
:10159000898190E0EFCF8FEF9FEFECCF0F931F93F8
:1015A000CF93DF931F92CDB7DEB78C01FC0184850A
:1015B000958597FF0FC041E050E0BE016F5F7F4F00
:1015C00082E00E94C609019771F4898190E0F801D8
:1015D00095878487F801848595850F90DF91CF9159
:1015E0001F910F9108958FEF9FEFF1CFFC0184853C
:1015F000958597FD06C082E00E94F00990E0019673
:10160000089582E00E94F00990E00895EF92FF9221
:101610000F931F93CF93DF93EC01EC80FD806E1549
:101620007F050CF070C057FF04C0240F351F50E039
:1016300040E08E819F81FA01E20FF31F8E179F0712
:101640001CF49C01241B350B121613060CF05BC016
:10165000922F842F8695869586958E9DD0018F9D9D
:10166000B00D11246A0F7B1FAF8DB8A1A60FB71F55
:10167000477049F188E0841B482F682F70E0FB0118
:10168000EC54FA4FE491281708F063C0621B71090B
:101690002FEF30E002C0359527956A95E2F7E223F7
:1016A0000130110539F0B0F10230110561F58C916E
:1016B000E82702C08C91E82BEC93941720F12C8141
:1016C0003D81A20FB31FE92FE41BE83078F0023010
:1016D000110521F58E2F9C9190959C932C813D8135
:1016E000A20FB31F88508830B0F7E770EE2359F08F
:1016F000F0E0E455FA4FE49101301105F9F010F1F2
:101700000230110519F1DF91CF911F910F91FF90D8
:10171000EF900895E0958C91E823CECF81E00115FC
:10172000110509F480E081959E2F8C932C813D81D9
:10173000A20FB31F98509830C0F7D7CF8C91E82BE9
:10174000EC93E1CFE0958C91E823FACF8C91E827D8
:10175000F7CF0130110509F4ADCFE0F202301105E9
:1017600009F4A5CFAE0DBF1DAECF0F931F93CF933E
:10177000DF9377FF04C0260F371F70E060E0DC01C5
:101780001496CD91DC91FB01E20FF31FCE17DF071A
:101790001CF49E01261B370B121613064CF5FA019A
:1017A00057FD3796A3E0F595E795AA95E1F7EC9FED
:1017B000D001ED9FB00DFC9FB00D11246A0F7B1F6F
:1017C000DC015F96ED91FC91E60FF71F47705527FE
:1017D00081E090E001C0880F4A95EAF7482F013078
:1017E000110559F0A8F02E0F3F1F02301105E1F04E
:1017F000DF91CF911F910F9108952E0F3F1FE21798
:10180000F307B1F38191DF011197842B8C93F7CF0C
:1018100080952E0F3F1FE217F30751F39191DF01DF
:10182000119798239C93F7CFE217F30709F381915F
:10183000DF01119784278C93F7CF0F931F93FA0141
:10184000DC0156964C9156974230E9F04330A1F1B5
:10185000413061F514964D915C91DA01AE1BBF0BDE
:10186000FD01E21BF30B77FD0BC0DC0116964D91D9
:101870005C916417750724F4AB01BF010E94B50B9E
:101880001F910F91089514964D915C91DA01A61B5A
:10189000B70BBD0161507109DC0116964D915C9149
:1018A000DA01AE1BBF0BFD01E21BF30B77FDE8CFA6
:1018B000AF010E94060BE4CF16964D915C91DA01C0
:1018C000A61BB70BBD0161507109CDCF0F931F93BC
:1018D000FA01DC0156964C9156974230A9F04330FC
:1018E00091F1413019F514964D915C91DA01AE1BDE
:1018F000BF0BFD013197F7FD04C0AB01BF010E9492
:10190000060B1F910F91089514964D915C91DA0189
:10191000A61BB70BBD01DC0116964D915C91DA0157
:10192000AE1BBF0BFD013197621B730BF7FDE9CFB7
:10193000DC0116964D915C91E417F50714F7AF01A1
:101940000E94B50BDECF16964D915C91DA01A61B75
:10195000B70BBD01621B730BCECFFC0177FD64C0DA
:1019600080859185681779070CF05EC057FD5CC0D3
:1019700082859385481759070CF056C086898230B6
:10198000B1F0833029F1813041F484819581841B49
:10199000950BAB01BC01615071092130310509F192
:1019A00008F443C02230310509F463C008958481EE
:1019B0009581DC01A61BB70BBD01615071098681C1
:1019C0009781DC01A41BB50BAD0141505109E5CF56
:1019D00086819781861B970BBA01AC014150510952
:1019E000DCCFCA0157FD0796A3E095958795AA9588
:1019F000E1F7A481B5818A9F90018B9F300D9A9F5A
:101A0000300D1124620F731F078CF0A1E02DE60F3B
:101A1000F71F4770552721E030E001C0220F4A959B
:101A2000EAF78081822B80830895CA0157FD0796CB
:101A300033E0959587953A95E1F7A481B5818A9F22
:101A400090018B9F300D9A9F300D1124620F731FF0
:101A5000078CF0A1E02DE60FF71F4770552781E0B6
:101A600090E001C0880F4A95EAF78095908189231C
:101A7000DACFCA0157FD079623E0959587952A95F9
:101A8000E1F7A481B5818A9F90018B9F300D9A9FC9
:101A9000300D1124620F731F078CF0A1E02DE60FAB
:101AA000F71F4770552721E030E001C0220F4A950B
:101AB000EAF780818227B7CF08958EBD00000DB46C
:101AC00007FEFDCF8EB508958CBD9DBD0895089588
:101AD0000895FC016370668B84819581268137812E
:101AE000613039F0633029F091878087338722870E
:101AF0000895318720879387828708952F923F9298
:101B00004F925F926F927F928F929F92AF92BF920D
:101B1000CF92DF92EF92FF920F931F93CF93DF93B9
:101B2000CDB7DEB76A970FB6F894DEBF0FBECDBF54
:101B30009A8F898F7A8369834A01D22E18870F83FF
:101B40003701BC2CDC0159962D913C915A972115F7
:101B5000310509F015C118968D919C911997681758
:101B600079070CF0D7C11A968D919C9148175907A7
:101B70000CF0D0C14C2C512CB6E0CB9E600D711DE9
:101B800011247C876B87161617060CF0C3C1EA2D4B
:101B9000F0E0FA87E98793E0EE0FFF1F9A95E1F7EF
:101BA000F88BEF87CF01840F951F181619060CF0DC
:101BB000B1C1A98DBA8D58968C91811104C0BFEA2C
:101BC000BD1508F4D394A98DBA8DED91FC911197B0
:101BD0000284F385E02DCD010995B5E0DB9EC001BF
:101BE0001124E981FA81FC83EB83312C212C9C01A7
:101BF00024553F4F388F2F8B4A2D50E05E8B4D8BF5
:101C0000EF89F88DE20DF31D44919E828D82D12CD7
:101C1000C12C69817A81620D731D7A8B698B842F47
:101C200090E09C8B8B8BE98DFA8DA081B18140FF78
:101C300082C0F1E0BF126FC0AF126DC01C96ED9173
:101C4000FC912F813885A4014C0D5D1D69897A892D
:101C5000898D9A8D0995EB89FC89F595E7954E2F2D
:101C60005FEFC51AD50A6D817E818D899E89680FC7
:101C7000791F7E836D8398E0C916D10481F6AFEF9A
:101C80002A1A3A0AEB81FC81E40DF51DFC83EB83F3
:101C9000F5E02F16310409F0B3CF2F8138852615D2
:101CA0003705B9F0A98DBA8DED91FC91B1E0BB1269
:101CB00057C0AB1255C069817A816B5F7F4F008836
:101CC000F189E02D830128E030E0A401898D9A8D0F
:101CD0000995A98DBA8DED91FC9111970688F78928
:101CE000E02DCD016A960FB6F894DEBF0FBECDBFD2
:101CF000DF91CF911F910F91FF90EF90DF90CF90E8
:101D0000BF90AF909F908F907F906F905F904F901B
:101D10003F902F9009941E96ED91FC91EF80F884EE
:101D200009851A8592014D815E816B817C81898D47
:101D30009A8D099590CF2F8138852615370509F49E
:101D40008ACF31E0B31207C0A31205C01C96ED91F3
:101D5000FC91930178CF1E96ED91FC917301E0CF39
:101D60006B857C85641975090684F785E02D730100
:101D70000F8518899201A401898D9A8D0995A9CFA3
:101D8000F90134969491329745915491D91AB7E05C
:101D9000DB9E400D511D1124F901259134913C8B9E
:101DA0002B8BFA0125903490FA013296749031967B
:101DB0003491398B329664903196449041E04C15C1
:101DC00018F04A1508F07FC0662D062C000C770B22
:101DD0007C836B83842D042C000C990B9E838D8354
:101DE000A98DBA8DED91FC9111970284F385E02DB8
:101DF000CD010995512CD12CC12CEA2DF0E0FA87A8
:101E0000E9872B2D30E03C872B87A401440D511D21
:101E100047FC5A95588F4F8B69817A81660D711DE9
:101E200067FC7A957E876D877989C71608F051CF50
:101E30002C2D30E04D815E81420F531FA985BA855C
:101E40004A9FC0014B9F900D5A9F900D1124FC0199
:101E5000E80DF91DF88BEF87852D612C4F89588D82
:101E6000420F531F5E8B4D8B671408F050C0442403
:101E70004394480E877041F4C1010196EB89FC89B7
:101E8000E20DF31DD4901C01D7FE19C0A98DBA8DA7
:101E9000ED91FC91662D70E0B1E0BB1219C0AB1260
:101EA00017C02D853E85620F731F0484F585E02DD4
:101EB0002F8138854D895E89898D9A8D0995DD0C34
:101EC0006394842DD1CF1E821D821C821B8288CFF9
:101ED0004B815C81640F751FAB85BC856A9FC00117
:101EE0006B9F900D7A9F900D112469817A81680F04
:101EF000791F0684F785E02DEF80F88409851A851F
:101F00009D014F855889898D9A8D0995D8CF570C99
:101F1000C3948ACF6A960FB6F894DEBF0FBECDBFCA
:101F2000DF91CF911F910F91FF90EF90DF90CF90B5
:101F3000BF90AF909F908F907F906F905F904F90E9
:101F40003F902F9008958F929F92AF92CF92EF92F1
:101F5000FF920F931F93CF93DF93EC01262F898D70
:101F60009A8D009709F051C06A30D1F41D861C8605
:101F70008D8948E0849F900111248E859F85820F72
:101F8000931F9F878E8781E090E0DF91CF911F9113
:101F90000F91FF90EF90CF90AF909F908F9008950A
:101FA0006D3089F3CC88AD888F898823C1F08C850A
:101FB0009D8536E0C39E800D911D1124488559856D
:101FC0004817590764F44E855F851D861C8638E0E6
:101FD000A39EC0011124840F951F9F878E87EA88D6
:101FE000FB88088919894E855F856C857D85CE01C2
:101FF0000E947E0D2C898C859D8546E0249F800D56
:10200000911D11249D878C87BECF6A3069F41D868F
:102010001C86FC013896E4912D898E859F85E29F70
:10202000800D911D1124ADCF6D3009F4ACCFFC01B2
:1020300034963491631708F4A6CF3296E491E617EC
:1020400008F4A1CFFC01329685909490462F431B53
:10205000342F47E0349F800C911C1124F4013296F8
:1020600034913196E4913323A9F1EE2399F1CC8890
:10207000F4013596E491AD884F89442301F10E2E89
:10208000000CFF0BE30FF11DCE9EA001CF9E500D63
:1020900011246C857D85460F571F688579856417E7
:1020A00075076CF44E855F851D861C86FC0138968D
:1020B000E491AE9E400D511D11245F874E87EA8842
:1020C000FB88088919894E855F856C857D85CE01E1
:1020D0000E947E0DF4013496E4912C898C859D85B7
:1020E000E29F800D911D11248DCF6F927F928F9270
:1020F0009F92AF92BF92CF92DF92EF92FF920F9397
:102100001F93CF93DF93EC016B015A013901480112
:10211000E881F9810284F385E02D0995E881F98150
:102120000288F389E02D87019301A501B601CE0154
:102130000995A501480D591D41505109E881F981C2
:102140000288F389E02D9301B601CE010995E8815B
:10215000F9810088F189E02D9401A501B601CE0135
:102160000995C60CD71CB60161507109E881F98147
:102170000088F189E02D9401A501CE010995E8813F
:10218000F9810688F789E02DCE01DF91CF911F916B
:102190000F91FF90EF90DF90CF90BF90AF909F9006
:1021A0008F907F906F9009946F927F928F929F9201
:1021B000AF92BF92CF92DF92EF92FF920F931F9355
:1021C000CF93DF935C01EB016A014901380187017C
:1021D000DC01ED91FC916217730719F56416750621
:1021E0002CF0962D872D3A01C92ED82E960126194E
:1021F00037092F5F3F4F048CF58DE02DA301BE0101
:10220000C5010995DF91CF911F910F91FF90EF903C
:10221000DF90CF90BF90AF909F908F907F906F9006
:1022200008954615570591F42617370724F0892D90
:102230004B01C22FD82F9E01281939092F5F3F4F1C
:10224000068CF78DE02DA601B401DACF0284F38568
:10225000E02D0995D501ED91FC910488F589E02DDB
:1022600083019401A601BE01C5010995D501ED9137
:10227000FC910688F789E02DC501DF91CF911F9170
:102280000F91FF90EF90DF90CF90BF90AF909F9015
:102290008F907F906F900994EF92FF920F931F930E
:1022A000DC011A960D911C911B9718962D913C916B
:1022B0001997ED91FC9100A0F1A1E02D7B0150E078
:1022C00040E070E060E009951F910F91FF90EF9062
:1022D00008954F925F926F927F928F929F92AF92EA
:1022E000BF92CF92DF92EF92FF920F931F93CF9303
:1022F000DF936C012B015A0139014801DC01ED919A
:10230000FC910284F385E02D0995E201640C751CB3
:10231000D601ED91FC91C615D7055CF40088F189D2
:10232000E02D87019401A501BE01C6010995219602
:10233000EFCF0688F789E02DC601DF91CF911F917D
:102340000F91FF90EF90DF90CF90BF90AF909F9054
:102350008F907F906F905F904F9009948F929F9293
:10236000AF92BF92CF92DF92EF92FF920F931F93A3
:10237000CF93DF93EC015B014A016901E881F981A8
:102380000284F385E02D099595012C0D3D1D21500A
:102390003109E881F9810488F589E02D780184010B
:1023A000A401B501CE010995E881F9810688F78974
:1023B000E02DCE01DF91CF911F910F91FF90EF9013
:1023C000DF90CF90BF90AF909F908F9009948F92A5
:1023D0009F92AF92BF92CF92DF92EF92FF920F93B4
:1023E0001F93CF93DF93EC015B014A0169017801F0
:1023F000E881F9810284F385E02D0995C80CD91C88
:10240000860101501109E881F9810488F589E02DE0
:102410009501A401B501CE010995E881F9810688ED
:10242000F789E02DCE01DF91CF911F910F91FF90A1
:10243000EF90DF90CF90BF90AF909F908F900994D6
:10244000EF92FF920F931F93DC01ED91FC9100A09E
:10245000F1A1E02D09951F910F91FF90EF90089544
:102460000F931F93DC01ED91FC91068CF78DE02D0D
:1024700009951F910F9108950F931F93DC01ED9122
:10248000FC91048CF58DE02D09951F910F91089515
:10249000DC01ED91FC910084F185E02D09943F92DF
:1024A0004F925F926F927F928F929F92AF92BF9264
:1024B000CF92DF92EF92FF920F931F93CF93DF9310
:1024C0005C017B014A016901390187E0680E711CDA
:1024D00093E0759467949A95E1F72B01400E511E95
:1024E00010E000E0312CD0E0C0E0CE0187709927E9
:1024F000330C892B59F4FE0183E0F595E7958A9515
:10250000E1F7E00FF11FE80DF91D349037FE0AC026
:1025100021E030E0A701B5016C0F7D1F8CE796E04C
:102520000E9448122196CC16DD06F9F68FEFE81AC4
:10253000F80A060D171DE414F504A9F6DF91CF91F2
:102540001F910F91FF90EF90DF90CF90BF90AF90D1
:102550009F908F907F906F905F904F903F900895E5
:102560002F923F924F925F926F927F928F929F92A3
:10257000AF92BF92CF92DF92EF92FF920F931F9391
:10258000CF93DF9300D000D000D0CDB7DEB73C01B1
:102590006A013E832D83FC82EB825801A41AB50A9E
:1025A000B7FE03C0B194A194B1088D809E80861AB5
:1025B000970A97FE03C09194819491088A149B0412
:1025C0005CF0902F812F0D811E819D838E839C2D29
:1025D0008D2D6B01692F782F0C151D055CF09D81E9
:1025E0008E817E836D83692F782F902F812F8601B6
:1025F000C92ED82E1601201A310A2B012D813E81B9
:10260000421A530A57FE03C0519441945108710174
:1026100037FE03C03FEFE31AF30AF594E7948D8188
:102620009E81861797075CF5A1E0B0E0BA83A98385
:10263000C016D1064CF1D301ED91FC910484F585CF
:10264000E02D2B813C81A8016D817E818A149B0441
:102650001CF04D815E81B801C3010995E418F508AD
:10266000F7FE0AC02D813E8189819A81280F391F8A
:102670003E832D83E20CF31C0F5F1F4FD9CF2FEF4A
:102680003FEF3A832983D4CF26960FB6F894DEBF66
:102690000FBECDBFDF91CF911F910F91FF90EF90B3
:1026A000DF90CF90BF90AF909F908F907F906F9072
:1026B0005F904F903F902F90089508952091B80318
:1026C000260F3327331F21323105ECF42091DC0330
:1026D000FC0190E080E0243069F082E00895A09150
:1026E000B8032191AC0148565C4FA40FB52FB11D22
:1026F0002C930196861798F38091B803680F609326
:10270000B80380E0089581E008951092DC0381E031
:102710008093DE031092DD0361E082E00E941B07DC
:1027200061E083E00E941B07E9EBF0E080818E7F8F
:10273000808380818D7F808388E48093B80085E4E6
:102740008093BC000895CF93DF9391E0909397031B
:102750008823B9F0C091B800D091BA008091BC0034
:102760008A7B8093BC0060E082E00E941B0760E0EF
:1027700083E00E941B070E948513D093BA00C09388
:10278000B800DF91CF910895E0911E0480911D045F
:10279000E81730F4F0E0EE58FC4F808190E00895A7
:1027A0008FEF9FEF089590911E0480911D042FEFED
:1027B0003FEF981748F4E92FF0E0EE58FC4F2081E6
:1027C00030E09F5F90931E04C901089580911D041D
:1027D00090911E04891B990B0895CF92DF92EF927E
:1027E000FF920F931F93CF93DF937C01CB018A015C
:1027F0002091E705222389F0EB016B01C40ED51E61
:10280000CC15DD0569F06991D701ED91FC9101903E
:10281000F081E02DC7010995F3CF642F0E945E136C
:10282000C801DF91CF911F910F91FF90EF90DF9042
:10283000CF900895CF93DF931F92CDB7DEB7698312
:102840002091E7052223F9F02091E405203258F089
:1028500021E030E0FC013383228390E080E00F90A0
:10286000DF91CF9108958091E505E82FF0E0EE5AD1
:10287000FC4F998190838F5F8093E5058093E405F9
:1028800081E090E0ECCF61E0CE0101960E945E1302
:10289000F7CFCF92DF92EF92FF920F931F93CF93D8
:1028A000DF93D091E40581E0D13208F09CC0C09163
:1028B000E6050E9485076B017C018091DC03811194
:1028C0006CC082E08093DC0381E08093DE038FEFB5
:1028D0008093DB0310920004D093FF03A2E5B3E0E2
:1028E000EFEDF3E080E0D8138DC0109201048091E9
:1028F0000104CC0FC82BC09301048091DD0381300B
:1029000009F084C01092DD030E9485076B017C01F1
:10291000809101048093BB00809193039091940374
:10292000A0919503B0919603892B8A2B8B2BA1F054
:102930000E948507009193031091940320919503C1
:10294000309196036C197D098E099F0906171707A8
:102950002807390708F442C08091BC0083FDD8CF16
:1029600085EC8093BC000E9485076B017C018091FF
:10297000DC03823009F44CC08091DB038F3F09F403
:1029800069C08091DB03803209F466C08091DB036B
:10299000803309F463C084E026C080919303909152
:1029A0009403A0919503B0919603892B8A2B8B2BCE
:1029B00009F483CF0E94850700919303109194033B
:1029C00020919503309196036C197D098E099F091A
:1029D000061717072807390708F06FCF8091920371
:1029E0000E94A31385E01092E5051092E405109271
:1029F000E705DF91CF911F910F91FF90EF90DF904E
:102A0000CF9008959D9191938F5F6DCF85EEA9CF63
:102A10008091930390919403A0919503B0919603B4
:102A2000892B8A2B8B2B09F4A2CF0E94850700915A
:102A300093031091940320919503309196036C19A0
:102A40007D098E099F09061717072807390708F01F
:102A50008ECFC4CF80E0C7CF82E0C5CF83E0C3CFA5
:102A6000EF92FF920F931F93CF93DF937C01C62FBA
:102A70008091990690919A06009709F459C0209187
:102A80009D0631E03093E7052093E6051092E505B9
:102A90001092E405DC01ED91FC910190F081E02DB4
:102AA00060E009958701EE24E394F12CD1E0C15058
:102AB0008091990690919A06CF3F91F1B0E2EB1682
:102AC000F104D8F00E9449148091990690919A06D9
:102AD00020919D06D093E7052093E6051092E50529
:102AE0001092E405DC01ED91FC910190F081E02D64
:102AF00060E00995EE24E394F12C80919906909181
:102B00009A06F8016491DC01ED91FC910190F0814D
:102B1000E02D0995BFEFEB1AFB0A0F5F1F4FC7CFE0
:102B2000DF91CF911F910F91FF90EF900C9449147A
:102B3000E091A906F091AA0690818091AF06809558
:102B4000892380838701C15008F438C0F80184913B
:102B50002091970630919806232B29F00E945D0D55
:102B60000F5F1F4FF0CF28E030E040E8E091A5066E
:102B7000F091A6069091AD06582F5423D9F05081BC
:102B8000952B9083E091A706F091A8069081509133
:102B9000AE06952B9083E091A706F091A806508190
:102BA0009091AE06909595239083469521503109DA
:102BB000E9F6D6CF508190959523E3CFDF91CF9161
:102BC0001F910F91FF90EF9008951F93CF93DF9384
:102BD000EC018D8D9E8D009721F1162F29A131E0FA
:102BE0003093E7052093E6051092E5051092E40581
:102BF000DC01ED91FC910190F081E02D60E0099500
:102C00008D8D9E8DDC01ED91FC910190F081E02D88
:102C1000612F09958D8D9E8DDF91CF911F910C9421
:102C20004914ADA5BEA59C918BA9809589238C9351
:102C30008B8D9C8D892B31F0862FDF91CF911F9149
:102C40000C945D0D28E030E080E8A9A5BAA599A90B
:102C5000462F4823C1F04C91942B9C93ABA5BCA567
:102C60009C914AA9942B9C93ABA5BCA54C919AA985
:102C7000909594239C9386952150310931F7DF91EB
:102C8000CF911F9108954C9190959423E6CFDF92B8
:102C9000EF92FF920F931F93CF93DF93809199064A
:102CA00090919A06892B09F4A5C02091B106309124
:102CB000B2064091B3065091B40660E074E284EF2E
:102CC00090E00E94C12F20513109410951095695C8
:102CD0004795379527952093B80064E08EE29BE0F6
:102CE0000E94301580918006909181068034910574
:102CF00009F097C060E28CE796E00E94E5156091CC
:102D00008006615E8CE796E00E94E51520918206C0
:102D100030918306C901079697FD079633E0959594
:102D200087953A95E1F72091800630918106829F40
:102D30008001839F100D929F100D1124C0919B065E
:102D4000D0919C068091990690919A060C0F1D1FB8
:102D5000009709F498C020919D0631E03093E70573
:102D60002093E6051092E5051092E405DC01ED9153
:102D7000FC910190F081E02D60E40995EE24E3944C
:102D8000F12CDD24D3948091990690919A060C172A
:102D90001D0709F44FC0B0E2EB16F104D8F00E9411
:102DA00049148091990690919A0620919D06D0929F
:102DB000E7052093E6051092E5051092E405DC0195
:102DC000ED91FC910190F081E02D60E40995EE24F5
:102DD000E394F12C8091990690919A066991DC0117
:102DE000ED91FC910190F081E02D0995BFEFEB1A78
:102DF000FB0AC9CF8091970690919806892B31F0F4
:102E00008091BA069091BB060E94640DE091AB06DA
:102E1000F091AC0690818091B006809589238083E3
:102E20005CCF60E08CE796E00E94E515609180063B
:102E3000615068CF0E9449148091990690919A063A
:102E4000892B09F461C02091B5063091B6064091F6
:102E5000B7065091B80660E074E284EF90E00E94FB
:102E6000C12F205131094109510956954795379590
:102E700027952093B800DF91CF911F910F91FF907C
:102E8000EF90DF900895E091A906F091AA06808165
:102E90009091AF06892B80830C171D0769F28991E9
:102EA0002091970630919806232B19F00E945D0D12
:102EB000F3CF28E030E040E8E091A506F091A606C7
:102EC0009091AD06582F5423D9F05081952B9083C3
:102ED000E091A706F091A80690815091AE06952B3F
:102EE0009083E091A706F091A80650819091AE06DC
:102EF000909595239083469521503109E9F6CCCFE2
:102F0000508190959523E3CFE091AB06F091AC060C
:102F100080819091B006892B8083ADCF1F93CF9392
:102F2000DF93EC01162F8D8D9E8D892BB1F12DA98C
:102F30003EA94FA958AD60E074E284EF90E00E9492
:102F4000C12F2051310941095109569547953795AF
:102F500027952093B80066EA111167EACE010E9416
:102F6000E5158D8D9E8D892B41F129AD3AAD4BAD87
:102F70005CAD60E074E284EF90E00E94C12F2051CC
:102F80003109410951095695479537952795209361
:102F9000B800DF91CF911F9108958B8D9C8D892B67
:102FA00021F08EAD9FAD0E94640DEFA5F8A9908130
:102FB0008CA9809589238083CECFEFA5F8A9808145
:102FC0009CA9892B8083E5CF90E080E0089590E074
:102FD00080E0089580E008950F931F93CF93DF93CF
:102FE000CDB7DEB7C456D1090FB6F894DEBF0FBE19
:102FF000CDBFFC01DB019C919E5F9C939E01295FEC
:103000003F4F8AE5D9011D928A95E9F788E08983C7
:103010008BE08A8322E02C8391E09D839E8339E0BC
:10302000398764E06A879E879F873A8B44E24B8B9F
:103030009C8BA0E0B1E0BE8BAD8B09E010E0188F57
:103040000F8B998F3B8F6C8F2F8F98A353E059A3D1
:1030500087E08CA34DA39EA3B8A7AFA3A1E4B0E0E3
:10306000BAA7A9A786E08BA74CA72DA79EA79FA7C5
:1030700089AB4AAB2BAB2CAB2DAB3FAB48AF59AFB9
:103080009AAF5BAF9CAF2DAF9EAF21963FAF21971C
:1030900022964FAF229723965FAF239724962FAFA8
:1030A000249725966FAF259726969FAF269727964C
:1030B0009FAF279728969FAF28972A963FAF2A97CA
:1030C00045E02B964FAF2B972D962FAF2D9760E4B1
:1030D00070E02F967FAF6EAF2F9763964FAF6397D9
:1030E00085E264968FAF649765969FAF6597669605
:1030F0009FAF669767969FAF679768963FAF689751
:1031000069964FAF69976B962FAF6B976D967FAFB0
:103110006EAF6D97A1964FAFA197A2968FAFA29772
:10312000A3969FAFA397A4969FAFA497A5965FAFD2
:10313000A59792819B839B879F5F9A8F9D8F8381A9
:103140002C968FAF2C978F5F80686A968FAF6A97A7
:1031500044E650E0BE016F5F7F4F80E00E94F508BB
:10316000CC59DF4F0FB6F894DEBF0FBECDBFDF9155
:10317000CF911F910F910895CF92DF92EF92FF921E
:103180000F931F93CF93DF93181619060CF066C0A8
:103190008130910581F18F3791050CF062C0019764
:1031A0002AE0289FB001299F700D1124072E000CE2
:1031B000880B990B0E94193120E030E04CEF52E46B
:1031C0000E946F306B017C0120E030E0A9010E9479
:1031D000C93120E030E040E05FE387FD3AC0C7013D
:1031E000B6010E94FE2F0E94E130CB010196D0E093
:1031F000C0E097FD05C0EC010D9714F0CCE0D0E0E5
:1032000010E000E040E050E0BA010C171D077CF42C
:10321000809114014091150150E070E060E0762F3C
:10322000652F542F4427682B80911601482BC80125
:103230000E94EB050F5F1F4F0C30110519F7DF914E
:10324000CF911F910F91FF90EF90DF90CF900C9452
:10325000AA07C701B6010E94FD2FC5CF90E080E00C
:10326000CACF8CE090E0C7CFCF93DF9300D000D0DF
:10327000CDB7DEB71816190684F58131910514F023
:1032800080E190E0815077FD2AC06038710514F02C
:103290006FE770E057FD25C04038510514F04FE747
:1032A00050E09BE09983806B8A836B834C83809191
:1032B0003B0644E050E0BE016F5F7F4F8F5F0E948E
:1032C0002C0980913B068F5F0E94BD080F900F90E4
:1032D0000F900F90DF91CF91089580E0D4CF60E000
:1032E000D9CF40E0DECFCF92DF92EF92FF920F93E3
:1032F0001F93CF93DF930E94AF086B017C018091F5
:103300004F06882399F080914D0690914E060297C2
:1033100090934E0680934D0680914D0690914E06F7
:1033200097FF04C010924E0610924D0680914406FD
:103330000E94F20620914706C3E02817190609F0FB
:10334000C0E0809145060E94F206209147062817AA
:10335000190611F481E0C82780914A0690914B0626
:103360008C1B80FFA4C00C2E000CDD0BD0934B06F1
:10337000C0934A0620914806309149068270082E73
:10338000000C990B0197820F931F9093490680932D
:10339000480681E090914F06992391F0882381F0AF
:1033A00080914D0690914E06883E9B4048F4809156
:1033B0004D0690914E06499690934E0680934D0689
:1033C00080914606882309F469C0409156065091C1
:1033D0005706609158067091590697018601041BA3
:1033E000150B260B370BB901A8014A3051056105B1
:1033F000710508F453C0C0925606D0925706E09269
:103400005806F09259060E94F206209147062817A6
:10341000190691F480915306909154060196909369
:103420005406809353068937910530F083E090E08D
:103430009093510680935006809146060E94F206B2
:103440002091470631E0232728171906C1F48091FF
:10345000530690915406892B71F0809150069091FB
:103460005106039731F584E090E0909351068093E4
:1034700050061092550610925406109253068091F1
:103480005506882359F0825080935506811106C055
:1034900085E090E09093510680935006DF91CF91A4
:1034A0001F910F91FF90EF90DF90CF90089580E0F3
:1034B00071CF80915506823028F08C33E0F686E09B
:1034C00090E0D3CF80915206811104C081E08093B7
:1034D0005506D1CF8CE3FBCF209182063091830635
:1034E000C901079697FD079623E0959587952A953C
:1034F000E1F72091800630918106829FA001839F91
:10350000500D929F500D112470E060E080919B0659
:1035100090919C060C946533FF920F931F93CF9369
:10352000DF9304E111E0D0E0C0E0F801F1908F01F9
:10353000CE010E94972FF81621F06F2DCE010E9428
:103540009F2F2196C330D10581F784E191E0DF916F
:10355000CF911F910F91FF9008950E946033FB015E
:1035600001900020E9F73197AF01461B570BDC01B2
:10357000ED91FC910280F381E02D09948F929F924E
:10358000AF92BF92CF92DF92EF92FF920F931F9371
:10359000CF93DF93CDB7DEB7A1970FB6F894DEBF18
:1035A0000FBECDBF6C01990FEE08FF08F7FE43C0B8
:1035B0006DE28CE796E00E94A30F8C01222733274F
:1035C000A9012C193D094E095F0919A2CE01819666
:1035D0007C019AE0892E912CA12CB12CCA01B90151
:1035E000A50194010E94C12F605DF70162937F01E4
:1035F000211531054105510589F790E080E03097AC
:1036000029F0BF018CE796E00E94AF1A800F911F4E
:10361000A1960FB6F894DEBF0FBECDBFDF91CF915C
:103620001F910F91FF90EF90DF90CF90BF90AF90E0
:103630009F908F900895A701960119A28E010F5DAA
:103640001F4F8AE0C82ED12CE12CF12CCA01B90100
:10365000A70196010E94C12F605DF80162938F015E
:10366000211531054105510589F790E080E030973B
:1036700079F2BF018CE796E00E94AF1AC9CFBC0176
:103680008CE796E00C94AF1ACF93DF93BC018CE7E4
:1036900096E00E94AF1AEC0160EE71E08CE796E0D4
:1036A0000E94AF1A8C0F9D1FDF91CF910895CF9389
:1036B0000E946C1A82E0809390068093910681E0CC
:1036C00090E090938F0680938E0690938D06809362
:1036D0008C06109289061092880610928B06109222
:1036E0008A0680912705909128058130910509F47B
:1036F00056C008F44FC0029709F454C08FE090E020
:10370000909389068093880689E190E090938B06D8
:1037100080938A0681E0809390068093910681E0F1
:1037200092E00E943F1B8091D5059091D6050196AD
:103730000E94BE1A84E092E00E943F1B8091D50552
:103740009091D605C6E0C89FF001C99FF00D1124E5
:10375000E35AFA4F808191810E94BE1A89E092E07B
:103760000E943F1B8091D5059091D605C89FF0011E
:10377000C99FF00D1124E35AFA4F828193810E9470
:10378000BE1A60EE71E08CE796E00E94AF1ACF910E
:103790000C94471683EE91E00E94441BAFCF8EEE4F
:1037A00091E0FACF88EF91E0F7CFCF93DF930E94BB
:1037B0006C1A82E0809390068093910681E090E0FD
:1037C00090938F0680938E0690938D0680938C063F
:1037D000C5E0D0E0D0938906C093880610928B068E
:1037E00010928A068FE092E00E94441B81E0809351
:1037F000900680939106D0938906C093880688E14D
:1038000090E090938B0680938A0680915205909168
:1038100053058130910561F030F0029761F0DF913E
:10382000CF910C94471688E192E00E94441BF7CF99
:1038300083E292E0FACF8FE292E0F7CFCF930E943B
:103840006C1AECE7F6E082E0848B858B81E090E0F7
:10385000938B828B918B808B1586148617861686A8
:103860008DE392E00E943F1B8091D5059091D60593
:1038700001960E94BE1A80E492E00E943F1B809154
:10388000D5059091D605C6E0C89FF001C99FF00DFF
:103890001124E35AFA4F808191810E94BE1A60EE92
:1038A00071E08CE796E00E94AF1A85E492E00E94F6
:1038B0003F1B8091D5059091D605C89FF001C99F07
:1038C000F00D1124E35AFA4F828193810E94BE1AAF
:1038D00088E492E00E943F1B8091D5059091D60527
:1038E000C89FF001C99FF00D1124E35AFA4F84815B
:1038F00095810E94BE1ACF910C94471685ED809356
:10390000BC008091930390919403A0919503B09192
:1039100096030796A11DB11D23E0B695A79597952F
:1039200087952A95D1F72091BC0024FD03C0109201
:10393000DC030895409193035091940360919503A3
:1039400070919603452B462B472B69F30097A105F1
:10395000B10541F02AE22A95F1F700C00197A109CB
:10396000B109E1CF809192030C94A31384E0EBE4BE
:10397000F2E0DB0101900D928A95E1F784E0089571
:103980001F920F920FB60F9211242F933F938F9394
:103990009F93AF93BF938091DC059091DD05A0913B
:1039A000DE05B091DF053091DB0523E0230F2D37D5
:1039B00058F50196A11DB11D2093DB058093DC0510
:1039C0009093DD05A093DE05B093DF058091E005BF
:1039D0009091E105A091E205B091E3050196A11D4A
:1039E000B11D8093E0059093E105A093E205B093AB
:1039F000E305BF91AF919F918F913F912F910F90D0
:103A00000FBE0F901F90189526E8230F0296A11D58
:103A1000B11DD2CF1F920F920FB60F9211242F9388
:103A20003F934F935F936F937F938F939F93AF9346
:103A3000BF93CF93EF93FF93C091E1008091E1009A
:103A4000837F8093E100C3FF0FC01092E90081E003
:103A50008093EB001092EC0082E38093ED001092D3
:103A6000170488E08093F000C2FF1BC083E00E942F
:103A7000BD0880911404882341F080911404815082
:103A800080931404811101C05D9A809113048823EE
:103A900041F080911304815080931304811101C07F
:103AA000289AC4FF23C08091E2008E7E81608093BB
:103AB000E2008091E1008F7E8093E1008091150407
:103AC0008E7E806180931504FF91EF91CF91BF911D
:103AD000AF919F918F917F916F915F914F913F91A6
:103AE0002F910F900FBE0F901F901895C0FFECCF35
:103AF0008091E2008E7E80618093E2008091E100FF
:103B00008E7E8093E100809115048E7E8160DACFF5
:103B10001F920F920FB60F921124CF92DF92EF9265
:103B2000FF920F931F932F933F934F935F936F9346
:103B30007F938F939F93AF93BF93EF93FF93CF9315
:103B4000DF93CDB7DEB76C97DEBFCDBF1092E90033
:103B50008091E80083FF25C068E0CE0145960E9471
:103B6000F90982EF8093E8008D8987FF39C0909131
:103B7000E80090FFFCCF982F907609F034C19E8921
:103B80004F89588D2F89F88C911131C0803861F59B
:103B9000809116048093F1001092F1008EEF8093D3
:103BA000E8006C960FB6F894DEBF0FBECDBFDF9174
:103BB000CF91FF91EF91BF91AF919F918F917F91A5
:103BC0006F915F914F913F912F911F910F91FF90B6
:103BD000EF90DF90CF900F900FBE0F901F90189531
:103BE0009EEF9093E800C7CF1092F100D5CF9130AF
:103BF00059F48111D3CF4130510581F680911604DB
:103C00008D7F80931604CACF933049F48111C6CFBB
:103C10004130510519F6809116048260F2CF95303B
:103C200041F48091E80080FFFCCF20682093E300FE
:103C3000B5CF963009F0A9C00B8D1C8D22E01092F3
:103C4000E9001092110410921004F2122EC010928A
:103C50000F0410920E040E94470A1F8299E0998374
:103C6000FA8291E09E8390EA98879AEF9987209153
:103C7000100430911104275F3F4F3C832B838D83C9
:103C80001092E900109211041092100410930F0486
:103C900000930E0449E050E0BE016F5F7F4F80E06B
:103CA0000E94F5080E94470A79CF10930F040093F1
:103CB0000E040E94330ADC0112960D911C9101152D
:103CC000110509F451C1D801ED91FC910480F581F1
:103CD000E02DBE016B5E7F4FC8010995009709F08A
:103CE0003EC1F80100851185EACFF3E0FF120EC056
:103CF0008F89882309F440C0823061F440E86AE08B
:103D00008DE196E00E940021811148CF81E28093ED
:103D1000EB0047CF813029F440E868E084E196E089
:103D2000F1CF833099F70E94330ADC011296ED90AF
:103D3000FC908E010F5F1F4F6801E114F10479F0D0
:103D4000D701ED91FC910680F781E02DB801C70104
:103D50000995080F111DF701E084F184EECFD80119
:103D60001C92F60101900020E9F73197BF016C1910
:103D70007D0940E0C601C6CF6EEF75E0FB014491BE
:103D800050E080E80E94F50809CF973009F4BECFD3
:103D9000983021F481E08093F10000CF993009F050
:103DA000FDCE837009F0B2CFE8E1F1E081E031E0CF
:103DB00096E32191222371F08093E9003093EB0088
:103DC000DF0111972C912093EC009093ED008F5F11
:103DD000873079F78EE78093EA001092EA008F89A6
:103DE00080931704DBCE8B8D9C8D1092E90010928E
:103DF00011041092100490930F0480930E04898D87
:103E0000811192C08E899D89913A49F4813209F0DD
:103E10007DCF47E050E064E071E080E0B3CF9132C5
:103E200009F074CF833269F48F89988DB0E0A0E0F7
:103E30008093000190930101A0930201B0930301CC
:103E4000ADCE803269F48091E80082FFFCCF67E05C
:103E500084E091E00E94F9098BEF8093E8009ECE08
:103E6000823209F09BCE8F8980930B01EEEFFFE742
:103E7000859194918B3F9C4D51F1E0E0F8E0809169
:103E8000040190910501A0910601B0910701803BCA
:103E90009440A105B105F1F480910B0180FD1AC099
:103EA000EE3F8AE0F80789F587E797E791838083FB
:103EB000809160008093120488E19BE00FB6F89433
:103EC000A895809360000FBE9093600067CEEEEFE0
:103ED000FAE0D5CF808191818737974709F05ECE90
:103EE000A8958091600088618093600080911204A1
:103EF00080936000EE3F2AE0F20789F08091FE0A8D
:103F00009091FF0A9183808349CE80819181873788
:103F1000980751F29093FF0A8093FE0AC5CF109242
:103F2000FF0A1092FE0A3ACE0E94330ADC01129672
:103F30000D911C910115110509F4E8CED801ED9100
:103F4000FC910190F081E02DBE016B5E7F4FC801B6
:103F50000995811123CEF80100851185EBCF181644
:103F600019060CF41BCED2CEF1E0FF12BECE62E0F9
:103F700076E004CF1F920F920FB60F9211242F9369
:103F80003F934F935F936F937F938F939F93AF93E1
:103F9000BF93EF93FF93E0910C01F0910D01099510
:103FA000FF91EF91BF91AF919F918F917F916F9111
:103FB0005F914F913F912F910F900FBE0F901F90E7
:103FC00018951F920F920FB60F9211242F933F93C3
:103FD0004F935F936F937F938F939F93AF93BF9311
:103FE000EF93FF938091B900887F803609F44AC02F
:103FF000F0F5883209F4A7C018F5803109F49BC0A8
:10400000B8F4882309F4F9C0883009F494C0FF910A
:10401000EF91BF91AF919F918F917F916F915F9140
:104020004F913F912F910F900FBE0F901F901895B9
:10403000883109F488C0803251F78093DB0314C0C3
:10404000803409F49DC040F48033B9F38833F9F625
:104050008093DB0385ECB0C0803509F485C08835DA
:1040600009F496C0883499F60E947E1CD0CF883916
:1040700009F48CC038F5883729F050F4883611F0EF
:10408000803729F683E08093DC031092DA0357C06F
:10409000883809F47BC0803919F0803809F0B7CF2F
:1040A0008091DA03803208F071C0E091DA0381E098
:1040B0008E0F8093DA038091BB00F0E0E654FC4F52
:1040C00080833DC0803B39F0E0F4803A09F479C048
:1040D000883A09F09CCF84E08093DC031092B90306
:1040E0001092B803E0911B04F0911C040995809193
:1040F000B80381110FC081E08093B8031092980338
:1041000009C0803C09F4A6CF883C09F4A3CF883BC2
:1041100009F07DCFE091B90381E08E0F8093B90360
:10412000F0E0E856FC4F80818093BB009091B9038A
:104130008091B80329C0809101048093BB0085EC75
:104140008093BC0064CF909100048091FF03981786
:1041500058F5E091000481E08E0F80930004F0E0B8
:10416000E152FC4F8081E9CFE091000481E08E0FA5
:10417000809300048091BB00F0E0E152FC4F80830B
:10418000909100048091FF039817C8F285E8D8CF7A
:10419000E091000481E08E0F809300048091BB00C9
:1041A000F0E0E152FC4F80838091DE0381115CCF0F
:1041B00081E08093DD0384EA8093BC001092DC03ED
:1041C00026CF85EC8093BC001092DC038091DA034B
:1041D000803230F4E091DA03F0E0E654FC4F1082D4
:1041E0006091DA0370E0E0911904F0911A048AEB0F
:1041F00093E009951092DA030ACF1092DB0334CFD3
:10420000EF92FF920F931F93CF93DF93F82E192F06
:10421000E62E042F81E0860F880F0E94C70883E0F6
:104220000E94C708CF2DD12FEC0EFD2EF11CCE150C
:10423000DF05B9F007FF13C0FE0184910E94C70893
:10424000182F80E00E94C708812321968111EFCFAB
:10425000DF91CF911F910F91FF90EF90089588818A
:10426000EDCF81E0F5CFCF93DF931092EB05109265
:10427000EA0588EE93E0A0E0B0E08093EC0590932F
:10428000ED05A093EE05B093EF0528E831E03093FB
:10429000E9052093E8052FEF3FEF3093F5052093D4
:1042A000F405109273061092720680937406909330
:1042B0007506A0937606B09377068AE991E090930D
:1042C00071068093700682E080933C0680933D06E1
:1042D00082E496E090933F0680933E06109241065A
:1042E000109240068CEA91E090933906809338064C
:1042F00080E88093420681E8809343060E94330A57
:10430000FC01818190913C06482F490F5527551F8C
:10431000483051059CF5A281B381109709F528E337
:1043200036E033832283208120933A0680933B0634
:1043300080913D06820F808320913E06A22FB0918E
:104340003F068A2F821B8917C8F481813D91C82FAF
:10435000D0E0C95EDE4F38838F5F8183F2CFD90111
:1043600018962D913C91199721153105C1F728E335
:1043700036E019963C932E931897D5CF10927F066E
:1043800010927E0620E830E030938106209380066C
:1043900080E290E0909383068093820630938506B6
:1043A0002093840690938706809386061092920647
:1043B000109289061092880610928B0610928A0637
:1043C00081E080939106809390062FEF3FEF30932A
:1043D0008F0620938E0630938D0620938C06809353
:1043E000930610929406109296061092950628EB6A
:1043F00031E030937D0620937C061092980610924F
:10440000970620E736E030939A062093990610929B
:104410009C0610929B069FEF9093A0069093A10696
:104420009093A2069093A3069093A40640E85AE1C5
:1044300066E070E04093B1065093B2066093B30615
:104440007093B40640EA56E861E070E04093B50628
:104450005093B6066093B7067093B80690E59093B4
:10446000BA061092BB0610925B061092620610927A
:10447000690610926A0610926B0610926C06809381
:104480006806809365061092660692E09093670630
:1044900080935A0684E290E090935F0680935E06D4
:1044A0000E943B329093640680936306009709F460
:1044B00094C024E2FC0111922A95E9F78CE090E087
:1044C00090935D0680935C0689E090E0909361068E
:1044D0008093600680915B06882341F061E089E06B
:1044E0000E94490760E089E00E941B07E8E6FBE0C4
:1044F000E491F0E0EE0FFF1FEF5AF44F8591949195
:1045000090936E0680936D06EBE3FBE0E491E093FD
:104510006F0684E18093440683E18093450682E13F
:10452000809346061092470610924906109248065C
:1045300010924B0610924A0682E080934C0610922D
:104540004E0610924D0681E080934F061092510660
:104550001092500680935206109254061092530601
:104560001092550610925606109257061092580651
:104570001092590662E084E10E94490762E080914E
:1045800045060E94490762E0809146060E9449075D
:10459000809144060E94F2062091470628171906CA
:1045A00031F483E090E090934B0680934A0680912B
:1045B00045060E94F206209147062817190651F475
:1045C00080914A0690914B06F1E08F2790934B061D
:1045D00080934A06DF91CF91089510925F06109262
:1045E0005E0610925D0610925C066ECFCF93DF934D
:1045F000CDB7DEB72C970FB6F894DEBF0FBECDBF98
:10460000789484B5826084BD84B5816084BD85B5AD
:10461000826085BD85B5816085BD80916E008160B9
:1046200080936E001092810080918100826080935F
:104630008100809181008160809381008091800061
:1046400081608093800080919100826080939100CE
:1046500080919100816080939100809190008160B1
:10466000809390008091C10084608093C10080910C
:10467000C10082608093C1008091C10081608093FD
:10468000C1008091C30081608093C3008091C0000D
:1046900082608093C0008091C20081608093C200DC
:1046A00080917A00846080937A0080917A008260A1
:1046B00080937A0080917A00816080937A00809163
:1046C0007A00806880937A00109217041092160482
:1046D000109215048091D70081608093D70080EA02
:1046E0008093D80089B5806189BD89B5826089BD14
:1046F00009B400FEFDCF61E070E080E090E00E9430
:104700007D088091D8008F7C80618093D800809153
:10471000E000807F8093E0008091E1008E7E8093B6
:10472000E1008DE08093E200559A209A10924F06A6
:1047300010924E0610924D0680916006909161068F
:1047400097FD8AC061E00E94490760E080916006A1
:104750000E941B0781E080935B0640915E065091AA
:104760005F0670E060E080916306909164060E94AD
:10477000653390E080E00E94972F082F809314010A
:1047800081E090E00E94972F182F8093150182E01E
:1047900090E00E94972F809316010F3F81F41F3FF6
:1047A00071F48F3F61F48091240190912501A091D3
:1047B00026018093140190931501A093160110E037
:1047C00000E0809114014091150150E070E060E03C
:1047D000762F652F542F4427682B80911601482B84
:1047E000C8010E94EB0562E370E080E090E00E9467
:1047F0007D080E94AA070F5F1F4F0C30110509F7B3
:1048000061E089E00E94490780919B0690919C0697
:10481000892B29F10E946C1A20918206309183061F
:104820008091800690918106213231050CF046C0BE
:10483000B9016052710977FF02C06F5F7F4F7595B4
:1048400067958357910997FD019600E210E023E7F1
:1048500030E04AE356E045C010925B067ECF2091DF
:10486000820630918306C901079697FD0796B3E04B
:1048700095958795BA95E1F720918006309181064C
:104880004C01829EC001839E900D929E900D11243A
:104890000E943B3290939C0680939B06892B09F0E3
:1048A000B9CF0AED1AE0F8016491611133C460EEEA
:1048B00071E088EE95E00E94AF1AFFCFB901605415
:1048C000710977FF02C06F5F7F4F759567958255BD
:1048D000910997FD019600E410E022E530E04AE1FD
:1048E00058E0959587950E944F1282E080939E062E
:1048F0008091990690919A06892B09F406C38CE35E
:1049000080939D0610921E0410921D041092E505DE
:104910001092E4050E9485138BEB98E090931C04A1
:1049200080931B048CEB98E090931A0480931904F5
:104930008091A40687FD1EC061E00E94490761E0E6
:104940008091A4060E941B0761E070E080E090E087
:104950000E947D0860E08091A4060E941B076AE027
:1049600070E080E090E00E947D0861E08091A40604
:104970000E941B078091990690919A06892B09F451
:1049800083C32091B1063091B2064091B306509195
:10499000B40660E074E284EF90E00E94C12F2051E1
:1049A0003109410951095695479537952795209327
:1049B000B80064E086E396E00E94301560918206BC
:1049C00061508CE796E00E94E51564E082E396E092
:1049D0000E94301580919E0660E1813009F064E10B
:1049E0008CE796E00E94E51564E08EE296E00E9476
:1049F00030158FE88093B9068091800690918106EA
:104A00008038910509F057C3809182069091830602
:104A10008034910509F05FC380919E06813009F0D2
:104A20006DC38FE98093B90612E16AED8CE796E0D9
:104A30000E94E515612F8CE796E00E94E51561E87C
:104A40008CE796E00E94E5156091B9068CE796E048
:104A50000E94E51569ED8CE796E00E94E5158091CE
:104A60009E0662E2813009F061EF8CE796E00E94D9
:104A7000E51566E088E296E00E943015809199067F
:104A800090919A06892B09F43BC32091B506309189
:104A9000B6064091B7065091B80660E074E284EF24
:104AA00090E00E94C12F20513109410951095695CA
:104AB0004795379527952093B8000E946C1A82E09D
:104AC000809390068093910681E090E090938F060A
:104AD00080938E0690938D0680938C0684E190E0FF
:104AE000909389068093880685E090E090938B06EA
:104AF00080938A0680E592E00E94441B11E01093A7
:104B0000900610939106109289061092880689E10A
:104B100090E090938B0680938A0689E592E00E944C
:104B20003F1B0E9447160E94AF0868EB7BE080E0C5
:104B300090E00E947D080E946C1A8FEF9FEF909387
:104B4000F5058093F40580E1809381001092800048
:104B500080EE9EE2909387008093860081E18093AF
:104B6000810083E799E190930D0180930C011093EC
:104B70006F000E9464060E945406EE24E394F12C18
:104B800001E010E0FEE12F2E312CA2E18A2E912CC3
:104B9000B8E04B2E512C0E946C1A82E08093900654
:104BA0008093910610938F0600938E0610938D06C6
:104BB00000938C06F4E0EF16F10409F4F5C20CF052
:104BC000B3C232E0E316F10409F4C7C243E0E416CD
:104BD000F10409F4CFC2AFE0B0E0B0938906A0932E
:104BE000880650928B0640928A068FE592E00E94DA
:104BF0003F1B0E9447160E946406009759F0E80E7A
:104C0000F91E1E141F040CF000C398E0E916F1040D
:104C10000CF0FFC20E9454066C018530910509F02A
:104C2000DBC4B4E0EB16F10409F4C6C30CF0F5C222
:104C3000F2E0EF16F10409F45EC323E0E216F1049A
:104C400009F490C34DE5642E45E0742E73011F8274
:104C50008AE090E09E838D83B12CA12CD70116961B
:104C6000BA87A9876701ED81FE81EE19FF09FC87EC
:104C7000EB878B859C858C0D9D1D0E94972FD601FF
:104C80008D936D01E985FA85EA17FB0791F72D8170
:104C90003E812A5F3F4F3E832D83D7018D919C91AA
:104CA00011970197409768F412968D919C911397F4
:104CB0008038910530F414968D919C91803891053F
:104CC00048F0F70111830083B382A2821582148217
:104CD000F1E0FF834FEFA41AB40A760122383105C0
:104CE00009F0BCCFAF80AA2009F4E9C20E946C1A77
:104CF00081E0809390068093910610938F06009335
:104D00008E0610938D0600938C06109289061092E1
:104D1000880610928B0610928A0685E992E00E941E
:104D2000441B88EA92E00E94441B0E94471660EDF3
:104D300077E080E090E00E947D081092D605109206
:104D4000D5050E946C1A81E08093900680939106AD
:104D5000109289061092880625E0A22EB12CB092FE
:104D60008B06A0928A0687EB92E00E94441B0E9469
:104D7000471668EE73E080E090E00E947D08EE2424
:104D8000E394F12C21E02D8362E370E080E090E079
:104D90000E947D08AD80AA2009F4FDCE0E94640621
:104DA0000E9454060E946C1A0E941E1C8091D50518
:104DB0009091D60526E0289FF001299FF00D11243F
:104DC000E35AFA4F848195810E94BC184CE0242E4E
:104DD000312C0E9464068C0136E0F32EEE24E3941D
:104DE00080911F0590912005A0912105B091220589
:104DF0004091230550912405609125057091260569
:104E0000841B950BA60BB70B8F739927AA27BB277B
:104E1000892B8A2B8B2B09F4E5C380912305909174
:104E20002405A0912505B0912605880F991F880FAC
:104E3000991FFC01E15EFB4F308121814281A381FA
:104E400080901F0590902005A0902105B09022052C
:104E5000409023055090240560902505709026050C
:104E600084149504A604B704D1F040902305509013
:104E700024056090250570902605FFEF4F1A5F0A04
:104E80006F0A7F0A5FE34522552466247724409207
:104E90002305509224056092250570922605332340
:104EA00009F454C7822F807F803B09F099CF822F6D
:104EB0008F708F5FEDE5F5E030E020E090E050E0AE
:104EC000608171816817790709F0F2C3628173818B
:104ED0006417750709F0ECC3F29EF001F39EF00D24
:104EE0001124E35AFA4FB0E0B583A4838091D5052D
:104EF0009091D6058217930709F072CF8091D9055A
:104F000081116ECFE092DA056BCF61E08091A2064D
:104F10000E94490761E08091A3060E9449078091A1
:104F2000A206082E000C990BFC01E15AF44FE49103
:104F3000F0E0EE0FFF1FEF5AF44F259134913093BC
:104F4000AA062093A906FC01EE5CF44FE491E093DD
:104F5000AF068091A306082E000C990BFC01E15AC4
:104F6000F44FE491F0E0EE0FFF1FEF5AF44FA591DC
:104F7000B491B093AC06A093AB06FC01EE5CF44F89
:104F8000E491E093B0068C91E82BEC938091970626
:104F900090919806892B09F434C01FB7F89480913A
:104FA0001804811127C0E0E7FBE08491E3E4FBE013
:104FB0009491E82FF0E0EE0FFF1FEC50F54FA59114
:104FC000B491EC91E92321F461E081E10E941B0797
:104FD00061E081E10E9449078CB580618CBD8CB590
:104FE00080648CBD61E08FE00E94490761E080E150
:104FF0000E944907809118048F5F809318041FBF97
:1050000097CC61E08091A0060E94490761E0809101
:10501000A1060E9449078091A006082E000C990B5A
:10502000FC01E15AF44FE491F0E0EE0FFF1FEF5A5C
:10503000F44F259134913093A6062093A506FC01E8
:10504000EE5CF44FE491E093AD068091A106082E4A
:10505000000C990BFC01E15AF44FE491F0E0EE0FE3
:10506000FF1FEF5AF44FA591B491B093A806A093F7
:10507000A706FC01EE5CF44FE491E093AE068C9140
:10508000E095E823EC9354CC809197069091980694
:10509000892B31F08091BA069091BB060E94640D75
:1050A000E091AB06F091AC0690818091B0068095BE
:1050B000892380837ECC8036910589F48091820695
:1050C00090918306409739F480919E06813029F4AF
:1050D00080E18093B90612E0A8CC8FEAFACF803441
:1050E0009105C9F78091820690918306809799F780
:1050F00080919E06813011F480E194CC8FEC92CCAB
:10510000E091AB06F091AC0680819091B006892BBE
:105110008083D3CC88EE95E00E948E0A0F5F1F4FEC
:10512000892B09F0C0CBC3CB56E0E516F10409F496
:1051300053C00CF444C097E0E916F10409F04BCDDC
:1051400089E190E0909389068093880650928B06BF
:1051500040928A068EE892E04ACDE9E1F0E0F093D1
:105160008906E093880650928B0640928A0687E66D
:1051700092E03DCD7AE0A72EB12CB0928906A092A4
:10518000880610928B0610928A068DE692E00E94A5
:105190003F1B309289062092880690928B0680925F
:1051A0008A0685E792E023CD309289062092880610
:1051B00010928B0610928A068BE792E0E8CF23E2EA
:1051C00030E0309389062093880610928B06109267
:1051D0008A0680E892E0DBCF43E250E050938906F4
:1051E0004093880610928B0610928A0684E892E01B
:1051F0000E943F1B309289062092880690928B066F
:1052000080928A0688E892E0F2CC67E0E62EF12CE4
:1052100001CDEE24E394F12CFDCC36E0E316F1044D
:1052200009F4FAC00CF4E0C057E0E516F10409F007
:1052300009CD0E946C1A81E08093900680939106BC
:1052400081E090E090938F0680938E0690938D0678
:1052500080938C06D0928906C0928806D0928B06E5
:10526000C0928A068BE293E00E94441B8FE090E09C
:10527000909389068093880684E190E090938B0652
:1052800080938A068CE393E00E94441B0E94471699
:1052900068EE73E080E090E00E947D0887E797E782
:1052A000909301088093000888E198E00FB6F89485
:1052B000A895809360000FBE90936000FFCFD3014C
:1052C00014964D915C91159712966D917C91139760
:1052D0008D919C910E94341965E070E080E090E02F
:1052E0000E947D08B6E06B0E711CE5EDF5E0E61559
:1052F000F70529F722CDEDE5F5E090E080E0118398
:1053000000839383828315821482019636968431BA
:105310009105A9F71092D6051092D5050E946C1A36
:1053200081E08093900680939106109289061092F6
:10533000880645E050E050938B0640938A0687EC40
:1053400092E00E94441B86ED92E00E94441B0E9462
:1053500047166CED75E080E090E00E947D0851E01A
:105360005D8312CD87E090E090931301809312014A
:105370000E946C1A81E080939006809391061092AF
:10538000890610928806D0928B06C0928A0687EE14
:1053900092E00E94441B0E94471668EE73E080E092
:1053A00090E00E947D080E9464060E945406EE244C
:1053B000E394F12C1D82E8CC80E190E090931301FE
:1053C000809312010E946C1A81E080939006809372
:1053D00091061092890610928806D0928B06C09290
:1053E0008A068AEF92E0D5CFA4E0B0E0B093130133
:1053F000A09312010E946C1A81E080939006809322
:1054000091061092890610928806D0928B06C0925F
:105410008A068BE093E0BDCF809114019091150135
:1054200020911601E4E2F1E0F12CE12C30813813F7
:1054300006C03181391303C03281321751F0BFEFFA
:10544000EB1AFB0A339630E2E316F10479F7F12CFC
:10545000E12C0E946C1A82E0809390068093910662
:1054600010938F0600938E0610938D0600938C0682
:1054700043E250E0509389064093880610928B06D1
:1054800010928A0688E892E00E94441B30928906B6
:105490002092880690928B0680928A068AE193E099
:1054A0000E94441B0E94471664EF71E080E090E088
:1054B0000E947D0886E0B82E92E0A92E0E94640624
:1054C0000097B1F1E80EF91EF7FC79C050E2E5163D
:1054D000F1040CF078C0F701EE0FFF1FEE0DFF1D79
:1054E000EC5DFE4F80819181A281809314019093A5
:1054F0001501A0931601D12CC12C8091140140916B
:10550000150150E070E060E0762F652F542F44279E
:10551000682B80911601482BC6010E94EB058FEF86
:10552000C81AD80A9CE0C916D10439F70E94AA0704
:105530000E9454068530910509F048C00E948C1ADB
:105540000E946C1AA0929006A092910610938F066A
:1055500000938E0610938D0600938C06AFE0B0E0AA
:10556000B0938906A093880650928B0640928A06D3
:1055700081E293E00E94441B0E94471668EE73E0AC
:1055800080E090E00E947D088091D5059091D6053D
:10559000B89EF001B99EF00D1124E35AFA4F8481B0
:1055A00095810E94BC18DD24D39464E170E080E012
:1055B00090E00E947D08DD2009F480CFF4CEBFE1A9
:1055C000EB2EF12C88CFF12CE12C85CFD12C069736
:1055D00061F70E948C1AD8CFB1E0BD83069709F01D
:1055E000E9CED2CB80913B060E94F009382FA0E093
:1055F00040E020E0882309F423CC40901F05509020
:10560000200560902105709022052FEF421A520A62
:10561000620A720A3FE3432255246624772480916C
:10562000230590912405A0912505B09126058415A8
:105630009505A605B70509F4F0CB80913B060E94BD
:10564000F00944E050E0BE016F5F7F4F80913B0660
:105650000E94C60904970CF4E0CB80911F0590913D
:105660002005A0912105B0912205880F991F880F70
:10567000991F815E9B4F49815A816B817C81DC013E
:105680004D935D936D937C93139740921F055092B9
:1056900020056092210570922205BFEF4B1A5B0A2C
:1056A0006B0A7B0AEFE34E22552466247724B7CF9A
:1056B0002F5F3F4F36962431310509F001CC90CB56
:1056C000109258059DC3CC24C394D12C10161106FA
:1056D0001CF0CC24CA94DC2C0E94AF080091540525
:1056E0001091550520915605309157054B015C01ED
:1056F000801A910AA20AB30A95018401063911059C
:105700002105310508F08AC0209110013091110166
:105710002F5F3F4F30931101209310016093540588
:1057200070935505809356059093570580915205C7
:10573000909153058130910509F073C000911001DB
:10574000109111010430110514F003E010E010165F
:10575000110614F001E010E071E4872E912C21E095
:10576000C216D10419F06FE3862E912CF12CE12C96
:1057700056E0A52E8091D5059091D605A89EF00102
:10578000A99EF00D1124E35AFA4F62817381A4019E
:10579000808191810E94341980910E0190910F01B6
:1057A0008C0D9D1D0C96B1010E94AD2F90930F01A1
:1057B00080930E0129E235E046E0F9017896D9019F
:1057C0005E9601900D924A95E1F7265031094BE023
:1057D00055E04217530781F790932A0580932905D6
:1057E00080E090E0A0E8BFE380932B0590932C0528
:1057F000A0932D05B0932E050E94AF0860934D0530
:1058000070934E0580934F05909350059FEFE91AD2
:10581000F90A0E151F0509F0ADCF3FC321E030E0B6
:1058200079CF029709F096CF0091100110911101E4
:10583000073011050CF48BCF06E010E088CF0E94F2
:105840001E1C8091D5059091D60526E0289FF00179
:10585000299FF00D1124E35AFA4F848195810E940B
:10586000BC1826C381E08093D805109228051092B9
:1058700027050E94571B26E0A22E3FE7E32EF12CBE
:1058800099249394CC24C394D12C0E9454068C0167
:105890000E946406009779F0209127053091280531
:1058A0002130310509F447C0D8F02230310509F420
:1058B0005FC00E94571B0530110509F087C0809119
:1058C0002705909128058130910509F473C008F4EB
:1058D0006CC0029709F475C00E94571B10E07DC090
:1058E0002091D5053091D605820F931F97FF16C0E2
:1058F000A3E1B0E0B093D605A093D5058091D5057E
:105900009091D605A89EF001A99EF00D1124E35AAE
:10591000FA4F848195810E94BC18CBCF84319105C8
:105920002CF49093D6058093D505E8CF1092D60538
:105930001092D505E3CF4091D5055091D605A49E90
:10594000F001A59EF00D1124E35AFA4F40815181D8
:10595000840F951F181619062CF020E130E03183D2
:105960002083A7CF81319105D4F791838083A1CF84
:105970002091D5053091D605A29EF001A39EF00D91
:105980001124E35AFA4F22813381820F931F97FF2C
:1059900003C0F382E2828DCF803891051CF493839B
:1059A000828387CF1382128284CFD0922805C0923F
:1059B000270592CF42E050E05093280540932705F9
:1059C0008BCF109228051092270586CF063011053F
:1059D00009F084CF9092D7051D8165E070E080E0EA
:1059E00090E00E947D08112309F44FCF1092D80552
:1059F0000E9464060E945406ABC01091D9058630FF
:105A0000910509F073C0112309F18091520590911D
:105A10005305019663E070E00E94AD2F909353050B
:105A2000809352050E94D51B6CE271E080E090E00B
:105A30000E947D080E9464060E94540680E090E067
:105A4000892B09F4C6C90E940000C3C90AE010E00E
:105A5000C8018D5A9A4F6C01F12CE12CD601AD9002
:105A60006D0148018E0C9F1CC4010E94972FA8163F
:105A700021F06A2DC4010E949F2FBFEFEB1AFB0A91
:105A8000E6E0EE16F10451F70A5F1F4F02381105E8
:105A9000F9F60E946C1A82E080939006809391063A
:105AA00081E090E090938F0680938E0690938D0610
:105AB00080938C0685E090E0909389068093880619
:105AC0008AE090E090938B0680938A0688E493E0C6
:105AD0000E94441B0E94471668EE73E080E090E04D
