:100000000C9404060C942C060C942C060C942C06D0
:100010000C942C060C942C060C942C060C942C0698
:100020000C942C060C942C060C94E81D0C94661E63
:100030000C942C060C942C060C942C060C942C0678
:100040000C942C060C942C060C942C060C942C0668
:100050000C942C060C942C060C942C060C949E1DCF
:100060000C942C060C942C060C942C060C942C0648
:100070000C942C060C942C060C942C060C942C0638
:100080000C942C060C942C060C942C060C942C0628
:100090000C9498200C942C060C942C060C942C0692
:1000A0000C942C060C942C060C942C0607634236F8
:1000B000B79BD8A71A39685618AEBAAB558C1D3CF9
:1000C000B7CC5763BD6DEDFD753EF6177231BF00BD
:1000D0000000803F08000000BE922449123EABAAF7
:1000E000AA2ABECDCCCC4C3E00000080BEABAAAA52
:1000F000AA3E00000000BF000000803F000000009A
:1001000000084178D3BB4387D1133D190E3CC3BDD2
:100110004282AD2B3E68EC8276BED98FE1A93E4C7F
:1001200080EFFFBE01C4FF7F3F0000000000000021
:100130000000003E5B4F5B3E3E6B4F6B3E1C3E7CC7
:100140003E1C183C7E3C181C577D571C1C5E7F5E75
:100150001C00183C1800FFE7C3E7FF001824180034
:10016000FFE7DBE7FF30483A060E262979292640CB
:100170007F050507407F05253F5A3CE73C5A7F3EF7
:100180001C1C08081C1C3E7F14227F22145F5F0089
:100190005F5F06097F017F006689956A6060606025
:1001A0006094A2FFA29408047E040810207E201010
:1001B00008082A1C08081C2A08081E101010100C19
:1001C0001E0C1E0C30383E3830060E3E0E06000067
:1001D00000000000005F00000007000700147F140B
:1001E0007F14242A7F2A122313086462364956207A
:1001F000500008070300001C2241000041221C009F
:100200002A1C7F1C2A08083E08080080703000085D
:1002100008080808000060600020100804023E5131
:1002200049453E00427F40007249494946214149C3
:100230004D331814127F1027454545393C4A49492A
:100240003141211109073649494936464949291E94
:100250000000140000004034000000081422411483
:1002600014141414004122140802015909063E41D5
:100270005D594E7C1211127C7F494949363E4141FD
:1002800041227F4141413E7F494949417F09090956
:10029000013E414151737F0808087F00417F4100C2
:1002A0002040413F017F081422417F404040407F71
:1002B000021C027F7F0408107F3E4141413E7F09BE
:1002C0000909063E4151215E7F09192946264949FF
:1002D000493203017F01033F4040403F1F2040203F
:1002E0001F3F4038403F631408146303047804033D
:1002F0006159494D43007F414141020408102000EB
:100300004141417F0402010204404040404000035B
:1003100007080020545478407F2844443838444427
:100320004428384444287F385454541800087E091F
:100330000218A4A49C787F0804047800447D40003F
:100340002040403D007F1028440000417F40007C59
:10035000047804787C080404783844444438FC1851
:1003600024241818242418FC7C0804040848545435
:10037000542404043F44243C4040207C1C20402062
:100380001C3C4030403C44281028444C9090907CC9
:100390004464544C440008364100000077000000DB
:1003A0004136080002010204023C2623263C1EA11D
:1003B000A161123A4040207A38545455592155557C
:1003C000794122545478422155547840205455792B
:1003D000400C1E52721239555555593954545459BE
:1003E00039555454580000457C410002457D420077
:1003F00001457C407D1211127DF0282528F07C54A7
:100400005545002054547C547C0A097F493249499F
:1004100049323A4444443A324A4848303A41412108
:100420007A3A42402078009DA0A07D3D4242423D64
:100430003D4040403D3C24FF2424487E4943662BF8
:100440002FFC2F2BFF0929F620C0887E090320549A
:100450005479410000447D413048484A3238404098
:10046000227A007A0A0A727D0D19317D2629292FF8
:1004700028262929292630484D4020380808080810
:1004800008080808382F10C8ACBA2F102834FA0012
:10049000007B000008142A142222142A1408550094
:1004A000550055AA55AA55AAFF55FF55FF00000053
:1004B000FF00101010FF00141414FF001010FF00B4
:1004C000FF1010F010F0141414FC001414F700FFC7
:1004D0000000FF00FF1414F404FC141417101F1084
:1004E000101F101F1414141F00101010F000000033
:1004F000001F101010101F10101010F0100000003E
:10050000FF101010101010101010FF10000000FF4E
:10051000140000FF00FF00001F10170000FC04F48F
:1005200014141710171414F404F40000FF00F71447
:10053000141414141414F700F714141417141010CE
:100540001F101F141414F4141010F010F000001FEA
:10055000101F0000001F14000000FC140000F01029
:10056000F01010FF10FF141414FF141010101F00CF
:10057000000000F010FFFFFFFFFFF0F0F0F0F0FFD1
:10058000FFFF0000000000FFFF0F0F0F0F0F3844A8
:10059000443844FC4A4A4A347E02020606027E027D
:1005A0007E0263554941633844443C04407E201E2A
:1005B0002006027E020299A5E7A5991C2A492A1C59
:1005C0004C7201724C304A4D4D303048784830BC46
:1005D000625A463D3E494949007E0101017E2A2A70
:1005E0002A2A2A44445F444440514A444040444AF1
:1005F00051400000FF0103E080FF000008086B6B22
:10060000083612362436060F090F060000181800A7
:1006100000001010003040FF0101001F01011E000A
:10062000191D1712003C3C3C3C000000000000017A
:1006300003070F1F3F7F0080C0E0F0F8FCFE080BAF
:10064000000202020000090400000102020000058D
:1006500024001001052401010104240206052406DA
:1006600000010705810310004009040100020A008F
:100670000000070502024000000705830240000059
:100680000403090412010002EF0201404F1B0C9207
:10069000000101020301537061726B46756E0056D2
:1006A0004159555F322E313000DB40A4A62EAF20D9
:1006B00000A1C8D300408DAED580A8000060000026
:1006C000000000000000000000000000E00000004A
:1006D0000000000000000000000001E00000000039
:1006E00000000000000000000001F0000000000019
:1006F000000000000000000003F000000000000007
:100700000000000000000007F000000000000000F2
:1007100000000000000007F80000000000000000DA
:1007200000000000000FF800000003C0007E000081
:1007300001E0007F0FF800000003C000FE00000190
:10074000E000FFEFF800000003C000FE000001E041
:1007500000FFFFF800000003C000F00000000F00E1
:100760007FFE7FC0000003C000F00000000F003FCC
:10077000FE7FF83FF1FBCFFCFEF3BC3DEFE01FFE38
:100780007FFF7FFBFFDFFEFEFFBC3DEFE01FC6FFEC
:10079000FF7FFBFFDFFEFEFFBC3DEFE00FE3C7FE88
:1007A000787BC3DE1EF0FFBC3DEF0007FF87FC78BF
:1007B0007BC3DE1EF0F83C3DEF0001FFFFF0007B45
:1007C000C3C01EF0F03C3DEF0001F37FE03FFBC3F0
:1007D000CFFEF0F03C3DEF0003E33F807FFBC3DF43
:1007E000FEF0F03C3DEF0007E73C00787BC3DE1EE7
:1007F000F0F03C3DEF0007FFBE00787BC3DE1EF04B
:10080000F03C3DEF0007FFFE00787BC3DE1EF0F0FA
:100810003C3DEF000FFFFE007FFBFFDFFEF0F03FEF
:10082000FDEFE00FFFFF007FFBFFDFFEF0F03FFD7D
:10083000EFE00FF9FF003E79F9CF9EF0F01F3DE7A2
:10084000E01FF1FF000000000000000000000000B9
:100850001F80FF007FFFFFFFFFFFFFFFFFFFE01C88
:10086000007F007FFFFFFFFEB46D888D18E0000061
:100870001F007FFFFFFFFE95AD7DB577E000000F05
:10088000007FFFFFFFFEA5AD9D8D19E00000060073
:100890007FFFFFFFFEB5ADEDB57EE000000000007C
:1008A0000180000000000000000000038000000044
:1008B00000000000000007C0000000000000000071
:1008C0000007C00000000000000000000FC0000092
:1008D000000000000000001FE00000000000000019
:1008E00000001FE00000000000000000003FE000EA
:1008F00000000000000000003FF0000000000000C9
:100900000000007FF0000000000000001FF87FF0F2
:10091000000000000000003FFE7FF000000000002B
:1009200000003FFF7FF0000000000000001FFFFB01
:10093000E0000000000000000FFFF9FFC000000011
:100940000000000FFFF9FFF800000000000007FFA3
:10095000F1FFFF00000000000003FC73FFFF8000B8
:100960000000000001FE3FFFFF80000000000000CB
:10097000FF1E0FFF000000000000007FFE1FFC00B4
:100980000000000000003FFFFFF800000000000032
:10099000000FDFFFE0000000000000001F19FFC093
:1009A000000000000000003F3CFF000000000000CD
:1009B00000007E7CF800000000000000007FFE7C4C
:1009C0000000000000000000FFFFFC00000000002D
:1009D000000000FFFFFE0000000000000000FFFF1D
:1009E000FE0000000000000001FFEFFE000000001C
:1009F00000000001FFCFFE0000000000000003FF28
:100A000007FE0000000000000003FC07FE000000DD
:100A10000000000003F003FE0000000000000001E1
:100A20008000FE000000000000000000007E0000CA
:100A300000000000000000003E0000000000000078
:100A40000000000C000000000000078000FC000017
:100A500003C0000000078001FC000003C00000008C
:100A6000078001FC000003C0000000078001E000D7
:100A700000001E000000078001E00000001E007F53
:100A8000E3F79FF9FDE7787BDFC0FFF7FFBFFDFDD0
:100A9000FF787BDFC0FFF7FFBFFDFDFF787BDFC086
:100AA000F0F787BC3DE1FF787BDE00F0F787BC3DC7
:100AB000E1F0787BDE0000F787803DE1E0787BDEC7
:100AC000007FF7879FFDE1E0787BDE00FFF787BFBF
:100AD000FDE1E0787BDE00F0F787BC3DE1E0787B6C
:100AE000DE00F0F787BC3DE1E0787BDE00F0F787C1
:100AF000BC3DE1E0787BDE00FFF7FFBFFDE1E07F7A
:100B0000FBDFC0FFF7FFBFFDE1E07FFBDFC07CF351
:100B1000F39F3DE1E03E7BCFC000000000000000FD
:100B200000000000FFFFFFFFFFFFFFFFFFFFC0FF10
:100B3000FFFFFFFD68DB111A31C0FFFFFFFFFD2B38
:100B40005AFB6AEFC0FFFFFFFFFD4B5B3B1A33C050
:100B5000FFFFFFFFFD6B5BDB6AFDC0205265736525
:100B60007474696E672E2E2E0020456E746572694E
:100B70006E67204446552E2E2E00000000002400F3
:100B800027002A002D00300000000000250028006A
:100B90002B002E0031000000000023002600290059
:100BA0002C002F00040404040403040502020202C2
:100BB00004030202020206060606060604040202F6
:100BC00002040404080201104080401020408040CC
:100BD0008008020401804020100201108010204093
:100BE00040200000000200090F0000030401000C77
:100BF00000000000000000000000000000000000F5
:100C00002200FF210A22FC2C11241FBECFEFDAE0C4
:100C1000DEBFCDBF24E0ACE3B2E001C01D92A23044
:100C2000B207E1F712E0A0E0B1E0EEE9F7E602C0BA
:100C300005900D92AC33B107D9F716E0C3E0D6E0CA
:100C400004C02197FE010E94062FC230D107C9F7C8
:100C50000E942B230C94C2330C9400002F923F92DD
:100C60004F925F926F927F928F929F92AF92BF92BC
:100C7000CF92DF92EF92FF920F931F93CF93DF9368
:100C8000CDB7DEB76D970FB6F894DEBF0FBECDBF00
:100C90007A8769875C874B873E872D87188B0F87FC
:100CA000FB0111821082FA0111821082F801118277
:100CB0001082F901118210822090D7033090D8035E
:100CC0002091D5032C83F090D2032F2D30E0388F64
:100CD0002F8B46E0F49E900111243E832D83A0903B
:100CE000C603B090C703E090D303E8E0EE9E600136
:100CF000112491012C5F3F4F3A8B298B2E5F3F4F80
:100D00003C8B2B8B245031093A8F298F2A5F3F4F20
:100D10003B832A8398878F8344244A94542CAFEFD3
:100D2000BFEF8FEF9FE79C8F8B8F0FEF1FE770E078
:100D300060E050E040E0EF81F8858191F887EF8333
:100D4000882309F4C0C02114310409F487C08A3013
:100D500041F4EA81FB8184918E9D600D711D112407
:100D6000E8CF8D3041F3E989FA899491EB89FC89C8
:100D70002491891700F32817F0F2E98DFA8D259157
:100D80003491891BF7E08F9F200D311D1124F9014B
:100D9000329684918983319694919D8B319684917A
:100DA0008E8B319684912A5F3F4FF901F491FD8F2C
:100DB0002C812223F1F03981632E712C680E711C75
:100DC00087FD7A942F89388D629E4001639E900C36
:100DD000729E900C1124840E951EA814B9044CF434
:100DE000EA81FB8194919E9D600D711D112450E05C
:100DF00040E02F2D382F3203C0011124840F951F9E
:100E00002E2D3D8D3203F00111249F01260F371F37
:100E1000801791070CF48C01EB8DFC8D2E173F078A
:100E200014F43C8F2B8FF981FF9D800D911D1124AF
:100E30000197A817B9070CF4DC018D898E9D200D50
:100E4000311D112421503109421653060CF4290199
:100E50009E899F9D400D511D11246DCF8A3019F43C
:100E60006C0D7D1D66CF8D3009F465CF2C8122235A
:100E700059F08D819E81840F951FA816B90624F420
:100E80006C0D7D1D50E040E02D813E81240F351F0B
:100E9000C9010197A817B9070CF4DC01C601860F38
:100EA000971F0197481659060CF42C01401751075B
:100EB0000CF48A018B8D9C8D6817790714F47C8F54
:100EC0006B8FA90138CFA017B1075CF0E985FA85CF
:100ED00011830083A01BB10B1196ED85FE85B183B4
:100EE000A0832B8D3C8D421653066CF0EB85FC8560
:100EF00031832083421A530AFFEF4F1A5F0AEF85AE
:100F0000F889518240826D960FB6F894DEBF0FBE0D
:100F1000CDBFDF91CF911F910F91FF90EF90DF90A8
:100F2000CF90BF90AF909F908F907F906F905F9089
:100F30004F903F902F9008950895FC0180914403B5
:100F4000882311F13FB7F89482E08093E900209163
:100F5000F200822F90E01816190614F481E090E058
:100F6000882339F0289844E6409343034091F100E8
:100F70004083222339F02091F200211103C02BE697
:100F80002093E8003FBF08958FEF9FEF0895CF9320
:100F9000DF931F92CDB7DEB76983DC01ED91FC9141
:100FA0000280F381E02D41E050E0BE016F5F7F4F92
:100FB00009950F90DF91CF910895CF93DF931F9202
:100FC000CDB7DEB7FC018485958597FD08C02FEF6E
:100FD0003FEF358724870F90DF91CF910895CE01A1
:100FE00001960E949D07019719F4898190E0F3CF43
:100FF0008FEF9FEFF0CF0F931F93CF93DF931F924D
:10100000CDB7DEB78C01FC018485958597FF0BC0B9
:10101000CE0101960E949D07019771F4898190E0AD
:10102000F80195878487F801848595850F90DF9175
:10103000CF911F910F9108958FEF9FEFF1CFFC019A
:101040008485958597FD0BC09FB7F89482E08093C7
:10105000E9008091F2009FBF90E0019608959FB74C
:10106000F89482E08093E9008091F2009FBF90E0C5
:10107000089581508F3008F047C0E82FF0E0ED5B15
:10108000F74F0C94062F60086408520858085C0853
:1010900084088408840867086D08710875087B084F
:1010A00084087F08809180008F7780938000089566
:1010B000809180008F7DF9CF80918000877FF5CF70
:1010C00084B58F7784BD089584B58F7DFBCF8091E3
:1010D00090008F77809390000895809190008F7D8D
:1010E000F9CF80919000877FF5CF8091C0008F77F6
:1010F0008093C00008958091C0008F7DF9CF8091CA
:10110000C200877F8093C2000895CF93DF93282F7A
:1011100030E0F901EE51F44F8491F901ED53F44FB1
:10112000D491F901EC55F44FC491CC23A1F0811175
:101130000E943908EC2FF0E0EE0FFF1FEA56F44F43
:10114000A591B491EC91ED2381E090E009F480E069
:10115000DF91CF91089580E090E0FACF1F93CF9375
:10116000DF93282F30E0F901EE51F44F8491F9011B
:10117000ED53F44FD491F901EC55F44FC491CC23C5
:10118000A9F0162F81110E943908EC2FF0E0EE0F24
:10119000FF1FE857F44FA591B4918FB7F894EC91E5
:1011A000111108C0D095DE23DC938FBFDF91CF9162
:1011B0001F910895DE2BF8CFCF93DF9390E0FC01D1
:1011C000ED53F44F24918C55944FFC018491882366
:1011D000C9F090E0880F991FFC01E658F44FA591E3
:1011E000B491FC01E857F44FC591D49161110DC041
:1011F0009FB7F8948C91209582238C938881282323
:1012000028839FBFDF91CF910895623051F49FB73B
:10121000F8943C91822F809583238C93E8812E2B28
:10122000EFCF8FB7F894EC912E2B2C938FBFEACF92
:101230003FB7F89480913F0390914003A091410300
:10124000B091420326B5A89B05C02F3F19F0019627
:10125000A11DB11D3FBFBA2FA92F982F8827BC0110
:10126000CD01620F711D811D911D42E0660F771F38
:10127000881F991F4A95D1F708958F929F92AF9238
:10128000BF92CF92DF92EF92FF926B017C010E949E
:1012900018094B015C01C114D104E104F104B9F057
:1012A0000E941809681979098A099B09683E7340E8
:1012B0008105910580F321E0C21AD108E108F10807
:1012C00088EE880E83E0981EA11CB11CE4CFFF902D
:1012D000EF90DF90CF90BF90AF909F908F90089548
:1012E0002FB7F89460913B0370913C0380913D03CC
:1012F00090913E032FBF0895089508958093E900CB
:101300008091F200882319F08AE38093E800089521
:1013100083E00C947E094091FA025091FB022091E7
:10132000F8023091F90242175307B4F49091E800A3
:101330009570E1F39091E80092FD19C08093F1005F
:101340008091FA029091FB0201968F739927892B65
:1013500019F48EEF8093E8008091FA029091FB02DD
:1013600001969093FB028093FA0281E0089580E059
:101370000895DF92EF92FF920F931F93CF93DF9325
:10138000D82E8A01EB017B01E40EF51ECE15DF0598
:1013900059F0D7FE12C0FE0184910E948B0921965C
:1013A0008111F4CF0FEF1FEFC801DF91CF911F9193
:1013B0000F91FF90EF90DF9008958881EECF2FB7C7
:1013C000F89487708093E9009091E800892F8072EB
:1013D00095FF04C09091F20080E4891B2FBF08950F
:1013E00083E00E94DF0990E008957F928F929F92A0
:1013F000AF92BF92CF92DF92EF92FF920F931F9323
:10140000CF93DF93C82E8B017A0180914403811121
:1014100010C08FEF9FEFDF91CF911F910F91FF9041
:10142000EF90DF90CF90BF90AF909F908F907F9084
:1014300008958091FE0280FF05C08091E0008260E7
:101440008093E000CE2DDF2DD12C8AEFB82E8C2D8D
:101450008770982E8C2D8072882E8C2D8074782E1B
:101460009AE3A92E209719F4DD2009F452C08C2D9F
:101470000E94DF0981110AC0BA94BB2051F261E0D9
:1014800070E080E090E00E943D09ECCF8C171D06D3
:1014900011F00CF08C2F9FB7F8949092E9002091F6
:1014A000E80025FD02C09FBFDDCF282F30E0C21B22
:1014B000D30B882029F08150A0F01092F100FBCFCF
:1014C000F801C7FC0AC0815050F041914093F100EF
:1014D000FACF44914093F10031968150D0F7020F3A
:1014E000131FDD2021F0A092E800D12CDCCF8091E9
:1014F000E80085FD07C0A092E800DD24D394209782
:1015000091F2F3CF209779F6772069F2A092E80064
:10151000CACF5D9884E68093FD02C7017CCFCF934C
:10152000DF93EC0180911201882331F083E00E9467
:10153000F5091816190634F081E090E09B838A8340
:1015400080E090E0DF91CF910895615030F02091DC
:10155000F100FC0120830196F8CF289884E680935F
:1015600043030895AF92BF92CF92DF92EF92FF9222
:101570000F931F93CF93DF936C017B018B01040FBB
:10158000151FEB015E01AE18BF08C017D10759F057
:101590006991D601ED91FC910190F081E02DC60199
:1015A0000995892B79F7C501DF91CF911F910F9193
:1015B000FF90EF90DF90CF90BF90AF900895FC0127
:1015C00044815581608171818EEB93E00C94B20A65
:1015D0008091F00281110DC082E08093EC0284E0E2
:1015E0008093ED021092EF021092EE0281E0809360
:1015F000F0028CEE92E008950F931F93CF93DF9348
:101600001F92CDB7DEB782E0898342E450E06EE3FB
:1016100076E080E80E94B9090E94E80ADC0112968F
:101620000D911C910115110589F0D801ED91FC91E6
:101630000280F381E02DBE016F5F7F4FC8010995E5
:1016400097FD04C0F80100851185ECCF89810F90CA
:10165000DF91CF911F910F910895089590E080E060
:10166000089580E008950F931F93CF93DF93CDB734
:10167000DEB7C456D1090FB6F894DEBF0FBECDBF9A
:10168000FC01DB019C919E5F9C939E01295F3F4F73
:101690008AE5D9011D928A95E9F788E089838BE074
:1016A0008A8322E02C8391E09D839E8339E03987F1
:1016B00064E06A879E879F873A8B44E24B8B9C8BC2
:1016C000A0E0B1E0BE8BAD8B09E010E0188F0F8B6E
:1016D000998F3B8F6C8F2F8F98A353E059A387E08E
:1016E0008CA34DA39EA3B8A7AFA3A1E4B0E0BAA773
:1016F000A9A786E08BA74CA72DA79EA79FA789AB7C
:101700004AAB2BAB2CAB2DAB3FAB48AF59AF9AAF2D
:101710005BAF9CAF2DAF9EAF21963FAF2197229636
:101720004FAF229723965FAF239724962FAF24972E
:1017300025966FAF259726969FAF269727969FAF42
:10174000279728969FAF28972A963FAF2A9745E07C
:101750002B964FAF2B972D962FAF2D9760E470E00F
:101760002F967FAF6EAF2F9763964FAF639785E24B
:1017700064968FAF649765969FAF659766969FAFA7
:10178000669767969FAF679768963FAF6897699629
:101790004FAF69976B962FAF6B976D967FAF6EAF1C
:1017A0006D97A1964FAFA197A2968FAFA297A396E0
:1017B0009FAFA397A4969FAFA497A5965FAFA59759
:1017C00092819B839B879F5F9A8F9D8F83812C96AD
:1017D0008FAF2C978F5F80686A968FAF6A9744E6C9
:1017E00050E0BE016F5F7F4F80E00E94B909CC5985
:1017F000DF4F0FB6F894DEBF0FBECDBFDF91CF91A4
:101800001F910F910895EF92FF920F931F93CF9323
:10181000DF93EC01EC80FD806E157F050CF070C04D
:1018200057FF04C0240F351F50E040E08E819F8198
:10183000FA01E20FF31F8E179F071CF49C01241B73
:10184000350B121613060CF05BC0922F842F869571
:10185000869586958E9DD0018F9DB00D11246A0FBF
:101860007B1FAF8DB8A1A60FB71F477049F188E065
:10187000841B482F682F70E0FB01EA5CF94FE4916C
:10188000281708F063C0621B71092FEF30E002C017
:10189000359527956A95E2F7E2230130110539F075
:1018A000B0F10230110561F58C91E82702C08C91EE
:1018B000E82BEC93941720F12C813D81A20FB31FEC
:1018C000E92FE41BE83078F00230110521F58E2F66
:1018D0009C9190959C932C813D81A20FB31F8850C1
:1018E0008830B0F7E770EE2359F0F0E0E25DF94F91
:1018F000E49101301105F9F010F10230110519F1F0
:10190000DF91CF911F910F91FF90EF900895E09597
:101910008C91E823CECF81E00115110509F480E018
:1019200081959E2F8C932C813D81A20FB31F9850DF
:101930009830C0F7D7CF8C91E82BEC93E1CFE095AE
:101940008C91E823FACF8C91E827F7CF013011056D
:1019500009F4ADCFE0F20230110509F4A5CFAE0DC8
:10196000BF1DAECF0F931F93CF93DF9377FF04C0BC
:10197000260F371F70E060E0DC011496CD91DC91FA
:10198000FB01E20FF31FCE17DF071CF49E01261B9D
:10199000370B121613064CF5FA0157FD3796A3E0E4
:1019A000F595E795AA95E1F7EC9FD001ED9FB00D75
:1019B000FC9FB00D11246A0F7B1FDC015F96ED9137
:1019C000FC91E60FF71F4770552781E090E001C0BA
:1019D000880F4A95EAF7482F0130110559F0A8F011
:1019E0002E0F3F1F02301105E1F0DF91CF911F91C3
:1019F0000F9108952E0F3F1FE217F307B1F3819166
:101A0000DF011197842B8C93F7CF80952E0F3F1F0A
:101A1000E217F30751F39191DF01119798239C93FB
:101A2000F7CFE217F30709F38191DF0111978427BC
:101A30008C93F7CF0F931F93FA01DC0156964C91CC
:101A400056974230E9F04330A1F1413061F51496E8
:101A50004D915C91DA01AE1BBF0BFD01E21BF30B54
:101A600077FD0BC0DC0116964D915C9164177507EC
:101A700024F4AB01BF010E94B20C1F910F91089595
:101A800014964D915C91DA01A61BB70BBD01615014
:101A90007109DC0116964D915C91DA01AE1BBF0B0A
:101AA000FD01E21BF30B77FDE8CFAF010E94030CB1
:101AB000E4CF16964D915C91DA01A61BB70BBD01E0
:101AC00061507109CDCF0F931F93FA01DC01569637
:101AD0004C9156974230A9F0433091F1413019F5BD
:101AE00014964D915C91DA01AE1BBF0BFD0131974D
:101AF000F7FD04C0AB01BF010E94030C1F910F91C1
:101B0000089514964D915C91DA01A61BB70BBD01A7
:101B1000DC0116964D915C91DA01AE1BBF0BFD0105
:101B20003197621B730BF7FDE9CFDC0116964D91DF
:101B30005C91E417F50714F7AF010E94B20CDECFF9
:101B400016964D915C91DA01A61BB70BBD01621B85
:101B5000730BCECFFC0177FD64C08085918568173B
:101B600079070CF05EC057FD5CC0828593854817ED
:101B700059070CF056C086898230B1F0833029F1C4
:101B8000813041F484819581841B950BAB01BC01AC
:101B9000615071092130310509F108F443C0223048
:101BA000310509F463C0089584819581DC01A61B89
:101BB000B70BBD016150710986819781DC01A41BBF
:101BC000B50BAD0141505109E5CF86819781861B48
:101BD000970BBA01AC0141505109DCCFCA0157FD46
:101BE0000796A3E095958795AA95E1F7A481B5811D
:101BF0008A9F90018B9F300D9A9F300D1124620FA8
:101C0000731F078CF0A1E02DE60FF71F47705527D3
:101C100021E030E001C0220F4A95EAF78081822B53
:101C200080830895CA0157FD079633E095958795FF
:101C30003A95E1F7A481B5818A9F90018B9F300D81
:101C40009A9F300D1124620F731F078CF0A1E02DB5
:101C5000E60FF71F4770552781E090E001C0880F1D
:101C60004A95EAF7809590818923DACFCA0157FD1A
:101C7000079623E0959587952A95E1F7A481B5818C
:101C80008A9F90018B9F300D9A9F300D1124620F17
:101C9000731F078CF0A1E02DE60FF71F4770552743
:101CA00021E030E001C0220F4A95EAF780818227C7
:101CB000B7CF08958EBD00000DB407FEFDCF8EB5E1
:101CC00008958CBD9DBD08950895FC016370668BD9
:101CD0008481958126813781613039F0633029F024
:101CE000918780873387228708953187208793875C
:101CF000828708952F923F924F925F926F927F92C8
:101D00008F929F92AF92BF92CF92DF92EF92FF920B
:101D10000F931F93CF93DF93CDB7DEB76A970FB6BC
:101D2000F894DEBF0FBECDBF9A8F898F7A83698307
:101D30004A01D22E18870F833701BC2CDC0159963B
:101D40002D913C915A972115310509F015C118962E
:101D50008D919C911997681779070CF0D7C11A9645
:101D60008D919C91481759070CF0D0C14C2C512CE7
:101D7000B6E0CB9E600D711D11247C876B87161613
:101D800017060CF0C3C1EA2DF0E0FA87E98793E06B
:101D9000EE0FFF1F9A95E1F7F88BEF87CF01840FC5
:101DA000951F181619060CF0B1C1A98DBA8D589659
:101DB0008C91811104C0BFEABD1508F4D394A98D9C
:101DC000BA8DED91FC9111970284F385E02DCD0140
:101DD0000995B5E0DB9EC0011124E981FA81FC83FD
:101DE000EB83312C212C9C01225D3E4F388F2F8BB1
:101DF0004A2D50E05E8B4D8BEF89F88DE20DF31D7F
:101E000044919E828D82D12CC12C69817A81620D90
:101E1000731D7A8B698B842F90E09C8B8B8BE98D63
:101E2000FA8DA081B18140FF82C0F1E0BF126FC086
:101E3000AF126DC01C96ED91FC912F813885A401E5
:101E40004C0D5D1D69897A89898D9A8D0995EB897B
:101E5000FC89F595E7954E2F5FEFC51AD50A6D8180
:101E60007E818D899E89680F791F7E836D8398E0BE
:101E7000C916D10481F6AFEF2A1A3A0AEB81FC8128
:101E8000E40DF51DFC83EB83F5E02F16310409F01A
:101E9000B3CF2F81388526153705B9F0A98DBA8DB6
:101EA000ED91FC91B1E0BB1257C0AB1255C06981F6
:101EB0007A816B5F7F4F0088F189E02D830128E0F4
:101EC00030E0A401898D9A8D0995A98DBA8DED9187
:101ED000FC9111970688F789E02DCD016A960FB61F
:101EE000F894DEBF0FBECDBFDF91CF911F910F9150
:101EF000FF90EF90DF90CF90BF90AF909F908F902A
:101F00007F906F905F904F903F902F9009941E9616
:101F1000ED91FC91EF80F88409851A8592014D813D
:101F20005E816B817C81898D9A8D099590CF2F81FF
:101F300038852615370509F48ACF31E0B31207C07A
:101F4000A31205C01C96ED91FC91930178CF1E96CB
:101F5000ED91FC917301E0CF6B857C856419750967
:101F60000684F785E02D73010F8518899201A4017D
:101F7000898D9A8D0995A9CFF9013496949132975C
:101F800045915491D91AB7E0DB9E400D511D1124A3
:101F9000F901259134913C8B2B8BFA0125903490DB
:101FA000FA013296749031963491398B329664905E
:101FB0003196449041E04C1518F04A1508F07FC066
:101FC000662D062C000C770B7C836B83842D042CF0
:101FD000000C990B9E838D83A98DBA8DED91FC9198
:101FE00011970284F385E02DCD010995512CD12C58
:101FF000C12CEA2DF0E0FA87E9872B2D30E03C87F1
:102000002B87A401440D511D47FC5A95588F4F8BC7
:1020100069817A81660D711D67FC7A957E876D876F
:102020007989C71608F051CF2C2D30E04D815E81A3
:10203000420F531FA985BA854A9FC0014B9F900D3F
:102040005A9F900D1124FC01E80DF91DF88BEF87C4
:10205000852D612C4F89588D420F531F5E8B4D8B00
:10206000671408F050C044244394480E877041F42C
:10207000C1010196EB89FC89E20DF31DD4901C018E
:10208000D7FE19C0A98DBA8DED91FC91662D70E037
:10209000B1E0BB1219C0AB1217C02D853E85620F8F
:1020A000731F0484F585E02D2F8138854D895E8965
:1020B000898D9A8D0995DD0C6394842DD1CF1E8274
:1020C0001D821C821B8288CF4B815C81640F751F2F
:1020D000AB85BC856A9FC0016B9F900D7A9F900D68
:1020E000112469817A81680F791F0684F785E02DB4
:1020F000EF80F88409851A859D014F855889898D5F
:102100009A8D0995D8CF570CC3948ACF6A960FB68B
:10211000F894DEBF0FBECDBFDF91CF911F910F911D
:10212000FF90EF90DF90CF90BF90AF909F908F90F7
:102130007F906F905F904F903F902F9008958F9277
:102140009F92AF92CF92EF92FF920F931F93CF93F4
:10215000DF93EC01262F898D9A8D009709F051C0ED
:102160006A30D1F41D861C868D8948E0849F9001D9
:1021700011248E859F85820F931F9F878E8781E014
:1021800090E0DF91CF911F910F91FF90EF90CF9052
:10219000AF909F908F9008956D3089F3CC88AD8873
:1021A0008F898823C1F08C859D8536E0C39E800D84
:1021B000911D1124488559854817590764F44E85A7
:1021C0005F851D861C8638E0A39EC0011124840F04
:1021D000951F9F878E87EA88FB88088919894E8515
:1021E0005F856C857D85CE010E947A0E2C898C8559
:1021F0009D8546E0249F800D911D11249D878C872D
:10220000BECF6A3069F41D861C86FC013896E491C5
:102210002D898E859F85E29F800D911D1124ADCF64
:102220006D3009F4ACCFFC0134963491631708F497
:10223000A6CF3296E491E61708F4A1CFFC013296BE
:1022400085909490462F431B342F47E0349F800C99
:10225000911C1124F401329634913196E491332388
:10226000A9F1EE2399F1CC88F4013596E491AD887B
:102270004F89442301F10E2E000CFF0BE30FF11DDB
:10228000CE9EA001CF9E500D11246C857D85460FFA
:10229000571F68857985641775076CF44E855F85CF
:1022A0001D861C86FC013896E491AE9E400D511DA2
:1022B00011245F874E87EA88FB88088919894E8533
:1022C0005F856C857D85CE010E947A0EF40134967F
:1022D000E4912C898C859D85E29F800D911D1124B0
:1022E0008DCF6F927F928F929F92AF92BF92CF923B
:1022F000DF92EF92FF920F931F93CF93DF93EC0146
:102300006B015A0139014801E881F9810284F385A2
:10231000E02D0995E881F9810288F389E02D870194
:102320009301A501B601CE010995A501480D591DDE
:1023300041505109E881F9810288F389E02D930128
:10234000B601CE010995E881F9810088F189E02D77
:102350009401A501B601CE010995C60CD71CB601A2
:1023600061507109E881F9810088F189E02D9401BB
:10237000A501CE010995E881F9810688F789E02D4C
:10238000CE01DF91CF911F910F91FF90EF90DF90E1
:10239000CF90BF90AF909F908F907F906F90099457
:1023A0006F927F928F929F92AF92BF92CF92DF9265
:1023B000EF92FF920F931F93CF93DF935C01EB019A
:1023C0006A01490138018701DC01ED91FC91621736
:1023D000730719F5641675062CF0962D872D3A01B2
:1023E000C92ED82E9601261937092F5F3F4F048C2E
:1023F000F58DE02DA301BE01C5010995DF91CF91B7
:102400001F910F91FF90EF90DF90CF90BF90AF9012
:102410009F908F907F906F9008954615570591F487
:102420002617370724F0892D4B01C22FD82F9E0184
:10243000281939092F5F3F4F068CF78DE02DA60133
:10244000B401DACF0284F385E02D0995D501ED9131
:10245000FC910488F589E02D83019401A601BE0159
:10246000C5010995D501ED91FC910688F789E02D0C
:10247000C501DF91CF911F910F91FF90EF90DF90F9
:10248000CF90BF90AF909F908F907F906F90099466
:10249000EF92FF920F931F93DC011A960D911C91FE
:1024A0001B9718962D913C911997ED91FC9100A0E6
:1024B000F1A1E02D7B0150E040E070E060E0099583
:1024C0001F910F91FF90EF9008954F925F926F923E
:1024D0007F928F929F92AF92BF92CF92DF92EF92B4
:1024E000FF920F931F93CF93DF936C012B015A013F
:1024F00039014801DC01ED91FC910284F385E02D66
:102500000995E201640C751CD601ED91FC91C6158C
:10251000D7055CF40088F189E02D87019401A501BD
:10252000BE01C60109952196EFCF0688F789E02DF7
:10253000C601DF91CF911F910F91FF90EF90DF9037
:10254000CF90BF90AF909F908F907F906F905F9053
:102550004F9009948F929F92AF92BF92CF92DF9249
:10256000EF92FF920F931F93CF93DF93EC015B01E8
:102570004A016901E881F9810284F385E02D09951A
:1025800095012C0D3D1D21503109E881F981048808
:10259000F589E02D78018401A401B501CE010995EA
:1025A000E881F9810688F789E02DCE01DF91CF918E
:1025B0001F910F91FF90EF90DF90CF90BF90AF9061
:1025C0009F908F9009948F929F92AF92BF92CF92DB
:1025D000DF92EF92FF920F931F93CF93DF93EC0163
:1025E0005B014A0169017801E881F9810284F38580
:1025F000E02D0995C80CD91C860101501109E8810C
:10260000F9810488F589E02D9501A401B501CE0179
:102610000995E881F9810688F789E02DCE01DF91DF
:10262000CF911F910F91FF90EF90DF90CF90BF90CF
:10263000AF909F908F900994EF92FF920F931F930A
:10264000DC01ED91FC9100A0F1A1E02D09951F9115
:102650000F91FF90EF9008950F931F93DC01ED9180
:10266000FC91068CF78DE02D09951F910F9108952F
:102670000F931F93DC01ED91FC91048CF58DE02DFF
:1026800009951F910F910895DC01ED91FC91008453
:10269000F185E02D09943F924F925F926F927F9265
:1026A0008F929F92AF92BF92CF92DF92EF92FF9262
:1026B0000F931F93CF93DF935C017B014A01690164
:1026C000390187E0680E711C93E0759467949A95C0
:1026D000E1F72B01400E511E10E000E0312CD0E05C
:1026E000C0E0CE0187709927330C892B59F4FE0185
:1026F00083E0F595E7958A95E1F7E00FF11FE80D86
:10270000F91D349037FE0AC021E030E0A701B50181
:102710006C0F7D1F8EEB93E00E9444132196CC1624
:10272000DD06F9F68FEFE81AF80A060D171DE41416
:10273000F504A9F6DF91CF911F910F91FF90EF90D3
:10274000DF90CF90BF90AF909F908F907F906F90D1
:102750005F904F903F9008952F923F924F925F92DB
:102760006F927F928F929F92AF92BF92CF92DF92A1
:10277000EF92FF920F931F93CF93DF9300D000D07F
:1027800000D0CDB7DEB73C016A013E832D83FC82C9
:10279000EB825801A41AB50AB7FE03C0B194A19404
:1027A000B1088D809E80861A970A97FE03C0919487
:1027B000819491088A149B045CF0902F812F0D81E5
:1027C0001E819D838E839C2D8D2D6B01692F782F0B
:1027D0000C151D055CF09D818E817E836D83692FB4
:1027E000782F902F812F8601C92ED82E1601201AFE
:1027F000310A2B012D813E81421A530A57FE03C034
:10280000519441945108710137FE03C03FEFE31A20
:10281000F30AF594E7948D819E81861797075CF5FE
:10282000A1E0B0E0BA83A983C016D1064CF1D30170
:10283000ED91FC910484F585E02D2B813C81A8016C
:102840006D817E818A149B041CF04D815E81B801EC
:10285000C3010995E418F508F7FE0AC02D813E81F1
:1028600089819A81280F391F3E832D83E20CF31C46
:102870000F5F1F4FD9CF2FEF3FEF3A832983D4CF7C
:1028800026960FB6F894DEBF0FBECDBFDF91CF9175
:102890001F910F91FF90EF90DF90CF90BF90AF907E
:1028A0009F908F907F906F905F904F903F902F9070
:1028B000089508952091A202260F3327331F213255
:1028C0003105ECF42091C602FC0190E080E0243058
:1028D00069F082E00895A091A2022191AC014E57C7
:1028E0005D4FA40FB52FB11D2C930196861798F359
:1028F0008091A202680F6093A20280E0089581E0B7
:1029000008951092C60281E08093C8021092C70217
:1029100061E082E00E94AE0861E083E00E94AE08C0
:10292000E9EBF0E080818E7F808380818D7F8083E2
:1029300088E48093B80085E48093BC000895CF9329
:10294000DF9391E0909381028823B9F0C091B800A1
:10295000D091BA008091BC008A7B8093BC0060E07B
:1029600082E00E94AE0860E083E00E94AE080E9410
:102970008114D093BA00C093B800DF91CF9108952D
:10298000E091060380910503E81730F4F0E0E45A83
:10299000FD4F808190E008958FEF9FEF0895909113
:1029A0000603809105032FEF3FEF981748F4E92FB6
:1029B000F0E0E45AFD4F208130E09F5F90930603E2
:1029C000C90108958091050390910603891B990B15
:1029D0000895CF92DF92EF92FF920F931F93CF93C0
:1029E000DF937C01CB018A0120914803222389F0E7
:1029F000EB016B01C40ED51ECC15DD0569F06991A4
:102A0000D701ED91FC910190F081E02DC70109956E
:102A1000F3CF642F0E945A14C801DF91CF911F9108
:102A20000F91FF90EF90DF90CF900895CF93DF93B9
:102A30001F92CDB7DEB76983209148032223F9F0B6
:102A400020914503203258F021E030E0FC0133832F
:102A5000228390E080E00F90DF91CF9108958091E4
:102A60004603E82FF0E0E45CFD4F998190838F5F8F
:102A7000809346038093450381E090E0ECCF61E0D2
:102A8000CE0101960E945A14F7CFCF92DF92EF92B7
:102A9000FF920F931F93CF93DF93D091450381E073
:102AA000D13208F09CC0C09147030E9418096B0105
:102AB0007C018091C60281116CC082E08093C602C5
:102AC00081E08093C8028FEF8093C5021092EA02E2
:102AD000D093E902ACE3B2E0E9ECF2E080E0D81395
:102AE0008DC01092EB028091EB02CC0FC82BC093EB
:102AF000EB028091C702813009F084C01092C702B6
:102B00000E9418096B017C018091EB028093BB004D
:102B100080917D0290917E02A0917F02B09180020F
:102B2000892B8A2B8B2BA1F00E94180900917D0222
:102B300010917E0220917F02309180026C197D09F4
:102B40008E099F09061717072807390708F442C09E
:102B50008091BC0083FDD8CF85EC8093BC000E949F
:102B600018096B017C018091C602823009F44CC0C7
:102B70008091C5028F3F09F469C08091C5028032FF
:102B800009F466C08091C502803309F463C084E013
:102B900026C080917D0290917E02A0917F02B0912B
:102BA0008002892B8A2B8B2B09F483CF0E94180972
:102BB00000917D0210917E0220917F02309180026F
:102BC0006C197D098E099F09061717072807390711
:102BD00008F06FCF80917C020E949F1485E01092D4
:102BE00046031092450310924803DF91CF911F9145
:102BF0000F91FF90EF90DF90CF9008959D9191936A
:102C00008F5F6DCF85EEA9CF80917D0290917E027E
:102C1000A0917F02B0918002892B8A2B8B2B09F423
:102C2000A2CF0E94180900917D0210917E0220918E
:102C30007F02309180026C197D098E099F09061769
:102C400017072807390708F08ECFC4CF80E0C7CF19
:102C500082E0C5CF83E0C3CFEF92FF920F931F9323
:102C6000CF93DF937C01C62F8091DB039091DC032F
:102C7000009709F459C02091DF0331E030934803F5
:102C8000209347031092460310924503DC01ED9117
:102C9000FC910190F081E02D60E009958701EE2420
:102CA000E394F12CD1E0C1508091DB039091DC03DF
:102CB000CF3F91F1B0E2EB16F104D8F00E94451538
:102CC0008091DB039091DC032091DF03D0934803D4
:102CD000209347031092460310924503DC01ED91C7
:102CE000FC910190F081E02D60E00995EE24E394E1
:102CF000F12C8091DB039091DC03F8016491DC01FD
:102D0000ED91FC910190F081E02D0995BFEFEB1A58
:102D1000FB0A0F5F1F4FC7CFDF91CF911F910F911C
:102D2000FF90EF900C944515E091EB03F091EC03CC
:102D300090818091F1038095892380838701C15020
:102D400008F438C0F80184912091D9033091DA0356
:102D5000232B29F00E945A0E0F5F1F4FF0CF28E05F
:102D600030E040E8E091E703F091E8039091EF0351
:102D7000582F5423D9F05081952B9083E091E9038B
:102D8000F091EA0390815091F003952B9083E091AC
:102D9000E903F091EA0350819091F0039095952317
:102DA0009083469521503109E9F6D6CF5081909510
:102DB0009523E3CFDF91CF911F910F91FF90EF907B
:102DC00008951F93CF93DF93EC018D8D9E8D009717
:102DD00021F1162F29A131E03093480320934703B6
:102DE0001092460310924503DC01ED91FC91019095
:102DF000F081E02D60E009958D8D9E8DDC01ED91D7
:102E0000FC910190F081E02D612F09958D8D9E8DB3
:102E1000DF91CF911F910C944515ADA5BEA59C9156
:102E20008BA9809589238C938B8D9C8D892B31F078
:102E3000862FDF91CF911F910C945A0E28E030E03D
:102E400080E8A9A5BAA599A9462F4823C1F04C91BD
:102E5000942B9C93ABA5BCA59C914AA9942B9C93C5
:102E6000ABA5BCA54C919AA9909594239C9386956B
:102E70002150310931F7DF91CF911F9108954C9185
:102E800090959423E6CFDF92EF92FF920F931F93DA
:102E9000CF93DF938091DB039091DC03892B09F4BE
:102EA000A5C02091F3033091F4034091F5035091B4
:102EB000F60360E074E284EF90E00E94C52E20519A
:102EC0003109410951095695479537952795209322
:102ED000B80064E080E09CE00E942C168091C20360
:102EE0009091C3038034910509F097C060E28EEBA6
:102EF00093E00E94E1166091C203615E8EEB93E065
:102F00000E94E1162091C4033091C503C9010796C0
:102F100097FD079633E0959587953A95E1F72091CF
:102F2000C2033091C303829F8001839F100D929F43
:102F3000100D1124C091DD03D091DE038091DB03DD
:102F40009091DC030C0F1D1F009709F498C020918D
:102F5000DF0331E030934803209347031092460388
:102F600010924503DC01ED91FC910190F081E02D80
:102F700060E40995EE24E394F12CDD24D394809150
:102F8000DB039091DC030C171D0709F44FC0B0E27E
:102F9000EB16F104D8F00E9445158091DB03909167
:102FA000DC032091DF03D092480320934703109263
:102FB000460310924503DC01ED91FC910190F081F4
:102FC000E02D60E40995EE24E394F12C8091DB037D
:102FD0009091DC036991DC01ED91FC910190F0810D
:102FE000E02D0995BFEFEB1AFB0AC9CF8091D903F9
:102FF0009091DA03892B31F08091FC039091FD03CD
:103000000E94610EE091ED03F091EE0390818091BA
:10301000F2038095892380835CCF60E08EEB93E0A0
:103020000E94E1166091C203615068CF0E9445156D
:103030008091DB039091DC03892B09F461C020911E
:10304000F7033091F8034091F9035091FA0360E0DF
:1030500074E284EF90E00E94C52E205131094109AD
:10306000510956954795379527952093B800DF91DC
:10307000CF911F910F91FF90EF90DF900895E09115
:10308000EB03F091EC0380819091F103892B808315
:103090000C171D0769F289912091D9033091DA0349
:1030A000232B19F00E945A0EF3CF28E030E040E8BD
:1030B000E091E703F091E8039091EF03582F542338
:1030C000D9F05081952B9083E091E903F091EA03C8
:1030D00090815091F003952B9083E091E903F0915A
:1030E000EA0350819091F003909595239083469543
:1030F00021503109E9F6CCCF508190959523E3CF4B
:10310000E091ED03F091EE0380819091F203892B21
:103110008083ADCF1F93CF93DF93EC01162F8D8D5E
:103120009E8D892BB1F12DA93EA94FA958AD60E024
:1031300074E284EF90E00E94C52E205131094109CC
:10314000510956954795379527952093B80066EA1B
:10315000111167EACE010E94E1168D8D9E8D892B9B
:1031600041F129AD3AAD4BAD5CAD60E074E284EF66
:1031700090E00E94C52E2051310941095109569510
:103180004795379527952093B800DF91CF911F91F0
:1031900008958B8D9C8D892B21F08EAD9FAD0E9463
:1031A000610EEFA5F8A990818CA980958923808371
:1031B000CECFEFA5F8A980819CA9892B8083E5CF8C
:1031C00090E080E00895FF920F931F93CF93DF93D9
:1031D000F82E062FC7E0D0E010E061E0802F0E94BB
:1031E000AE088F2D0E9485080C2E01C0880F0A940E
:1031F000EAF7182B60E0802F0E94AE08219768F74D
:10320000812FDF91CF911F910F91FF900895EF9241
:10321000FF920F931F93CF93DF938091A8030E9497
:103220008508892B31F060E070E0CB010E943D09F8
:10323000F4CFDFB7F8946091A7038091A8030E94B0
:10324000E318082F6091A7038091A8030E94E31858
:10325000C82F6091A7038091A8030E94E318182F3C
:10326000F12CE12C8091A9038E151F0479F070F0E8
:1032700061E08091A7030E94AE0860E08091A703FF
:103280000E94AE088FEFE81AF80AECCFDFBF6C2F70
:1032900070E090E080E0982F872F762F6627802BB4
:1032A000612B000F000B10E030E020E0302F2227D0
:1032B00011270027602B712B822B932BDF91CF914D
:1032C0001F910F91FF90EF900895FC010190002055
:1032D000E9F73197AF01481B590BBC018EEB93E026
:1032E0000C94B20ACF93DF93D0E0C0E0009719F0BE
:1032F0000E946519EC018AEA91E00E9465198C0F21
:103300009D1FDF91CF9108952091C4033091C50393
:10331000C901079697FD079623E0959587952A950D
:10332000E1F72091C2033091C303829FA001839FE4
:10333000500D929F500D112470E060E08091DD03EC
:103340009091DE030C94B4338F929F92AF92BF9210
:10335000CF92DF92EF92FF920F931F93CF93DF9361
:103360000E94841981E08093D2038093D30390E27A
:10337000A92E91E0B92ED12CC12CD0E0C0E0882438
:103380008394912C1092CB031092CA03D092CD0358
:10339000C092CC0380913203909133038C179D0728
:1033A00089F5EE24E394F12C08E010E023E730E007
:1033B000A60170E060E08EEB93E00E94651210922F
:1033C000D1031092D0031092CF031092CE03F501D7
:1033D000819191915F010E9472192196F8E0CF0EC0
:1033E000D11CC430D10571F6DF91CF911F910F919F
:1033F000FF90EF90DF90CF90BF90AF909F908F9015
:103400000C9443179092D1038092D0039092CF03F3
:103410008092CE03DCCF0E94A633FC018081918193
:10342000009711F00C94603208950C9460320F9361
:103430001F93CF93DF93EC0188819981009759F016
:103440002A813B812617370730F081E0DF91CF9149
:103450001F910F9108958B016F5F7F4F0E94E9329A
:10346000009759F0998388831B830A832C813D81BF
:10347000232B59F7FC011082E8CF80E0E7CFEF92D1
:10348000FF920F931F93CF93DF93EC01FB01E0803A
:10349000F180E114F10411F1048115810115110588
:1034A000A9F08C819D81080F191FB801CE010E94DF
:1034B000171A882399F0288139818C819D81B70161
:1034C000820F931F0E94BB331D830C83CE01DF91BB
:1034D000CF911F910F91FF90EF900895888199816E
:1034E000009711F00E946032198218821D821C829E
:1034F0001B821A82EBCFEF92FF920F931F93CF9311
:10350000DF93EC017B018A01BA010E94171A28811E
:103510003981811114C02115310519F0C9010E94AA
:103520006032198218821D821C821B821A82CE018F
:10353000DF91CF911F910F91FF90EF9008951D8320
:103540000C83B701C9010E94BB33F1CFEF92FF9208
:103550000F931F93CF93DF93CDB7DEB762970FB66C
:10356000F894DEBF0FBECDBF8C01CB01F8011182F4
:10357000108213821282158214824AE09E012F5F0C
:103580003F4F7901B9010E940B2DF70101900020F6
:10359000E9F73197AF014E195F09B701C8010E94E1
:1035A0007B1A62960FB6F894DEBF0FBECDBFDF91D7
:1035B000CF911F910F91FF90EF900895FC01118220
:1035C000108213821282158214826115710551F0E6
:1035D000FB0101900020E9F73197AF01461B570B23
:1035E0000C947B1A08952F923F924F925F926F92A4
:1035F0007F928F929F92AF92BF92CF92DF92EF9283
:10360000FF920F931F93CF93DF93CDB7DEB76497ED
:103610000FB6F894DEBF0FBECDBFE0903203F0903E
:10362000330321E0E216F10409F480C082E0E816D9
:10363000F10409F41CC1EF2809F01FC20E9484198B
:1036400082E08093D2038093D30381E090E0909353
:10365000D1038093D0039093CF038093CE03109235
:10366000CB031092CA031092CD031092CC03809129
:10367000300390913103892B09F418C28FEB91E04C
:103680000E9465196091200370912103CE0101967B
:103690000E94A61A67EB71E0CE0107960E94DE1A1F
:1036A000BE016F5F7F4FCE0107960E943F1A0E94B6
:1036B000DF0ACE0107960E940D1ACE0101960E94E4
:1036C0000D1A1092CB031092CA0380E190E0909300
:1036D000CD038093CC038091300390913103019707
:1036E00009F4E7C18FEB91E00E9465196091220314
:1036F00070912303CE0101960E94A61A6CEB71E033
:10370000CE0107960E94DE1ABE016F5F7F4FCE0189
:1037100007960E943F1A0E94DF0ACE0107960E9478
:103720000D1ACE0101960E940D1A9EC00E948419A6
:1037300081E08093D2038093D303F092D103E0928F
:10374000D003F092CF03E092CE031092CB031092FD
:10375000CA031092CD031092CC03E0912403F091A0
:103760002503EE0FFF1FE85DFE4F60817181CE01E2
:1037700001960E94DE1A6FEA71E0CE0107960E9460
:10378000DE1ABE016F5F7F4FCE0107960E943F1A7F
:103790000E94DF0A8AEA91E00E946519CE0107962D
:1037A0000E940D1ACE0101960E940D1AEE24E39498
:1037B000F12C07E010E02AE030E04CE150E06AE054
:1037C00070E08EEB93E00E94D0110CE110E029E64E
:1037D00030E04CE150E06AE070E08EEB93E00E9454
:1037E000D011F12CE12CE0912403F0912503EE0F90
:1037F000FF1FEE0FFF1FEE5CFE4F80809180A280C6
:10380000B380B7010F2C000C880B990B0E94472D39
:1038100020E030E04EEB52E40E948D2FA501940190
:103820000E943A3020E030E040EA51E40E94A62DA8
:103830009B01AC0160E070E080EE91E40E94202FDB
:103840000E94FF2FF7013A9621E030E0AB01BF0163
:103850008EEB93E00E94AA0D2FEFE21AF20A80E6A7
:10386000E816F10409F0BFCF0E94431706C10E9479
:10387000841981E090E09093D1038093D0039093DA
:10388000CF038093CE0320E030E04AE755E4609117
:1038900026037091270380912803909129030E94A9
:1038A0008D2F20E030E046EE52E40E94A62D0E94CB
:1038B000FF2F4B016B0120E030E04AE755E46091B7
:1038C0002A0370912B0380912C0390912D030E9469
:1038D0008D2F20E030E046EE52E40E94A62D0E949B
:1038E000FF2F2B01EE24E394F12C0CE010E023E7F2
:1038F00030E04AE050E070E060E08EEB93E00E9440
:1039000071119201281939094AE050E0B4018EEB97
:1039100093E00E94651281E08093D2038093D303E9
:1039200060912603709127038091280390912903C9
:103930000E94FF2FCE0107960E94A61A60912A03CB
:1039400070912B0380912C0390912D030E94FF2FE7
:10395000CE0101960E94A61A8D819E81892B81F04D
:103960008E01035F1F4F9E01215F3F4FAE014F5EEF
:103970005F4FBE016D5E7F4F89819A810E942E0646
:103980001092CB031092CA0308E110E01093CD030C
:103990000093CC03CE0107960E94DF0A2F85388959
:1039A00083E790E0821B930B9093CB038093CA0331
:1039B0001093CD030093CC03CE0101960E94DF0A41
:1039C00080912E0390912F03892B09F0620116013B
:1039D00023E0220E311C760183E0E81AF108412C25
:1039E000512C320134E0C32ED12C44E0842E912C92
:1039F000A12CB12CC301B201A50194010E94E72EB4
:103A0000B101620F731F88279927DC01841995097A
:103A1000A609B70922E0B595A795979587952A95A8
:103A2000D1F78E0D9F1D23E0421A510861087108DD
:103A3000861797072CF4362F272FBC01832F922F40
:103A4000861B970B9C012F5F3F4F01E010E0A60102
:103A50008EEB93E00E942C138FEFC81AD80A29E04E
:103A6000C216D10439F60E944317CE0101960E9476
:103A70000D1ACE0107960E940D1A64960FB6F8949F
:103A8000DEBF0FBECDBFDF91CF911F910F91FF9091
:103A9000EF90DF90CF90BF90AF909F908F907F90EE
:103AA0006F905F904F903F902F9008958DEA91E036
:103AB000E7CD8DEA91E018CE84E0E1ECF1E0DB01A6
:103AC00001900D928A95E1F784E0089585ED809349
:103AD000BC0080917D0290917E02A0917F02B09106
:103AE00080020796A11DB11D23E0B695A795979575
:103AF00087952A95D1F72091BC0024FD03C0109230
:103B0000C602089540917D0250917E0260917F022D
:103B100070918002452B462B472B69F30097A10536
:103B2000B10541F02AE22A95F1F700C00197A109F9
:103B3000B109E1CF80917C020C949F141F920F92E7
:103B40000FB60F9211242F933F938F939F93AF93B0
:103B5000BF9380913B0390913C03A0913D03B091B2
:103B60003E0330913A0323E0230F2D3758F5019699
:103B7000A11DB11D20933A0380933B0390933C0316
:103B8000A0933D03B0933E0380913F039091400387
:103B9000A0914103B09142030196A11DB11D8093F4
:103BA0003F0390934003A0934103B0934203BF911E
:103BB000AF919F918F913F912F910F900FBE0F90DA
:103BC0001F90189526E8230F0296A11DB11DD2CF94
:103BD0001F920F920FB60F9211242F933F934F9382
:103BE0005F936F937F938F939F93AF93BF93CF9385
:103BF000EF93FF93C091E1008091E100837F809378
:103C0000E100C3FF0FC01092E90081E08093EB0058
:103C10001092EC0082E38093ED001092440388E060
:103C20008093F000C2FF1BC083E00E947E09809158
:103C3000FD02882341F08091FD0281508093FD02B6
:103C4000811101C05D9A80914303882341F08091E6
:103C50004303815080934303811101C0289AC4FF1C
:103C600023C08091E2008E7E81608093E20080918B
:103C7000E1008F7E8093E1008091FE028E7E806164
:103C80008093FE02FF91EF91CF91BF91AF919F91F1
:103C90008F917F916F915F914F913F912F910F90F5
:103CA0000FBE0F901F901895C0FFECCF8091E200DF
:103CB0008E7E80618093E2008091E1008E7E809311
:103CC000E1008091FE028E7E8160DACF1F920F921A
:103CD0000FB60F921124CF92DF92EF92FF920F93C3
:103CE0001F932F933F934F935F936F937F938F9384
:103CF0009F93AF93BF93EF93FF93CF93DF93CDB792
:103D0000DEB76C97DEBFCDBF1092E9008091E8006E
:103D100083FF25C068E0CE0145960E94A50A82EF88
:103D20008093E8008D8987FF39C09091E80090FF6B
:103D3000FCCF982F907609F034C19E894F89588D19
:103D40002F89F88C911131C0803861F58091FF0284
:103D50008093F1001092F1008EEF8093E8006C9652
:103D60000FB6F894DEBF0FBECDBFDF91CF91FF91AC
:103D7000EF91BF91AF919F918F917F916F915F91E3
:103D80004F913F912F911F910F91FF90EF90DF90F6
:103D9000CF900F900FBE0F901F9018959EEF9093AD
:103DA000E800C7CF1092F100D5CF913059F48111BE
:103DB000D3CF4130510581F68091FF028D7F8093F2
:103DC000FF02CACF933049F48111C6CF413051056B
:103DD00019F68091FF028260F2CF953041F4809114
:103DE000E80080FFFCCF20682093E300B5CF963039
:103DF00009F0A9C00B8D1C8D22E01092E9001092F1
:103E0000FB021092FA02F2122EC01092F9021092E6
:103E1000F8020E94FC0A1F8299E09983FA8291E0DD
:103E20009E8390EA98879AEF99872091FA023091C1
:103E3000FB02275F3F4F3C832B838D831092E90069
:103E40001092FB021092FA021093F9020093F8020A
:103E500049E050E0BE016F5F7F4F80E00E94B909EA
:103E60000E94FC0A79CF1093F9020093F8020E9495
:103E7000E80ADC0112960D911C910115110509F457
:103E800051C1D801ED91FC910480F581E02DBE0176
:103E90006B5E7F4FC8010995009709F03EC1F8019C
:103EA00000851185EACFF3E0FF120EC08F898823C9
:103EB00009F440C0823061F440E869E08FE996E09F
:103EC0000E94B721811148CF81E28093EB0047CF58
:103ED000813029F440E868E086E996E0F1CF83304C
:103EE00099F70E94E80ADC011296ED90FC908E0191
:103EF0000F5F1F4F6801E114F10479F0D701ED91D4
:103F0000FC910680F781E02DB801C7010995080FE3
:103F1000111DF701E084F184EECFD8011C92F60167
:103F200001900020E9F73197BF016C197D0940E04D
:103F3000C601C6CF60E876E0FB01449150E080E81E
:103F40000E94B90909CF973009F4BECF983021F407
:103F500081E08093F10000CF993009F0FDCE8370AD
:103F600009F0B2CFE4E1F1E081E031E096E32191A4
:103F7000222371F08093E9003093EB00DF01119769
:103F80002C912093EC009093ED008F5F873079F7B0
:103F90008EE78093EA001092EA008F8980934403B1
:103FA000DBCE8B8D9C8D1092E9001092FB0210925B
:103FB000FA029093F9028093F802898D811192C0E0
:103FC0008E899D89913A49F4813209F07DCF47E08D
:103FD00050E06BE071E080E0B3CF913209F074CF34
:103FE000833269F48F89988DB0E0A0E0809300015E
:103FF00090930101A0930201B0930301ADCE8032F2
:1040000069F48091E80082FFFCCF67E08BE091E0EB
:104010000E94A50A8BEF8093E8009ECE823209F0C1
:104020009BCE8F8980931201EEEFFFE785919491EB
:104030008B3F9C4D51F1E0E0F8E080910B019091B5
:104040000C01A0910D01B0910E01803B9440A1059F
:10405000B105F1F48091120180FD1AC0EE3F8AE0B3
:10406000F80789F587E797E791838083809160005F
:104070008093FC0288E19BE00FB6F894A8958093AA
:1040800060000FBE9093600067CEEEEFFAE0D5CFF0
:10409000808191818737974709F05ECEA8958091FE
:1040A00060008861809360008091FC0280936000D2
:1040B000EE3F2AE0F20789F08091FE0A9091FF0A14
:1040C0009183808349CE808191818737980751F20F
:1040D0009093FF0A8093FE0AC5CF1092FF0A1092B8
:1040E000FE0A3ACE0E94E80ADC0112960D911C915C
:1040F0000115110509F4E8CED801ED91FC9101906C
:10410000F081E02DBE016B5E7F4FC80109958111E2
:1041100023CEF80100851185EBCF181619060CF493
:104120001BCED2CEF1E0FF12BECE64E876E004CF23
:104130001F920F920FB60F9211242F933F934F931C
:104140005F936F937F938F939F93AF93BF93EF93FF
:10415000FF938091B900887F803609F44AC0F0F55A
:10416000883209F4A7C018F5803109F49BC0B8F46F
:10417000882309F4F9C0883009F494C0FF91EF91C5
:10418000BF91AF919F918F917F916F915F914F916F
:104190003F912F910F900FBE0F901F90189588316F
:1041A00009F488C0803251F78093C50214C080346E
:1041B00009F49DC040F48033B9F38833F9F6809355
:1041C000C50285ECB0C0803509F485C0883509F496
:1041D00096C0883499F60E94661DD0CF883909F4BC
:1041E0008CC038F5883729F050F4883611F08037C4
:1041F00029F683E08093C6021092C40257C0883823
:1042000009F47BC0803919F0803809F0B7CF80916C
:10421000C402803208F071C0E091C40281E08E0FC8
:104220008093C4028091BB00F0E0EC55FD4F808389
:104230003DC0803B39F0E0F4803A09F479C0883A17
:1042400009F09CCF84E08093C6021092A3021092E2
:10425000A202E0910303F091040309958091A20268
:1042600081110FC081E08093A2021092820209C0E6
:10427000803C09F4A6CF883C09F4A3CF883B09F021
:104280007DCFE091A30281E08E0F8093A302F0E046
:10429000EE57FD4F80818093BB009091A3028091E7
:1042A000A20229C08091EB028093BB0085EC809331
:1042B000BC0064CF9091EA028091E902981758F50A
:1042C000E091EA0281E08E0F8093EA02F0E0E7538A
:1042D000FD4F8081E9CFE091EA0281E08E0F80936B
:1042E000EA028091BB00F0E0E753FD4F808390919C
:1042F000EA028091E9029817C8F285E8D8CFE091E8
:10430000EA0281E08E0F8093EA028091BB00F0E028
:10431000E753FD4F80838091C80281115CCF81E01B
:104320008093C70284EA8093BC001092C60226CF15
:1043300085EC8093BC001092C6028091C40280324A
:1043400030F4E091C402F0E0EC55FD4F1082609132
:10435000C40270E0E0910103F091020384EA92E06C
:1043600009951092C4020ACF1092C50234CFEF9281
:10437000FF920F931F93CF93DF93F82E192FE62E02
:10438000042F81E0860F880F0E948B0983E00E9432
:104390008B09CF2DD12FEC0EFD2EF11CCE15DF0594
:1043A000B9F007FF13C0FE0184910E948B09182FFA
:1043B00080E00E948B09812321968111EFCFDF914C
:1043C000CF911F910F91FF90EF9008958881EDCFCD
:1043D00081E0F5CF0F931F93CF93DF938C01D0E053
:1043E000C0E0F801EC0FFD1F6491662341F08EEBF5
:1043F00093E00E949F10892B11F02196F2CF8AEA58
:1044000091E00E9465198C0F9D1FDF91CF911F9144
:104410000F910895CF93DF9310924C0310924B03AA
:1044200088EE93E0A0E0B0E080934D0390934E03BC
:10443000A0934F03B09350038AE491E090934A0312
:10444000809349038FEF9FEF90935603809355031A
:1044500082E080939D0380939E0383EA93E0909390
:10446000A00380939F031092A2031092A1038CE5F6
:1044700091E090939A038093990380E88093A3033B
:1044800081E88093A4030E94E80AFC018181909155
:104490009D03482F490F5527551F483051059CF55E
:1044A000A281B381109709F529E933E03383228390
:1044B000208120939B0380939C0380919E03820F15
:1044C000808320919F03A22FB091A0038A2F821B8B
:1044D0008917C8F481813D91C82FD0E0CD5EDE4FB1
:1044E00038838F5F8183F2CFD90118962D913C914B
:1044F000199721153105C1F729E933E019963C9345
:104500002E931897D5CF1092B5031092B40388EE6E
:1045100093E0A0E0B0E08093B6039093B703A0933C
:10452000B803B093B90388E691E09093B303809306
:10453000B2031092C1031092C00320E830E0309320
:10454000C3032093C20380E290E09093C50380935D
:10455000C4033093C7032093C6039093C903809389
:10456000C8031092D4031092CB031092CA03109286
:10457000CD031092CC0381E08093D3038093D203C8
:104580002FEF3FEF3093D1032093D0033093CF032D
:104590002093CE038093D5031092D6031092D803B4
:1045A0001092D70382E891E09093BF038093BE03FB
:1045B0001092DA031092D90382EB93E09093DC031C
:1045C0008093DB031092DE031092DD038FEF809364
:1045D000E2038093E3038093E4038093E5038093F5
:1045E000E60380E89AE1A6E0B0E08093F3039093BD
:1045F000F403A093F503B093F60380EA96E8A1E0F4
:10460000B0E08093F7039093F803A093F903B0937D
:10461000FA0380E58093FC031092FD038AE791E0A2
:104620009093A6038093A5031092AA031092AB0364
:104630001092AC031092AD0380E090E0A0E8BFE3DD
:104640008093AE039093AF03A093B003B093B103F4
:10465000DF91CF910895CF93DF93CDB7DEB72E973B
:104660000FB6F894DEBF0FBECDBF789484B58260DC
:1046700084BD84B5816084BD85B5826085BD85B506
:10468000816085BD80916E00816080936E00109284
:1046900081008091810082608093810080918100FF
:1046A0008160809381008091800081608093800090
:1046B000809191008260809391008091910081604F
:1046C0008093910080919000816080939000809110
:1046D000C10084608093C1008091C100826080939A
:1046E000C1008091C10081608093C1008091C300AE
:1046F00081608093C3008091C00082608093C0007D
:104700008091C20081608093C20080917A008460B1
:1047100080937A0080917A00826080937A00809101
:104720007A00816080937A0080917A00806880931B
:104730007A00109244031092FF021092FE028091C0
:10474000D70081608093D70080EA8093D80089B534
:10475000806189BD89B5826089BD09B400FEFDCF45
:1047600061E070E080E090E00E943D098091D80017
:104770008F7C80618093D8008091E000807F80935F
:10478000E0008091E1008E7E8093E1008DE08093D7
:10479000E200559A209A62E084E10E94DC0862E01F
:1047A00085E10E94DC0862E083E10E94DC0810924F
:1047B00006031092050310924603109245030E94CF
:1047C00081148CE799E090930403809303038DE7B1
:1047D00099E090930203809301038CE08093B800EA
:1047E0008091DD039091DE03892B11F52091C403A4
:1047F0003091C503C901079697FD0796B3E09595DB
:104800008795BA95E1F72091C2033091C303AC01BB
:10481000429FC001439F900D529F900D11240E9412
:10482000C4319093DE038093DD03892B09F4B1C377
:104830000E9484192091C4033091C5038091C20362
:104840009091C303B901213231050CF48AC260543E
:10485000710977FF02C06F5F7F4F7595679582552D
:10486000910997FD019600E410E022E530E04BE964
:1048700058E0959587950E944B1382E08093E00362
:104880008091DB039091DC03892B09F47DC28CE3DA
:104890008093DF03109206031092050310924603E3
:1048A000109245030E9481148CE799E090930403D1
:1048B000809303038DE799E09093020380930103B3
:1048C0008091E60387FD1EC061E00E94DC0861E084
:1048D0008091E6030E94AE0861E070E080E090E025
:1048E0000E943D0960E08091E6030E94AE086AE004
:1048F00070E080E090E00E943D0961E08091E60375
:104900000E94AE088091DB039091DC03892B09F4AF
:10491000FAC22091F3033091F4034091F5035091D2
:10492000F60360E074E284EF90E00E94C52E20510F
:104930003109410951095695479537952795209397
:10494000B80064E087EB96E00E942C166091C403E7
:1049500061508EEB93E00E94E11664E083EB96E0F9
:104960000E942C168091E00360E1813009F064E13F
:104970008EEB93E00E94E11664E08FEA96E00E94DD
:104980002C168FE88093FB038091C2039091C303A0
:104990008038910509F0CEC28091C4039091C5037F
:1049A0008034910509F0D6C28091E003813009F08E
:1049B000E4C28FE98093FB0312E16AED8EEB93E092
:1049C0000E94E116612F8EEB93E00E94E11661E8F0
:1049D0008EEB93E00E94E1166091FB038EEB93E077
:1049E0000E94E11669ED8EEB93E00E94E116809142
:1049F000E00362E2813009F061EF8EEB93E00E9408
:104A0000E11666E089EA96E00E942C168091DB03AD
:104A10009091DC03892B09F4B2C22091F703309105
:104A2000F8034091F9035091FA0360E074E284EFD7
:104A300090E00E94C52E2051310941095109569537
:104A40004795379527952093B8000E94841981E0F7
:104A500090E09093D1038093D0039093CF03809301
:104A6000CE03DD24D394D092D203D092D3038E010F
:104A70000F5F1F4F9E01295F3F4FAE01475F5F4FA2
:104A8000BE01655F7F4F86EC91E00E942E06F3E742
:104A9000EF2EF12C8F819885F701E81BF90BCF01E0
:104AA000969587959093CB038093CA031092CD037C
:104AB0001092CC0386EC91E00E94721982E0809300
:104AC000D2038093D3039E01295F3F4FAE01475F1E
:104AD0005F4FBE01655F7F4F8EEC91E00E942E0616
:104AE0008F8198859701281B390BC9019695879569
:104AF0009093CB038093CA0388E090E09093CD031A
:104B00008093CC038EEC91E00E947219D092D20374
:104B1000D092D3039E01295F3F4FAE01475F5F4FA5
:104B2000BE01655F7F4F87ED91E00E942E068F8169
:104B30009885E81AF90AF694E794F092CB03E0928C
:104B4000CA0388E190E09093CD038093CC0387ED76
:104B500091E00E9472190E94431760ED77E080E0B7
:104B600090E00E943D098AE08093A70382E1809350
:104B7000A80361E08AE00E94DC0860E08091A8035D
:104B80000E94DC0883E08093A90380E090E0AAE71C
:104B9000B4E48093AE039093AF03A093B003B093BB
:104BA000B1031AE0C12CD12C76010E940719C60E60
:104BB000D71EE81EF91E60E070E0CB010E943D099F
:104BC000115099F7C701B6012AE030E040E050E00B
:104BD0000E94E72ECA01B9010E94472D0E94FF2FB3
:104BE0006093AA037093AB038093AC039093AD03DF
:104BF000E0E2EE2EE3E0FE2E10E000E0C8010E94AD
:104C0000642EF70181937F010F5F1F4F0E30110556
:104C1000A9F780912003909121030197409730F0EC
:104C200081E090E090932103809320038091220300
:104C3000909123038038910530F081E090E09093CB
:104C400023038093220380912403909125030597E9
:104C500030F083E090E09093250380932403C0908C
:104C60002603D0902703E0902803F0902903A701A2
:104C70009601C701B6010E948A30811113C020E05D
:104C800030E0A901C701B6010E94402D87FD0AC08E
:104C900020E030E04AE755E4C701B6010E94353014
:104CA000181664F480E090E0A0E2B2E4809326035A
:104CB00090932703A0932803B0932903C0902A035D
:104CC000D0902B03E0902C03F0902D03A7019601C8
:104CD000C701B6010E948A30811121C020E030E076
:104CE000A901C701B6010E94402D87FD18C020E030
:104CF00030E04AE755E4C701B6010E943530181686
:104D000074F020912603309127034091280350919D
:104D10002903C701B6010E94402D181664F080E0F7
:104D200090E0A6E9B4E480932A0390932B03A09328
:104D30002C03B0932D0322242394312C85E10E946F
:104D40008508BB24B394009709F4B12C2091040189
:104D5000222309F42DC3892B09F41CC110E000E0C3
:104D600046C16052710977FF02C06F5F7F4F759532
:104D700067958357910997FD019600E210E023E7BC
:104D800030E04BEB56E075CD61E08091E4030E948A
:104D9000DC0861E08091E5030E94DC088091E40377
:104DA000082E000C990BFC01EC55F44FE491F0E057
:104DB000EE0FFF1FE857F44F259134913093EC0329
:104DC0002093EB03FC01ED53F44FE491E093F103E6
:104DD0008091E503082E000C990BFC01EC55F44F73
:104DE000E491F0E0EE0FFF1FE857F44FA591B49166
:104DF000B093EE03A093ED03FC01ED53F44FE49167
:104E0000E093F2038C91E82BEC938091D90390917D
:104E1000DA03892B09F434C01FB7F894809100039A
:104E2000811127C0E5EBFBE08491E4EDFBE0949178
:104E3000E82FF0E0EE0FFF1FE658F44FA591B49174
:104E4000EC91E92321F461E081E10E94AE0861E088
:104E500081E10E94DC088CB580618CBD8CB58064DA
:104E60008CBD61E08FE00E94DC0861E080E10E947F
:104E7000DC08809100038F5F809300031FBF20CD6B
:104E800061E08091E2030E94DC0861E08091E3032D
:104E90000E94DC088091E203082E000C990BFC01B3
:104EA000EC55F44FE491F0E0EE0FFF1FE857F44F9C
:104EB000259134913093E8032093E703FC01ED53EF
:104EC000F44FE491E093EF038091E303082E000C8C
:104ED000990BFC01EC55F44FE491F0E0EE0FFF1F4D
:104EE000E857F44FA591B491B093EA03A093E90376
:104EF000FC01ED53F44FE491E093F0038C91E095C5
:104F0000E823EC93DDCC8091D9039091DA03892BCF
:104F100031F08091FC039091FD030E94610EE091BD
:104F2000ED03F091EE0390818091F2038095892347
:104F3000808307CD8036910589F48091C4039091D8
:104F4000C503409739F48091E003813029F480E172
:104F50008093FB0312E031CD8FEAFACF80349105C4
:104F6000C9F78091C4039091C503809799F7809108
:104F7000E003813011F480E11DCD8FEC1BCDE09179
:104F8000ED03F091EE0380819091F203892B8083F1
:104F90005CCDFFCF0E94700960930E0370930F03E6
:104FA000809310039093110310920D0380910D03D1
:104FB0008111D4CE0E94700900910E0310910F034D
:104FC0002091100330911103601B710B820B930B26
:104FD000683E73408105910508F4C0CE21E020931E
:104FE0000D0310920C0310920B0303E010E0E0900D
:104FF0000B03F0900C031E141F04F4F40E947009BC
:1050000040900703509008036090090370900A03D2
:1050100064197509860997096D32714081059105FA
:1050200058F001E010E0EA94EF2811F002E010E0FF
:1050300010920C0310920B03B0920401809138037C
:10504000909139030330110509F0E2C118161906D1
:105050000CF042C060E2E62E63E0F62E10E000E0C5
:10506000F701B1907F01C8010E94642EB81621F0AB
:105070006B2DC8010E946C2E0F5F1F4F0E30110563
:1050800079F710923903109238030E948419109214
:10509000CB031092CA0328E030E03093CD03209375
:1050A000CC0332E03093D2033093D30389EE91E006
:1050B0000E9472190E94431768EE73E080E090E04E
:1050C0000E943D090E947009609334037093350378
:1050D000809336039093370380913803909139037E
:1050E0008130910509F437C2029709F48DC20E94FC
:1050F00007194B015C0160E070E0CB010E943D09A3
:105100008091AA039091AB03A091AC03B091AD0341
:10511000A5019401281B390B4A0B5B0BCA01B9018D
:105120000E94472D2091AE033091AF034091B00310
:105130005091B1030E948D2F4B015C0140900701FB
:10514000509008016090090170900A0120E030E061
:10515000A901C301B2010E94402D87FF23C48092A0
:10516000070190920801A0920901B0920A014090B3
:105170000701509008016090090170900A01809029
:10518000260390902703A0902803B0902903A5013F
:105190009401C301B2010E94402DF12CE12C18169C
:1051A000ECF5C0902A03D0902B03E0902C03F090F4
:1051B0002D03A7019601C301B2010E94353087FF7C
:1051C00012C4A5019401C301B2010E94202F2B013A
:1051D0003C01A5019401C701B6010E94202F9B014B
:1051E000AC01C301B2010E948D2FE0912403F09124
:1051F0002503EE0FFF1FEE0FFF1FEE5CFE4F208119
:105200003181428153810E943A3020E030E04EEFFC
:1052100052E40E94A62D0E94FF2F7B018091050180
:10522000909106018E159F05F9F080912003815021
:105230008F70806B909122032BE029838A839B835C
:10524000EC8280919C0344E050E0BE016F5F7F4F91
:105250008F5F0E94F50980919C038F5F0E947E09F9
:10526000F0920601E09205010E947009009134035A
:10527000109135032091360330913703601B710B79
:10528000820B930B643671058105910508F4B4C156
:105290000E94700960933403709335038093360342
:1052A000909337030E94841932E03093D2033093F5
:1052B000D3033092D1032092D0033092CF032092B7
:1052C000CE0360EF71E0CE0101960E94DE1A8D815F
:1052D0009E81892B81F08E01095F1F4F9E01275F00
:1052E0003F4FAE01455F5F4FBE01635F7F4F8981D6
:1052F0009A810E942E0689859A8543E750E0481BD3
:10530000590BCA01969587959093CB038093CA0356
:105310001092CD031092CC03CE0101960E94DF0AB9
:105320008AEA91E00E946519B701FF0C880B990B7E
:105330000E94472D20E030E04EEF52E40E948D2F76
:1053400020E030E046EE52E40E94A62D4B015C01C5
:1053500020E030E0A9010E94353020E030E040E05C
:105360005FE387FD44C3C501B4010E94212F0E9461
:10537000FF2FEE24E394F12C00E110E09B0140E1CB
:1053800050E070E060E08EEB93E00E94651223E74E
:1053900030E040E150E070E060E08EEB93E00E948E
:1053A00071110E944317CE0101960E940D1A24C16B
:1053B000892B09F4FBCD80910D038111CFCC009195
:1053C0000B0310910C030E94700940900E03509043
:1053D0000F0360901003709011036419750986091A
:1053E0009709683E73408105910508F0B7CC0F5FBF
:1053F0001F4F10930C0300930B030E9470096093DE
:105400000703709308038093090390930A03A6CCC3
:105410000130110509F08EC0009739F4109339035B
:10542000009338030E94A41957CE8130910509F0EA
:1054300058C080913203909133038330910509F075
:105440003AC00E94841981E08093D2038093D303F1
:105450001093D1030093D0031093CF030093CE0396
:105460001092CB031092CA0388E090E09093CD0392
:105470008093CC0389E69BE00E94EA218BE59BE0C8
:105480000E94EA210E94431768EE73E080E090E0FA
:105490000E943D0987E797E79093010880930008F1
:1054A00088E198E00FB6F894A895809360000FBE4D
:1054B00090936000FFCF42E050E050933903409357
:1054C0003803009739F410923103109230030E9490
:1054D000F31A02CE0297D9F710922F0310922E03DF
:1054E000F6CF029709F0F8CD809132039091330303
:1054F000892B61F48091300390913103081B190BC3
:1055000010933103009330030E94F31A8091320309
:1055100090913303029709F0DFCD80912E03909193
:105520002F03E1E0F0E0E81BF90BF0932F03E09389
:105530002E03CDCF0230110509F0CECD1816190675
:105540000CF0CACD019790933903809338030197EB
:1055500009F0C2CD67CF0E9470094B015C018091B8
:10556000120390911303A0911403B0911503A501A8
:105570009401281B390B4A0B5B0BDA01C901883CEB
:105580009105A105B105C0F184E10E948508892B30
:10559000B9F48091320390913303039664E070E094
:1055A0000E94B12E909333038093320380921203B2
:1055B00090921303A0921403B09215030E94A419B1
:1055C00083E10E948508892BB9F480913203909180
:1055D0003303019664E070E00E94B12E9093330390
:1055E000809332038092120390921303A0921403CB
:1055F000B09215030E94A41980E090E0892B09F471
:105600009DCB0E9400009ACB0E9470094B015C0167
:1056100084E10E948508892B09F0A7C080911F03AF
:10562000811136C031E030931F0380921B039092AA
:105630001C03A0921D03B0921E0380921703909248
:105640001803A0921903B0921A038091320390912B
:1056500033038130910509F499C08230910509F432
:10566000A3C0892B99F48091300390913103892B49
:1056700009F07EC080912003909121038230910532
:105680002CF00197909321038093200311E02CC00C
:1056900080911B0390911C03A0911D03B0911E03E8
:1056A000A5019401281B390B4A0B5B0BDA01C901D8
:1056B00081399140A105B105B0F080911703909117
:1056C0001803A0911903B0911A03A5019401281B96
:1056D000390B4A0B5B0BDA01C90185369105A1052F
:1056E000B10508F0AACF10E083E10E948508892B5C
:1056F00009F0DFC0809116038111ACC031E0309316
:10570000160380921B0390921C03A0921D03B0927B
:105710001E038092170390921803A0921903B0926F
:105720001A0380913203909133038130910509F47B
:10573000D1C08230910509F4DBC0892B99F48091A6
:10574000300390913103892B09F0B6C0809120037A
:1057500090912103803191052CF4019690932103BF
:10576000809320030E94F31A47CF10921F03BBCFF0
:105770008091220390912303181619060CF086CF0E
:105780000197909323038093220380CF8091240379
:1057900090912503049665E070E00E94B12E9093ED
:1057A00025038093240372CF609126037091270311
:1057B000809128039091290320912E0330912F038B
:1057C000232BD9F420E030E040E252E40E94202F65
:1057D0002B013C0120E030E0A9010E94402D87FF11
:1057E00003C0412C512C32014092260350922703D2
:1057F000609228037092290349CF20E030E040E214
:1058000052E40E94212F7B018C0120E030E040E235
:1058100052E460912A0370912B0380912C039091A4
:105820002D030E94202F2B013C019B01AC01B701ED
:10583000C8010E943530181614F427013801C2013E
:10584000D30180932A0390932B03A0932C03B0934E
:105850002D031CCF80911B0390911C03A0911D036D
:10586000B0911E03A5019401281B390B4A0B5B0B59
:10587000DA01C90181399140A105B105B0F08091EB
:10588000170390911803A0911903B0911A03A50171
:105890009401281B390B4A0B5B0BDA01C9018536D1
:1058A0009105A105B10508F034CF112309F4A4CE68
:1058B00059CF10921603F9CF8091220390912303C0
:1058C0008F3791050CF04ECF019690932303809370
:1058D000220348CF8091240390912503019665E02F
:1058E00070E00E94B12E90932503809324033ACF59
:1058F00060912A0370912B0380912C0390912D03CA
:1059000020912E0330912F03232B69F520E030E006
:1059100040E252E40E94202F4B015C0120E030E085
:1059200040E252E46091260370912703809128039E
:10593000909129030E94212F7B018C019B01AC01D6
:10594000B401C5010E94402D87FF02C0740185018A
:10595000C701D8018093260390932703A0932803BF
:10596000B0932903FFCE20E030E040E252E40E94F1
:10597000212F4B015C0120E030E04AE755E40E9412
:105980003530181634F4812C912C5AE7A52E55E4A5
:10599000B52E80922A0390922B03A0922C03B092F2
:1059A0002D03E0CE2DEC3CEC4CE45EE3C501B401EC
:1059B0000E94A62D4B015C012DEC3CEC4CE45FE316
:1059C000C301B2010E94A62D9B01AC01C501B40127
:1059D0000E94212F609307017093080180930901B1
:1059E00090930A01C4CB3FE7E32EF12C17CCC501FD
:1059F000B4010E94202FBBCC82E891E09093BF03BA
:105A00008093BE038091DD039091DE03009711F037
:105A10000C9460320895BB274A3031F4992322F464
:105A2000BDE2909581959F4F0C94172DBB27FB01EC
:105A30005527AA27880F991FAA1FA41710F0A41B87
:105A400083955051B9F7A05DAA3308F0A95DA193E1
:105A5000009779F7B111B1931192CB010C94302DCD
:105A6000DC01FC01672F71917723E1F7329704C0C5
:105A70007C916D9370836291AE17BF07C8F3089550
:105A80000E94822D08F481E00895E89409C097FBF4
:105A90003EF490958095709561957F4F8F4F9F4F05
:105AA0009923A9F0F92F96E9BB279395F695879549
:105AB00077956795B795F111F8CFFAF4BB0F11F40C
:105AC00060FF1BC06F5F7F4F8F4F9F4F16C08823B3
:105AD00011F096E911C0772321F09EE8872F762FE9
